:020000040000FA
:1040000068120020654100006D4100006F41000012
:1040100000000000000000000000000000000000A0
:1040200000000000000000000000000071410000DE
:104030000000000000000000734100007541000016
:104040007741000077410000774100007741000090
:104050007741000077410000774100007741000080
:104060007741000077410000774100007741000070
:104070007741000077410000774100007741000060
:104080007741000077410000774100007741000050
:104090007741000077410000774100007741000040
:1040A0007741000077410000774100007741000030
:1040B0007741000077410000774100007741000020
:1040C00000F002F800F03EF80CA030C808382418C0
:1040D0002D18A246671EAB4654465D46AC4201D140
:1040E00000F030F87E460F3E0FCCB6460126334234
:1040F00000D0FB1AA246AB46334318479414000085
:10410000B4140000103A02D378C878C1FAD8520724
:1041100001D330C830C101D504680C60704700007D
:104120000023002400250026103A01D378C1FBD8D3
:10413000520700D330C100D50B6070471FB51FBDBB
:1041400010B510BD00F02DF81146FFF7F7FF01F094
:104150000DFA00F045F803B4FFF7F2FF03BC00F0DE
:104160004BF800000748804707480047FEE7FEE796
:10417000FEE7FEE7FEE7FEE704480549054A064B71
:104180007047000001550000C14000006800002099
:104190006812002068020020680200207047704703
:1041A0007047754600F024F8AE4605006946534650
:1041B000C008C000854618B020B5FFF7DDFF60BC21
:1041C00000274908B6460026C0C5C0C5C0C5C0C541
:1041D000C0C5C0C5C0C5C0C5403D49008D4670477B
:1041E00010B50446C046C0462046FFF7B4FF10BDD8
:1041F000004870470400002001491820ABBEFEE7CC
:104200002600020070470000012806D106494968CF
:1042100001221143044A516005E0034949684908F5
:104220004900014A5160704700280140012806D129
:104230000649096801221143044A116005E0034957
:10424000096849084900014A116070470028014087
:104250007FB506460D4614466A462946304600F0AC
:1042600073FB0098A84227D16846C079002823D163
:10427000E007C00F002803D16846407900281BD111
:10428000E007C00F002803D068464079012813D109
:1042900002202040002803D16846807900280BD1F5
:1042A00002202040002803D068468079012803D1ED
:1042B0006846007902281DD0029500206946C8731F
:1042C000E007C00F002801D1487302E001206946D1
:1042D000487302202040002802D16946887302E01A
:1042E00001206946887302206946087302A9304696
:1042F00000F0ACFB7FBD02461068884202D011601E
:10430000012070470020FCE700B507490748FFF788
:10431000F2FF05490548001DFFF7EDFF024903487C
:104320000830FFF7E8FF00BD0000FFFFE00C004091
:1043300010B5FFF7E9FF002000F050FB002000F06F
:104340005FFB032000F0F2FA00F0D9FB00F0EBFB7A
:1043500000F037FC0121BC4800F05CFA0221BA48A9
:1043600000F058FA0421B84800F054FA0821B64881
:1043700000F050FA1021B44800F04CFA2021B24865
:1043800000F048FA4021B04800F044FA8021AE48DD
:1043900000F040FAFF210131AB4800F03BFA012167
:1043A0004902A94800F036FA01218902A64800F026
:1043B00031FA0121C902A44800F02CFA01210903B5
:1043C000A14800F027FA012149039F4800F022FA92
:1043D000012189039C4800F01DFA0121C9039A4874
:1043E00000F018FA01219848203000F013FA022159
:1043F0009548203000F00EFA04219348203000F058
:1044000009FA08219048203000F004FA10218E4863
:10441000203000F0FFF920218B48203000F0FAF91D
:1044200040218948203000F0F5F98021864820306D
:1044300000F0F0F9FF2101318348203000F0EAF963
:10444000012149028048203000F0E4F9012189026D
:104450007D48203000F0DEF90121C9027A48203081
:1044600000F0D8F9012109037748203000F0D2F993
:10447000012149037448203000F0CCF9012189035F
:104480007148203000F0C6F90121C9036E48203080
:1044900000F0C0F904216C48403000F0BBF908215D
:1044A0006948403000F0B6F910216748403000F00C
:1044B000B1F920216448403000F0ACF94021624855
:1044C000403000F0A7F980215F48403000F0A2F9A9
:1044D000FF2101315C48403000F09CF90121490284
:1044E0005948403000F096F9012189025648403081
:1044F00000F090F90121C9025348403000F08AF9D8
:10450000012109035048403000F084F9012149039A
:104510004D48403000F07EF9012189034A4840307F
:1045200000F078F90121C9034748403000F072F9E2
:1045300001214548603000F06DF9022142486030A9
:1045400000F068F904214048603000F063F9082168
:104550003D48603000F05EF910213B48603000F0CB
:1045600059F920213848603000F054F9402136488C
:10457000603000F04FF980213348603000F04AF994
:1045800004213148803000F045F908212E48803060
:1045900000F040F910212C48803000F03BF9082150
:1045A0002948A03000F036F910212748A03000F04B
:1045B00031F920212448A03000F02CF94021224874
:1045C000A03000F027F90121C9021F48A03000F0F7
:1045D00021F9012109031C48A03000F01BF9012139
:1045E00049031948A03000F015F901218903164844
:1045F000A03000F00FF90121C9031348A03000F0EA
:1046000009F904211048C03000F004F908210E48CF
:10461000C03000F0FFF840210B48C03000F0FAF83D
:1046200080210948C03000F0F5F80022FF21013157
:104630000548C030FFF70CFE002201214902024864
:10464000C030FFF705FE10BD000C004010B5012181
:104650006F4800F0DFF802216D4800F0DBF8FF2121
:1046600001316B48203000F0D5F80121490268483B
:10467000203000F0CFF8012189026548203000F099
:10468000C9F80121C9026248203000F0C3F80121B5
:1046900009035F48203000F0BDF8012149035C4860
:1046A000203000F0B7F8012189035948203000F08C
:1046B000B1F80121C9035648203000F0ABF80121C0
:1046C0005348403000F0A6F802215148403000F035
:1046D000A1F820214E48403000F09CF840214C4881
:1046E000403000F097F880214948403000F092F8BF
:1046F000FF2101314648403000F08CF80121490289
:104700004348403000F086F801218902404840309B
:1047100000F080F80121C9023D48403000F07AF8ED
:10472000012109033A48403000F074F8012149039F
:104730003748403000F06EF801218903344840309A
:1047400000F068F80121C9033148403000F062F8F8
:1047500001212F48603000F05DF802212C486030C4
:1047600000F058F804212A48603000F053F8802106
:104770002748603000F04EF8FF21013124486030B6
:1047800000F048F8012149022148603000F042F869
:10479000012189021E48603000F03CF801211C48CC
:1047A000803000F037F802211948803000F032F8EC
:1047B00010211748803000F02DF820211448803057
:1047C00000F028F8012189021148803000F022F819
:1047D0000121C9020E48803000F01CF801210903B4
:1047E0000B48803000F016F801214903084880305A
:1047F00000F010F8012189030548803000F00AF824
:104800000121C9030248803000F004F810BD000007
:10481000400C00407CB504460D466A4629462046B9
:1048200000F092F868460079012809D02946204610
:1048300000F058F901222946204600F001FC08E06A
:1048400001222946204600F0FBFB2946204600F0C5
:1048500049F97CBD0146054A1068800880008A0736
:10486000920F1043014A1060704700000010004092
:104870000146054A106840084000CA07D20F10439D
:10488000014A106070470000000D00400146064AD2
:104890001068022302469A43104602220A4010433F
:1048A000014A106070470000000D00400146064AB2
:1048B0001068042302469A43104604220A4010431B
:1048C000014A106070470000000D00400146064A92
:1048D0001068082302469A43104608220A401043F3
:1048E000014A106070470000000D00400146064A72
:1048F0001068102302469A43104610220A401043C3
:10490000014A106070470000000D00400146064A51
:104910001068202302469A43104620220A40104382
:10492000014A106070470000000D00400146054A32
:10493000906B000900010A07120F1043014A9063AF
:1049400070470000C00C0040F0B50446002500236D
:1049500007E001269E400E403546002D00D002E0C3
:104960005B1C102BF5D300BF102B36D21D461160F7
:1049700026680E403046E840012802D10126D67153
:1049800001E00026D67166680E40EE4030460128F0
:1049900001D1967101E000269671A6680E40EE40A6
:1049A0003046012801D1567101E000265671E668B3
:1049B0006F00FE40B007800F002802D1002616715C
:1049C0000BE0012802D10126167106E0022802D16F
:1049D0000226167101E003261671F0BD012806D1EA
:1049E0000649C96B01221143044AD16305E003491A
:1049F000C96B49084900014AD1637047C00C0040A7
:104A0000012806D10649C96B02221143044AD16329
:104A100005E00349C96B02229143014AD163704703
:104A2000C00C0040012907D1074A52680123834086
:104A30001A43054B5A6006E0034A5268012383403B
:104A40009A43014B5A607047000D0040F0B5024692
:104A50000B4600210024002500BF2DE001268E40DA
:104A600034461E6826403546A54224D110680646C5
:104A7000A6433046DE798E403043106050680646CB
:104A8000A64330469E798E4030435060906806467B
:104A9000A64330465E798E40304390604F00032637
:104AA000BE403446D0680646A64330461E794F00C5
:104AB000BE403043D060491C1029CFD3F0BD000068
:104AC000012905D1054A92680243044B9A6004E02B
:104AD000024A92688243014B9A607047000D004081
:104AE000816170474161704702690A40002A01D024
:104AF000816100E0416170478AB20261704710B580
:104B00000020FFF703FF0020FFF7F0FE0020FFF773
:104B1000DDFE0020FFF7CAFE0020FFF7B7FE0020F1
:104B2000FFF7A6FE10BD10B500211720FFF77AFF92
:104B300000211120FFF776FF00211020FFF772FF00
:104B400000210F20FFF76EFF00210E20FFF76AFF04
:104B500000210D20FFF766FF00210C20FFF762FF08
:104B600000210B20FFF75EFF00210A20FFF75AFF0C
:104B700000210920FFF756FF00210820FFF752FF10
:104B800000210720FFF74EFF00210620FFF74AFF14
:104B900000210520FFF746FF00210420FFF742FF18
:104BA00000210320FFF73EFF00210220FFF73AFF1C
:104BB00000210120FFF736FF00210846FFF732FFF2
:104BC00010BD10B500218020FFF77AFF00214020A2
:104BD000FFF776FF00212020FFF772FF0021102051
:104BE000FFF76EFF00210820FFF76AFF0021042075
:104BF000FFF766FF00210220FFF762FF002101207E
:104C0000FFF75EFF10BD00000148024908607047D1
:104C10005A5A3412001401400146054A506880086F
:104C200080008A07920F1043014A506070470000CD
:104C300000140140012806D10649496804221143A5
:104C4000044A516005E00349496804229143014A3E
:104C5000516070470014014010B50121054800F073
:104C600063FAFFF7D1FF0220FFF7D6FF0020FFF71E
:104C7000E1FF10BD0500000110B501214903054801
:104C8000FFF730FF002201214903024800F0D8F964
:104C900010BD0000400C00401FB5FF20F430009014
:104CA00000200290019069460873684600F0B8FA47
:104CB000002000F07DFA1FBD10B500211048FFF75D
:104CC0001BFF00210E482030FFF716FF00210C4883
:104CD0004030FFF711FF002109486030FFF70CFF5B
:104CE000002107488030FFF707FF00210448A0306B
:104CF000FFF702FF00210248C030FFF7FDFE10BDA4
:104D0000000C004010B50121654800F00DFA0121AA
:104D10006348153800F008FA01216148163800F0A0
:104D200003FA01215E48173800F0FEF901215C48C2
:104D3000183800F0F9F901215948193800F0F4F950
:104D4000012157481A3800F0EFF9012154481B3867
:104D500000F0EAF9012152481C3800F0E5F9012180
:104D60004F481D3800F0E0F901214D481E3800F091
:104D7000DBF90121080600F0D7F90121494800F0CC
:104D8000D3F901214748401E00F0CEF900214548E3
:104D9000801E00F0C9F900214248C01E00F0C4F98D
:104DA00001214048001F00F0BFF901213D48401F8C
:104DB00000F0BAF901213B48801F00F0B5F901214C
:104DC0003848C01F00F0B0F90121480600F0ACF9E6
:104DD0000121354800F0A8F901213348401E00F0B8
:104DE000A3F901213048C01F00F09EF901212E488F
:104DF000083800F099F901212B48093800F094F99E
:104E0000012129480A3800F08FF9012126480B3882
:104E100000F08AF9012124480C3800F085F90121BD
:104E200021480D3800F080F901211F480E3800F0AC
:104E30007BF901211C480F3800F076F901211A484E
:104E4000103800F071F901211748163800F06CF99C
:104E500001211548173800F067F9012103200006E9
:104E600000F062F90121114800F05EF901210F48BC
:104E7000401E00F059F901210C48801E00F054F941
:104E800001210A48C01E00F04FF901210748001F08
:104E900000F04AF90121880600F046F910BD000033
:104EA0001F000001080000021800000305000004B4
:104EB00000B587B00020059001216846017605A85D
:104EC00000F0E8F900200090019002900390012189
:104ED000684601740021417400F04AFA07B000BD31
:104EE00010B50020FFF7B6FCFFF7D6FEFFF7E0FF96
:104EF000FFF708FF002000F009F90120FFF796F9FD
:104F00000020FFF781F9012000F047FA10BD0000F2
:104F100010B501242406601E0146884200D90CE029
:104F2000601E084948610321081F00F04DF8002069
:104F3000044988610720086100BF05200149086114
:104F400010BD000000E000E010B572B6FFF784FE6F
:104F5000FFF75AFEFFF7DCFF00210A2000F0F2FA0B
:104F6000FFF7BEFF012000F0A5F8FFF7A5FEFFF751
:104F70006DFBFFF7DDF9FFF77FFE0021642000F0F5
:104F8000E1FA052000F002F862B610BD70B50446E3
:104F9000002513E0012149030A48FFF7A1FD002184
:104FA000642000F0CFFA012149030648FFF79AFD7B
:104FB0000021642000F0C6FA681CC5B2A542E9DBF6
:104FC00070BD0000400C004010B5002819DB1A4AE3
:104FD00003231B02D21883089B00D2588307DC0EE0
:104FE000FF23A3409A438B071B0E8407E40EA340C4
:104FF0001A43114B032424021B198408A4001A51DC
:1050000018E00E4A03071B0F083B9B089B00D25871
:105010008307DC0EFF23A3409A438B071B0E8407F4
:10502000E40EA3401A43054B0407240F083CA408D0
:10503000A4001A5110BD000000E100E01CED00E0EA
:105040007FB506460D4614466A4629463046FFF7A8
:105050007BFC0098A84217D16846C079002813D17C
:10506000002C03D16846407900280DD1012C03D1D2
:1050700068464079012807D168468079002803D125
:1050800068460079012813D0029500206946C8734C
:10509000002C01D1487302E00120694648730021C9
:1050A000684681730121017302A93046FFF7CEFCE7
:1050B0007FBD000010B50446012C02D112480368E0
:1050C00013E0022C03D110484038C36B0DE0032CD1
:1050D00003D10D484038836B07E0042C03D10A4804
:1050E0004038036901E008480368180CD94389B2C5
:1050F000884204D15806400E00F0C4F802E0402077
:1051000000F0C0F810BD000040FDFF1F0146054A39
:10511000506840084000CA07D20F1043014A50604F
:10512000704700004002004030B502460B460020A8
:105130000F2424061440FF252D066419002C09D0E5
:105140006419002C08D06419002C08D06419002CB4
:105150000BD107E00D4809E00C48001D06E00B48A4
:10516000083003E009480C3000E000BF00BF002811
:105170000BD0D2B201219140002B03D004680C4324
:10518000046002E004688C43046030BD28020040E3
:105190000146054A9069054A1040D2430A4010432F
:1051A000014A90617047000000020040FFFF00FCD0
:1051B000012806D10649896901221143044A9161F7
:1051C00005E00349896949084900014A916170472E
:1051D000000200400146064A9069062302469A43AF
:1051E000104606220A401043014A906170470000B1
:1051F000000200400146064A9069082302469A438D
:10520000104608220A401043014A9061704700008E
:105210000002004000B503461804FFF7B9FF00BDC7
:1052200010B504462068FFF7F5FF6068FFF7E2FF5E
:10523000A068FFF7CFFF207BFFF7BAFF10BD00008B
:105240000146064A10690F231B0402469A43104682
:105250001A460A401043014A10617047000200409C
:10526000012806D10649096901221143044A116146
:1052700005E00349096949084900014A116170477D
:10528000000200404106490E014A5161704700008A
:105290000002004010B504462068FFF7D1FF2079D6
:1052A000FFF7DEFF10BD00000146064AD068072365
:1052B0001B0202469A4310461A460A401043014A0E
:1052C000D0607047000200400146064AD0680723BC
:1052D0001B0402469A4310461A460A401043014AEC
:1052E000D0607047000200400146064AD068D303F0
:1052F00002469A4310461A460A401043014AD060BB
:105300007047000000020040012806D10649C96824
:10531000C2071143044AD16005E00349C968490046
:105320004908014AD160704700020040012806D1B7
:105330000749C96842061143054AD16006E004499D
:10534000C968012252069143014AD16070470000AA
:10535000000200400146054AD068800880008A07A4
:10536000920F1043014AD0607047000000020040D5
:1053700010B504462068FFF7EDFF6068FFF794FF63
:10538000A068FFF7A1FFE068FFF7AEFF207CFFF702
:10539000CDFF607CFFF7B8FF10BD10B50446012CAF
:1053A00005D100F09BF8012000F086F805E0002010
:1053B00000F094F8002000F07FF8002000F06AF878
:1053C000002000F055F8002000F040F8002000F028
:1053D0002BF8002000F016F8002000F001F810BDB6
:1053E000012806D1810749680202114382075160F2
:1053F00007E0012189074968FF22013291439205A4
:1054000051607047012806D1810749684202114363
:105410008207516007E00121890749680122520291
:105420009143520551607047012806D181074968B0
:10543000820211438207516007E001218907496810
:10544000012292029143120551607047012806D152
:1054500081074968C20211438207516007E00121B8
:10546000890749680122D2029143D20451607047F2
:10547000012806D181074968020311438207516060
:1054800007E0012189074968012212039143920430
:1054900051607047012806D18107496842031143D2
:1054A0008207516007E00121890749680122520300
:1054B0009143520451607047012806D18107496821
:1054C000012211438207516007E0012189074968E1
:1054D000490849000122920751607047012806D10E
:1054E00081074968022211438207516006E00121C9
:1054F00089074968022291435207516070470000B2
:10550000034804490860012080030349886070470C
:1055100000127A000000002000ED00E0084A9169C6
:1055200000BF0F221205904200D9104600BF044A66
:1055300092698A1A1202120A8242F8D37047000056
:1055400000E000E070B504460D467D26B60109E096
:10555000002D03D0A847002800D070BD3046FFF7CB
:10556000DDFF641E002CF3D100BFF6E7FFF7ECFC73
:1055700000BFFFF749FB012149030448FFF7B4FAD4
:105580000021FF20F530FFF7DDFFF2E7400C00407F
:10559000B05500000000002004000000044100009D
:1055A000B4550000040000206412000020410000F7
:0455B00000127A006B
:04000005000040C1F6
:00000001FF
