Component: ARM Compiler 5.05 update 1 (build 106) Tool: armlink [4d0efa]

==============================================================================

Section Cross References

    main.o(i.main) refers to misc.o(i.NVIC_PriorityGroupConfig) for NVIC_PriorityGroupConfig
    main.o(i.main) refers to delay.o(i.delay_init) for delay_init
    main.o(i.main) refers to usart.o(i.uart_init) for uart_init
    main.o(i.main) refers to delay.o(i.delay_ms) for delay_ms
    main.o(i.main) refers to noretval__2printf.o(.text) for __2printf
    main.o(i.main) refers to iap.o(i.BootToAPP) for BootToAPP
    system_stm32f10x.o(i.SetSysClock) refers to system_stm32f10x.o(i.SetSysClockTo72) for SetSysClockTo72
    system_stm32f10x.o(i.SystemCoreClockUpdate) refers to system_stm32f10x.o(.data) for SystemCoreClock
    system_stm32f10x.o(i.SystemInit) refers to system_stm32f10x.o(i.SetSysClock) for SetSysClock
    led.o(i.LED_Init) refers to stm32f10x_rcc.o(i.RCC_APB2PeriphClockCmd) for RCC_APB2PeriphClockCmd
    led.o(i.LED_Init) refers to stm32f10x_gpio.o(i.GPIO_Init) for GPIO_Init
    led.o(i.LED_Init) refers to stm32f10x_gpio.o(i.GPIO_SetBits) for GPIO_SetBits
    sleep.o(i.EXTI_Configuration) refers to stm32f10x_exti.o(i.EXTI_ClearITPendingBit) for EXTI_ClearITPendingBit
    sleep.o(i.EXTI_Configuration) refers to stm32f10x_exti.o(i.EXTI_Init) for EXTI_Init
    sleep.o(i.EXTI_Configuration) refers to misc.o(i.NVIC_Init) for NVIC_Init
    sleep.o(i.RTCAlarm_IRQHandler) refers to stm32f10x_rtc.o(i.RTC_GetITStatus) for RTC_GetITStatus
    sleep.o(i.RTCAlarm_IRQHandler) refers to stm32f10x_exti.o(i.EXTI_ClearITPendingBit) for EXTI_ClearITPendingBit
    sleep.o(i.RTCAlarm_IRQHandler) refers to stm32f10x_pwr.o(i.PWR_GetFlagStatus) for PWR_GetFlagStatus
==============================================================================

Removing Unused input sections from the image.

    Removing system_stm32f10x.o(i.SystemCoreClockUpdate), (164 bytes).
    Removing led.o(i.LED_Init), (76 bytes).
    Removing sleep.o(i.EXTI_Configuration), (70 bytes).
    Removing sleep.o(i.Rtc_Init), (98 bytes).
    Removing sleep.o(i.TestStopMode), (76 bytes).
    Removing delay.o(i.delay_us), (76 bytes).
    Removing sys.o(i.WFI_SET), (4 bytes).
    Removing core_cm3.o(.emb_text), (32 bytes).
    Removing misc.o(i.NVIC_SetVectorTable), (20 bytes).
    Removing misc.o(i.NVIC_SystemLPConfig), (32 bytes).
    Removing stm32f10x_gpio.o(i.GPIO_AFIODeInit), (20 bytes).
    Removing stm32f10x_gpio.o(i.GPIO_DeInit), (200 bytes).
    Removing stm32f10x_gpio.o(i.GPIO_ETH_MediaInterfaceConfig), (12 bytes).
    Removing stm32f10x_gpio.o(i.GPIO_EXTILineConfig), (64 bytes).
    Removing stm32f10x_gpio.o(i.GPIO_EventOutputCmd), (12 bytes).
    Removing stm32f10x_gpio.o(i.GPIO_EventOutputConfig), (32 bytes).
    Removing stm32f10x_gpio.o(i.GPIO_PinLockConfig), (18 bytes).
    Removing stm32f10x_gpio.o(i.GPIO_PinRemapConfig), (144 bytes).
==============================================================================

Image Symbol Table

    Local Symbols

    Symbol Name                              Value     Ov Type        Size  Object(Section)

    ../clib/angel/boardlib.s                 0x00000000   Number         0  boardinit2.o ABSOLUTE
    ../clib/angel/boardlib.s                 0x00000000   Number         0  boardinit3.o ABSOLUTE
    ../clib/angel/boardlib.s                 0x00000000   Number         0  boardshut.o ABSOLUTE
    ../clib/angel/boardlib.s                 0x00000000   Number         0  boardinit1.o ABSOLUTE
    ../clib/angel/handlers.s                 0x00000000   Number         0  __scatter_zi.o ABSOLUTE
    ../clib/angel/handlers.s                 0x00000000   Number         0  __scatter_copy.o ABSOLUTE
    ../clib/angel/kernel.s                   0x00000000   Number         0  __rtentry.o ABSOLUTE
    ../clib/angel/kernel.s                   0x00000000   Number         0  rtexit2.o ABSOLUTE
    ../clib/angel/kernel.s                   0x00000000   Number         0  rtexit.o ABSOLUTE
    ../clib/angel/kernel.s                   0x00000000   Number         0  __rtentry4.o ABSOLUTE
    ../clib/angel/kernel.s                   0x00000000   Number         0  __rtentry2.o ABSOLUTE
    ../clib/angel/rt.s                       0x00000000   Number         0  rt_div0.o ABSOLUTE
    ../clib/angel/rt.s                       0x00000000   Number         0  aeabi_ldiv0_sigfpe.o ABSOLUTE
    ../clib/angel/rt.s                       0x00000000   Number         0  aeabi_ldiv0.o ABSOLUTE
    ../clib/angel/rt.s                       0x00000000   Number         0  rt_raise.o ABSOLUTE
    ../clib/angel/scatter.s                  0x00000000   Number         0  __scatter.o ABSOLUTE
    ../clib/angel/startup.s                  0x00000000   Number         0  __main.o ABSOLUTE
    ../clib/angel/sys.s                      0x00000000   Number         0  use_no_semi_2.o ABSOLUTE
    ../clib/angel/sys.s                      0x00000000   Number         0  use_no_semi.o ABSOLUTE
    ../clib/angel/sys.s                      0x00000000   Number         0  indicate_semi.o ABSOLUTE
    ../clib/angel/sys.s                      0x00000000   Number         0  libspace.o ABSOLUTE
    ../clib/angel/sys.s                      0x00000000   Number         0  sys_stackheap_outer.o ABSOLUTE
    ../clib/angel/sysapp.c                   0x00000000   Number         0  sys_wrch.o ABSOLUTE
    ../clib/angel/sysapp.c                   0x00000000   Number         0  sys_command.o ABSOLUTE
    ../clib/armsys.c                         0x00000000   Number         0  _get_argv_nomalloc.o ABSOLUTE
    ../clib/armsys.c                         0x00000000   Number         0  argv_veneer.o ABSOLUTE
    ../clib/armsys.c                         0x00000000   Number         0  argv_veneer.o ABSOLUTE
    ../clib/armsys.c                         0x00000000   Number         0  no_argv.o ABSOLUTE
    ../clib/heapalloc.c                      0x00000000   Number         0  hrguard.o ABSOLUTE
    ../clib/heapaux.c                        0x00000000   Number         0  heapauxi.o ABSOLUTE
    ../clib/libinit.s                        0x00000000   Number         0  libinit2.o ABSOLUTE
    ../clib/libinit.s                        0x00000000   Number         0  libinit.o ABSOLUTE
    ../clib/libinit.s                        0x00000000   Number         0  libshutdown2.o ABSOLUTE
    ../clib/libinit.s                        0x00000000   Number         0  libshutdown.o ABSOLUTE
    ../clib/longlong.s                       0x00000000   Number         0  lludivv7m.o ABSOLUTE
    ../clib/longlong.s                       0x00000000   Number         0  llsdiv.o ABSOLUTE
    ../clib/memcpset.s                       0x00000000   Number         0  strcmpv7m.o ABSOLUTE
    ../clib/memcpset.s                       0x00000000   Number         0  rt_memcpy_w.o ABSOLUTE
    ../clib/memcpset.s                       0x00000000   Number         0  rt_memcpy_v6.o ABSOLUTE
    ../clib/misc.s                           0x00000000   Number         0  printf_stubs.o ABSOLUTE
    ../clib/printf.c                         0x00000000   Number         0  _printf_hex_ptr.o ABSOLUTE
    ../clib/printf.c                         0x00000000   Number         0  __printf.o ABSOLUTE
    ../clib/printf.c                         0x00000000   Number         0  _printf_hex_int_ptr.o ABSOLUTE
    ../clib/printf.c                         0x00000000   Number         0  _printf_hex_int_ll_ptr.o ABSOLUTE
    ../clib/printf.c                         0x00000000   Number         0  __printf_flags.o ABSOLUTE
    ../clib/printf.c                         0x00000000   Number         0  __printf_ss.o ABSOLUTE
    ../clib/printf.c                         0x00000000   Number         0  __printf_flags_ss.o ABSOLUTE
    ../clib/printf.c                         0x00000000   Number         0  __printf_flags_wp.o ABSOLUTE
    ../clib/printf.c                         0x00000000   Number         0  __printf_ss_wp.o ABSOLUTE
    ../clib/printf.c                         0x00000000   Number         0  _printf_hex_ll_ptr.o ABSOLUTE
    ../clib/printf.c                         0x00000000   Number         0  __printf_flags_ss_wp.o ABSOLUTE
    ../clib/printf.c                         0x00000000   Number         0  _printf_char_common.o ABSOLUTE
    ../clib/printf.c                         0x00000000   Number         0  noretval__2printf.o ABSOLUTE
    ../clib/printf.c                         0x00000000   Number         0  __2printf.o ABSOLUTE
    ../clib/printf.c                         0x00000000   Number         0  _printf_intcommon.o ABSOLUTE
    ../clib/printf.c                         0x00000000   Number         0  _printf_char_file.o ABSOLUTE
    ../clib/printf.c                         0x00000000   Number         0  _printf_pad.o ABSOLUTE
    ../clib/printf.c                         0x00000000   Number         0  __printf_wp.o ABSOLUTE
    ../clib/printf.c                         0x00000000   Number         0  __printf_nopercent.o ABSOLUTE
    ../clib/printf.c                         0x00000000   Number         0  _printf_hex_ll.o ABSOLUTE
    ../clib/printf.c                         0x00000000   Number         0  _printf_hex_int.o ABSOLUTE
    ../clib/printf.c                         0x00000000   Number         0  _printf_hex_int_ll.o ABSOLUTE
    ../clib/printf_percent.s                 0x00000000   Number         0  _printf_percent.o ABSOLUTE
    ../clib/printf_percent.s                 0x00000000   Number         0  _printf_percent_end.o ABSOLUTE
    ../clib/printf_percent.s                 0x00000000   Number         0  _printf_x.o ABSOLUTE
    ../clib/signal.c                         0x00000000   Number         0  defsig_abrt_inner.o ABSOLUTE
    ../clib/signal.c                         0x00000000   Number         0  defsig_fpe_formal.o ABSOLUTE
    ../clib/signal.c                         0x00000000   Number         0  defsig_other.o ABSOLUTE
    ../clib/signal.c                         0x00000000   Number         0  defsig_segv_inner.o ABSOLUTE
    ../clib/signal.c                         0x00000000   Number         0  defsig_pvfn_inner.o ABSOLUTE
    ../clib/signal.c                         0x00000000   Number         0  defsig_stak_inner.o ABSOLUTE
    ../clib/signal.c                         0x00000000   Number         0  defsig_rtmem_formal.o ABSOLUTE
    ../clib/signal.c                         0x00000000   Number         0  defsig_rtmem_outer.o ABSOLUTE
    ../clib/signal.c                         0x00000000   Number         0  defsig_fpe_inner.o ABSOLUTE
    ../clib/signal.c                         0x00000000   Number         0  defsig_rtmem_inner.o ABSOLUTE
    ../clib/signal.c                         0x00000000   Number         0  defsig_cppl_inner.o ABSOLUTE
    ../clib/signal.c                         0x00000000   Number         0  defsig_rtred_inner.o ABSOLUTE
    ../clib/signal.c                         0x00000000   Number         0  defsig_general.o ABSOLUTE
    ../clib/signal.c                         0x00000000   Number         0  __raise.o ABSOLUTE
    ../clib/signal.c                         0x00000000   Number         0  defsig_fpe_outer.o ABSOLUTE
    ../clib/signal.c                         0x00000000   Number         0  defsig_exit.o ABSOLUTE
    ../clib/signal.s                         0x00000000   Number         0  defsig.o ABSOLUTE
    ../clib/stdio.c                          0x00000000   Number         0  ferror.o ABSOLUTE
    ../clib/stdio.c                          0x00000000   Number         0  ferror_locked.o ABSOLUTE
    ../clib/stdlib.c                         0x00000000   Number         0  exit.o ABSOLUTE
    ../clib/string.c                         0x00000000   Number         0  strlen.o ABSOLUTE
    ../clib/string.c                         0x00000000   Number         0  strcpy.o ABSOLUTE
    ../fplib/fpinit.s                        0x00000000   Number         0  fpinit.o ABSOLUTE
    ..\CORE\core_cm3.c                       0x00000000   Number         0  core_cm3.o ABSOLUTE
    ..\CORE\startup_stm32f10x_hd.s           0x00000000   Number         0  startup_stm32f10x_hd.o ABSOLUTE
    ..\HARDWARE\LED\led.c                    0x00000000   Number         0  led.o ABSOLUTE
    ..\HARDWARE\LED\rtc.c                    0x00000000   Number         0  rtc.o ABSOLUTE
    ..\HARDWARE\LED\sleep.c                  0x00000000   Number         0  sleep.o ABSOLUTE
    ..\SD\HEX2BIN.c                          0x00000000   Number         0  hex2bin.o ABSOLUTE
    ..\SD\fatfs\diskio.c                     0x00000000   Number         0  diskio.o ABSOLUTE
    ..\SD\fatfs\exfuns.c                     0x00000000   Number         0  exfuns.o ABSOLUTE
    ..\SD\fatfs\ff.c                         0x00000000   Number         0  ff.o ABSOLUTE
    ..\SD\iap.c                              0x00000000   Number         0  iap.o ABSOLUTE
    ..\SD\malloc.c                           0x00000000   Number         0  malloc.o ABSOLUTE
    ..\SD\sdio_sdcard.c                      0x00000000   Number         0  sdio_sdcard.o ABSOLUTE
    ..\SD\stmflash.c                         0x00000000   Number         0  stmflash.o ABSOLUTE
    ..\STM32F10x_FWLib\src\misc.c            0x00000000   Number         0  misc.o ABSOLUTE
    ..\STM32F10x_FWLib\src\stm32f10x_adc.c   0x00000000   Number         0  stm32f10x_adc.o ABSOLUTE
    ..\STM32F10x_FWLib\src\stm32f10x_bkp.c   0x00000000   Number         0  stm32f10x_bkp.o ABSOLUTE
    ..\STM32F10x_FWLib\src\stm32f10x_can.c   0x00000000   Number         0  stm32f10x_can.o ABSOLUTE
    ..\STM32F10x_FWLib\src\stm32f10x_dbgmcu.c 0x00000000   Number         0  stm32f10x_dbgmcu.o ABSOLUTE
    ..\STM32F10x_FWLib\src\stm32f10x_dma.c   0x00000000   Number         0  stm32f10x_dma.o ABSOLUTE
    ..\STM32F10x_FWLib\src\stm32f10x_exti.c  0x00000000   Number         0  stm32f10x_exti.o ABSOLUTE
    ..\STM32F10x_FWLib\src\stm32f10x_flash.c 0x00000000   Number         0  stm32f10x_flash.o ABSOLUTE
    ..\STM32F10x_FWLib\src\stm32f10x_gpio.c  0x00000000   Number         0  stm32f10x_gpio.o ABSOLUTE
    ..\STM32F10x_FWLib\src\stm32f10x_i2c.c   0x00000000   Number         0  stm32f10x_i2c.o ABSOLUTE
    ..\STM32F10x_FWLib\src\stm32f10x_iwdg.c  0x00000000   Number         0  stm32f10x_iwdg.o ABSOLUTE
    ..\STM32F10x_FWLib\src\stm32f10x_pwr.c   0x00000000   Number         0  stm32f10x_pwr.o ABSOLUTE
    ..\STM32F10x_FWLib\src\stm32f10x_rcc.c   0x00000000   Number         0  stm32f10x_rcc.o ABSOLUTE
    ..\STM32F10x_FWLib\src\stm32f10x_rtc.c   0x00000000   Number         0  stm32f10x_rtc.o ABSOLUTE
    ..\STM32F10x_FWLib\src\stm32f10x_sdio.c  0x00000000   Number         0  stm32f10x_sdio.o ABSOLUTE
    ..\STM32F10x_FWLib\src\stm32f10x_spi.c   0x00000000   Number         0  stm32f10x_spi.o ABSOLUTE
    ..\STM32F10x_FWLib\src\stm32f10x_tim.c   0x00000000   Number         0  stm32f10x_tim.o ABSOLUTE
    ..\STM32F10x_FWLib\src\stm32f10x_usart.c 0x00000000   Number         0  stm32f10x_usart.o ABSOLUTE
    ..\STM32F10x_FWLib\src\stm32f10x_wwdg.c  0x00000000   Number         0  stm32f10x_wwdg.o ABSOLUTE
    ..\SYSTEM\delay\delay.c                  0x00000000   Number         0  delay.o ABSOLUTE
    ..\SYSTEM\sys\sys.c                      0x00000000   Number         0  sys.o ABSOLUTE
    ..\SYSTEM\usart\usart.c                  0x00000000   Number         0  usart.o ABSOLUTE
    ..\\CORE\\core_cm3.c                     0x00000000   Number         0  core_cm3.o ABSOLUTE
    ..\\SYSTEM\\sys\\sys.c                   0x00000000   Number         0  sys.o ABSOLUTE
    dc.s                                     0x00000000   Number         0  dc.o ABSOLUTE
    main.c                                   0x00000000   Number         0  main.o ABSOLUTE
    stm32f10x_it.c                           0x00000000   Number         0  stm32f10x_it.o ABSOLUTE
    system_stm32f10x.c                       0x00000000   Number         0  system_stm32f10x.o ABSOLUTE
    RESET                                    0x08000000   Section      304  startup_stm32f10x_hd.o(RESET)
    !!!main                                  0x08000130   Section        8  __main.o(!!!main)
    !!!scatter                               0x08000138   Section       52  __scatter.o(!!!scatter)
    !!handler_copy                           0x0800016c   Section       26  __scatter_copy.o(!!handler_copy)
    !!handler_zi                             0x08000188   Section       28  __scatter_zi.o(!!handler_zi)
    .ARM.Collect$$_printf_percent$$00000000  0x080001a4   Section        0  _printf_percent.o(.ARM.Collect$$_printf_percent$$00000000)
    .ARM.Collect$$_printf_percent$$0000000C  0x080001a4   Section        6  _printf_x.o(.ARM.Collect$$_printf_percent$$0000000C)
    .ARM.Collect$$_printf_percent$$00000017  0x080001aa   Section        4  _printf_percent_end.o(.ARM.Collect$$_printf_percent$$00000017)
    .ARM.Collect$$libinit$$00000000          0x080001ae   Section        2  libinit.o(.ARM.Collect$$libinit$$00000000)
    .ARM.Collect$$libinit$$00000002          0x080001b0   Section        0  libinit2.o(.ARM.Collect$$libinit$$00000002)
    .ARM.Collect$$libinit$$00000004          0x080001b0   Section        0  libinit2.o(.ARM.Collect$$libinit$$00000004)
    .ARM.Collect$$libinit$$0000000A          0x080001b0   Section        0  libinit2.o(.ARM.Collect$$libinit$$0000000A)
    .ARM.Collect$$libinit$$0000000C          0x080001b0   Section        0  libinit2.o(.ARM.Collect$$libinit$$0000000C)
    .ARM.Collect$$libinit$$0000000E          0x080001b0   Section        0  libinit2.o(.ARM.Collect$$libinit$$0000000E)
    .ARM.Collect$$libinit$$00000011          0x080001b0   Section        0  libinit2.o(.ARM.Collect$$libinit$$00000011)
    .ARM.Collect$$libinit$$00000013          0x080001b0   Section        0  libinit2.o(.ARM.Collect$$libinit$$00000013)
    .ARM.Collect$$libinit$$00000015          0x080001b0   Section        0  libinit2.o(.ARM.Collect$$libinit$$00000015)
    .ARM.Collect$$libinit$$00000017          0x080001b0   Section        0  libinit2.o(.ARM.Collect$$libinit$$00000017)
    .ARM.Collect$$libinit$$00000019          0x080001b0   Section        0  libinit2.o(.ARM.Collect$$libinit$$00000019)
    .ARM.Collect$$libinit$$0000001B          0x080001b0   Section        0  libinit2.o(.ARM.Collect$$libinit$$0000001B)
    .ARM.Collect$$libinit$$0000001D          0x080001b0   Section        0  libinit2.o(.ARM.Collect$$libinit$$0000001D)
    .ARM.Collect$$libinit$$0000001F          0x080001b0   Section        0  libinit2.o(.ARM.Collect$$libinit$$0000001F)
    .ARM.Collect$$libinit$$00000021          0x080001b0   Section        0  libinit2.o(.ARM.Collect$$libinit$$00000021)
    .ARM.Collect$$libinit$$00000023          0x080001b0   Section        0  libinit2.o(.ARM.Collect$$libinit$$00000023)
    .ARM.Collect$$libinit$$00000025          0x080001b0   Section        0  libinit2.o(.ARM.Collect$$libinit$$00000025)
    .ARM.Collect$$libinit$$0000002C          0x080001b0   Section        0  libinit2.o(.ARM.Collect$$libinit$$0000002C)
    .ARM.Collect$$libinit$$0000002E          0x080001b0   Section        0  libinit2.o(.ARM.Collect$$libinit$$0000002E)
    .ARM.Collect$$libinit$$00000030          0x080001b0   Section        0  libinit2.o(.ARM.Collect$$libinit$$00000030)
    .ARM.Collect$$libinit$$00000032          0x080001b0   Section        0  libinit2.o(.ARM.Collect$$libinit$$00000032)
    .ARM.Collect$$libinit$$00000033          0x080001b0   Section        2  libinit2.o(.ARM.Collect$$libinit$$00000033)
    .ARM.Collect$$libshutdown$$00000000      0x080001b2   Section        2  libshutdown.o(.ARM.Collect$$libshutdown$$00000000)
    .ARM.Collect$$libshutdown$$00000003      0x080001b4   Section        0  libshutdown2.o(.ARM.Collect$$libshutdown$$00000003)
    .ARM.Collect$$libshutdown$$00000006      0x080001b4   Section        0  libshutdown2.o(.ARM.Collect$$libshutdown$$00000006)
    .ARM.Collect$$libshutdown$$00000009      0x080001b4   Section        0  libshutdown2.o(.ARM.Collect$$libshutdown$$00000009)
    .ARM.Collect$$libshutdown$$0000000B      0x080001b4   Section        0  libshutdown2.o(.ARM.Collect$$libshutdown$$0000000B)
    .ARM.Collect$$libshutdown$$0000000E      0x080001b4   Section        0  libshutdown2.o(.ARM.Collect$$libshutdown$$0000000E)
    .ARM.Collect$$libshutdown$$0000000F      0x080001b4   Section        2  libshutdown2.o(.ARM.Collect$$libshutdown$$0000000F)
    .ARM.Collect$$rtentry$$00000000          0x080001b6   Section        0  __rtentry.o(.ARM.Collect$$rtentry$$00000000)
    .ARM.Collect$$rtentry$$00000002          0x080001b6   Section        0  __rtentry2.o(.ARM.Collect$$rtentry$$00000002)
    .ARM.Collect$$rtentry$$00000004          0x080001b6   Section        6  __rtentry4.o(.ARM.Collect$$rtentry$$00000004)
    .ARM.Collect$$rtentry$$00000009          0x080001bc   Section        0  __rtentry2.o(.ARM.Collect$$rtentry$$00000009)
    .ARM.Collect$$rtentry$$0000000A          0x080001bc   Section        4  __rtentry2.o(.ARM.Collect$$rtentry$$0000000A)
    .ARM.Collect$$rtentry$$0000000C          0x080001c0   Section        0  __rtentry2.o(.ARM.Collect$$rtentry$$0000000C)
    .ARM.Collect$$rtentry$$0000000D          0x080001c0   Section        8  __rtentry2.o(.ARM.Collect$$rtentry$$0000000D)
    .ARM.Collect$$rtexit$$00000000           0x080001c8   Section        2  rtexit.o(.ARM.Collect$$rtexit$$00000000)
    .ARM.Collect$$rtexit$$00000002           0x080001ca   Section        0  rtexit2.o(.ARM.Collect$$rtexit$$00000002)
    .ARM.Collect$$rtexit$$00000003           0x080001ca   Section        4  rtexit2.o(.ARM.Collect$$rtexit$$00000003)
    .ARM.Collect$$rtexit$$00000004           0x080001ce   Section        6  rtexit2.o(.ARM.Collect$$rtexit$$00000004)
    .emb_text                                0x080001d4   Section        6  sys.o(.emb_text)
    .text                                    0x080001dc   Section       64  startup_stm32f10x_hd.o(.text)
    .text                                    0x0800021c   Section        2  use_no_semi_2.o(.text)
    .text                                    0x0800021e   Section       72  llsdiv.o(.text)
    .text                                    0x08000268   Section        0  noretval__2printf.o(.text)
    .text                                    0x08000280   Section        0  _printf_pad.o(.text)
    .text                                    0x080002d0   Section        0  _printf_hex_int.o(.text)
    .text                                    0x08000328   Section        0  __printf_wp.o(.text)
    .text                                    0x08000436   Section        0  strlen.o(.text)
    .text                                    0x08000474   Section      138  rt_memcpy_v6.o(.text)
    .text                                    0x080004fe   Section        0  heapauxi.o(.text)
    .text                                    0x08000504   Section        2  use_no_semi.o(.text)
    .text                                    0x08000506   Section      238  lludivv7m.o(.text)
    .text                                    0x080005f4   Section        0  _printf_intcommon.o(.text)
    .text                                    0x080006a8   Section        0  _printf_char_file.o(.text)
    .text                                    0x080006cc   Section      100  rt_memcpy_w.o(.text)
    .text                                    0x08000730   Section        0  _printf_char_common.o(.text)
    _printf_input_char                       0x08000731   Thumb Code    10  _printf_char_common.o(.text)
    .text                                    0x08000760   Section        0  ferror.o(.text)
    .text                                    0x08000768   Section       74  sys_stackheap_outer.o(.text)
    .text                                    0x080007b2   Section        0  exit.o(.text)
    .text                                    0x080007c0   Section        8  libspace.o(.text)
    i.BootToAPP                              0x080007c8   Section        0  iap.o(i.BootToAPP)
    i.BusFault_Handler                       0x08000968   Section        0  stm32f10x_it.o(i.BusFault_Handler)
    i.CheckHexFile                           0x0800096c   Section        0  hex2bin.o(i.CheckHexFile)
    i.CmdError                               0x08000a9c   Section        0  sdio_sdcard.o(i.CmdError)
    i.CmdResp1Error                          0x08000acc   Section        0  sdio_sdcard.o(i.CmdResp1Error)
    i.CmdResp2Error                          0x08000b2c   Section        0  sdio_sdcard.o(i.CmdResp2Error)
    i.CmdResp3Error                          0x08000b80   Section        0  sdio_sdcard.o(i.CmdResp3Error)
    i.CmdResp6Error                          0x08000bb8   Section        0  sdio_sdcard.o(i.CmdResp6Error)
    i.CmdResp7Error                          0x08000c48   Section        0  sdio_sdcard.o(i.CmdResp7Error)
    i.DMA_Cmd                                0x08000c94   Section        0  stm32f10x_dma.o(i.DMA_Cmd)
    i.DMA_DeInit                             0x08000cac   Section        0  stm32f10x_dma.o(i.DMA_DeInit)
    i.DMA_Init                               0x08000df8   Section        0  stm32f10x_dma.o(i.DMA_Init)
    i.DebugMon_Handler                       0x08000e34   Section        0  stm32f10x_it.o(i.DebugMon_Handler)
    i.Disable_Irq                            0x08000e38   Section        0  iap.o(i.Disable_Irq)
    i.EXTI_ClearITPendingBit                 0x08000e64   Section        0  stm32f10x_exti.o(i.EXTI_ClearITPendingBit)
    i.FLASH_ErasePage                        0x08000e70   Section        0  stm32f10x_flash.o(i.FLASH_ErasePage)
    i.FLASH_GetBank1Status                   0x08000ebc   Section        0  stm32f10x_flash.o(i.FLASH_GetBank1Status)
    i.FLASH_Lock                             0x08000ef0   Section        0  stm32f10x_flash.o(i.FLASH_Lock)
    i.FLASH_ProgramHalfWord                  0x08000f04   Section        0  stm32f10x_flash.o(i.FLASH_ProgramHalfWord)
    i.FLASH_Unlock                           0x08000f44   Section        0  stm32f10x_flash.o(i.FLASH_Unlock)
    i.FLASH_WaitForLastOperation             0x08000f5c   Section        0  stm32f10x_flash.o(i.FLASH_WaitForLastOperation)
    i.FindSCR                                0x08000f84   Section        0  sdio_sdcard.o(i.FindSCR)
    i.GPIO_Init                              0x08001118   Section        0  stm32f10x_gpio.o(i.GPIO_Init)
    i.HardFault_Handler                      0x0800122e   Section        0  stm32f10x_it.o(i.HardFault_Handler)
    i.Hex2Bin                                0x08001232   Section        0  hex2bin.o(i.Hex2Bin)
    i.INTX_DISABLE                           0x0800129c   Section        0  sys.o(i.INTX_DISABLE)
    i.INTX_ENABLE                            0x080012a0   Section        0  sys.o(i.INTX_ENABLE)
    i.Init                                   0x080012a4   Section        0  iap.o(i.Init)
    i.IsCardProgramming                      0x080012c0   Section        0  sdio_sdcard.o(i.IsCardProgramming)
    i.MemManage_Handler                      0x0800135c   Section        0  stm32f10x_it.o(i.MemManage_Handler)
    i.NMI_Handler                            0x08001360   Section        0  stm32f10x_it.o(i.NMI_Handler)
    i.NVIC_Init                              0x08001364   Section        0  misc.o(i.NVIC_Init)
    i.NVIC_PriorityGroupConfig               0x080013d4   Section        0  misc.o(i.NVIC_PriorityGroupConfig)
    i.PWR_ClearFlag                          0x080013e8   Section        0  stm32f10x_pwr.o(i.PWR_ClearFlag)
    i.PWR_GetFlagStatus                      0x080013fc   Section        0  stm32f10x_pwr.o(i.PWR_GetFlagStatus)
    i.PendSV_Handler                         0x08001414   Section        0  stm32f10x_it.o(i.PendSV_Handler)
    i.RCC_AHBPeriphClockCmd                  0x08001418   Section        0  stm32f10x_rcc.o(i.RCC_AHBPeriphClockCmd)
    i.RCC_APB1PeriphResetCmd                 0x08001438   Section        0  stm32f10x_rcc.o(i.RCC_APB1PeriphResetCmd)
    i.RCC_APB2PeriphClockCmd                 0x08001458   Section        0  stm32f10x_rcc.o(i.RCC_APB2PeriphClockCmd)
    i.RCC_APB2PeriphResetCmd                 0x08001478   Section        0  stm32f10x_rcc.o(i.RCC_APB2PeriphResetCmd)
    i.RCC_GetClocksFreq                      0x08001498   Section        0  stm32f10x_rcc.o(i.RCC_GetClocksFreq)
    i.RTCAlarm_IRQHandler                    0x0800156c   Section        0  sleep.o(i.RTCAlarm_IRQHandler)
    i.RTC_ClearITPendingBit                  0x080015c0   Section        0  stm32f10x_rtc.o(i.RTC_ClearITPendingBit)
    i.RTC_GetITStatus                        0x080015d0   Section        0  stm32f10x_rtc.o(i.RTC_GetITStatus)
    i.RTC_IRQHandler                         0x080015f4   Section        0  sleep.o(i.RTC_IRQHandler)
    i.RTC_WaitForLastTask                    0x08001608   Section        0  stm32f10x_rtc.o(i.RTC_WaitForLastTask)
    i.ReadLineInBuff                         0x0800161c   Section        0  hex2bin.o(i.ReadLineInBuff)
    i.SD2ROM                                 0x080017bc   Section        0  hex2bin.o(i.SD2ROM)
    i.SDEnWideBus                            0x0800194c   Section        0  sdio_sdcard.o(i.SDEnWideBus)
    i.SDIO_ClearFlag                         0x080019f8   Section        0  stm32f10x_sdio.o(i.SDIO_ClearFlag)
    i.SDIO_ClockCmd                          0x08001a04   Section        0  stm32f10x_sdio.o(i.SDIO_ClockCmd)
    i.SDIO_Clock_Set                         0x08001a10   Section        0  sdio_sdcard.o(i.SDIO_Clock_Set)
    i.SDIO_DMACmd                            0x08001a24   Section        0  stm32f10x_sdio.o(i.SDIO_DMACmd)
    i.SDIO_DataConfig                        0x08001a30   Section        0  stm32f10x_sdio.o(i.SDIO_DataConfig)
    i.SDIO_DeInit                            0x08001a60   Section        0  stm32f10x_sdio.o(i.SDIO_DeInit)
    i.SDIO_GetFlagStatus                     0x08001a84   Section        0  stm32f10x_sdio.o(i.SDIO_GetFlagStatus)
    i.SDIO_GetPowerState                     0x08001a9c   Section        0  stm32f10x_sdio.o(i.SDIO_GetPowerState)
    i.SDIO_IRQHandler                        0x08001aac   Section        0  sdio_sdcard.o(i.SDIO_IRQHandler)
    i.SDIO_Init                              0x08001ab4   Section        0  stm32f10x_sdio.o(i.SDIO_Init)
    i.SDIO_ReadData                          0x08001ae4   Section        0  stm32f10x_sdio.o(i.SDIO_ReadData)
    i.SDIO_SendCommand                       0x08001af0   Section        0  stm32f10x_sdio.o(i.SDIO_SendCommand)
    i.SDIO_SetPowerState                     0x08001b1c   Section        0  stm32f10x_sdio.o(i.SDIO_SetPowerState)
    i.SDIO_WriteData                         0x08001b38   Section        0  stm32f10x_sdio.o(i.SDIO_WriteData)
    i.SD_DMA_Config                          0x08001b44   Section        0  sdio_sdcard.o(i.SD_DMA_Config)
    i.SD_EnableWideBusOperation              0x08001bac   Section        0  sdio_sdcard.o(i.SD_EnableWideBusOperation)
    i.SD_GetCardInfo                         0x08001c14   Section        0  sdio_sdcard.o(i.SD_GetCardInfo)
    i.SD_Init                                0x08001f28   Section        0  sdio_sdcard.o(i.SD_Init)
    i.SD_InitializeCards                     0x08002028   Section        0  sdio_sdcard.o(i.SD_InitializeCards)
    i.SD_PowerON                             0x0800217c   Section        0  sdio_sdcard.o(i.SD_PowerON)
    i.SD_ProcessIRQSrc                       0x08002358   Section        0  sdio_sdcard.o(i.SD_ProcessIRQSrc)
    i.SD_ReadBlock                           0x08002494   Section        0  sdio_sdcard.o(i.SD_ReadBlock)
    i.SD_ReadDisk                            0x080026ec   Section        0  sdio_sdcard.o(i.SD_ReadDisk)
    i.SD_ReadMultiBlocks                     0x08002784   Section        0  sdio_sdcard.o(i.SD_ReadMultiBlocks)
    i.SD_SelectDeselect                      0x08002a6c   Section        0  sdio_sdcard.o(i.SD_SelectDeselect)
    i.SD_SetDeviceMode                       0x08002a9c   Section        0  sdio_sdcard.o(i.SD_SetDeviceMode)
    i.SD_WriteBlock                          0x08002ab4   Section        0  sdio_sdcard.o(i.SD_WriteBlock)
    i.SD_WriteDisk                           0x08002e28   Section        0  sdio_sdcard.o(i.SD_WriteDisk)
    i.SD_WriteMultiBlocks                    0x08002ec0   Section        0  sdio_sdcard.o(i.SD_WriteMultiBlocks)
    i.STMFLASH_WriteOnePage                  0x08003280   Section        0  stmflash.o(i.STMFLASH_WriteOnePage)
    i.STMFLASH_Write_NoCheck                 0x080032e0   Section        0  stmflash.o(i.STMFLASH_Write_NoCheck)
    i.SVC_Handler                            0x08003306   Section        0  stm32f10x_it.o(i.SVC_Handler)
    i.SetSysClock                            0x08003308   Section        0  system_stm32f10x.o(i.SetSysClock)
    SetSysClock                              0x08003309   Thumb Code     8  system_stm32f10x.o(i.SetSysClock)
    i.SetSysClockTo72                        0x08003310   Section        0  system_stm32f10x.o(i.SetSysClockTo72)
    SetSysClockTo72                          0x08003311   Thumb Code   214  system_stm32f10x.o(i.SetSysClockTo72)
    i.SysTick_CLKSourceConfig                0x080033f0   Section        0  misc.o(i.SysTick_CLKSourceConfig)
    i.SysTick_Handler                        0x08003418   Section        0  stm32f10x_it.o(i.SysTick_Handler)
    i.SystemInit                             0x0800341c   Section        0  system_stm32f10x.o(i.SystemInit)
    i.USART1_IRQHandler                      0x0800347c   Section        0  usart.o(i.USART1_IRQHandler)
    i.USART_ClearITPendingBit                0x08003504   Section        0  stm32f10x_usart.o(i.USART_ClearITPendingBit)
    i.USART_Cmd                              0x08003522   Section        0  stm32f10x_usart.o(i.USART_Cmd)
    i.USART_DeInit                           0x0800353c   Section        0  stm32f10x_usart.o(i.USART_DeInit)
    i.USART_GetITStatus                      0x080035d8   Section        0  stm32f10x_usart.o(i.USART_GetITStatus)
    i.USART_ITConfig                         0x0800362c   Section        0  stm32f10x_usart.o(i.USART_ITConfig)
    i.USART_Init                             0x08003678   Section        0  stm32f10x_usart.o(i.USART_Init)
    i.USART_ReceiveData                      0x08003750   Section        0  stm32f10x_usart.o(i.USART_ReceiveData)
    i.UsageFault_Handler                     0x0800375a   Section        0  stm32f10x_it.o(i.UsageFault_Handler)
    i._is_digit                              0x0800375e   Section        0  __printf_wp.o(i._is_digit)
    i._sys_exit                              0x0800376c   Section        0  usart.o(i._sys_exit)
    i.check_fs                               0x08003774   Section        0  ff.o(i.check_fs)
    check_fs                                 0x08003775   Thumb Code   112  ff.o(i.check_fs)
    i.chk_chr                                0x080037f0   Section        0  ff.o(i.chk_chr)
    chk_chr                                  0x080037f1   Thumb Code    20  ff.o(i.chk_chr)
    i.clmt_clust                             0x08003804   Section        0  ff.o(i.clmt_clust)
    clmt_clust                               0x08003805   Thumb Code    50  ff.o(i.clmt_clust)
    i.clst2sect                              0x08003836   Section        0  ff.o(i.clst2sect)
    clst2sect                                0x08003837   Thumb Code    26  ff.o(i.clst2sect)
    i.convert_from_bytes_to_power_of_two     0x08003850   Section        0  sdio_sdcard.o(i.convert_from_bytes_to_power_of_two)
    i.create_chain                           0x08003862   Section        0  ff.o(i.create_chain)
    create_chain                             0x08003863   Thumb Code   288  ff.o(i.create_chain)
    i.create_name                            0x08003984   Section        0  ff.o(i.create_name)
    create_name                              0x08003985   Thumb Code   244  ff.o(i.create_name)
    i.dbc_1st                                0x08003a88   Section        0  ff.o(i.dbc_1st)
    dbc_1st                                  0x08003a89   Thumb Code    46  ff.o(i.dbc_1st)
    i.dbc_2nd                                0x08003abc   Section        0  ff.o(i.dbc_2nd)
    dbc_2nd                                  0x08003abd   Thumb Code    66  ff.o(i.dbc_2nd)
    i.delay_init                             0x08003b04   Section        0  delay.o(i.delay_init)
    i.delay_ms                               0x08003b48   Section        0  delay.o(i.delay_ms)
    i.dir_alloc                              0x08003b94   Section        0  ff.o(i.dir_alloc)
    dir_alloc                                0x08003b95   Thumb Code    96  ff.o(i.dir_alloc)
    i.dir_clear                              0x08003bf4   Section        0  ff.o(i.dir_clear)
    dir_clear                                0x08003bf5   Thumb Code    96  ff.o(i.dir_clear)
    i.dir_find                               0x08003c54   Section        0  ff.o(i.dir_find)
    dir_find                                 0x08003c55   Thumb Code   108  ff.o(i.dir_find)
    i.dir_next                               0x08003cc0   Section        0  ff.o(i.dir_next)
    dir_next                                 0x08003cc1   Thumb Code   198  ff.o(i.dir_next)
    i.dir_register                           0x08003d86   Section        0  ff.o(i.dir_register)
    dir_register                             0x08003d87   Thumb Code    60  ff.o(i.dir_register)
    i.dir_sdi                                0x08003dc2   Section        0  ff.o(i.dir_sdi)
    dir_sdi                                  0x08003dc3   Thumb Code   154  ff.o(i.dir_sdi)
    i.disk_initialize                        0x08003e5c   Section        0  diskio.o(i.disk_initialize)
    i.disk_ioctl                             0x08003e7c   Section        0  diskio.o(i.disk_ioctl)
    i.disk_read                              0x08003ee8   Section        0  diskio.o(i.disk_read)
    i.disk_status                            0x08003f3e   Section        0  diskio.o(i.disk_status)
    i.disk_write                             0x08003f44   Section        0  diskio.o(i.disk_write)
    i.exfuns_init                            0x08003f9c   Section        0  exfuns.o(i.exfuns_init)
    i.f_close                                0x08004008   Section        0  ff.o(i.f_close)
    i.f_lseek                                0x0800402a   Section        0  ff.o(i.f_lseek)
    i.f_mount                                0x080042dc   Section        0  ff.o(i.f_mount)
    i.f_open                                 0x08004330   Section        0  ff.o(i.f_open)
    i.f_read                                 0x08004518   Section        0  ff.o(i.f_read)
    i.f_sync                                 0x080046c4   Section        0  ff.o(i.f_sync)
    i.find_volume                            0x08004764   Section        0  ff.o(i.find_volume)
    find_volume                              0x08004765   Thumb Code   758  ff.o(i.find_volume)
    i.follow_path                            0x08004a70   Section        0  ff.o(i.follow_path)
    follow_path                              0x08004a71   Thumb Code   158  ff.o(i.follow_path)
    i.fputc                                  0x08004b10   Section        0  usart.o(i.fputc)
    i.get_fat                                0x08004b2c   Section        0  ff.o(i.get_fat)
    get_fat                                  0x08004b2d   Thumb Code   224  ff.o(i.get_fat)
    i.get_fattime                            0x08004c0c   Section        0  diskio.o(i.get_fattime)
    i.get_ldnumber                           0x08004c10   Section        0  ff.o(i.get_ldnumber)
    get_ldnumber                             0x08004c11   Thumb Code    76  ff.o(i.get_ldnumber)
    i.iap_load_app                           0x08004c5c   Section        0  iap.o(i.iap_load_app)
    i.ld_clust                               0x08004ca8   Section        0  ff.o(i.ld_clust)
    ld_clust                                 0x08004ca9   Thumb Code    38  ff.o(i.ld_clust)
    i.ld_dword                               0x08004cce   Section        0  ff.o(i.ld_dword)
    ld_dword                                 0x08004ccf   Thumb Code    24  ff.o(i.ld_dword)
    i.ld_word                                0x08004ce6   Section        0  ff.o(i.ld_word)
    ld_word                                  0x08004ce7   Thumb Code    12  ff.o(i.ld_word)
    i.main                                   0x08004cf4   Section        0  main.o(i.main)
    i.mem_cmp                                0x08004d54   Section        0  ff.o(i.mem_cmp)
    mem_cmp                                  0x08004d55   Thumb Code    36  ff.o(i.mem_cmp)
    i.mem_cpy                                0x08004d78   Section        0  ff.o(i.mem_cpy)
    mem_cpy                                  0x08004d79   Thumb Code    26  ff.o(i.mem_cpy)
    i.mem_set                                0x08004d92   Section        0  ff.o(i.mem_set)
    mem_set                                  0x08004d93   Thumb Code    18  ff.o(i.mem_set)
    i.move_window                            0x08004da4   Section        0  ff.o(i.move_window)
    move_window                              0x08004da5   Thumb Code    52  ff.o(i.move_window)
    i.my_mem_init                            0x08004dd8   Section        0  malloc.o(i.my_mem_init)
    i.my_mem_malloc                          0x08004e1c   Section        0  malloc.o(i.my_mem_malloc)
    i.my_mem_perused                         0x08004ec4   Section        0  malloc.o(i.my_mem_perused)
    i.mymalloc                               0x08004f04   Section        0  malloc.o(i.mymalloc)
    i.mymemset                               0x08004f2c   Section        0  malloc.o(i.mymemset)
    i.put_fat                                0x08004f40   Section        0  ff.o(i.put_fat)
    put_fat                                  0x08004f41   Thumb Code   312  ff.o(i.put_fat)
    i.remove_chain                           0x08005078   Section        0  ff.o(i.remove_chain)
    remove_chain                             0x08005079   Thumb Code   154  ff.o(i.remove_chain)
    i.st_clust                               0x08005112   Section        0  ff.o(i.st_clust)
    st_clust                                 0x08005113   Thumb Code    36  ff.o(i.st_clust)
    i.st_dword                               0x08005136   Section        0  ff.o(i.st_dword)
    st_dword                                 0x08005137   Thumb Code    24  ff.o(i.st_dword)
    i.st_word                                0x0800514e   Section        0  ff.o(i.st_word)
    st_word                                  0x0800514f   Thumb Code    12  ff.o(i.st_word)
    i.sync_fs                                0x0800515c   Section        0  ff.o(i.sync_fs)
    sync_fs                                  0x0800515d   Thumb Code   134  ff.o(i.sync_fs)
    i.sync_window                            0x080051ec   Section        0  ff.o(i.sync_window)
    sync_window                              0x080051ed   Thumb Code    74  ff.o(i.sync_window)
    i.uart_init                              0x08005238   Section        0  usart.o(i.uart_init)
    i.validate                               0x080052e0   Section        0  ff.o(i.validate)
    validate                                 0x080052e1   Thumb Code    60  ff.o(i.validate)
    .constdata                               0x0800531c   Section       54  ff.o(.constdata)
    DbcTbl                                   0x0800531c   Data          10  ff.o(.constdata)
    badchr                                   0x08005326   Data          16  ff.o(.constdata)
    cst                                      0x08005336   Data          14  ff.o(.constdata)
    cst32                                    0x08005344   Data          14  ff.o(.constdata)
    .constdata                               0x08005354   Section       24  malloc.o(.constdata)
    .constdata                               0x0800536c   Section       40  _printf_hex_int.o(.constdata)
    uc_hextab                                0x0800536c   Data          20  _printf_hex_int.o(.constdata)
    lc_hextab                                0x08005380   Data          20  _printf_hex_int.o(.constdata)
    .data                                    0x20000000   Section       20  system_stm32f10x.o(.data)
    .data                                    0x20000014   Section        4  delay.o(.data)
    fac_us                                   0x20000014   Data           1  delay.o(.data)
    fac_ms                                   0x20000016   Data           2  delay.o(.data)
    .data                                    0x20000018   Section        6  usart.o(.data)
    .data                                    0x2000001e   Section       20  stm32f10x_rcc.o(.data)
    APBAHBPrescTable                         0x2000001e   Data          16  stm32f10x_rcc.o(.data)
    ADCPrescTable                            0x2000002e   Data           4  stm32f10x_rcc.o(.data)
    .data                                    0x20000034   Section        6  ff.o(.data)
    FatFs                                    0x20000034   Data           4  ff.o(.data)
    Fsid                                     0x20000038   Data           2  ff.o(.data)
    .data                                    0x2000003c   Section        4  iap.o(.data)
    .data                                    0x20000040   Section       20  exfuns.o(.data)
    .data                                    0x20000054   Section       28  malloc.o(.data)
    .data                                    0x20000070   Section       16  sdio_sdcard.o(.data)
    CardType                                 0x20000070   Data           1  sdio_sdcard.o(.data)
    RCA                                      0x20000074   Data           4  sdio_sdcard.o(.data)
    DeviceMode                               0x20000078   Data           1  sdio_sdcard.o(.data)
    StopCondition                            0x20000079   Data           1  sdio_sdcard.o(.data)
    .data                                    0x20000080   Section       16  hex2bin.o(.data)
    nStart                                   0x20000080   Data           4  hex2bin.o(.data)
    nPos                                     0x20000084   Data           4  hex2bin.o(.data)
    nRemain                                  0x20000088   Data           4  hex2bin.o(.data)
    buffAddress                              0x2000008c   Data           2  hex2bin.o(.data)
    Page                                     0x2000008e   Data           2  hex2bin.o(.data)
    .bss                                     0x20000090   Section      200  usart.o(.bss)
    .bss                                     0x20000158   Section     4096  iap.o(.bss)
    .bss                                     0x20001160   Section    10880  malloc.o(.bss)
    .bss                                     0x20003be0   Section      704  sdio_sdcard.o(.bss)
    CSD_Tab                                  0x20003c24   Data          16  sdio_sdcard.o(.bss)
    CID_Tab                                  0x20003c34   Data          16  sdio_sdcard.o(.bss)
    .bss                                     0x20003ea0   Section       96  libspace.o(.bss)
    HEAP                                     0x20003f00   Section      512  startup_stm32f10x_hd.o(HEAP)
    Heap_Mem                                 0x20003f00   Data         512  startup_stm32f10x_hd.o(HEAP)
    STACK                                    0x20004100   Section     1024  startup_stm32f10x_hd.o(STACK)
    Stack_Mem                                0x20004100   Data        1024  startup_stm32f10x_hd.o(STACK)
    __initial_sp                             0x20004500   Data           0  startup_stm32f10x_hd.o(STACK)
    .ARM.__AT_0x68000000                     0x68000000   Section    524288  malloc.o(.ARM.__AT_0x68000000)
    .ARM.__AT_0x68080000                     0x68080000   Section    32768  malloc.o(.ARM.__AT_0x68080000)

    Global Symbols

    Symbol Name                              Value     Ov Type        Size  Object(Section)

    BuildAttributes$$THM_ISAv4$P$D$K$B$S$PE$A:L22UL41UL21$X:L11$S22US41US21$IEEE1$IW$USESV6$~STKCKD$USESV7$~SHL$OSPACE$ROPI$EBA8$UX$STANDARDLIB$REQ8$PRES8$EABIv2 0x00000000   Number         0  anon$$obj.o ABSOLUTE
    __ARM_use_no_argv                        0x00000000   Number         0  main.o ABSOLUTE
    _printf_flags                            0x00000000   Number         0  printf_stubs.o ABSOLUTE
    _printf_return_value                     0x00000000   Number         0  printf_stubs.o ABSOLUTE
    _printf_sizespec                         0x00000000   Number         0  printf_stubs.o ABSOLUTE
    _printf_widthprec                        0x00000000   Number         0  printf_stubs.o ABSOLUTE
    __ARM_exceptions_init                     - Undefined Weak Reference
    __alloca_initialize                       - Undefined Weak Reference
    __arm_preinit_                            - Undefined Weak Reference
    __cpp_initialize__aeabi_                  - Undefined Weak Reference
    __cxa_finalize                            - Undefined Weak Reference
    __rt_locale                               - Undefined Weak Reference
    __sigvec_lookup                           - Undefined Weak Reference
    _atexit_init                              - Undefined Weak Reference
    _call_atexit_fns                          - Undefined Weak Reference
    _clock_init                               - Undefined Weak Reference
    _fp_trap_init                             - Undefined Weak Reference
    _fp_trap_shutdown                         - Undefined Weak Reference
    _get_lc_collate                           - Undefined Weak Reference
    _get_lc_ctype                             - Undefined Weak Reference
    _get_lc_monetary                          - Undefined Weak Reference
    _get_lc_numeric                           - Undefined Weak Reference
    _get_lc_time                              - Undefined Weak Reference
    _getenv_init                              - Undefined Weak Reference
    _handle_redirection                       - Undefined Weak Reference
    _init_alloc                               - Undefined Weak Reference
    _init_user_alloc                          - Undefined Weak Reference
    _initio                                   - Undefined Weak Reference
    _mutex_acquire                            - Undefined Weak Reference
    _mutex_release                            - Undefined Weak Reference
    _printf_truncate_unsigned                 - Undefined Weak Reference
    _rand_init                                - Undefined Weak Reference
    _signal_finish                            - Undefined Weak Reference
    _signal_init                              - Undefined Weak Reference
    _terminate_alloc                          - Undefined Weak Reference
    _terminate_user_alloc                     - Undefined Weak Reference
    _terminateio                              - Undefined Weak Reference
    __Vectors_Size                           0x00000130   Number         0  startup_stm32f10x_hd.o ABSOLUTE
    __Vectors                                0x08000000   Data           4  startup_stm32f10x_hd.o(RESET)
    __Vectors_End                            0x08000130   Data           0  startup_stm32f10x_hd.o(RESET)
    __main                                   0x08000131   Thumb Code     8  __main.o(!!!main)
    __scatterload                            0x08000139   Thumb Code     0  __scatter.o(!!!scatter)
    __scatterload_rt2                        0x08000139   Thumb Code    44  __scatter.o(!!!scatter)
    __scatterload_rt2_thumb_only             0x08000139   Thumb Code     0  __scatter.o(!!!scatter)
    __scatterload_null                       0x08000147   Thumb Code     0  __scatter.o(!!!scatter)
    __scatterload_copy                       0x0800016d   Thumb Code    26  __scatter_copy.o(!!handler_copy)
    __scatterload_zeroinit                   0x08000189   Thumb Code    28  __scatter_zi.o(!!handler_zi)
    _printf_percent                          0x080001a5   Thumb Code     0  _printf_percent.o(.ARM.Collect$$_printf_percent$$00000000)
    _printf_x                                0x080001a5   Thumb Code     0  _printf_x.o(.ARM.Collect$$_printf_percent$$0000000C)
    _printf_percent_end                      0x080001ab   Thumb Code     0  _printf_percent_end.o(.ARM.Collect$$_printf_percent$$00000017)
    __rt_lib_init                            0x080001af   Thumb Code     0  libinit.o(.ARM.Collect$$libinit$$00000000)
    __rt_lib_init_alloca_1                   0x080001b1   Thumb Code     0  libinit2.o(.ARM.Collect$$libinit$$0000002E)
    __rt_lib_init_argv_1                     0x080001b1   Thumb Code     0  libinit2.o(.ARM.Collect$$libinit$$0000002C)
    __rt_lib_init_atexit_1                   0x080001b1   Thumb Code     0  libinit2.o(.ARM.Collect$$libinit$$0000001B)
    __rt_lib_init_clock_1                    0x080001b1   Thumb Code     0  libinit2.o(.ARM.Collect$$libinit$$00000021)
    __rt_lib_init_cpp_1                      0x080001b1   Thumb Code     0  libinit2.o(.ARM.Collect$$libinit$$00000032)
    __rt_lib_init_exceptions_1               0x080001b1   Thumb Code     0  libinit2.o(.ARM.Collect$$libinit$$00000030)
    __rt_lib_init_fp_1                       0x080001b1   Thumb Code     0  libinit2.o(.ARM.Collect$$libinit$$00000002)
    __rt_lib_init_fp_trap_1                  0x080001b1   Thumb Code     0  libinit2.o(.ARM.Collect$$libinit$$0000001F)
    __rt_lib_init_getenv_1                   0x080001b1   Thumb Code     0  libinit2.o(.ARM.Collect$$libinit$$00000023)
    __rt_lib_init_heap_1                     0x080001b1   Thumb Code     0  libinit2.o(.ARM.Collect$$libinit$$0000000A)
    __rt_lib_init_lc_collate_1               0x080001b1   Thumb Code     0  libinit2.o(.ARM.Collect$$libinit$$00000011)
    __rt_lib_init_lc_ctype_1                 0x080001b1   Thumb Code     0  libinit2.o(.ARM.Collect$$libinit$$00000013)
    __rt_lib_init_lc_monetary_1              0x080001b1   Thumb Code     0  libinit2.o(.ARM.Collect$$libinit$$00000015)
    __rt_lib_init_lc_numeric_1               0x080001b1   Thumb Code     0  libinit2.o(.ARM.Collect$$libinit$$00000017)
    __rt_lib_init_lc_time_1                  0x080001b1   Thumb Code     0  libinit2.o(.ARM.Collect$$libinit$$00000019)
    __rt_lib_init_preinit_1                  0x080001b1   Thumb Code     0  libinit2.o(.ARM.Collect$$libinit$$00000004)
    __rt_lib_init_rand_1                     0x080001b1   Thumb Code     0  libinit2.o(.ARM.Collect$$libinit$$0000000E)
    __rt_lib_init_return                     0x080001b1   Thumb Code     0  libinit2.o(.ARM.Collect$$libinit$$00000033)
    __rt_lib_init_signal_1                   0x080001b1   Thumb Code     0  libinit2.o(.ARM.Collect$$libinit$$0000001D)
    __rt_lib_init_stdio_1                    0x080001b1   Thumb Code     0  libinit2.o(.ARM.Collect$$libinit$$00000025)
    __rt_lib_init_user_alloc_1               0x080001b1   Thumb Code     0  libinit2.o(.ARM.Collect$$libinit$$0000000C)
    __rt_lib_shutdown                        0x080001b3   Thumb Code     0  libshutdown.o(.ARM.Collect$$libshutdown$$00000000)
    __rt_lib_shutdown_fp_trap_1              0x080001b5   Thumb Code     0  libshutdown2.o(.ARM.Collect$$libshutdown$$00000006)
    __rt_lib_shutdown_heap_1                 0x080001b5   Thumb Code     0  libshutdown2.o(.ARM.Collect$$libshutdown$$0000000E)
    __rt_lib_shutdown_return                 0x080001b5   Thumb Code     0  libshutdown2.o(.ARM.Collect$$libshutdown$$0000000F)
    __rt_lib_shutdown_signal_1               0x080001b5   Thumb Code     0  libshutdown2.o(.ARM.Collect$$libshutdown$$00000009)
    __rt_lib_shutdown_stdio_1                0x080001b5   Thumb Code     0  libshutdown2.o(.ARM.Collect$$libshutdown$$00000003)
    __rt_lib_shutdown_user_alloc_1           0x080001b5   Thumb Code     0  libshutdown2.o(.ARM.Collect$$libshutdown$$0000000B)
    __rt_entry                               0x080001b7   Thumb Code     0  __rtentry.o(.ARM.Collect$$rtentry$$00000000)
    __rt_entry_presh_1                       0x080001b7   Thumb Code     0  __rtentry2.o(.ARM.Collect$$rtentry$$00000002)
    __rt_entry_sh                            0x080001b7   Thumb Code     0  __rtentry4.o(.ARM.Collect$$rtentry$$00000004)
    __rt_entry_li                            0x080001bd   Thumb Code     0  __rtentry2.o(.ARM.Collect$$rtentry$$0000000A)
    __rt_entry_postsh_1                      0x080001bd   Thumb Code     0  __rtentry2.o(.ARM.Collect$$rtentry$$00000009)
    __rt_entry_main                          0x080001c1   Thumb Code     0  __rtentry2.o(.ARM.Collect$$rtentry$$0000000D)
    __rt_entry_postli_1                      0x080001c1   Thumb Code     0  __rtentry2.o(.ARM.Collect$$rtentry$$0000000C)
    __rt_exit                                0x080001c9   Thumb Code     0  rtexit.o(.ARM.Collect$$rtexit$$00000000)
    __rt_exit_ls                             0x080001cb   Thumb Code     0  rtexit2.o(.ARM.Collect$$rtexit$$00000003)
    __rt_exit_prels_1                        0x080001cb   Thumb Code     0  rtexit2.o(.ARM.Collect$$rtexit$$00000002)
    __rt_exit_exit                           0x080001cf   Thumb Code     0  rtexit2.o(.ARM.Collect$$rtexit$$00000004)
    MSR_MSP                                  0x080001d5   Thumb Code     6  sys.o(.emb_text)
    Reset_Handler                            0x080001dd   Thumb Code     8  startup_stm32f10x_hd.o(.text)
    ADC1_2_IRQHandler                        0x080001f7   Thumb Code     0  startup_stm32f10x_hd.o(.text)
    ADC3_IRQHandler                          0x080001f7   Thumb Code     0  startup_stm32f10x_hd.o(.text)
    CAN1_RX1_IRQHandler                      0x080001f7   Thumb Code     0  startup_stm32f10x_hd.o(.text)
    CAN1_SCE_IRQHandler                      0x080001f7   Thumb Code     0  startup_stm32f10x_hd.o(.text)
    DMA1_Channel1_IRQHandler                 0x080001f7   Thumb Code     0  startup_stm32f10x_hd.o(.text)
    DMA1_Channel2_IRQHandler                 0x080001f7   Thumb Code     0  startup_stm32f10x_hd.o(.text)
    DMA1_Channel3_IRQHandler                 0x080001f7   Thumb Code     0  startup_stm32f10x_hd.o(.text)
    DMA1_Channel4_IRQHandler                 0x080001f7   Thumb Code     0  startup_stm32f10x_hd.o(.text)
    DMA1_Channel5_IRQHandler                 0x080001f7   Thumb Code     0  startup_stm32f10x_hd.o(.text)
    DMA1_Channel6_IRQHandler                 0x080001f7   Thumb Code     0  startup_stm32f10x_hd.o(.text)
    DMA1_Channel7_IRQHandler                 0x080001f7   Thumb Code     0  startup_stm32f10x_hd.o(.text)
    DMA2_Channel1_IRQHandler                 0x080001f7   Thumb Code     0  startup_stm32f10x_hd.o(.text)
    DMA2_Channel2_IRQHandler                 0x080001f7   Thumb Code     0  startup_stm32f10x_hd.o(.text)
    DMA2_Channel3_IRQHandler                 0x080001f7   Thumb Code     0  startup_stm32f10x_hd.o(.text)
    DMA2_Channel4_5_IRQHandler               0x080001f7   Thumb Code     0  startup_stm32f10x_hd.o(.text)
    EXTI0_IRQHandler                         0x080001f7   Thumb Code     0  startup_stm32f10x_hd.o(.text)
    EXTI15_10_IRQHandler                     0x080001f7   Thumb Code     0  startup_stm32f10x_hd.o(.text)
    EXTI1_IRQHandler                         0x080001f7   Thumb Code     0  startup_stm32f10x_hd.o(.text)
    EXTI2_IRQHandler                         0x080001f7   Thumb Code     0  startup_stm32f10x_hd.o(.text)
    EXTI3_IRQHandler                         0x080001f7   Thumb Code     0  startup_stm32f10x_hd.o(.text)
    EXTI4_IRQHandler                         0x080001f7   Thumb Code     0  startup_stm32f10x_hd.o(.text)
    EXTI9_5_IRQHandler                       0x080001f7   Thumb Code     0  startup_stm32f10x_hd.o(.text)
    FLASH_IRQHandler                         0x080001f7   Thumb Code     0  startup_stm32f10x_hd.o(.text)
    FSMC_IRQHandler                          0x080001f7   Thumb Code     0  startup_stm32f10x_hd.o(.text)
    I2C1_ER_IRQHandler                       0x080001f7   Thumb Code     0  startup_stm32f10x_hd.o(.text)
    I2C1_EV_IRQHandler                       0x080001f7   Thumb Code     0  startup_stm32f10x_hd.o(.text)
    I2C2_ER_IRQHandler                       0x080001f7   Thumb Code     0  startup_stm32f10x_hd.o(.text)
    I2C2_EV_IRQHandler                       0x080001f7   Thumb Code     0  startup_stm32f10x_hd.o(.text)
    PVD_IRQHandler                           0x080001f7   Thumb Code     0  startup_stm32f10x_hd.o(.text)
    RCC_IRQHandler                           0x080001f7   Thumb Code     0  startup_stm32f10x_hd.o(.text)
    SPI1_IRQHandler                          0x080001f7   Thumb Code     0  startup_stm32f10x_hd.o(.text)
    SPI2_IRQHandler                          0x080001f7   Thumb Code     0  startup_stm32f10x_hd.o(.text)
    SPI3_IRQHandler                          0x080001f7   Thumb Code     0  startup_stm32f10x_hd.o(.text)
    TAMPER_IRQHandler                        0x080001f7   Thumb Code     0  startup_stm32f10x_hd.o(.text)
    TIM1_BRK_IRQHandler                      0x080001f7   Thumb Code     0  startup_stm32f10x_hd.o(.text)
    TIM1_CC_IRQHandler                       0x080001f7   Thumb Code     0  startup_stm32f10x_hd.o(.text)
    TIM1_TRG_COM_IRQHandler                  0x080001f7   Thumb Code     0  startup_stm32f10x_hd.o(.text)
    TIM1_UP_IRQHandler                       0x080001f7   Thumb Code     0  startup_stm32f10x_hd.o(.text)
    TIM2_IRQHandler                          0x080001f7   Thumb Code     0  startup_stm32f10x_hd.o(.text)
    TIM3_IRQHandler                          0x080001f7   Thumb Code     0  startup_stm32f10x_hd.o(.text)
    TIM4_IRQHandler                          0x080001f7   Thumb Code     0  startup_stm32f10x_hd.o(.text)
    TIM5_IRQHandler                          0x080001f7   Thumb Code     0  startup_stm32f10x_hd.o(.text)
    TIM6_IRQHandler                          0x080001f7   Thumb Code     0  startup_stm32f10x_hd.o(.text)
    TIM7_IRQHandler                          0x080001f7   Thumb Code     0  startup_stm32f10x_hd.o(.text)
    TIM8_BRK_IRQHandler                      0x080001f7   Thumb Code     0  startup_stm32f10x_hd.o(.text)
    TIM8_CC_IRQHandler                       0x080001f7   Thumb Code     0  startup_stm32f10x_hd.o(.text)
    TIM8_TRG_COM_IRQHandler                  0x080001f7   Thumb Code     0  startup_stm32f10x_hd.o(.text)
    TIM8_UP_IRQHandler                       0x080001f7   Thumb Code     0  startup_stm32f10x_hd.o(.text)
    UART4_IRQHandler                         0x080001f7   Thumb Code     0  startup_stm32f10x_hd.o(.text)
    UART5_IRQHandler                         0x080001f7   Thumb Code     0  startup_stm32f10x_hd.o(.text)
    USART2_IRQHandler                        0x080001f7   Thumb Code     0  startup_stm32f10x_hd.o(.text)
    USART3_IRQHandler                        0x080001f7   Thumb Code     0  startup_stm32f10x_hd.o(.text)
    USBWakeUp_IRQHandler                     0x080001f7   Thumb Code     0  startup_stm32f10x_hd.o(.text)
    USB_HP_CAN1_TX_IRQHandler                0x080001f7   Thumb Code     0  startup_stm32f10x_hd.o(.text)
    USB_LP_CAN1_RX0_IRQHandler               0x080001f7   Thumb Code     0  startup_stm32f10x_hd.o(.text)
    WWDG_IRQHandler                          0x080001f7   Thumb Code     0  startup_stm32f10x_hd.o(.text)
    __user_initial_stackheap                 0x080001f9   Thumb Code     0  startup_stm32f10x_hd.o(.text)
    __use_no_semihosting                     0x0800021d   Thumb Code     2  use_no_semi_2.o(.text)
    __aeabi_ldivmod                          0x0800021f   Thumb Code     0  llsdiv.o(.text)
    _ll_sdiv                                 0x0800021f   Thumb Code    72  llsdiv.o(.text)
    __2printf                                0x08000269   Thumb Code    20  noretval__2printf.o(.text)
    _printf_pre_padding                      0x08000281   Thumb Code    44  _printf_pad.o(.text)
    _printf_post_padding                     0x080002ad   Thumb Code    34  _printf_pad.o(.text)
    _printf_int_hex                          0x080002d1   Thumb Code    84  _printf_hex_int.o(.text)
    _printf_longlong_hex                     0x080002d1   Thumb Code     0  _printf_hex_int.o(.text)
    __printf                                 0x08000329   Thumb Code   270  __printf_wp.o(.text)
    strlen                                   0x08000437   Thumb Code    62  strlen.o(.text)
    __aeabi_memcpy                           0x08000475   Thumb Code     0  rt_memcpy_v6.o(.text)
    __rt_memcpy                              0x08000475   Thumb Code   138  rt_memcpy_v6.o(.text)
    _memcpy_lastbytes                        0x080004db   Thumb Code     0  rt_memcpy_v6.o(.text)
    __use_two_region_memory                  0x080004ff   Thumb Code     2  heapauxi.o(.text)
    __rt_heap_escrow$2region                 0x08000501   Thumb Code     2  heapauxi.o(.text)
    __rt_heap_expand$2region                 0x08000503   Thumb Code     2  heapauxi.o(.text)
    __I$use$semihosting                      0x08000505   Thumb Code     0  use_no_semi.o(.text)
    __use_no_semihosting_swi                 0x08000505   Thumb Code     2  use_no_semi.o(.text)
    __aeabi_uldivmod                         0x08000507   Thumb Code     0  lludivv7m.o(.text)
    _ll_udiv                                 0x08000507   Thumb Code   238  lludivv7m.o(.text)
    _printf_int_common                       0x080005f5   Thumb Code   178  _printf_intcommon.o(.text)
    _printf_char_file                        0x080006a9   Thumb Code    32  _printf_char_file.o(.text)
    __aeabi_memcpy4                          0x080006cd   Thumb Code     0  rt_memcpy_w.o(.text)
    __aeabi_memcpy8                          0x080006cd   Thumb Code     0  rt_memcpy_w.o(.text)
    __rt_memcpy_w                            0x080006cd   Thumb Code   100  rt_memcpy_w.o(.text)
    _memcpy_lastbytes_aligned                0x08000715   Thumb Code     0  rt_memcpy_w.o(.text)
    _printf_char_common                      0x0800073b   Thumb Code    32  _printf_char_common.o(.text)
    ferror                                   0x08000761   Thumb Code     8  ferror.o(.text)
    __user_setup_stackheap                   0x08000769   Thumb Code    74  sys_stackheap_outer.o(.text)
    exit                                     0x080007b3   Thumb Code    12  exit.o(.text)
    __user_libspace                          0x080007c1   Thumb Code     8  libspace.o(.text)
    __user_perproc_libspace                  0x080007c1   Thumb Code     0  libspace.o(.text)
    __user_perthread_libspace                0x080007c1   Thumb Code     0  libspace.o(.text)
    BootToAPP                                0x080007c9   Thumb Code   242  iap.o(i.BootToAPP)
    BusFault_Handler                         0x08000969   Thumb Code     4  stm32f10x_it.o(i.BusFault_Handler)
    CheckHexFile                             0x0800096d   Thumb Code   230  hex2bin.o(i.CheckHexFile)
    CmdError                                 0x08000a9d   Thumb Code    48  sdio_sdcard.o(i.CmdError)
    CmdResp1Error                            0x08000acd   Thumb Code    90  sdio_sdcard.o(i.CmdResp1Error)
    CmdResp2Error                            0x08000b2d   Thumb Code    80  sdio_sdcard.o(i.CmdResp2Error)
    CmdResp3Error                            0x08000b81   Thumb Code    50  sdio_sdcard.o(i.CmdResp3Error)
    CmdResp6Error                            0x08000bb9   Thumb Code   140  sdio_sdcard.o(i.CmdResp6Error)
    CmdResp7Error                            0x08000c49   Thumb Code    70  sdio_sdcard.o(i.CmdResp7Error)
    DMA_Cmd                                  0x08000c95   Thumb Code    24  stm32f10x_dma.o(i.DMA_Cmd)
    DMA_DeInit                               0x08000cad   Thumb Code   324  stm32f10x_dma.o(i.DMA_DeInit)
    DMA_Init                                 0x08000df9   Thumb Code    60  stm32f10x_dma.o(i.DMA_Init)
    DebugMon_Handler                         0x08000e35   Thumb Code     2  stm32f10x_it.o(i.DebugMon_Handler)
    Disable_Irq                              0x08000e39   Thumb Code    34  iap.o(i.Disable_Irq)
    EXTI_ClearITPendingBit                   0x08000e65   Thumb Code     6  stm32f10x_exti.o(i.EXTI_ClearITPendingBit)
    FLASH_ErasePage                          0x08000e71   Thumb Code    72  stm32f10x_flash.o(i.FLASH_ErasePage)
    FLASH_GetBank1Status                     0x08000ebd   Thumb Code    48  stm32f10x_flash.o(i.FLASH_GetBank1Status)
    FLASH_Lock                               0x08000ef1   Thumb Code    14  stm32f10x_flash.o(i.FLASH_Lock)
    FLASH_ProgramHalfWord                    0x08000f05   Thumb Code    60  stm32f10x_flash.o(i.FLASH_ProgramHalfWord)
    FLASH_Unlock                             0x08000f45   Thumb Code    12  stm32f10x_flash.o(i.FLASH_Unlock)
    FLASH_WaitForLastOperation               0x08000f5d   Thumb Code    38  stm32f10x_flash.o(i.FLASH_WaitForLastOperation)
    FindSCR                                  0x08000f85   Thumb Code   386  sdio_sdcard.o(i.FindSCR)
    GPIO_Init                                0x08001119   Thumb Code   278  stm32f10x_gpio.o(i.GPIO_Init)
    HardFault_Handler                        0x0800122f   Thumb Code     4  stm32f10x_it.o(i.HardFault_Handler)
    Hex2Bin                                  0x08001233   Thumb Code   106  hex2bin.o(i.Hex2Bin)
    INTX_DISABLE                             0x0800129d   Thumb Code     4  sys.o(i.INTX_DISABLE)
    INTX_ENABLE                              0x080012a1   Thumb Code     4  sys.o(i.INTX_ENABLE)
    Init                                     0x080012a5   Thumb Code    20  iap.o(i.Init)
    IsCardProgramming                        0x080012c1   Thumb Code   142  sdio_sdcard.o(i.IsCardProgramming)
    MemManage_Handler                        0x0800135d   Thumb Code     4  stm32f10x_it.o(i.MemManage_Handler)
    NMI_Handler                              0x08001361   Thumb Code     2  stm32f10x_it.o(i.NMI_Handler)
    NVIC_Init                                0x08001365   Thumb Code   100  misc.o(i.NVIC_Init)
    NVIC_PriorityGroupConfig                 0x080013d5   Thumb Code    10  misc.o(i.NVIC_PriorityGroupConfig)
    PWR_ClearFlag                            0x080013e9   Thumb Code    14  stm32f10x_pwr.o(i.PWR_ClearFlag)
    PWR_GetFlagStatus                        0x080013fd   Thumb Code    20  stm32f10x_pwr.o(i.PWR_GetFlagStatus)
    PendSV_Handler                           0x08001415   Thumb Code     2  stm32f10x_it.o(i.PendSV_Handler)
    RCC_AHBPeriphClockCmd                    0x08001419   Thumb Code    26  stm32f10x_rcc.o(i.RCC_AHBPeriphClockCmd)
    RCC_APB1PeriphResetCmd                   0x08001439   Thumb Code    26  stm32f10x_rcc.o(i.RCC_APB1PeriphResetCmd)
    RCC_APB2PeriphClockCmd                   0x08001459   Thumb Code    26  stm32f10x_rcc.o(i.RCC_APB2PeriphClockCmd)
    RCC_APB2PeriphResetCmd                   0x08001479   Thumb Code    26  stm32f10x_rcc.o(i.RCC_APB2PeriphResetCmd)
    RCC_GetClocksFreq                        0x08001499   Thumb Code   192  stm32f10x_rcc.o(i.RCC_GetClocksFreq)
    RTCAlarm_IRQHandler                      0x0800156d   Thumb Code    76  sleep.o(i.RTCAlarm_IRQHandler)
    RTC_ClearITPendingBit                    0x080015c1   Thumb Code    12  stm32f10x_rtc.o(i.RTC_ClearITPendingBit)
    RTC_GetITStatus                          0x080015d1   Thumb Code    32  stm32f10x_rtc.o(i.RTC_GetITStatus)
    RTC_IRQHandler                           0x080015f5   Thumb Code    18  sleep.o(i.RTC_IRQHandler)
    RTC_WaitForLastTask                      0x08001609   Thumb Code    16  stm32f10x_rtc.o(i.RTC_WaitForLastTask)
    ReadLineInBuff                           0x0800161d   Thumb Code   402  hex2bin.o(i.ReadLineInBuff)
    SD2ROM                                   0x080017bd   Thumb Code   354  hex2bin.o(i.SD2ROM)
    SDEnWideBus                              0x0800194d   Thumb Code   158  sdio_sdcard.o(i.SDEnWideBus)
    SDIO_ClearFlag                           0x080019f9   Thumb Code     6  stm32f10x_sdio.o(i.SDIO_ClearFlag)
    SDIO_ClockCmd                            0x08001a05   Thumb Code     6  stm32f10x_sdio.o(i.SDIO_ClockCmd)
    SDIO_Clock_Set                           0x08001a11   Thumb Code    16  sdio_sdcard.o(i.SDIO_Clock_Set)
    SDIO_DMACmd                              0x08001a25   Thumb Code     6  stm32f10x_sdio.o(i.SDIO_DMACmd)
    SDIO_DataConfig                          0x08001a31   Thumb Code    42  stm32f10x_sdio.o(i.SDIO_DataConfig)
    SDIO_DeInit                              0x08001a61   Thumb Code    28  stm32f10x_sdio.o(i.SDIO_DeInit)
    SDIO_GetFlagStatus                       0x08001a85   Thumb Code    20  stm32f10x_sdio.o(i.SDIO_GetFlagStatus)
    SDIO_GetPowerState                       0x08001a9d   Thumb Code    10  stm32f10x_sdio.o(i.SDIO_GetPowerState)
    SDIO_IRQHandler                          0x08001aad   Thumb Code     8  sdio_sdcard.o(i.SDIO_IRQHandler)
    SDIO_Init                                0x08001ab5   Thumb Code    42  stm32f10x_sdio.o(i.SDIO_Init)
    SDIO_ReadData                            0x08001ae5   Thumb Code     6  stm32f10x_sdio.o(i.SDIO_ReadData)
    SDIO_SendCommand                         0x08001af1   Thumb Code    38  stm32f10x_sdio.o(i.SDIO_SendCommand)
    SDIO_SetPowerState                       0x08001b1d   Thumb Code    22  stm32f10x_sdio.o(i.SDIO_SetPowerState)
    SDIO_WriteData                           0x08001b39   Thumb Code     6  stm32f10x_sdio.o(i.SDIO_WriteData)
    SD_DMA_Config                            0x08001b45   Thumb Code    94  sdio_sdcard.o(i.SD_DMA_Config)
    SD_EnableWideBusOperation                0x08001bad   Thumb Code    94  sdio_sdcard.o(i.SD_EnableWideBusOperation)
    SD_GetCardInfo                           0x08001c15   Thumb Code   772  sdio_sdcard.o(i.SD_GetCardInfo)
    SD_Init                                  0x08001f29   Thumb Code   238  sdio_sdcard.o(i.SD_Init)
    SD_InitializeCards                       0x08002029   Thumb Code   316  sdio_sdcard.o(i.SD_InitializeCards)
    SD_PowerON                               0x0800217d   Thumb Code   450  sdio_sdcard.o(i.SD_PowerON)
    SD_ProcessIRQSrc                         0x08002359   Thumb Code   296  sdio_sdcard.o(i.SD_ProcessIRQSrc)
    SD_ReadBlock                             0x08002495   Thumb Code   558  sdio_sdcard.o(i.SD_ReadBlock)
    SD_ReadDisk                              0x080026ed   Thumb Code   148  sdio_sdcard.o(i.SD_ReadDisk)
    SD_ReadMultiBlocks                       0x08002785   Thumb Code   698  sdio_sdcard.o(i.SD_ReadMultiBlocks)
    SD_SelectDeselect                        0x08002a6d   Thumb Code    42  sdio_sdcard.o(i.SD_SelectDeselect)
    SD_SetDeviceMode                         0x08002a9d   Thumb Code    20  sdio_sdcard.o(i.SD_SetDeviceMode)
    SD_WriteBlock                            0x08002ab5   Thumb Code   844  sdio_sdcard.o(i.SD_WriteBlock)
    SD_WriteDisk                             0x08002e29   Thumb Code   148  sdio_sdcard.o(i.SD_WriteDisk)
    SD_WriteMultiBlocks                      0x08002ec1   Thumb Code   920  sdio_sdcard.o(i.SD_WriteMultiBlocks)
    STMFLASH_WriteOnePage                    0x08003281   Thumb Code    72  stmflash.o(i.STMFLASH_WriteOnePage)
    STMFLASH_Write_NoCheck                   0x080032e1   Thumb Code    38  stmflash.o(i.STMFLASH_Write_NoCheck)
    SVC_Handler                              0x08003307   Thumb Code     2  stm32f10x_it.o(i.SVC_Handler)
    SysTick_CLKSourceConfig                  0x080033f1   Thumb Code    40  misc.o(i.SysTick_CLKSourceConfig)
    SysTick_Handler                          0x08003419   Thumb Code     2  stm32f10x_it.o(i.SysTick_Handler)
    SystemInit                               0x0800341d   Thumb Code    78  system_stm32f10x.o(i.SystemInit)
    USART1_IRQHandler                        0x0800347d   Thumb Code   122  usart.o(i.USART1_IRQHandler)
    USART_ClearITPendingBit                  0x08003505   Thumb Code    30  stm32f10x_usart.o(i.USART_ClearITPendingBit)
    USART_Cmd                                0x08003523   Thumb Code    24  stm32f10x_usart.o(i.USART_Cmd)
    USART_DeInit                             0x0800353d   Thumb Code   134  stm32f10x_usart.o(i.USART_DeInit)
    USART_GetITStatus                        0x080035d9   Thumb Code    84  stm32f10x_usart.o(i.USART_GetITStatus)
    USART_ITConfig                           0x0800362d   Thumb Code    74  stm32f10x_usart.o(i.USART_ITConfig)
    USART_Init                               0x08003679   Thumb Code   210  stm32f10x_usart.o(i.USART_Init)
    USART_ReceiveData                        0x08003751   Thumb Code    10  stm32f10x_usart.o(i.USART_ReceiveData)
    UsageFault_Handler                       0x0800375b   Thumb Code     4  stm32f10x_it.o(i.UsageFault_Handler)
    _is_digit                                0x0800375f   Thumb Code    14  __printf_wp.o(i._is_digit)
    _sys_exit                                0x0800376d   Thumb Code     6  usart.o(i._sys_exit)
    convert_from_bytes_to_power_of_two       0x08003851   Thumb Code    18  sdio_sdcard.o(i.convert_from_bytes_to_power_of_two)
    delay_init                               0x08003b05   Thumb Code    50  delay.o(i.delay_init)
    delay_ms                                 0x08003b49   Thumb Code    72  delay.o(i.delay_ms)
    disk_initialize                          0x08003e5d   Thumb Code    32  diskio.o(i.disk_initialize)
    disk_ioctl                               0x08003e7d   Thumb Code   102  diskio.o(i.disk_ioctl)
    disk_read                                0x08003ee9   Thumb Code    86  diskio.o(i.disk_read)
    disk_status                              0x08003f3f   Thumb Code     6  diskio.o(i.disk_status)
    disk_write                               0x08003f45   Thumb Code    86  diskio.o(i.disk_write)
    exfuns_init                              0x08003f9d   Thumb Code    94  exfuns.o(i.exfuns_init)
    f_close                                  0x08004009   Thumb Code    34  ff.o(i.f_close)
    f_lseek                                  0x0800402b   Thumb Code   688  ff.o(i.f_lseek)
    f_mount                                  0x080042dd   Thumb Code    80  ff.o(i.f_mount)
    f_open                                   0x08004331   Thumb Code   488  ff.o(i.f_open)
    f_read                                   0x08004519   Thumb Code   428  ff.o(i.f_read)
    f_sync                                   0x080046c5   Thumb Code   160  ff.o(i.f_sync)
    fputc                                    0x08004b11   Thumb Code    24  usart.o(i.fputc)
    get_fattime                              0x08004c0d   Thumb Code     4  diskio.o(i.get_fattime)
    iap_load_app                             0x08004c5d   Thumb Code    44  iap.o(i.iap_load_app)
    main                                     0x08004cf5   Thumb Code    70  main.o(i.main)
    my_mem_init                              0x08004dd9   Thumb Code    54  malloc.o(i.my_mem_init)
    my_mem_malloc                            0x08004e1d   Thumb Code   156  malloc.o(i.my_mem_malloc)
    my_mem_perused                           0x08004ec5   Thumb Code    54  malloc.o(i.my_mem_perused)
    mymalloc                                 0x08004f05   Thumb Code    34  malloc.o(i.mymalloc)
    mymemset                                 0x08004f2d   Thumb Code    20  malloc.o(i.mymemset)
    uart_init                                0x08005239   Thumb Code   158  usart.o(i.uart_init)
    memtblsize                               0x08005354   Data           8  malloc.o(.constdata)
    memblksize                               0x0800535c   Data           8  malloc.o(.constdata)
    memsize                                  0x08005364   Data           8  malloc.o(.constdata)
    Region$$Table$$Base                      0x08005394   Number         0  anon$$obj.o(Region$$Table)
    Region$$Table$$Limit                     0x080053b4   Number         0  anon$$obj.o(Region$$Table)
    SystemCoreClock                          0x20000000   Data           4  system_stm32f10x.o(.data)
    AHBPrescTable                            0x20000004   Data          16  system_stm32f10x.o(.data)
    __stdout                                 0x20000018   Data           4  usart.o(.data)
    USART_RX_STA                             0x2000001c   Data           2  usart.o(.data)
    jump2app                                 0x2000003c   Data           4  iap.o(.data)
    fs                                       0x20000040   Data           4  exfuns.o(.data)
    file                                     0x20000044   Data           4  exfuns.o(.data)
    br                                       0x20000048   Data           4  exfuns.o(.data)
    bw                                       0x2000004c   Data           4  exfuns.o(.data)
    fatbuf                                   0x20000050   Data           4  exfuns.o(.data)
    mallco_dev                               0x20000054   Data          28  malloc.o(.data)
    TransferError                            0x2000007a   Data           1  sdio_sdcard.o(.data)
    TransferEnd                              0x2000007b   Data           1  sdio_sdcard.o(.data)
    tempbuff                                 0x2000007c   Data           4  sdio_sdcard.o(.data)
    USART_RX_BUF                             0x20000090   Data         200  usart.o(.bss)
    U8Buff                                   0x20000158   Data        2048  iap.o(.bss)
    U8B                                      0x20000958   Data        2048  iap.o(.bss)
    mem1base                                 0x20001160   Data       10240  malloc.o(.bss)
    mem1mapbase                              0x20003960   Data         640  malloc.o(.bss)
    SDIO_InitStructure                       0x20003be0   Data          24  sdio_sdcard.o(.bss)
    SDIO_CmdInitStructure                    0x20003bf8   Data          20  sdio_sdcard.o(.bss)
    SDIO_DataInitStructure                   0x20003c0c   Data          24  sdio_sdcard.o(.bss)
    SDCardInfo                               0x20003c48   Data          88  sdio_sdcard.o(.bss)
    SDIO_DATA_BUFFER                         0x20003ca0   Data         512  sdio_sdcard.o(.bss)
    __libspace_start                         0x20003ea0   Data          96  libspace.o(.bss)
    __temporary_stack_top$libspace           0x20003f00   Data           0  libspace.o(.bss)
    mem2base                                 0x68000000   Data       524288  malloc.o(.ARM.__AT_0x68000000)
    mem2mapbase                              0x68080000   Data       32768  malloc.o(.ARM.__AT_0x68080000)



==============================================================================

Memory Map of the image

  Image Entry point : 0x080001dd

  Load Region LR_1 (Base: 0x08000000, Size: 0x00005444, Max: 0xffffffff, ABSOLUTE)

    Execution Region ER_RO (Base: 0x08000000, Size: 0x000053b4, Max: 0xffffffff, ABSOLUTE)

    Base Addr    Size         Type   Attr      Idx    E Section Name        Object

    0x08000000   0x00000130   Data   RO          412    RESET               startup_stm32f10x_hd.o
    0x08000130   0x00000008   Code   RO         3988  * !!!main             c_w.l(__main.o)
    0x08000138   0x00000034   Code   RO         4169    !!!scatter          c_w.l(__scatter.o)
    0x0800016c   0x0000001a   Code   RO         4171    !!handler_copy      c_w.l(__scatter_copy.o)
    0x08000186   0x00000002   PAD
    0x08000188   0x0000001c   Code   RO         4173    !!handler_zi        c_w.l(__scatter_zi.o)
    0x080001a4   0x00000000   Code   RO         3977    .ARM.Collect$$_printf_percent$$00000000  c_w.l(_printf_percent.o)
    0x080001a4   0x00000006   Code   RO         3976    .ARM.Collect$$_printf_percent$$0000000C  c_w.l(_printf_x.o)
    0x080001aa   0x00000004   Code   RO         3999    .ARM.Collect$$_printf_percent$$00000017  c_w.l(_printf_percent_end.o)
    0x080001ae   0x00000002   Code   RO         4040    .ARM.Collect$$libinit$$00000000  c_w.l(libinit.o)
    0x080001b0   0x00000000   Code   RO         4051    .ARM.Collect$$libinit$$00000002  c_w.l(libinit2.o)
    0x080001b0   0x00000000   Code   RO         4053    .ARM.Collect$$libinit$$00000004  c_w.l(libinit2.o)
    0x080001b0   0x00000000   Code   RO         4056    .ARM.Collect$$libinit$$0000000A  c_w.l(libinit2.o)
    0x080001b0   0x00000000   Code   RO         4058    .ARM.Collect$$libinit$$0000000C  c_w.l(libinit2.o)
    0x080001b0   0x00000000   Code   RO         4060    .ARM.Collect$$libinit$$0000000E  c_w.l(libinit2.o)
    0x080001b0   0x00000000   Code   RO         4063    .ARM.Collect$$libinit$$00000011  c_w.l(libinit2.o)
    0x080001b0   0x00000000   Code   RO         4065    .ARM.Collect$$libinit$$00000013  c_w.l(libinit2.o)
    0x080001b0   0x00000000   Code   RO         4067    .ARM.Collect$$libinit$$00000015  c_w.l(libinit2.o)
    0x080001b0   0x00000000   Code   RO         4069    .ARM.Collect$$libinit$$00000017  c_w.l(libinit2.o)
    0x080001b0   0x00000000   Code   RO         4071    .ARM.Collect$$libinit$$00000019  c_w.l(libinit2.o)
    0x080001b0   0x00000000   Code   RO         4073    .ARM.Collect$$libinit$$0000001B  c_w.l(libinit2.o)
    0x080001b0   0x00000000   Code   RO         4075    .ARM.Collect$$libinit$$0000001D  c_w.l(libinit2.o)
    0x080001b0   0x00000000   Code   RO         4077    .ARM.Collect$$libinit$$0000001F  c_w.l(libinit2.o)
    0x080001b0   0x00000000   Code   RO         4079    .ARM.Collect$$libinit$$00000021  c_w.l(libinit2.o)
    0x080001b0   0x00000000   Code   RO         4081    .ARM.Collect$$libinit$$00000023  c_w.l(libinit2.o)
    0x080001b0   0x00000000   Code   RO         4083    .ARM.Collect$$libinit$$00000025  c_w.l(libinit2.o)
    0x080001b0   0x00000000   Code   RO         4087    .ARM.Collect$$libinit$$0000002C  c_w.l(libinit2.o)
    0x080001b0   0x00000000   Code   RO         4089    .ARM.Collect$$libinit$$0000002E  c_w.l(libinit2.o)
    0x080001b0   0x00000000   Code   RO         4091    .ARM.Collect$$libinit$$00000030  c_w.l(libinit2.o)
    0x080001b0   0x00000000   Code   RO         4093    .ARM.Collect$$libinit$$00000032  c_w.l(libinit2.o)
    0x080001b0   0x00000002   Code   RO         4094    .ARM.Collect$$libinit$$00000033  c_w.l(libinit2.o)
    0x080001b2   0x00000002   Code   RO         4122    .ARM.Collect$$libshutdown$$00000000  c_w.l(libshutdown.o)
    0x080001b4   0x00000000   Code   RO         4137    .ARM.Collect$$libshutdown$$00000003  c_w.l(libshutdown2.o)
    0x080001b4   0x00000000   Code   RO         4140    .ARM.Collect$$libshutdown$$00000006  c_w.l(libshutdown2.o)
    0x080001b4   0x00000000   Code   RO         4143    .ARM.Collect$$libshutdown$$00000009  c_w.l(libshutdown2.o)
    0x080001b4   0x00000000   Code   RO         4145    .ARM.Collect$$libshutdown$$0000000B  c_w.l(libshutdown2.o)
    0x080001b4   0x00000000   Code   RO         4148    .ARM.Collect$$libshutdown$$0000000E  c_w.l(libshutdown2.o)
    0x080001b4   0x00000002   Code   RO         4149    .ARM.Collect$$libshutdown$$0000000F  c_w.l(libshutdown2.o)
    0x080001b6   0x00000000   Code   RO         3992    .ARM.Collect$$rtentry$$00000000  c_w.l(__rtentry.o)
    0x080001b6   0x00000000   Code   RO         4003    .ARM.Collect$$rtentry$$00000002  c_w.l(__rtentry2.o)
    0x080001b6   0x00000006   Code   RO         4015    .ARM.Collect$$rtentry$$00000004  c_w.l(__rtentry4.o)
    0x080001bc   0x00000000   Code   RO         4005    .ARM.Collect$$rtentry$$00000009  c_w.l(__rtentry2.o)
    0x080001bc   0x00000004   Code   RO         4006    .ARM.Collect$$rtentry$$0000000A  c_w.l(__rtentry2.o)
    0x080001c0   0x00000000   Code   RO         4008    .ARM.Collect$$rtentry$$0000000C  c_w.l(__rtentry2.o)
    0x080001c0   0x00000008   Code   RO         4009    .ARM.Collect$$rtentry$$0000000D  c_w.l(__rtentry2.o)
    0x080001c8   0x00000002   Code   RO         4044    .ARM.Collect$$rtexit$$00000000  c_w.l(rtexit.o)
    0x080001ca   0x00000000   Code   RO         4096    .ARM.Collect$$rtexit$$00000002  c_w.l(rtexit2.o)
    0x080001ca   0x00000004   Code   RO         4097    .ARM.Collect$$rtexit$$00000003  c_w.l(rtexit2.o)
    0x080001ce   0x00000006   Code   RO         4098    .ARM.Collect$$rtexit$$00000004  c_w.l(rtexit2.o)
    0x080001d4   0x00000006   Code   RO          330    .emb_text           sys.o
    0x080001da   0x00000002   PAD
    0x080001dc   0x00000040   Code   RO          413  * .text               startup_stm32f10x_hd.o
    0x0800021c   0x00000002   Code   RO         3923    .text               c_w.l(use_no_semi_2.o)
    0x0800021e   0x00000048   Code   RO         3925    .text               c_w.l(llsdiv.o)
    0x08000266   0x00000002   PAD
    0x08000268   0x00000018   Code   RO         3929    .text               c_w.l(noretval__2printf.o)
    0x08000280   0x0000004e   Code   RO         3933    .text               c_w.l(_printf_pad.o)
    0x080002ce   0x00000002   PAD
    0x080002d0   0x00000058   Code   RO         3938    .text               c_w.l(_printf_hex_int.o)
    0x08000328   0x0000010e   Code   RO         3964    .text               c_w.l(__printf_wp.o)
    0x08000436   0x0000003e   Code   RO         3980    .text               c_w.l(strlen.o)
    0x08000474   0x0000008a   Code   RO         3982    .text               c_w.l(rt_memcpy_v6.o)
    0x080004fe   0x00000006   Code   RO         3986    .text               c_w.l(heapauxi.o)
    0x08000504   0x00000002   Code   RO         3990    .text               c_w.l(use_no_semi.o)
    0x08000506   0x000000ee   Code   RO         3993    .text               c_w.l(lludivv7m.o)
    0x080005f4   0x000000b2   Code   RO         3995    .text               c_w.l(_printf_intcommon.o)
    0x080006a6   0x00000002   PAD
    0x080006a8   0x00000024   Code   RO         3997    .text               c_w.l(_printf_char_file.o)
    0x080006cc   0x00000064   Code   RO         4000    .text               c_w.l(rt_memcpy_w.o)
    0x08000730   0x00000030   Code   RO         4021    .text               c_w.l(_printf_char_common.o)
    0x08000760   0x00000008   Code   RO         4023    .text               c_w.l(ferror.o)
    0x08000768   0x0000004a   Code   RO         4027    .text               c_w.l(sys_stackheap_outer.o)
    0x080007b2   0x0000000c   Code   RO         4033    .text               c_w.l(exit.o)
    0x080007be   0x00000002   PAD
    0x080007c0   0x00000008   Code   RO         4041    .text               c_w.l(libspace.o)
    0x080007c8   0x000001a0   Code   RO         3411    i.BootToAPP         iap.o
    0x08000968   0x00000004   Code   RO          118    i.BusFault_Handler  stm32f10x_it.o
    0x0800096c   0x00000130   Code   RO         3887    i.CheckHexFile      hex2bin.o
    0x08000a9c   0x00000030   Code   RO         3694    i.CmdError          sdio_sdcard.o
    0x08000acc   0x00000060   Code   RO         3695    i.CmdResp1Error     sdio_sdcard.o
    0x08000b2c   0x00000054   Code   RO         3696    i.CmdResp2Error     sdio_sdcard.o
    0x08000b80   0x00000038   Code   RO         3697    i.CmdResp3Error     sdio_sdcard.o
    0x08000bb8   0x00000090   Code   RO         3698    i.CmdResp6Error     sdio_sdcard.o
    0x08000c48   0x0000004c   Code   RO         3699    i.CmdResp7Error     sdio_sdcard.o
    0x08000c94   0x00000018   Code   RO         2984    i.DMA_Cmd           stm32f10x_dma.o
    0x08000cac   0x0000014c   Code   RO         2985    i.DMA_DeInit        stm32f10x_dma.o
    0x08000df8   0x0000003c   Code   RO         2990    i.DMA_Init          stm32f10x_dma.o
    0x08000e34   0x00000002   Code   RO          119    i.DebugMon_Handler  stm32f10x_it.o
    0x08000e36   0x00000002   PAD
    0x08000e38   0x0000002c   Code   RO         3412    i.Disable_Irq       iap.o
    0x08000e64   0x0000000c   Code   RO         1349    i.EXTI_ClearITPendingBit  stm32f10x_exti.o
    0x08000e70   0x0000004c   Code   RO         1407    i.FLASH_ErasePage   stm32f10x_flash.o
    0x08000ebc   0x00000034   Code   RO         1408    i.FLASH_GetBank1Status  stm32f10x_flash.o
    0x08000ef0   0x00000014   Code   RO         1417    i.FLASH_Lock        stm32f10x_flash.o
    0x08000f04   0x00000040   Code   RO         1420    i.FLASH_ProgramHalfWord  stm32f10x_flash.o
    0x08000f44   0x00000018   Code   RO         1425    i.FLASH_Unlock      stm32f10x_flash.o
    0x08000f5c   0x00000026   Code   RO         1429    i.FLASH_WaitForLastOperation  stm32f10x_flash.o
    0x08000f82   0x00000002   PAD
    0x08000f84   0x00000194   Code   RO         3700    i.FindSCR           sdio_sdcard.o
    0x08001118   0x00000116   Code   RO          459    i.GPIO_Init         stm32f10x_gpio.o
    0x0800122e   0x00000004   Code   RO          120    i.HardFault_Handler  stm32f10x_it.o
    0x08001232   0x0000006a   Code   RO         3888    i.Hex2Bin           hex2bin.o
    0x0800129c   0x00000004   Code   RO          331    i.INTX_DISABLE      sys.o
    0x080012a0   0x00000004   Code   RO          332    i.INTX_ENABLE       sys.o
    0x080012a4   0x0000001c   Code   RO         3413    i.Init              iap.o
    0x080012c0   0x0000009c   Code   RO         3701    i.IsCardProgramming  sdio_sdcard.o
    0x0800135c   0x00000004   Code   RO          121    i.MemManage_Handler  stm32f10x_it.o
    0x08001360   0x00000002   Code   RO          122    i.NMI_Handler       stm32f10x_it.o
    0x08001362   0x00000002   PAD
    0x08001364   0x00000070   Code   RO          417    i.NVIC_Init         misc.o
    0x080013d4   0x00000014   Code   RO          418    i.NVIC_PriorityGroupConfig  misc.o
    0x080013e8   0x00000014   Code   RO         1823    i.PWR_ClearFlag     stm32f10x_pwr.o
    0x080013fc   0x00000018   Code   RO         1827    i.PWR_GetFlagStatus  stm32f10x_pwr.o
    0x08001414   0x00000002   Code   RO          123    i.PendSV_Handler    stm32f10x_it.o
    0x08001416   0x00000002   PAD
    0x08001418   0x00000020   Code   RO          592    i.RCC_AHBPeriphClockCmd  stm32f10x_rcc.o
    0x08001438   0x00000020   Code   RO          594    i.RCC_APB1PeriphResetCmd  stm32f10x_rcc.o
    0x08001458   0x00000020   Code   RO          595    i.RCC_APB2PeriphClockCmd  stm32f10x_rcc.o
    0x08001478   0x00000020   Code   RO          596    i.RCC_APB2PeriphResetCmd  stm32f10x_rcc.o
    0x08001498   0x000000d4   Code   RO          603    i.RCC_GetClocksFreq  stm32f10x_rcc.o
    0x0800156c   0x00000054   Code   RO          257    i.RTCAlarm_IRQHandler  sleep.o
    0x080015c0   0x00000010   Code   RO         1883    i.RTC_ClearITPendingBit  stm32f10x_rtc.o
    0x080015d0   0x00000024   Code   RO         1889    i.RTC_GetITStatus   stm32f10x_rtc.o
    0x080015f4   0x00000012   Code   RO          258    i.RTC_IRQHandler    sleep.o
    0x08001606   0x00000002   PAD
    0x08001608   0x00000014   Code   RO         1894    i.RTC_WaitForLastTask  stm32f10x_rtc.o
    0x0800161c   0x000001a0   Code   RO         3889    i.ReadLineInBuff    hex2bin.o
    0x080017bc   0x00000190   Code   RO         3890    i.SD2ROM            hex2bin.o
    0x0800194c   0x000000ac   Code   RO         3702    i.SDEnWideBus       sdio_sdcard.o
    0x080019f8   0x0000000c   Code   RO         2797    i.SDIO_ClearFlag    stm32f10x_sdio.o
    0x08001a04   0x0000000c   Code   RO         2799    i.SDIO_ClockCmd     stm32f10x_sdio.o
    0x08001a10   0x00000014   Code   RO         3703    i.SDIO_Clock_Set    sdio_sdcard.o
    0x08001a24   0x0000000c   Code   RO         2802    i.SDIO_DMACmd       stm32f10x_sdio.o
    0x08001a30   0x00000030   Code   RO         2803    i.SDIO_DataConfig   stm32f10x_sdio.o
    0x08001a60   0x00000024   Code   RO         2805    i.SDIO_DeInit       stm32f10x_sdio.o
    0x08001a84   0x00000018   Code   RO         2809    i.SDIO_GetFlagStatus  stm32f10x_sdio.o
    0x08001a9c   0x00000010   Code   RO         2811    i.SDIO_GetPowerState  stm32f10x_sdio.o
    0x08001aac   0x00000008   Code   RO         3704    i.SDIO_IRQHandler   sdio_sdcard.o
    0x08001ab4   0x00000030   Code   RO         2814    i.SDIO_Init         stm32f10x_sdio.o
    0x08001ae4   0x0000000c   Code   RO         2815    i.SDIO_ReadData     stm32f10x_sdio.o
    0x08001af0   0x0000002c   Code   RO         2817    i.SDIO_SendCommand  stm32f10x_sdio.o
    0x08001b1c   0x0000001c   Code   RO         2819    i.SDIO_SetPowerState  stm32f10x_sdio.o
    0x08001b38   0x0000000c   Code   RO         2825    i.SDIO_WriteData    stm32f10x_sdio.o
    0x08001b44   0x00000068   Code   RO         3705    i.SD_DMA_Config     sdio_sdcard.o
    0x08001bac   0x00000068   Code   RO         3706    i.SD_EnableWideBusOperation  sdio_sdcard.o
    0x08001c14   0x00000314   Code   RO         3707    i.SD_GetCardInfo    sdio_sdcard.o
    0x08001f28   0x00000100   Code   RO         3709    i.SD_Init           sdio_sdcard.o
    0x08002028   0x00000154   Code   RO         3710    i.SD_InitializeCards  sdio_sdcard.o
    0x0800217c   0x000001dc   Code   RO         3712    i.SD_PowerON        sdio_sdcard.o
    0x08002358   0x0000013c   Code   RO         3713    i.SD_ProcessIRQSrc  sdio_sdcard.o
    0x08002494   0x00000258   Code   RO         3714    i.SD_ReadBlock      sdio_sdcard.o
    0x080026ec   0x00000098   Code   RO         3715    i.SD_ReadDisk       sdio_sdcard.o
    0x08002784   0x000002e8   Code   RO         3716    i.SD_ReadMultiBlocks  sdio_sdcard.o
    0x08002a6c   0x00000030   Code   RO         3717    i.SD_SelectDeselect  sdio_sdcard.o
    0x08002a9c   0x00000018   Code   RO         3719    i.SD_SetDeviceMode  sdio_sdcard.o
    0x08002ab4   0x00000374   Code   RO         3720    i.SD_WriteBlock     sdio_sdcard.o
    0x08002e28   0x00000098   Code   RO         3721    i.SD_WriteDisk      sdio_sdcard.o
    0x08002ec0   0x000003c0   Code   RO         3722    i.SD_WriteMultiBlocks  sdio_sdcard.o
    0x08003280   0x00000060   Code   RO         3652    i.STMFLASH_WriteOnePage  stmflash.o
    0x080032e0   0x00000026   Code   RO         3653    i.STMFLASH_Write_NoCheck  stmflash.o
    0x08003306   0x00000002   Code   RO          124    i.SVC_Handler       stm32f10x_it.o
    0x08003308   0x00000008   Code   RO          207    i.SetSysClock       system_stm32f10x.o
    0x08003310   0x000000e0   Code   RO          208    i.SetSysClockTo72   system_stm32f10x.o
    0x080033f0   0x00000028   Code   RO          421    i.SysTick_CLKSourceConfig  misc.o
    0x08003418   0x00000002   Code   RO          125    i.SysTick_Handler   stm32f10x_it.o
    0x0800341a   0x00000002   PAD
    0x0800341c   0x00000060   Code   RO          210    i.SystemInit        system_stm32f10x.o
    0x0800347c   0x00000088   Code   RO          359    i.USART1_IRQHandler  usart.o
    0x08003504   0x0000001e   Code   RO          792    i.USART_ClearITPendingBit  stm32f10x_usart.o
    0x08003522   0x00000018   Code   RO          795    i.USART_Cmd         stm32f10x_usart.o
    0x0800353a   0x00000002   PAD
    0x0800353c   0x0000009c   Code   RO          797    i.USART_DeInit      stm32f10x_usart.o
    0x080035d8   0x00000054   Code   RO          799    i.USART_GetITStatus  stm32f10x_usart.o
    0x0800362c   0x0000004a   Code   RO          801    i.USART_ITConfig    stm32f10x_usart.o
    0x08003676   0x00000002   PAD
    0x08003678   0x000000d8   Code   RO          802    i.USART_Init        stm32f10x_usart.o
    0x08003750   0x0000000a   Code   RO          809    i.USART_ReceiveData  stm32f10x_usart.o
    0x0800375a   0x00000004   Code   RO          126    i.UsageFault_Handler  stm32f10x_it.o
    0x0800375e   0x0000000e   Code   RO         3966    i._is_digit         c_w.l(__printf_wp.o)
    0x0800376c   0x00000006   Code   RO          360    i._sys_exit         usart.o
    0x08003772   0x00000002   PAD
    0x08003774   0x0000007c   Code   RO         3054    i.check_fs          ff.o
    0x080037f0   0x00000014   Code   RO         3055    i.chk_chr           ff.o
    0x08003804   0x00000032   Code   RO         3056    i.clmt_clust        ff.o
    0x08003836   0x0000001a   Code   RO         3057    i.clst2sect         ff.o
    0x08003850   0x00000012   Code   RO         3723    i.convert_from_bytes_to_power_of_two  sdio_sdcard.o
    0x08003862   0x00000120   Code   RO         3058    i.create_chain      ff.o
    0x08003982   0x00000002   PAD
    0x08003984   0x00000104   Code   RO         3059    i.create_name       ff.o
    0x08003a88   0x00000034   Code   RO         3060    i.dbc_1st           ff.o
    0x08003abc   0x00000048   Code   RO         3061    i.dbc_2nd           ff.o
    0x08003b04   0x00000044   Code   RO          304    i.delay_init        delay.o
    0x08003b48   0x0000004c   Code   RO          305    i.delay_ms          delay.o
    0x08003b94   0x00000060   Code   RO         3062    i.dir_alloc         ff.o
    0x08003bf4   0x00000060   Code   RO         3063    i.dir_clear         ff.o
    0x08003c54   0x0000006c   Code   RO         3064    i.dir_find          ff.o
    0x08003cc0   0x000000c6   Code   RO         3065    i.dir_next          ff.o
    0x08003d86   0x0000003c   Code   RO         3067    i.dir_register      ff.o
    0x08003dc2   0x0000009a   Code   RO         3069    i.dir_sdi           ff.o
    0x08003e5c   0x00000020   Code   RO         3472    i.disk_initialize   diskio.o
    0x08003e7c   0x0000006c   Code   RO         3473    i.disk_ioctl        diskio.o
    0x08003ee8   0x00000056   Code   RO         3474    i.disk_read         diskio.o
    0x08003f3e   0x00000006   Code   RO         3475    i.disk_status       diskio.o
    0x08003f44   0x00000056   Code   RO         3476    i.disk_write        diskio.o
    0x08003f9a   0x00000002   PAD
    0x08003f9c   0x0000006c   Code   RO         3526    i.exfuns_init       exfuns.o
    0x08004008   0x00000022   Code   RO         3070    i.f_close           ff.o
    0x0800402a   0x000002b0   Code   RO         3075    i.f_lseek           ff.o
    0x080042da   0x00000002   PAD
    0x080042dc   0x00000054   Code   RO         3078    i.f_mount           ff.o
    0x08004330   0x000001e8   Code   RO         3079    i.f_open            ff.o
    0x08004518   0x000001ac   Code   RO         3084    i.f_read            ff.o
    0x080046c4   0x000000a0   Code   RO         3089    i.f_sync            ff.o
    0x08004764   0x0000030c   Code   RO         3093    i.find_volume       ff.o
    0x08004a70   0x0000009e   Code   RO         3094    i.follow_path       ff.o
    0x08004b0e   0x00000002   PAD
    0x08004b10   0x0000001c   Code   RO          361    i.fputc             usart.o
    0x08004b2c   0x000000e0   Code   RO         3095    i.get_fat           ff.o
    0x08004c0c   0x00000004   Code   RO         3477    i.get_fattime       diskio.o
    0x08004c10   0x0000004c   Code   RO         3097    i.get_ldnumber      ff.o
    0x08004c5c   0x0000004c   Code   RO         3414    i.iap_load_app      iap.o
    0x08004ca8   0x00000026   Code   RO         3098    i.ld_clust          ff.o
    0x08004cce   0x00000018   Code   RO         3099    i.ld_dword          ff.o
    0x08004ce6   0x0000000c   Code   RO         3100    i.ld_word           ff.o
    0x08004cf2   0x00000002   PAD
    0x08004cf4   0x00000060   Code   RO            1    i.main              main.o
    0x08004d54   0x00000024   Code   RO         3101    i.mem_cmp           ff.o
    0x08004d78   0x0000001a   Code   RO         3102    i.mem_cpy           ff.o
    0x08004d92   0x00000012   Code   RO         3103    i.mem_set           ff.o
    0x08004da4   0x00000034   Code   RO         3104    i.move_window       ff.o
    0x08004dd8   0x00000044   Code   RO         3580    i.my_mem_init       malloc.o
    0x08004e1c   0x000000a8   Code   RO         3581    i.my_mem_malloc     malloc.o
    0x08004ec4   0x00000040   Code   RO         3582    i.my_mem_perused    malloc.o
    0x08004f04   0x00000028   Code   RO         3584    i.mymalloc          malloc.o
    0x08004f2c   0x00000014   Code   RO         3586    i.mymemset          malloc.o
    0x08004f40   0x00000138   Code   RO         3105    i.put_fat           ff.o
    0x08005078   0x0000009a   Code   RO         3109    i.remove_chain      ff.o
    0x08005112   0x00000024   Code   RO         3110    i.st_clust          ff.o
    0x08005136   0x00000018   Code   RO         3111    i.st_dword          ff.o
    0x0800514e   0x0000000c   Code   RO         3112    i.st_word           ff.o
    0x0800515a   0x00000002   PAD
    0x0800515c   0x00000090   Code   RO         3113    i.sync_fs           ff.o
    0x080051ec   0x0000004a   Code   RO         3114    i.sync_window       ff.o
    0x08005236   0x00000002   PAD
    0x08005238   0x000000a8   Code   RO          362    i.uart_init         usart.o
    0x080052e0   0x0000003c   Code   RO         3115    i.validate          ff.o
    0x0800531c   0x00000036   Data   RO         3116    .constdata          ff.o
    0x08005352   0x00000002   PAD
    0x08005354   0x00000018   Data   RO         3591    .constdata          malloc.o
    0x0800536c   0x00000028   Data   RO         3939    .constdata          c_w.l(_printf_hex_int.o)
    0x08005394   0x00000020   Data   RO         4167    Region$$Table       anon$$obj.o


    Execution Region ER_RW (Base: 0x20000000, Size: 0x00000090, Max: 0xffffffff, ABSOLUTE)

    Base Addr    Size         Type   Attr      Idx    E Section Name        Object

    0x20000000   0x00000014   Data   RW          211    .data               system_stm32f10x.o
    0x20000014   0x00000004   Data   RW          307    .data               delay.o
    0x20000018   0x00000006   Data   RW          364    .data               usart.o
    0x2000001e   0x00000014   Data   RW          623    .data               stm32f10x_rcc.o
    0x20000032   0x00000002   PAD
    0x20000034   0x00000006   Data   RW         3117    .data               ff.o
    0x2000003a   0x00000002   PAD
    0x2000003c   0x00000004   Data   RW         3416    .data               iap.o
    0x20000040   0x00000014   Data   RW         3531    .data               exfuns.o
    0x20000054   0x0000001c   Data   RW         3592    .data               malloc.o
    0x20000070   0x00000010   Data   RW         3725    .data               sdio_sdcard.o
    0x20000080   0x00000010   Data   RW         3891    .data               hex2bin.o


    Execution Region ER_ZI (Base: 0x20000090, Size: 0x00004470, Max: 0xffffffff, ABSOLUTE)

    Base Addr    Size         Type   Attr      Idx    E Section Name        Object

    0x20000090   0x000000c8   Zero   RW          363    .bss                usart.o
    0x20000158   0x00001000   Zero   RW         3415    .bss                iap.o
    0x20001158   0x00000008   PAD
    0x20001160   0x00002a80   Zero   RW         3590    .bss                malloc.o
    0x20003be0   0x000002c0   Zero   RW         3724    .bss                sdio_sdcard.o
    0x20003ea0   0x00000060   Zero   RW         4042    .bss                c_w.l(libspace.o)
    0x20003f00   0x00000200   Zero   RW          411    HEAP                startup_stm32f10x_hd.o
    0x20004100   0x00000400   Zero   RW          410    STACK               startup_stm32f10x_hd.o



  Load Region LR$$.ARM.__AT_0x68000000 (Base: 0x68000000, Size: 0x00000000, Max: 0x00080000, ABSOLUTE)

    Execution Region ER$$.ARM.__AT_0x68000000 (Base: 0x68000000, Size: 0x00080000, Max: 0x00080000, ABSOLUTE, UNINIT)

    Base Addr    Size         Type   Attr      Idx    E Section Name        Object

    0x68000000   0x00080000   Zero   RW         3588    .ARM.__AT_0x68000000  malloc.o



  Load Region LR$$.ARM.__AT_0x68080000 (Base: 0x68080000, Size: 0x00000000, Max: 0x00008000, ABSOLUTE)

    Execution Region ER$$.ARM.__AT_0x68080000 (Base: 0x68080000, Size: 0x00008000, Max: 0x00008000, ABSOLUTE, UNINIT)

    Base Addr    Size         Type   Attr      Idx    E Section Name        Object

    0x68080000   0x00008000   Zero   RW         3589    .ARM.__AT_0x68080000  malloc.o


==============================================================================

Image component sizes


      Code (inc. data)   RO Data    RW Data    ZI Data      Debug   Object Name

       144         22          0          4          0       1104   delay.o
       322          6          0          0          0       7400   diskio.o
       108         14          0         20          0       1432   exfuns.o
      5746         76         54          6          0      49055   ff.o
      1226        140          0         16          0       4299   hex2bin.o
       564        224          0          4       4096       5454   iap.o
        96         26          0          0          0     258099   main.o
       360         42         24         28     567936       4362   malloc.o
       172         22          0          0          0       1949   misc.o
      7230        386          0         16        704      31174   sdio_sdcard.o
       102          8          0          0          0        919   sleep.o
        64         26        304          0       1536        780   startup_stm32f10x_hd.o
       416          8          0          0          0       3310   stm32f10x_dma.o
        12          6          0          0          0        497   stm32f10x_exti.o
       274         30          0          0          0       3226   stm32f10x_flash.o
       278          0          0          0          0       1896   stm32f10x_gpio.o
        26          0          0          0          0       3462   stm32f10x_it.o
        44         10          0          0          0       1012   stm32f10x_pwr.o
       340         44          0         20          0       5391   stm32f10x_rcc.o
        72         12          0          0          0       1476   stm32f10x_rtc.o
       304         72          0          0          0       7678   stm32f10x_sdio.o
       594         28          0          0          0       5967   stm32f10x_usart.o
       134         24          0          0          0       1605   stmflash.o
        14          0          0          0          0       1133   sys.o
       328         28          0         20          0       1957   system_stm32f10x.o
       338         28          0          6        200       3956   usart.o

    ----------------------------------------------------------------------
     19342       1282        416        144     574480     408593   Object Totals
         0          0         32          0          0          0   (incl. Generated)
        34          0          2          4          8          0   (incl. Padding)

    ----------------------------------------------------------------------

      Code (inc. data)   RO Data    RW Data    ZI Data      Debug   Library Member Name

         8          0          0          0          0         68   __main.o
       284          0          0          0          0        156   __printf_wp.o
         0          0          0          0          0          0   __rtentry.o
        12          0          0          0          0          0   __rtentry2.o
         6          0          0          0          0          0   __rtentry4.o
        52          8          0          0          0          0   __scatter.o
        26          0          0          0          0          0   __scatter_copy.o
        28          0          0          0          0          0   __scatter_zi.o
        48          6          0          0          0         96   _printf_char_common.o
        36          4          0          0          0         80   _printf_char_file.o
        88          4         40          0          0         88   _printf_hex_int.o
       178          0          0          0          0         88   _printf_intcommon.o
        78          0          0          0          0        108   _printf_pad.o
         0          0          0          0          0          0   _printf_percent.o
         4          0          0          0          0          0   _printf_percent_end.o
         6          0          0          0          0          0   _printf_x.o
        12          0          0          0          0         72   exit.o
         8          0          0          0          0         68   ferror.o
         6          0          0          0          0        152   heapauxi.o
         2          0          0          0          0          0   libinit.o
         2          0          0          0          0          0   libinit2.o
         2          0          0          0          0          0   libshutdown.o
         2          0          0          0          0          0   libshutdown2.o
         8          4          0          0         96         68   libspace.o
        72          0          0          0          0         76   llsdiv.o
       238          0          0          0          0        100   lludivv7m.o
        24          4          0          0          0         84   noretval__2printf.o
       138          0          0          0          0         68   rt_memcpy_v6.o
       100          0          0          0          0         80   rt_memcpy_w.o
         2          0          0          0          0          0   rtexit.o
        10          0          0          0          0          0   rtexit2.o
        62          0          0          0          0         76   strlen.o
        74          0          0          0          0         80   sys_stackheap_outer.o
         2          0          0          0          0         68   use_no_semi.o
         2          0          0          0          0         68   use_no_semi_2.o

    ----------------------------------------------------------------------
      1630         30         40          0         96       1744   Library Totals
        10          0          0          0          0          0   (incl. Padding)

    ----------------------------------------------------------------------

      Code (inc. data)   RO Data    RW Data    ZI Data      Debug   Library Name

      1620         30         40          0         96       1744   c_w.l

    ----------------------------------------------------------------------
      1630         30         40          0         96       1744   Library Totals

    ----------------------------------------------------------------------

==============================================================================


      Code (inc. data)   RO Data    RW Data    ZI Data      Debug   

     20972       1312        456        144     574576     401649   Grand Totals
     20972       1312        456        144     574576     401649   ELF Image Totals
     20972       1312        456        144          0          0   ROM Totals

==============================================================================

    Total RO  Size (Code + RO Data)                21428 (  20.93kB)
    Total RW  Size (RW Data + ZI Data)            574720 ( 561.25kB)
    Total ROM Size (Code + RO Data + RW Data)      21572 (  21.07kB)

==============================================================================

