Component: ARM Compiler 5.06 update 4 (build 422) Tool: armlink [4d35d2]

==============================================================================

Section Cross References

    main.o(i.DeinitSystem) refers to main.o(i.NVIC_DisableIRQ) for NVIC_DisableIRQ
    main.o(i.DeinitSystem) refers to fm33g0xx_etim.o(i.ETIMx_ETxCR_CEN_Setable) for ETIMx_ETxCR_CEN_Setable
    main.o(i.DeinitSystem) refers to fm33g0xx_rcc.o(i.RCC_PERCLK_SetableEx) for RCC_PERCLK_SetableEx
    main.o(i.DeinitSystem) refers to user_init.o(i.CloseeIO) for CloseeIO
    main.o(i.DeinitSystem) refers to fm33g0xx_uart.o(i.UART_UARTIE_RxTxIE_SetableEx) for UART_UARTIE_RxTxIE_SetableEx
    main.o(i.DeinitSystem) refers to fm33g0xx_uart.o(i.UARTx_TXSTA_TXEN_Setable) for UARTx_TXSTA_TXEN_Setable
    main.o(i.DeinitSystem) refers to fm33g0xx_uart.o(i.UARTx_RXSTA_RXEN_Setable) for UARTx_RXSTA_RXEN_Setable
    main.o(i.Init_Etim2) refers to fm33g0xx_rcc.o(i.RCC_PERCLK_SetableEx) for RCC_PERCLK_SetableEx
    main.o(i.Init_Etim2) refers to main.o(i.NVIC_DisableIRQ) for NVIC_DisableIRQ
    main.o(i.Init_Etim2) refers to main.o(i.NVIC_SetPriority) for NVIC_SetPriority
    main.o(i.Init_Etim2) refers to main.o(i.NVIC_EnableIRQ) for NVIC_EnableIRQ
    main.o(i.Init_Etim2) refers to fm33g0xx_etim.o(i.ETIMx_Init) for ETIMx_Init
    main.o(i.Init_Etim2) refers to fm33g0xx_etim.o(i.ETIMx_ETxCR_CEN_Setable) for ETIMx_ETxCR_CEN_Setable
    main.o(i.Uartx_Init) refers to fm33g0xx_rcc.o(i.RCC_PERCLK_SetableEx) for RCC_PERCLK_SetableEx
    main.o(i.Uartx_Init) refers to main.o(i.__ARM_common_switch8) for __ARM_common_switch8
    main.o(i.Uartx_Init) refers to user_init.o(i.AltFunIO) for AltFunIO
    main.o(i.Uartx_Init) refers to main.o(i.NVIC_DisableIRQ) for NVIC_DisableIRQ
    main.o(i.Uartx_Init) refers to main.o(i.NVIC_SetPriority) for NVIC_SetPriority
==============================================================================

Removing Unused input sections from the image.

    Removing main.o(.rev16_text), (4 bytes).
    Removing main.o(.revsh_text), (4 bytes).
    Removing user_init.o(.rev16_text), (4 bytes).
    Removing user_init.o(.revsh_text), (4 bytes).
    Removing user_init.o(i.AnalogIO), (84 bytes).
    Removing user_init.o(i.CheckNvicIrqEn), (32 bytes).
    Removing user_init.o(i.Init_IO), (32 bytes).
    Removing user_init.o(i.InputtIO), (116 bytes).
    Removing user_init.o(i.TicksDelayUs), (28 bytes).
    Removing flash.o(.rev16_text), (4 bytes).
    Removing flash.o(.revsh_text), (4 bytes).
    Removing interrupt.o(.rev16_text), (4 bytes).
    Removing interrupt.o(.revsh_text), (4 bytes).
    Removing uart.o(.rev16_text), (4 bytes).
    Removing uart.o(.revsh_text), (4 bytes).
    Removing uart.o(i.Cal_ChkSum), (28 bytes).
    Removing uart.o(i.Exchange), (26 bytes).
    Removing fm33g0xx_aes.o(.rev16_text), (4 bytes).
==============================================================================

Image Symbol Table

    Local Symbols

    Symbol Name                              Value     Ov Type        Size  Object(Section)

    RESET                                    0x00000000   Section      192  startup_fm33g0xx.o(RESET)
    ../clib/angel/boardlib.s                 0x00000000   Number         0  boardinit2.o ABSOLUTE
    ../clib/angel/boardlib.s                 0x00000000   Number         0  boardinit3.o ABSOLUTE
    ../clib/angel/boardlib.s                 0x00000000   Number         0  boardshut.o ABSOLUTE
    ../clib/angel/boardlib.s                 0x00000000   Number         0  boardinit1.o ABSOLUTE
    ../clib/angel/handlers.s                 0x00000000   Number         0  __scatter_copy.o ABSOLUTE
    ../clib/angel/handlers.s                 0x00000000   Number         0  __scatter_zi.o ABSOLUTE
    ../clib/angel/kernel.s                   0x00000000   Number         0  rtexit2.o ABSOLUTE
    ../clib/angel/kernel.s                   0x00000000   Number         0  rtexit.o ABSOLUTE
    ../clib/angel/kernel.s                   0x00000000   Number         0  __rtentry.o ABSOLUTE
    ../clib/angel/kernel.s                   0x00000000   Number         0  __rtentry2.o ABSOLUTE
    ../clib/angel/kernel.s                   0x00000000   Number         0  __rtentry4.o ABSOLUTE
    ../clib/angel/rt.s                       0x00000000   Number         0  rt_raise.o ABSOLUTE
    ../clib/angel/rt.s                       0x00000000   Number         0  aeabi_idiv0.o ABSOLUTE
    ../clib/angel/rt.s                       0x00000000   Number         0  aeabi_idiv0_sigfpe.o ABSOLUTE
    ../clib/angel/rt.s                       0x00000000   Number         0  rt_div0.o ABSOLUTE
    ../clib/angel/scatterp.s                 0x00000000   Number         0  __scatter.o ABSOLUTE
    ../clib/angel/startup.s                  0x00000000   Number         0  __main.o ABSOLUTE
    ../clib/angel/sys.s                      0x00000000   Number         0  use_no_semi.o ABSOLUTE
    ../clib/angel/sys.s                      0x00000000   Number         0  tempstk.o ABSOLUTE
    ../clib/angel/sys.s                      0x00000000   Number         0  libspace.o ABSOLUTE
    ../clib/angel/sys.s                      0x00000000   Number         0  indicate_semi.o ABSOLUTE
    ../clib/angel/sys.s                      0x00000000   Number         0  sys_stackheap_outer.o ABSOLUTE
    ../clib/angel/sysapp.c                   0x00000000   Number         0  sys_command.o ABSOLUTE
    ../clib/angel/sysapp.c                   0x00000000   Number         0  sys_wrch.o ABSOLUTE
    ../clib/angel/sysapp.c                   0x00000000   Number         0  sys_exit.o ABSOLUTE
    ../clib/armsys.c                         0x00000000   Number         0  argv_veneer.o ABSOLUTE
    ../clib/armsys.c                         0x00000000   Number         0  _get_argv_nomalloc.o ABSOLUTE
    ../clib/armsys.c                         0x00000000   Number         0  no_argv.o ABSOLUTE
    ../clib/division.s                       0x00000000   Number         0  aeabi_sdiv_div0.o ABSOLUTE
    ../clib/division.s                       0x00000000   Number         0  aeabi_sdiv.o ABSOLUTE
    ../clib/heapalloc.c                      0x00000000   Number         0  hrguard.o ABSOLUTE
    ../clib/heapaux.c                        0x00000000   Number         0  heapauxi.o ABSOLUTE
    ../clib/libinit.s                        0x00000000   Number         0  libshutdown.o ABSOLUTE
    ../clib/libinit.s                        0x00000000   Number         0  libshutdown2.o ABSOLUTE
    ../clib/libinit.s                        0x00000000   Number         0  libinit2.o ABSOLUTE
    ../clib/libinit.s                        0x00000000   Number         0  libinit.o ABSOLUTE
    ../clib/memcpset.c                       0x00000000   Number         0  rt_memcpy.o ABSOLUTE
    ../clib/memcpset.c                       0x00000000   Number         0  rt_memclr.o ABSOLUTE
    ../clib/memcpset.c                       0x00000000   Number         0  rt_memcpy.o ABSOLUTE
    ../clib/signal.c                         0x00000000   Number         0  defsig_segv_inner.o ABSOLUTE
    ../clib/signal.c                         0x00000000   Number         0  defsig_cppl_inner.o ABSOLUTE
    ../clib/signal.c                         0x00000000   Number         0  defsig_stak_inner.o ABSOLUTE
    ../clib/signal.c                         0x00000000   Number         0  defsig_rtmem_formal.o ABSOLUTE
    ../clib/signal.c                         0x00000000   Number         0  defsig_rtmem_outer.o ABSOLUTE
    ../clib/signal.c                         0x00000000   Number         0  defsig_rtmem_inner.o ABSOLUTE
    ../clib/signal.c                         0x00000000   Number         0  defsig_rtred_inner.o ABSOLUTE
    ../clib/signal.c                         0x00000000   Number         0  defsig_abrt_inner.o ABSOLUTE
    ../clib/signal.c                         0x00000000   Number         0  defsig_pvfn_inner.o ABSOLUTE
    ../clib/signal.c                         0x00000000   Number         0  defsig_exit.o ABSOLUTE
    ../clib/signal.c                         0x00000000   Number         0  defsig_fpe_inner.o ABSOLUTE
    ../clib/signal.c                         0x00000000   Number         0  defsig_general.o ABSOLUTE
    ../clib/signal.c                         0x00000000   Number         0  defsig_fpe_outer.o ABSOLUTE
    ../clib/signal.c                         0x00000000   Number         0  defsig_fpe_formal.o ABSOLUTE
    ../clib/signal.c                         0x00000000   Number         0  defsig_other.o ABSOLUTE
    ../clib/signal.c                         0x00000000   Number         0  __raise.o ABSOLUTE
    ../clib/signal.s                         0x00000000   Number         0  defsig.o ABSOLUTE
    ../clib/stdlib.c                         0x00000000   Number         0  exit.o ABSOLUTE
    ../fplib/cfplib/cmpret.c                 0x00000000   Number         0  cmpret.o ABSOLUTE
    ../fplib/cfplib/d2f.c                    0x00000000   Number         0  d2f.o ABSOLUTE
    ../fplib/cfplib/daddsub.c                0x00000000   Number         0  daddsub.o ABSOLUTE
    ../fplib/cfplib/ddiv.c                   0x00000000   Number         0  ddiv.o ABSOLUTE
    ../fplib/cfplib/dmul.c                   0x00000000   Number         0  dmul.o ABSOLUTE
    ../fplib/cfplib/f2d.c                    0x00000000   Number         0  f2d.o ABSOLUTE
    ../fplib/cfplib/fcmpin.c                 0x00000000   Number         0  fcmpin.o ABSOLUTE
    ../fplib/cfplib/fdiv.c                   0x00000000   Number         0  fdiv.o ABSOLUTE
    ../fplib/cfplib/ffix.c                   0x00000000   Number         0  dfixui.o ABSOLUTE
    ../fplib/cfplib/fflt.c                   0x00000000   Number         0  dflti.o ABSOLUTE
    ../fplib/cfplib/fflt.c                   0x00000000   Number         0  fflti.o ABSOLUTE
    ../fplib/cfplib/fpinit.c                 0x00000000   Number         0  fpinit.o ABSOLUTE
    ../fplib/cfplib/nan2.c                   0x00000000   Number         0  fnan2.o ABSOLUTE
    ../fplib/cfplib/retnan.c                 0x00000000   Number         0  retnan.o ABSOLUTE
    ../fplib/faddsub6m.s                     0x00000000   Number         0  faddsub.o ABSOLUTE
    ../fplib/fleqf6m.s                       0x00000000   Number         0  flef.o ABSOLUTE
    ../fplib/fmul6m.s                        0x00000000   Number         0  fmul.o ABSOLUTE
    ../fplib/frleqf6m.s                      0x00000000   Number         0  frlef.o ABSOLUTE
    ../fplib/usenofp.s                       0x00000000   Number         0  usenofp.o ABSOLUTE
    ..\Drivers\fm33g0xx_aes.c                0x00000000   Number         0  fm33g0xx_aes.o ABSOLUTE
    ..\Drivers\fm33g0xx_anac.c               0x00000000   Number         0  fm33g0xx_anac.o ABSOLUTE
    ..\Drivers\fm33g0xx_btim.c               0x00000000   Number         0  fm33g0xx_btim.o ABSOLUTE
    ..\Drivers\fm33g0xx_crc.c                0x00000000   Number         0  fm33g0xx_crc.o ABSOLUTE
    ..\Drivers\fm33g0xx_dma.c                0x00000000   Number         0  fm33g0xx_dma.o ABSOLUTE
    ..\Drivers\fm33g0xx_etim.c               0x00000000   Number         0  fm33g0xx_etim.o ABSOLUTE
    ..\Drivers\fm33g0xx_flash.c              0x00000000   Number         0  fm33g0xx_flash.o ABSOLUTE
    ..\Drivers\fm33g0xx_gpio.c               0x00000000   Number         0  fm33g0xx_gpio.o ABSOLUTE
    ..\Drivers\fm33g0xx_hspi.c               0x00000000   Number         0  fm33g0xx_hspi.o ABSOLUTE
    ..\Drivers\fm33g0xx_i2c.c                0x00000000   Number         0  fm33g0xx_i2c.o ABSOLUTE
    ..\Drivers\fm33g0xx_iwdt.c               0x00000000   Number         0  fm33g0xx_iwdt.o ABSOLUTE
    ..\Drivers\fm33g0xx_lcd.c                0x00000000   Number         0  fm33g0xx_lcd.o ABSOLUTE
    ..\Drivers\fm33g0xx_lptim.c              0x00000000   Number         0  fm33g0xx_lptim.o ABSOLUTE
    ..\Drivers\fm33g0xx_lpuart.c             0x00000000   Number         0  fm33g0xx_lpuart.o ABSOLUTE
    ..\Drivers\fm33g0xx_pmu.c                0x00000000   Number         0  fm33g0xx_pmu.o ABSOLUTE
    ..\Drivers\fm33g0xx_rcc.c                0x00000000   Number         0  fm33g0xx_rcc.o ABSOLUTE
    ..\Drivers\fm33g0xx_rtc.c                0x00000000   Number         0  fm33g0xx_rtc.o ABSOLUTE
    ..\Drivers\fm33g0xx_scu.c                0x00000000   Number         0  fm33g0xx_scu.o ABSOLUTE
    ..\Drivers\fm33g0xx_spi.c                0x00000000   Number         0  fm33g0xx_spi.o ABSOLUTE
    ..\Drivers\fm33g0xx_trng.c               0x00000000   Number         0  fm33g0xx_trng.o ABSOLUTE
    ..\Drivers\fm33g0xx_u7816.c              0x00000000   Number         0  fm33g0xx_u7816.o ABSOLUTE
    ..\Drivers\fm33g0xx_uart.c               0x00000000   Number         0  fm33g0xx_uart.o ABSOLUTE
    ..\Drivers\fm33g0xx_wwdt.c               0x00000000   Number         0  fm33g0xx_wwdt.o ABSOLUTE
    ..\UserCode\flash.c                      0x00000000   Number         0  flash.o ABSOLUTE
    ..\UserCode\interrupt.c                  0x00000000   Number         0  interrupt.o ABSOLUTE
    ..\UserCode\main.c                       0x00000000   Number         0  main.o ABSOLUTE
    ..\UserCode\uart.c                       0x00000000   Number         0  uart.o ABSOLUTE
    ..\UserCode\user_init.c                  0x00000000   Number         0  user_init.o ABSOLUTE
    ..\\Drivers\\fm33g0xx_aes.c              0x00000000   Number         0  fm33g0xx_aes.o ABSOLUTE
    ..\\Drivers\\fm33g0xx_anac.c             0x00000000   Number         0  fm33g0xx_anac.o ABSOLUTE
    ..\\Drivers\\fm33g0xx_btim.c             0x00000000   Number         0  fm33g0xx_btim.o ABSOLUTE
    ..\\Drivers\\fm33g0xx_crc.c              0x00000000   Number         0  fm33g0xx_crc.o ABSOLUTE
    ..\\Drivers\\fm33g0xx_dma.c              0x00000000   Number         0  fm33g0xx_dma.o ABSOLUTE
    ..\\Drivers\\fm33g0xx_etim.c             0x00000000   Number         0  fm33g0xx_etim.o ABSOLUTE
    ..\\Drivers\\fm33g0xx_flash.c            0x00000000   Number         0  fm33g0xx_flash.o ABSOLUTE
    ..\\Drivers\\fm33g0xx_gpio.c             0x00000000   Number         0  fm33g0xx_gpio.o ABSOLUTE
    ..\\Drivers\\fm33g0xx_hspi.c             0x00000000   Number         0  fm33g0xx_hspi.o ABSOLUTE
    ..\\Drivers\\fm33g0xx_i2c.c              0x00000000   Number         0  fm33g0xx_i2c.o ABSOLUTE
    ..\\Drivers\\fm33g0xx_iwdt.c             0x00000000   Number         0  fm33g0xx_iwdt.o ABSOLUTE
    ..\\Drivers\\fm33g0xx_lcd.c              0x00000000   Number         0  fm33g0xx_lcd.o ABSOLUTE
    ..\\Drivers\\fm33g0xx_lptim.c            0x00000000   Number         0  fm33g0xx_lptim.o ABSOLUTE
    ..\\Drivers\\fm33g0xx_lpuart.c           0x00000000   Number         0  fm33g0xx_lpuart.o ABSOLUTE
    ..\\Drivers\\fm33g0xx_pmu.c              0x00000000   Number         0  fm33g0xx_pmu.o ABSOLUTE
    ..\\Drivers\\fm33g0xx_rcc.c              0x00000000   Number         0  fm33g0xx_rcc.o ABSOLUTE
    ..\\Drivers\\fm33g0xx_rtc.c              0x00000000   Number         0  fm33g0xx_rtc.o ABSOLUTE
    ..\\Drivers\\fm33g0xx_scu.c              0x00000000   Number         0  fm33g0xx_scu.o ABSOLUTE
    ..\\Drivers\\fm33g0xx_spi.c              0x00000000   Number         0  fm33g0xx_spi.o ABSOLUTE
    ..\\Drivers\\fm33g0xx_trng.c             0x00000000   Number         0  fm33g0xx_trng.o ABSOLUTE
    ..\\Drivers\\fm33g0xx_u7816.c            0x00000000   Number         0  fm33g0xx_u7816.o ABSOLUTE
    ..\\Drivers\\fm33g0xx_uart.c             0x00000000   Number         0  fm33g0xx_uart.o ABSOLUTE
    ..\\Drivers\\fm33g0xx_wwdt.c             0x00000000   Number         0  fm33g0xx_wwdt.o ABSOLUTE
    ..\\UserCode\\flash.c                    0x00000000   Number         0  flash.o ABSOLUTE
    ..\\UserCode\\interrupt.c                0x00000000   Number         0  interrupt.o ABSOLUTE
    ..\\UserCode\\main.c                     0x00000000   Number         0  main.o ABSOLUTE
    ..\\UserCode\\uart.c                     0x00000000   Number         0  uart.o ABSOLUTE
    ..\\UserCode\\user_init.c                0x00000000   Number         0  user_init.o ABSOLUTE
    RTE\Device\FM33G04X\startup_FM33G0XX.s   0x00000000   Number         0  startup_fm33g0xx.o ABSOLUTE
    RTE\Device\FM33G04X\system_FM33G0XX.c    0x00000000   Number         0  system_fm33g0xx.o ABSOLUTE
    RTE\\Device\\FM33G04X\\system_FM33G0XX.c 0x00000000   Number         0  system_fm33g0xx.o ABSOLUTE
    dc.s                                     0x00000000   Number         0  dc.o ABSOLUTE
    !!!main                                  0x000000c0   Section        8  __main.o(!!!main)
    !!!scatter                               0x000000c8   Section       60  __scatter.o(!!!scatter)
    !!handler_copy                           0x00000104   Section       26  __scatter_copy.o(!!handler_copy)
    !!handler_zi                             0x00000120   Section       28  __scatter_zi.o(!!handler_zi)
    .ARM.Collect$$libinit$$00000000          0x0000013c   Section        2  libinit.o(.ARM.Collect$$libinit$$00000000)
    .ARM.Collect$$libinit$$00000002          0x0000013e   Section        0  libinit2.o(.ARM.Collect$$libinit$$00000002)
    .ARM.Collect$$libinit$$00000004          0x0000013e   Section        0  libinit2.o(.ARM.Collect$$libinit$$00000004)
    .ARM.Collect$$libinit$$0000000A          0x0000013e   Section        0  libinit2.o(.ARM.Collect$$libinit$$0000000A)
    .ARM.Collect$$libinit$$0000000C          0x0000013e   Section        0  libinit2.o(.ARM.Collect$$libinit$$0000000C)
    .ARM.Collect$$libinit$$0000000E          0x0000013e   Section        0  libinit2.o(.ARM.Collect$$libinit$$0000000E)
    .ARM.Collect$$libinit$$00000011          0x0000013e   Section        0  libinit2.o(.ARM.Collect$$libinit$$00000011)
    .ARM.Collect$$libinit$$00000013          0x0000013e   Section        0  libinit2.o(.ARM.Collect$$libinit$$00000013)
    .ARM.Collect$$libinit$$00000015          0x0000013e   Section        0  libinit2.o(.ARM.Collect$$libinit$$00000015)
    .ARM.Collect$$libinit$$00000017          0x0000013e   Section        0  libinit2.o(.ARM.Collect$$libinit$$00000017)
    .ARM.Collect$$libinit$$00000019          0x0000013e   Section        0  libinit2.o(.ARM.Collect$$libinit$$00000019)
    .ARM.Collect$$libinit$$0000001B          0x0000013e   Section        0  libinit2.o(.ARM.Collect$$libinit$$0000001B)
    .ARM.Collect$$libinit$$0000001D          0x0000013e   Section        0  libinit2.o(.ARM.Collect$$libinit$$0000001D)
    .ARM.Collect$$libinit$$0000001F          0x0000013e   Section        0  libinit2.o(.ARM.Collect$$libinit$$0000001F)
    .ARM.Collect$$libinit$$00000021          0x0000013e   Section        0  libinit2.o(.ARM.Collect$$libinit$$00000021)
    .ARM.Collect$$libinit$$00000023          0x0000013e   Section        0  libinit2.o(.ARM.Collect$$libinit$$00000023)
    .ARM.Collect$$libinit$$00000025          0x0000013e   Section        0  libinit2.o(.ARM.Collect$$libinit$$00000025)
    .ARM.Collect$$libinit$$0000002C          0x0000013e   Section        0  libinit2.o(.ARM.Collect$$libinit$$0000002C)
    .ARM.Collect$$libinit$$0000002E          0x0000013e   Section        0  libinit2.o(.ARM.Collect$$libinit$$0000002E)
    .ARM.Collect$$libinit$$00000030          0x0000013e   Section        0  libinit2.o(.ARM.Collect$$libinit$$00000030)
    .ARM.Collect$$libinit$$00000032          0x0000013e   Section        0  libinit2.o(.ARM.Collect$$libinit$$00000032)
    .ARM.Collect$$libinit$$00000033          0x0000013e   Section        2  libinit2.o(.ARM.Collect$$libinit$$00000033)
    .ARM.Collect$$libshutdown$$00000000      0x00000140   Section        2  libshutdown.o(.ARM.Collect$$libshutdown$$00000000)
    .ARM.Collect$$libshutdown$$00000002      0x00000142   Section        0  libshutdown2.o(.ARM.Collect$$libshutdown$$00000002)
    .ARM.Collect$$libshutdown$$00000004      0x00000142   Section        0  libshutdown2.o(.ARM.Collect$$libshutdown$$00000004)
    .ARM.Collect$$libshutdown$$00000007      0x00000142   Section        0  libshutdown2.o(.ARM.Collect$$libshutdown$$00000007)
    .ARM.Collect$$libshutdown$$0000000A      0x00000142   Section        0  libshutdown2.o(.ARM.Collect$$libshutdown$$0000000A)
    .ARM.Collect$$libshutdown$$0000000C      0x00000142   Section        0  libshutdown2.o(.ARM.Collect$$libshutdown$$0000000C)
    .ARM.Collect$$libshutdown$$0000000F      0x00000142   Section        0  libshutdown2.o(.ARM.Collect$$libshutdown$$0000000F)
    .ARM.Collect$$libshutdown$$00000010      0x00000142   Section        2  libshutdown2.o(.ARM.Collect$$libshutdown$$00000010)
    .ARM.Collect$$rtentry$$00000000          0x00000144   Section        0  __rtentry.o(.ARM.Collect$$rtentry$$00000000)
    .ARM.Collect$$rtentry$$00000002          0x00000144   Section        0  __rtentry2.o(.ARM.Collect$$rtentry$$00000002)
    .ARM.Collect$$rtentry$$00000004          0x00000144   Section        6  __rtentry4.o(.ARM.Collect$$rtentry$$00000004)
    .ARM.Collect$$rtentry$$00000009          0x0000014a   Section        0  __rtentry2.o(.ARM.Collect$$rtentry$$00000009)
    .ARM.Collect$$rtentry$$0000000A          0x0000014a   Section        4  __rtentry2.o(.ARM.Collect$$rtentry$$0000000A)
    .ARM.Collect$$rtentry$$0000000C          0x0000014e   Section        0  __rtentry2.o(.ARM.Collect$$rtentry$$0000000C)
    .ARM.Collect$$rtentry$$0000000D          0x0000014e   Section        8  __rtentry2.o(.ARM.Collect$$rtentry$$0000000D)
    .ARM.Collect$$rtexit$$00000000           0x00000156   Section        2  rtexit.o(.ARM.Collect$$rtexit$$00000000)
    .ARM.Collect$$rtexit$$00000002           0x00000158   Section        0  rtexit2.o(.ARM.Collect$$rtexit$$00000002)
    .ARM.Collect$$rtexit$$00000003           0x00000158   Section        4  rtexit2.o(.ARM.Collect$$rtexit$$00000003)
    .ARM.Collect$$rtexit$$00000004           0x0000015c   Section        6  rtexit2.o(.ARM.Collect$$rtexit$$00000004)
    .emb_text                                0x00000164   Section       56  rt_memcpy.o(.emb_text)
    .text                                    0x0000019c   Section       56  startup_fm33g0xx.o(.text)
    .text                                    0x000001d4   Section        0  rt_memcpy.o(.text)
    .text                                    0x00000256   Section        0  rt_memclr.o(.text)
    .text                                    0x00000296   Section        0  heapauxi.o(.text)
    .text                                    0x0000029c   Section        0  daddsub.o(.text)
    _dadd1                                   0x0000029d   Thumb Code   290  daddsub.o(.text)
    _dsub1                                   0x000003bf   Thumb Code   470  daddsub.o(.text)
    .text                                    0x000005f4   Section        0  dfixui.o(.text)
    .text                                    0x0000063c   Section        0  f2d.o(.text)
    .text                                    0x00000690   Section        0  fdiv.o(.text)
    .text                                    0x000007f0   Section        0  fflti.o(.text)
    .text                                    0x00000850   Section        0  fcmpin.o(.text)
    .text                                    0x000008b4   Section        0  cmpret.o(.text)
    .text                                    0x000008e4   Section        0  fnan2.o(.text)
    .text                                    0x000008f4   Section       62  sys_stackheap_outer.o(.text)
    .text                                    0x00000932   Section        0  exit.o(.text)
    .text                                    0x00000942   Section        0  retnan.o(.text)
    .text                                    0x000009a0   Section        8  libspace.o(.text)
    .text                                    0x000009a8   Section        0  sys_exit.o(.text)
    .text                                    0x000009b4   Section        2  use_no_semi.o(.text)
    .text                                    0x000009b6   Section        0  indicate_semi.o(.text)
    i.ANAC_BORCON_OFF_BOR_Setable            0x000009b8   Section        0  fm33g0xx_anac.o(i.ANAC_BORCON_OFF_BOR_Setable)
    i.ANAC_PDRCON_PDREN_Setable              0x000009dc   Section        0  fm33g0xx_anac.o(i.ANAC_PDRCON_PDREN_Setable)
    i.AltFunIO                               0x00000a00   Section        0  user_init.o(i.AltFunIO)
    i.BitChange                              0x00000aa8   Section        0  uart.o(i.BitChange)
    i.CalCRC16_CCITT                         0x00000b08   Section        0  uart.o(i.CalCRC16_CCITT)
    i.CheckSysReg                            0x00000b80   Section        0  user_init.o(i.CheckSysReg)
    i.ClearClosedIF                          0x00000b92   Section        0  interrupt.o(i.ClearClosedIF)
    i.Close_AllIOEXTI                        0x00000bd4   Section        0  user_init.o(i.Close_AllIOEXTI)
    i.Close_AllIO_GPIO_80pin                 0x00000bfc   Section        0  user_init.o(i.Close_AllIO_GPIO_80pin)
    i.Close_None_GPIO_80pin                  0x00000f18   Section        0  user_init.o(i.Close_None_GPIO_80pin)
    i.CloseeIO                               0x000010e0   Section        0  user_init.o(i.CloseeIO)
    i.DeinitSystem                           0x00001120   Section        0  main.o(i.DeinitSystem)
    i.ETIM2_IRQHandler                       0x00001214   Section        0  interrupt.o(i.ETIM2_IRQHandler)
    i.ETIMx_ETxCMP_Write                     0x000014b4   Section        0  fm33g0xx_etim.o(i.ETIMx_ETxCMP_Write)
    i.ETIMx_ETxCR_CAPCLR_Setable             0x000014ba   Section        0  fm33g0xx_etim.o(i.ETIMx_ETxCR_CAPCLR_Setable)
    i.ETIMx_ETxCR_CAPEDGE_Set                0x000014d2   Section        0  fm33g0xx_etim.o(i.ETIMx_ETxCR_CAPEDGE_Set)
    i.ETIMx_ETxCR_CAPMOD_Set                 0x000014e4   Section        0  fm33g0xx_etim.o(i.ETIMx_ETxCR_CAPMOD_Set)
    i.ETIMx_ETxCR_CAPONCE_Setable            0x000014fc   Section        0  fm33g0xx_etim.o(i.ETIMx_ETxCR_CAPONCE_Setable)
    i.ETIMx_ETxCR_CASEN_Setable              0x00001514   Section        0  fm33g0xx_etim.o(i.ETIMx_ETxCR_CASEN_Setable)
    i.ETIMx_ETxCR_CEN_Setable                0x0000152c   Section        0  fm33g0xx_etim.o(i.ETIMx_ETxCR_CEN_Setable)
    i.ETIMx_ETxCR_EDGESEL_Set                0x00001544   Section        0  fm33g0xx_etim.o(i.ETIMx_ETxCR_EDGESEL_Set)
    i.ETIMx_ETxCR_EXFLT_Setable              0x0000155c   Section        0  fm33g0xx_etim.o(i.ETIMx_ETxCR_EXFLT_Setable)
    i.ETIMx_ETxCR_MOD_Set                    0x00001576   Section        0  fm33g0xx_etim.o(i.ETIMx_ETxCR_MOD_Set)
    i.ETIMx_ETxCR_PWM_Setable                0x0000158e   Section        0  fm33g0xx_etim.o(i.ETIMx_ETxCR_PWM_Setable)
    i.ETIMx_ETxIE_CAPIE_Setable              0x000015a8   Section        0  fm33g0xx_etim.o(i.ETIMx_ETxIE_CAPIE_Setable)
    i.ETIMx_ETxIE_CMPIE_Setable              0x000015c0   Section        0  fm33g0xx_etim.o(i.ETIMx_ETxIE_CMPIE_Setable)
    i.ETIMx_ETxIE_OVIE_Setable               0x000015d8   Section        0  fm33g0xx_etim.o(i.ETIMx_ETxIE_OVIE_Setable)
    i.ETIMx_ETxIF_OVIF_Clr                   0x000015f0   Section        0  fm33g0xx_etim.o(i.ETIMx_ETxIF_OVIF_Clr)
    i.ETIMx_ETxINSEL_GRP1SEL_Set             0x000015f6   Section        0  fm33g0xx_etim.o(i.ETIMx_ETxINSEL_GRP1SEL_Set)
    i.ETIMx_ETxINSEL_GRP2SEL_Set             0x00001608   Section        0  fm33g0xx_etim.o(i.ETIMx_ETxINSEL_GRP2SEL_Set)
    i.ETIMx_ETxINSEL_SIG1SEL_Set             0x00001620   Section        0  fm33g0xx_etim.o(i.ETIMx_ETxINSEL_SIG1SEL_Set)
    i.ETIMx_ETxINSEL_SIG2SEL_Set             0x00001638   Section        0  fm33g0xx_etim.o(i.ETIMx_ETxINSEL_SIG2SEL_Set)
    i.ETIMx_ETxIVR_Write                     0x00001650   Section        0  fm33g0xx_etim.o(i.ETIMx_ETxIVR_Write)
    i.ETIMx_ETxPESCALE1_Write                0x00001656   Section        0  fm33g0xx_etim.o(i.ETIMx_ETxPESCALE1_Write)
    i.ETIMx_ETxPESCALE2_Write                0x0000165c   Section        0  fm33g0xx_etim.o(i.ETIMx_ETxPESCALE2_Write)
    i.ETIMx_Init                             0x00001662   Section        0  fm33g0xx_etim.o(i.ETIMx_Init)
    i.FLASH_EPCON_EREQ_Set                   0x00001724   Section        0  fm33g0xx_flash.o(i.FLASH_EPCON_EREQ_Set)
    i.FLASH_EPCON_ERTYPE_Set                 0x00001740   Section        0  fm33g0xx_flash.o(i.FLASH_EPCON_ERTYPE_Set)
    i.FLASH_EPCON_PREQ_Set                   0x00001760   Section        0  fm33g0xx_flash.o(i.FLASH_EPCON_PREQ_Set)
    i.FLASH_Erase_Sector                     0x00001780   Section        0  fm33g0xx_flash.o(i.FLASH_Erase_Sector)
    i.FLASH_FLSIF_ERDIF_Chk                  0x000017c4   Section        0  fm33g0xx_flash.o(i.FLASH_FLSIF_ERDIF_Chk)
    i.FLASH_FLSIF_ERDIF_Clr                  0x000017dc   Section        0  fm33g0xx_flash.o(i.FLASH_FLSIF_ERDIF_Clr)
    i.FLASH_FLSIF_PRDIF_Chk                  0x000017e8   Section        0  fm33g0xx_flash.o(i.FLASH_FLSIF_PRDIF_Chk)
    i.FLASH_FLSIF_PRDIF_Clr                  0x00001800   Section        0  fm33g0xx_flash.o(i.FLASH_FLSIF_PRDIF_Clr)
    i.FLASH_FLSKEY_Write                     0x0000180c   Section        0  fm33g0xx_flash.o(i.FLASH_FLSKEY_Write)
    i.FLASH_FLSRDCON_WAIT_Set                0x00001818   Section        0  fm33g0xx_flash.o(i.FLASH_FLSRDCON_WAIT_Set)
    i.FLASH_Prog_ByteString                  0x00001834   Section        0  fm33g0xx_flash.o(i.FLASH_Prog_ByteString)
    i.Flash_Erase_Sector                     0x00001888   Section        0  flash.o(i.Flash_Erase_Sector)
    i.Flsah_Write_String                     0x000018e4   Section        0  flash.o(i.Flsah_Write_String)
    i.GPIO_ANASEL_PC12ANS_Set                0x00001944   Section        0  fm33g0xx_gpio.o(i.GPIO_ANASEL_PC12ANS_Set)
    i.GPIO_ANASEL_PC13ANS_Set                0x00001960   Section        0  fm33g0xx_gpio.o(i.GPIO_ANASEL_PC13ANS_Set)
    i.GPIO_ANASEL_PC14ANS_Set                0x00001980   Section        0  fm33g0xx_gpio.o(i.GPIO_ANASEL_PC14ANS_Set)
    i.GPIO_ANASEL_PC15ANS_Set                0x000019a0   Section        0  fm33g0xx_gpio.o(i.GPIO_ANASEL_PC15ANS_Set)
    i.GPIO_ANASEL_PE3ANS_Set                 0x000019c0   Section        0  fm33g0xx_gpio.o(i.GPIO_ANASEL_PE3ANS_Set)
    i.GPIO_ANASEL_PE4ANS_Set                 0x000019e0   Section        0  fm33g0xx_gpio.o(i.GPIO_ANASEL_PE4ANS_Set)
    i.GPIO_FOUTSEL_FOUTSEL_Set               0x00001a00   Section        0  fm33g0xx_gpio.o(i.GPIO_FOUTSEL_FOUTSEL_Set)
    i.GPIO_Get_InitPara                      0x00001a1c   Section        0  fm33g0xx_gpio.o(i.GPIO_Get_InitPara)
    i.GPIO_HDSEL_PE2HDEN_Setable             0x00001ab0   Section        0  fm33g0xx_gpio.o(i.GPIO_HDSEL_PE2HDEN_Setable)
    i.GPIO_HDSEL_PG6HDEN_Setable             0x00001ad4   Section        0  fm33g0xx_gpio.o(i.GPIO_HDSEL_PG6HDEN_Setable)
    i.GPIO_IODF_SetableEx                    0x00001af8   Section        0  fm33g0xx_gpio.o(i.GPIO_IODF_SetableEx)
    i.GPIO_Init                              0x00001b20   Section        0  fm33g0xx_gpio.o(i.GPIO_Init)
    i.GPIO_PINWKEN_SetableEx                 0x00001b94   Section        0  fm33g0xx_gpio.o(i.GPIO_PINWKEN_SetableEx)
    i.GPIO_ResetBits                         0x00001bb4   Section        0  fm33g0xx_gpio.o(i.GPIO_ResetBits)
    i.GPIO_SetBits                           0x00001bb8   Section        0  fm33g0xx_gpio.o(i.GPIO_SetBits)
    i.GPIO_ToggleBits                        0x00001bbc   Section        0  fm33g0xx_gpio.o(i.GPIO_ToggleBits)
    i.GPIOx_DO_Write                         0x00001bcc   Section        0  fm33g0xx_gpio.o(i.GPIOx_DO_Write)
    i.IO_AnalogFunSet                        0x00001bd2   Section        0  user_init.o(i.IO_AnalogFunSet)
    i.IO_DFFunSet                            0x00001bfa   Section        0  user_init.o(i.IO_DFFunSet)
    i.IO_WKENFunSet                          0x00001c96   Section        0  user_init.o(i.IO_WKENFunSet)
    i.IWDT_Clr                               0x00001cdc   Section        0  fm33g0xx_iwdt.o(i.IWDT_Clr)
    i.IWDT_IWDTCFG_IWDTOVP_Set               0x00001cec   Section        0  fm33g0xx_iwdt.o(i.IWDT_IWDTCFG_IWDTOVP_Set)
    i.IWDT_IWDTCFG_IWDTSLP4096S_Setable      0x00001d08   Section        0  fm33g0xx_iwdt.o(i.IWDT_IWDTCFG_IWDTSLP4096S_Setable)
    i.IWDT_Init                              0x00001d2c   Section        0  user_init.o(i.IWDT_Init)
    i.Init_Etim2                             0x00001d4c   Section        0  main.o(i.Init_Etim2)
    i.Init_PLL                               0x00001dd0   Section        0  user_init.o(i.Init_PLL)
    i.Init_Pad_Io                            0x00001df0   Section        0  user_init.o(i.Init_Pad_Io)
    i.Init_RCC_PERIPH_clk                    0x00001e3c   Section        0  user_init.o(i.Init_RCC_PERIPH_clk)
    i.Init_SysClk                            0x00001fe8   Section        0  user_init.o(i.Init_SysClk)
    i.Init_SysClk_Gen                        0x00002018   Section        0  user_init.o(i.Init_SysClk_Gen)
    i.Init_SysTick                           0x00002048   Section        0  user_init.o(i.Init_SysTick)
    i.Init_System                            0x00002080   Section        0  user_init.o(i.Init_System)
    i.Judge_RX_Frame                         0x000020c0   Section        0  uart.o(i.Judge_RX_Frame)
    i.LED0_Flash                             0x00002388   Section        0  user_init.o(i.LED0_Flash)
    i.NVIC_DisableIRQ                        0x000023c4   Section        0  main.o(i.NVIC_DisableIRQ)
    NVIC_DisableIRQ                          0x000023c5   Thumb Code    18  main.o(i.NVIC_DisableIRQ)
    i.NVIC_EnableIRQ                         0x000023dc   Section        0  main.o(i.NVIC_EnableIRQ)
    NVIC_EnableIRQ                           0x000023dd   Thumb Code    18  main.o(i.NVIC_EnableIRQ)
    i.NVIC_SetPriority                       0x000023f4   Section        0  main.o(i.NVIC_SetPriority)
    NVIC_SetPriority                         0x000023f5   Thumb Code   110  main.o(i.NVIC_SetPriority)
    i.NVIC_SetPriority                       0x0000246c   Section        0  user_init.o(i.NVIC_SetPriority)
    NVIC_SetPriority                         0x0000246d   Thumb Code   110  user_init.o(i.NVIC_SetPriority)
    i.OutputIO                               0x000024e4   Section        0  user_init.o(i.OutputIO)
    i.RCC_GetClocksFreq                      0x00002558   Section        0  fm33g0xx_rcc.o(i.RCC_GetClocksFreq)
    i.RCC_Init_RCHF_Trim                     0x00002688   Section        0  fm33g0xx_rcc.o(i.RCC_Init_RCHF_Trim)
    i.RCC_MPRIL_MPRIL_Set                    0x000026e0   Section        0  fm33g0xx_rcc.o(i.RCC_MPRIL_MPRIL_Set)
    i.RCC_PERCLK_SetableEx                   0x000026fc   Section        0  fm33g0xx_rcc.o(i.RCC_PERCLK_SetableEx)
    i.RCC_PLLCON_PLLDB_Get                   0x00002764   Section        0  fm33g0xx_rcc.o(i.RCC_PLLCON_PLLDB_Get)
    i.RCC_PLLCON_PLLDB_Set                   0x00002778   Section        0  fm33g0xx_rcc.o(i.RCC_PLLCON_PLLDB_Set)
    i.RCC_PLLCON_PLLEN_Getable               0x00002798   Section        0  fm33g0xx_rcc.o(i.RCC_PLLCON_PLLEN_Getable)
    i.RCC_PLLCON_PLLEN_Setable               0x000027b0   Section        0  fm33g0xx_rcc.o(i.RCC_PLLCON_PLLEN_Setable)
    i.RCC_PLLCON_PLLINSEL_Get                0x000027d4   Section        0  fm33g0xx_rcc.o(i.RCC_PLLCON_PLLINSEL_Get)
    i.RCC_PLLCON_PLLINSEL_Set                0x000027e4   Section        0  fm33g0xx_rcc.o(i.RCC_PLLCON_PLLINSEL_Set)
    i.RCC_PLLCON_PLLOSEL_Set                 0x00002804   Section        0  fm33g0xx_rcc.o(i.RCC_PLLCON_PLLOSEL_Set)
    i.RCC_PLLDB_WriteEx                      0x00002824   Section        0  fm33g0xx_rcc.o(i.RCC_PLLDB_WriteEx)
    i.RCC_PLL_Init                           0x00002830   Section        0  fm33g0xx_rcc.o(i.RCC_PLL_Init)
    i.RCC_RCHFCON_FSEL_Get                   0x00002850   Section        0  fm33g0xx_rcc.o(i.RCC_RCHFCON_FSEL_Get)
    i.RCC_RCHFCON_FSEL_Set                   0x00002860   Section        0  fm33g0xx_rcc.o(i.RCC_RCHFCON_FSEL_Set)
    i.RCC_RCHFCON_RCHFEN_Getable             0x00002880   Section        0  fm33g0xx_rcc.o(i.RCC_RCHFCON_RCHFEN_Getable)
    i.RCC_RCHFCON_RCHFEN_Setable             0x00002898   Section        0  fm33g0xx_rcc.o(i.RCC_RCHFCON_RCHFEN_Setable)
    i.RCC_RCHFTRIM_Write                     0x000028bc   Section        0  fm33g0xx_rcc.o(i.RCC_RCHFTRIM_Write)
    i.RCC_RCHF_Init                          0x000028cc   Section        0  fm33g0xx_rcc.o(i.RCC_RCHF_Init)
    i.RCC_SYSCLKSEL_AHBPRES_Get              0x000028e0   Section        0  fm33g0xx_rcc.o(i.RCC_SYSCLKSEL_AHBPRES_Get)
    i.RCC_SYSCLKSEL_AHBPRES_Set              0x000028f0   Section        0  fm33g0xx_rcc.o(i.RCC_SYSCLKSEL_AHBPRES_Set)
    i.RCC_SYSCLKSEL_APBPRES_Get              0x00002910   Section        0  fm33g0xx_rcc.o(i.RCC_SYSCLKSEL_APBPRES_Get)
    i.RCC_SYSCLKSEL_APBPRES_Set              0x00002920   Section        0  fm33g0xx_rcc.o(i.RCC_SYSCLKSEL_APBPRES_Set)
    i.RCC_SYSCLKSEL_EXTICKSEL_Set            0x00002940   Section        0  fm33g0xx_rcc.o(i.RCC_SYSCLKSEL_EXTICKSEL_Set)
    i.RCC_SYSCLKSEL_LPM_RCLP_OFF_Setable     0x00002960   Section        0  fm33g0xx_rcc.o(i.RCC_SYSCLKSEL_LPM_RCLP_OFF_Setable)
    i.RCC_SYSCLKSEL_SLP_ENEXTI_Setable       0x00002984   Section        0  fm33g0xx_rcc.o(i.RCC_SYSCLKSEL_SLP_ENEXTI_Setable)
    i.RCC_SYSCLKSEL_SYSCLKSEL_Get            0x000029ac   Section        0  fm33g0xx_rcc.o(i.RCC_SYSCLKSEL_SYSCLKSEL_Get)
    i.RCC_SYSCLKSEL_SYSCLKSEL_Set            0x000029bc   Section        0  fm33g0xx_rcc.o(i.RCC_SYSCLKSEL_SYSCLKSEL_Set)
    i.RCC_SysClk_Init                        0x000029d8   Section        0  fm33g0xx_rcc.o(i.RCC_SysClk_Init)
    i.SCU_Init                               0x00002a02   Section        0  user_init.o(i.SCU_Init)
    i.SCU_MCUDBGCR_DBG_BT1_STOP_Setable      0x00002a48   Section        0  fm33g0xx_scu.o(i.SCU_MCUDBGCR_DBG_BT1_STOP_Setable)
    i.SCU_MCUDBGCR_DBG_BT2_STOP_Setable      0x00002a6c   Section        0  fm33g0xx_scu.o(i.SCU_MCUDBGCR_DBG_BT2_STOP_Setable)
    i.SCU_MCUDBGCR_DBG_ET1_STOP_Setable      0x00002a90   Section        0  fm33g0xx_scu.o(i.SCU_MCUDBGCR_DBG_ET1_STOP_Setable)
    i.SCU_MCUDBGCR_DBG_ET2_STOP_Setable      0x00002ab4   Section        0  fm33g0xx_scu.o(i.SCU_MCUDBGCR_DBG_ET2_STOP_Setable)
    i.SCU_MCUDBGCR_DBG_ET3_STOP_Setable      0x00002ad8   Section        0  fm33g0xx_scu.o(i.SCU_MCUDBGCR_DBG_ET3_STOP_Setable)
    i.SCU_MCUDBGCR_DBG_ET4_STOP_Setable      0x00002afc   Section        0  fm33g0xx_scu.o(i.SCU_MCUDBGCR_DBG_ET4_STOP_Setable)
    i.SCU_MCUDBGCR_DBG_IWDT_STOP_Setable     0x00002b20   Section        0  fm33g0xx_scu.o(i.SCU_MCUDBGCR_DBG_IWDT_STOP_Setable)
    i.SCU_MCUDBGCR_DBG_WWDT_STOP_Setable     0x00002b44   Section        0  fm33g0xx_scu.o(i.SCU_MCUDBGCR_DBG_WWDT_STOP_Setable)
    i.SystemInit                             0x00002b68   Section        0  system_fm33g0xx.o(i.SystemInit)
    i.TicksDelay                             0x00002b78   Section        0  user_init.o(i.TicksDelay)
    i.TicksDelayMs                           0x00002ba0   Section        0  user_init.o(i.TicksDelayMs)
    i.Tx_Frame                               0x00002bc8   Section        0  uart.o(i.Tx_Frame)
    i.UART0_IRQHandler                       0x00002c98   Section        0  interrupt.o(i.UART0_IRQHandler)
    i.UART1_IRQHandler                       0x00002cf4   Section        0  interrupt.o(i.UART1_IRQHandler)
    i.UART2_IRQHandler                       0x00002d4c   Section        0  interrupt.o(i.UART2_IRQHandler)
    i.UART_BaudREGCalc                       0x00002da8   Section        0  fm33g0xx_uart.o(i.UART_BaudREGCalc)
    i.UART_Init                              0x00002e0c   Section        0  fm33g0xx_uart.o(i.UART_Init)
    i.UART_SInit                             0x00002e8e   Section        0  fm33g0xx_uart.o(i.UART_SInit)
    i.UART_UARTIE_RxTxIE_GetableEx           0x00002f1c   Section        0  fm33g0xx_uart.o(i.UART_UARTIE_RxTxIE_GetableEx)
    i.UART_UARTIE_RxTxIE_SetableEx           0x00002f48   Section        0  fm33g0xx_uart.o(i.UART_UARTIE_RxTxIE_SetableEx)
    i.UART_UARTIF_RxTxIF_ChkEx               0x00002f88   Section        0  fm33g0xx_uart.o(i.UART_UARTIF_RxTxIF_ChkEx)
    i.UART_UARTIF_RxTxIF_ClrEx               0x00002fb4   Section        0  fm33g0xx_uart.o(i.UART_UARTIF_RxTxIF_ClrEx)
    i.UARTx_RTXCON_RTX7EN_Setable            0x00002fcc   Section        0  fm33g0xx_uart.o(i.UARTx_RTXCON_RTX7EN_Setable)
    i.UARTx_RTXCON_RXDFLAG_Setable           0x00002fe4   Section        0  fm33g0xx_uart.o(i.UARTx_RTXCON_RXDFLAG_Setable)
    i.UARTx_RTXCON_TXDFLAG_Setable           0x00002ffc   Section        0  fm33g0xx_uart.o(i.UARTx_RTXCON_TXDFLAG_Setable)
    i.UARTx_RXREG_Read                       0x00003014   Section        0  fm33g0xx_uart.o(i.UARTx_RXREG_Read)
    i.UARTx_RXSTA_ERRIE_Setable              0x0000301c   Section        0  fm33g0xx_uart.o(i.UARTx_RXSTA_ERRIE_Setable)
    i.UARTx_RXSTA_FERR_Chk                   0x00003034   Section        0  fm33g0xx_uart.o(i.UARTx_RXSTA_FERR_Chk)
    i.UARTx_RXSTA_FERR_Clr                   0x00003048   Section        0  fm33g0xx_uart.o(i.UARTx_RXSTA_FERR_Clr)
    i.UARTx_RXSTA_OERR_Chk                   0x00003052   Section        0  fm33g0xx_uart.o(i.UARTx_RXSTA_OERR_Chk)
    i.UARTx_RXSTA_OERR_Clr                   0x00003066   Section        0  fm33g0xx_uart.o(i.UARTx_RXSTA_OERR_Clr)
    i.UARTx_RXSTA_PDSEL_Set                  0x00003070   Section        0  fm33g0xx_uart.o(i.UARTx_RXSTA_PDSEL_Set)
    i.UARTx_RXSTA_PERR_Chk                   0x00003088   Section        0  fm33g0xx_uart.o(i.UARTx_RXSTA_PERR_Chk)
    i.UARTx_RXSTA_PERR_Clr                   0x0000309c   Section        0  fm33g0xx_uart.o(i.UARTx_RXSTA_PERR_Clr)
    i.UARTx_RXSTA_RXEN_Setable               0x000030a6   Section        0  fm33g0xx_uart.o(i.UARTx_RXSTA_RXEN_Setable)
    i.UARTx_SPBRG_Write                      0x000030be   Section        0  fm33g0xx_uart.o(i.UARTx_SPBRG_Write)
    i.UARTx_TXBUFSTA_TX_INTSEL_Set           0x000030c4   Section        0  fm33g0xx_uart.o(i.UARTx_TXBUFSTA_TX_INTSEL_Set)
    i.UARTx_TXREG_Write                      0x000030dc   Section        0  fm33g0xx_uart.o(i.UARTx_TXREG_Write)
    i.UARTx_TXSTA_IREN_Setable               0x000030e2   Section        0  fm33g0xx_uart.o(i.UARTx_TXSTA_IREN_Setable)
    i.UARTx_TXSTA_STOPSEL_Set                0x000030fa   Section        0  fm33g0xx_uart.o(i.UARTx_TXSTA_STOPSEL_Set)
    i.UARTx_TXSTA_TXEN_Setable               0x00003112   Section        0  fm33g0xx_uart.o(i.UARTx_TXSTA_TXEN_Setable)
    i.UARTx_TXSTA_TXIS_Set                   0x0000312a   Section        0  fm33g0xx_uart.o(i.UARTx_TXSTA_TXIS_Set)
    i.Uart_Proc                              0x00003144   Section        0  uart.o(i.Uart_Proc)
    i.Uart_RXErr_Proc                        0x00003464   Section        0  uart.o(i.Uart_RXErr_Proc)
    i.Uart_RxErr_ChkEx                       0x000034bc   Section        0  uart.o(i.Uart_RxErr_ChkEx)
    i.Uart_RxErr_ClrEx                       0x000034e6   Section        0  uart.o(i.Uart_RxErr_ClrEx)
    i.Uartx_Init                             0x00003500   Section        0  main.o(i.Uartx_Init)
    i.__ARM_common_switch8                   0x000036d4   Section        0  main.o(i.__ARM_common_switch8)
    i.main                                   0x000036f0   Section        0  main.o(i.main)
    x$fpl$frleqf                             0x000037c0   Section       88  frlef.o(x$fpl$frleqf)
    .constdata                               0x00003818   Section       64  fdiv.o(.constdata)
    x$fpl$usenofp                            0x00003818   Section        0  usenofp.o(x$fpl$usenofp)
    fdiv_tab                                 0x00003818   Data          64  fdiv.o(.constdata)
    .data                                    0x20000000   Section        8  main.o(.data)
    .data                                    0x20000008   Section        4  system_fm33g0xx.o(.data)
    .bss                                     0x2000000c   Section     4136  uart.o(.bss)
    .bss                                     0x20001034   Section       96  libspace.o(.bss)
    HEAP                                     0x20001098   Section      512  startup_fm33g0xx.o(HEAP)
    Heap_Mem                                 0x20001098   Data         512  startup_fm33g0xx.o(HEAP)
    STACK                                    0x20001298   Section     4096  startup_fm33g0xx.o(STACK)
    Stack_Mem                                0x20001298   Data        4096  startup_fm33g0xx.o(STACK)
    __initial_sp                             0x20002298   Data           0  startup_fm33g0xx.o(STACK)

    Global Symbols

    Symbol Name                              Value     Ov Type        Size  Object(Section)

    BuildAttributes$$THM_ISAv3M$S$PE$A:L22$X:L11$S22$IEEE1$IW$USESV6$~STKCKD$USESV7$~SHL$OSPACE$ROPI$EBA8$UX$STANDARDLIB$REQ8$PRES8$EABIv2 0x00000000   Number         0  anon$$obj.o ABSOLUTE
    __ARM_use_no_argv                        0x00000000   Number         0  main.o ABSOLUTE
    __Vectors                                0x00000000   Data           4  startup_fm33g0xx.o(RESET)
    __ARM_exceptions_init                     - Undefined Weak Reference
    __alloca_initialize                       - Undefined Weak Reference
    __arm_preinit_                            - Undefined Weak Reference
    __cpp_initialize__aeabi_                  - Undefined Weak Reference
    __cxa_finalize                            - Undefined Weak Reference
    __rt_locale                               - Undefined Weak Reference
    __sigvec_lookup                           - Undefined Weak Reference
    _atexit_init                              - Undefined Weak Reference
    _call_atexit_fns                          - Undefined Weak Reference
    _clock_init                               - Undefined Weak Reference
    _fp_trap_init                             - Undefined Weak Reference
    _fp_trap_shutdown                         - Undefined Weak Reference
    _get_lc_collate                           - Undefined Weak Reference
    _get_lc_ctype                             - Undefined Weak Reference
    _get_lc_monetary                          - Undefined Weak Reference
    _get_lc_numeric                           - Undefined Weak Reference
    _get_lc_time                              - Undefined Weak Reference
    _getenv_init                              - Undefined Weak Reference
    _handle_redirection                       - Undefined Weak Reference
    _init_alloc                               - Undefined Weak Reference
    _init_user_alloc                          - Undefined Weak Reference
    _initio                                   - Undefined Weak Reference
    _rand_init                                - Undefined Weak Reference
    _signal_finish                            - Undefined Weak Reference
    _signal_init                              - Undefined Weak Reference
    _terminate_alloc                          - Undefined Weak Reference
    _terminate_user_alloc                     - Undefined Weak Reference
    _terminateio                              - Undefined Weak Reference
    __Vectors_End                            0x000000c0   Data           0  startup_fm33g0xx.o(RESET)
    __Vectors_Size                           0x000000c0   Number         0  startup_fm33g0xx.o ABSOLUTE
    __main                                   0x000000c1   Thumb Code     8  __main.o(!!!main)
    __scatterload                            0x000000c9   Thumb Code     0  __scatter.o(!!!scatter)
    __scatterload_rt2                        0x000000c9   Thumb Code    52  __scatter.o(!!!scatter)
    __scatterload_rt2_thumb_only             0x000000c9   Thumb Code     0  __scatter.o(!!!scatter)
    __scatterload_null                       0x000000d9   Thumb Code     0  __scatter.o(!!!scatter)
    __scatterload_copy                       0x00000105   Thumb Code    26  __scatter_copy.o(!!handler_copy)
    __scatterload_zeroinit                   0x00000121   Thumb Code    28  __scatter_zi.o(!!handler_zi)
    __rt_lib_init                            0x0000013d   Thumb Code     0  libinit.o(.ARM.Collect$$libinit$$00000000)
    __rt_lib_init_alloca_1                   0x0000013f   Thumb Code     0  libinit2.o(.ARM.Collect$$libinit$$0000002E)
    __rt_lib_init_argv_1                     0x0000013f   Thumb Code     0  libinit2.o(.ARM.Collect$$libinit$$0000002C)
    __rt_lib_init_atexit_1                   0x0000013f   Thumb Code     0  libinit2.o(.ARM.Collect$$libinit$$0000001B)
    __rt_lib_init_clock_1                    0x0000013f   Thumb Code     0  libinit2.o(.ARM.Collect$$libinit$$00000021)
    __rt_lib_init_cpp_1                      0x0000013f   Thumb Code     0  libinit2.o(.ARM.Collect$$libinit$$00000032)
    __rt_lib_init_exceptions_1               0x0000013f   Thumb Code     0  libinit2.o(.ARM.Collect$$libinit$$00000030)
    __rt_lib_init_fp_1                       0x0000013f   Thumb Code     0  libinit2.o(.ARM.Collect$$libinit$$00000002)
    __rt_lib_init_fp_trap_1                  0x0000013f   Thumb Code     0  libinit2.o(.ARM.Collect$$libinit$$0000001F)
    __rt_lib_init_getenv_1                   0x0000013f   Thumb Code     0  libinit2.o(.ARM.Collect$$libinit$$00000023)
    __rt_lib_init_heap_1                     0x0000013f   Thumb Code     0  libinit2.o(.ARM.Collect$$libinit$$0000000A)
    __rt_lib_init_lc_collate_1               0x0000013f   Thumb Code     0  libinit2.o(.ARM.Collect$$libinit$$00000011)
    __rt_lib_init_lc_ctype_1                 0x0000013f   Thumb Code     0  libinit2.o(.ARM.Collect$$libinit$$00000013)
    __rt_lib_init_lc_monetary_1              0x0000013f   Thumb Code     0  libinit2.o(.ARM.Collect$$libinit$$00000015)
    __rt_lib_init_lc_numeric_1               0x0000013f   Thumb Code     0  libinit2.o(.ARM.Collect$$libinit$$00000017)
    __rt_lib_init_lc_time_1                  0x0000013f   Thumb Code     0  libinit2.o(.ARM.Collect$$libinit$$00000019)
    __rt_lib_init_preinit_1                  0x0000013f   Thumb Code     0  libinit2.o(.ARM.Collect$$libinit$$00000004)
    __rt_lib_init_rand_1                     0x0000013f   Thumb Code     0  libinit2.o(.ARM.Collect$$libinit$$0000000E)
    __rt_lib_init_return                     0x0000013f   Thumb Code     0  libinit2.o(.ARM.Collect$$libinit$$00000033)
    __rt_lib_init_signal_1                   0x0000013f   Thumb Code     0  libinit2.o(.ARM.Collect$$libinit$$0000001D)
    __rt_lib_init_stdio_1                    0x0000013f   Thumb Code     0  libinit2.o(.ARM.Collect$$libinit$$00000025)
    __rt_lib_init_user_alloc_1               0x0000013f   Thumb Code     0  libinit2.o(.ARM.Collect$$libinit$$0000000C)
    __rt_lib_shutdown                        0x00000141   Thumb Code     0  libshutdown.o(.ARM.Collect$$libshutdown$$00000000)
    __rt_lib_shutdown_cpp_1                  0x00000143   Thumb Code     0  libshutdown2.o(.ARM.Collect$$libshutdown$$00000002)
    __rt_lib_shutdown_fp_trap_1              0x00000143   Thumb Code     0  libshutdown2.o(.ARM.Collect$$libshutdown$$00000007)
    __rt_lib_shutdown_heap_1                 0x00000143   Thumb Code     0  libshutdown2.o(.ARM.Collect$$libshutdown$$0000000F)
    __rt_lib_shutdown_return                 0x00000143   Thumb Code     0  libshutdown2.o(.ARM.Collect$$libshutdown$$00000010)
    __rt_lib_shutdown_signal_1               0x00000143   Thumb Code     0  libshutdown2.o(.ARM.Collect$$libshutdown$$0000000A)
    __rt_lib_shutdown_stdio_1                0x00000143   Thumb Code     0  libshutdown2.o(.ARM.Collect$$libshutdown$$00000004)
    __rt_lib_shutdown_user_alloc_1           0x00000143   Thumb Code     0  libshutdown2.o(.ARM.Collect$$libshutdown$$0000000C)
    __rt_entry                               0x00000145   Thumb Code     0  __rtentry.o(.ARM.Collect$$rtentry$$00000000)
    __rt_entry_presh_1                       0x00000145   Thumb Code     0  __rtentry2.o(.ARM.Collect$$rtentry$$00000002)
    __rt_entry_sh                            0x00000145   Thumb Code     0  __rtentry4.o(.ARM.Collect$$rtentry$$00000004)
    __rt_entry_li                            0x0000014b   Thumb Code     0  __rtentry2.o(.ARM.Collect$$rtentry$$0000000A)
    __rt_entry_postsh_1                      0x0000014b   Thumb Code     0  __rtentry2.o(.ARM.Collect$$rtentry$$00000009)
    __rt_entry_main                          0x0000014f   Thumb Code     0  __rtentry2.o(.ARM.Collect$$rtentry$$0000000D)
    __rt_entry_postli_1                      0x0000014f   Thumb Code     0  __rtentry2.o(.ARM.Collect$$rtentry$$0000000C)
    __rt_exit                                0x00000157   Thumb Code     0  rtexit.o(.ARM.Collect$$rtexit$$00000000)
    __rt_exit_ls                             0x00000159   Thumb Code     0  rtexit2.o(.ARM.Collect$$rtexit$$00000003)
    __rt_exit_prels_1                        0x00000159   Thumb Code     0  rtexit2.o(.ARM.Collect$$rtexit$$00000002)
    __rt_exit_exit                           0x0000015d   Thumb Code     0  rtexit2.o(.ARM.Collect$$rtexit$$00000004)
    __aeabi_memcpy4                          0x00000165   Thumb Code    56  rt_memcpy.o(.emb_text)
    __aeabi_memcpy8                          0x00000165   Thumb Code     0  rt_memcpy.o(.emb_text)
    Reset_Handler                            0x0000019d   Thumb Code     8  startup_fm33g0xx.o(.text)
    NMI_Handler                              0x000001a5   Thumb Code     2  startup_fm33g0xx.o(.text)
    HardFault_Handler                        0x000001a7   Thumb Code     2  startup_fm33g0xx.o(.text)
    SVC_Handler                              0x000001a9   Thumb Code     2  startup_fm33g0xx.o(.text)
    PendSV_Handler                           0x000001ab   Thumb Code     2  startup_fm33g0xx.o(.text)
    SysTick_Handler                          0x000001ad   Thumb Code     2  startup_fm33g0xx.o(.text)
    ADC_IRQHandler                           0x000001af   Thumb Code     0  startup_fm33g0xx.o(.text)
    AES_IRQHandler                           0x000001af   Thumb Code     0  startup_fm33g0xx.o(.text)
    BTIM1_IRQHandler                         0x000001af   Thumb Code     0  startup_fm33g0xx.o(.text)
    BTIM2_IRQHandler                         0x000001af   Thumb Code     0  startup_fm33g0xx.o(.text)
    COMP_IRQHandler                          0x000001af   Thumb Code     0  startup_fm33g0xx.o(.text)
    DMA_IRQHandler                           0x000001af   Thumb Code     0  startup_fm33g0xx.o(.text)
    ETIM1_IRQHandler                         0x000001af   Thumb Code     0  startup_fm33g0xx.o(.text)
    ETIM3_IRQHandler                         0x000001af   Thumb Code     0  startup_fm33g0xx.o(.text)
    ETIM4_IRQHandler                         0x000001af   Thumb Code     0  startup_fm33g0xx.o(.text)
    FDET_IRQHandler                          0x000001af   Thumb Code     0  startup_fm33g0xx.o(.text)
    GPIO_IRQHandler                          0x000001af   Thumb Code     0  startup_fm33g0xx.o(.text)
    HSPI_IRQHandler                          0x000001af   Thumb Code     0  startup_fm33g0xx.o(.text)
    I2C_IRQHandler                           0x000001af   Thumb Code     0  startup_fm33g0xx.o(.text)
    LCD_IRQHandler                           0x000001af   Thumb Code     0  startup_fm33g0xx.o(.text)
    LPTIM_IRQHandler                         0x000001af   Thumb Code     0  startup_fm33g0xx.o(.text)
    LPUART_IRQHandler                        0x000001af   Thumb Code     0  startup_fm33g0xx.o(.text)
    NVMIF_IRQHandler                         0x000001af   Thumb Code     0  startup_fm33g0xx.o(.text)
    RTC_IRQHandler                           0x000001af   Thumb Code     0  startup_fm33g0xx.o(.text)
    SPI1_IRQHandler                          0x000001af   Thumb Code     0  startup_fm33g0xx.o(.text)
    SPI2_IRQHandler                          0x000001af   Thumb Code     0  startup_fm33g0xx.o(.text)
    SVD_IRQHandler                           0x000001af   Thumb Code     0  startup_fm33g0xx.o(.text)
    U78160_IRQHandler                        0x000001af   Thumb Code     0  startup_fm33g0xx.o(.text)
    U78161_IRQHandler                        0x000001af   Thumb Code     0  startup_fm33g0xx.o(.text)
    UART3_IRQHandler                         0x000001af   Thumb Code     0  startup_fm33g0xx.o(.text)
    UART4_IRQHandler                         0x000001af   Thumb Code     0  startup_fm33g0xx.o(.text)
    UART5_IRQHandler                         0x000001af   Thumb Code     0  startup_fm33g0xx.o(.text)
    WKUP_IRQHandler                          0x000001af   Thumb Code     0  startup_fm33g0xx.o(.text)
    WWDT_IRQHandler                          0x000001af   Thumb Code     0  startup_fm33g0xx.o(.text)
    __user_initial_stackheap                 0x000001b1   Thumb Code     0  startup_fm33g0xx.o(.text)
    __aeabi_memcpy                           0x000001d5   Thumb Code   130  rt_memcpy.o(.text)
    __rt_memcpy                              0x000001d5   Thumb Code     0  rt_memcpy.o(.text)
    _memset_w                                0x00000257   Thumb Code    26  rt_memclr.o(.text)
    _memset                                  0x00000271   Thumb Code    30  rt_memclr.o(.text)
    __aeabi_memclr                           0x0000028f   Thumb Code     4  rt_memclr.o(.text)
    __rt_memclr                              0x0000028f   Thumb Code     0  rt_memclr.o(.text)
    __aeabi_memclr4                          0x00000293   Thumb Code     0  rt_memclr.o(.text)
    __aeabi_memclr8                          0x00000293   Thumb Code     0  rt_memclr.o(.text)
    __rt_memclr_w                            0x00000293   Thumb Code     4  rt_memclr.o(.text)
    __use_two_region_memory                  0x00000297   Thumb Code     2  heapauxi.o(.text)
    __rt_heap_escrow$2region                 0x00000299   Thumb Code     2  heapauxi.o(.text)
    __rt_heap_expand$2region                 0x0000029b   Thumb Code     2  heapauxi.o(.text)
    __aeabi_dadd                             0x00000595   Thumb Code     0  daddsub.o(.text)
    _dadd                                    0x00000595   Thumb Code    26  daddsub.o(.text)
    __aeabi_dsub                             0x000005af   Thumb Code     0  daddsub.o(.text)
    _dsub                                    0x000005af   Thumb Code    22  daddsub.o(.text)
    __aeabi_drsub                            0x000005c5   Thumb Code     0  daddsub.o(.text)
    _drsb                                    0x000005c5   Thumb Code    28  daddsub.o(.text)
    __aeabi_d2uiz                            0x000005f5   Thumb Code     0  dfixui.o(.text)
    _dfixu                                   0x000005f5   Thumb Code    68  dfixui.o(.text)
    __aeabi_f2d                              0x0000063d   Thumb Code     0  f2d.o(.text)
    _f2d                                     0x0000063d   Thumb Code    80  f2d.o(.text)
    __aeabi_fdiv                             0x00000691   Thumb Code     0  fdiv.o(.text)
    _fdiv                                    0x00000691   Thumb Code   334  fdiv.o(.text)
    _frdiv                                   0x000007df   Thumb Code     8  fdiv.o(.text)
    __aeabi_i2f_normalise                    0x000007f1   Thumb Code    72  fflti.o(.text)
    __aeabi_i2f                              0x00000839   Thumb Code    16  fflti.o(.text)
    _fflt                                    0x00000839   Thumb Code     0  fflti.o(.text)
    __aeabi_ui2f                             0x00000849   Thumb Code     6  fflti.o(.text)
    _ffltu                                   0x00000849   Thumb Code     0  fflti.o(.text)
    __fpl_fcmp_InfNaN                        0x00000851   Thumb Code    96  fcmpin.o(.text)
    __fpl_cmpreturn                          0x000008b5   Thumb Code    46  cmpret.o(.text)
    __fpl_fcheck_NaN2                        0x000008e5   Thumb Code    10  fnan2.o(.text)
    __user_setup_stackheap                   0x000008f5   Thumb Code    62  sys_stackheap_outer.o(.text)
    exit                                     0x00000933   Thumb Code    16  exit.o(.text)
    __fpl_return_NaN                         0x00000943   Thumb Code    94  retnan.o(.text)
    __user_libspace                          0x000009a1   Thumb Code     8  libspace.o(.text)
    __user_perproc_libspace                  0x000009a1   Thumb Code     0  libspace.o(.text)
    __user_perthread_libspace                0x000009a1   Thumb Code     0  libspace.o(.text)
    _sys_exit                                0x000009a9   Thumb Code     8  sys_exit.o(.text)
    __I$use$semihosting                      0x000009b5   Thumb Code     0  use_no_semi.o(.text)
    __use_no_semihosting_swi                 0x000009b5   Thumb Code     2  use_no_semi.o(.text)
    __semihosting_library_function           0x000009b7   Thumb Code     0  indicate_semi.o(.text)
    ANAC_BORCON_OFF_BOR_Setable              0x000009b9   Thumb Code    32  fm33g0xx_anac.o(i.ANAC_BORCON_OFF_BOR_Setable)
    ANAC_PDRCON_PDREN_Setable                0x000009dd   Thumb Code    32  fm33g0xx_anac.o(i.ANAC_PDRCON_PDREN_Setable)
    AltFunIO                                 0x00000a01   Thumb Code   166  user_init.o(i.AltFunIO)
    BitChange                                0x00000aa9   Thumb Code    70  uart.o(i.BitChange)
    CalCRC16_CCITT                           0x00000b09   Thumb Code   106  uart.o(i.CalCRC16_CCITT)
    CheckSysReg                              0x00000b81   Thumb Code    18  user_init.o(i.CheckSysReg)
    ClearClosedIF                            0x00000b93   Thumb Code    66  interrupt.o(i.ClearClosedIF)
    Close_AllIOEXTI                          0x00000bd5   Thumb Code    32  user_init.o(i.Close_AllIOEXTI)
    Close_AllIO_GPIO_80pin                   0x00000bfd   Thumb Code   792  user_init.o(i.Close_AllIO_GPIO_80pin)
    Close_None_GPIO_80pin                    0x00000f19   Thumb Code   450  user_init.o(i.Close_None_GPIO_80pin)
    CloseeIO                                 0x000010e1   Thumb Code    64  user_init.o(i.CloseeIO)
    DeinitSystem                             0x00001121   Thumb Code   226  main.o(i.DeinitSystem)
    ETIM2_IRQHandler                         0x00001215   Thumb Code   646  interrupt.o(i.ETIM2_IRQHandler)
    ETIMx_ETxCMP_Write                       0x000014b5   Thumb Code     6  fm33g0xx_etim.o(i.ETIMx_ETxCMP_Write)
    ETIMx_ETxCR_CAPCLR_Setable               0x000014bb   Thumb Code    24  fm33g0xx_etim.o(i.ETIMx_ETxCR_CAPCLR_Setable)
    ETIMx_ETxCR_CAPEDGE_Set                  0x000014d3   Thumb Code    18  fm33g0xx_etim.o(i.ETIMx_ETxCR_CAPEDGE_Set)
    ETIMx_ETxCR_CAPMOD_Set                   0x000014e5   Thumb Code    24  fm33g0xx_etim.o(i.ETIMx_ETxCR_CAPMOD_Set)
    ETIMx_ETxCR_CAPONCE_Setable              0x000014fd   Thumb Code    24  fm33g0xx_etim.o(i.ETIMx_ETxCR_CAPONCE_Setable)
    ETIMx_ETxCR_CASEN_Setable                0x00001515   Thumb Code    24  fm33g0xx_etim.o(i.ETIMx_ETxCR_CASEN_Setable)
    ETIMx_ETxCR_CEN_Setable                  0x0000152d   Thumb Code    24  fm33g0xx_etim.o(i.ETIMx_ETxCR_CEN_Setable)
    ETIMx_ETxCR_EDGESEL_Set                  0x00001545   Thumb Code    24  fm33g0xx_etim.o(i.ETIMx_ETxCR_EDGESEL_Set)
    ETIMx_ETxCR_EXFLT_Setable                0x0000155d   Thumb Code    26  fm33g0xx_etim.o(i.ETIMx_ETxCR_EXFLT_Setable)
    ETIMx_ETxCR_MOD_Set                      0x00001577   Thumb Code    24  fm33g0xx_etim.o(i.ETIMx_ETxCR_MOD_Set)
    ETIMx_ETxCR_PWM_Setable                  0x0000158f   Thumb Code    26  fm33g0xx_etim.o(i.ETIMx_ETxCR_PWM_Setable)
    ETIMx_ETxIE_CAPIE_Setable                0x000015a9   Thumb Code    24  fm33g0xx_etim.o(i.ETIMx_ETxIE_CAPIE_Setable)
    ETIMx_ETxIE_CMPIE_Setable                0x000015c1   Thumb Code    24  fm33g0xx_etim.o(i.ETIMx_ETxIE_CMPIE_Setable)
    ETIMx_ETxIE_OVIE_Setable                 0x000015d9   Thumb Code    24  fm33g0xx_etim.o(i.ETIMx_ETxIE_OVIE_Setable)
    ETIMx_ETxIF_OVIF_Clr                     0x000015f1   Thumb Code     6  fm33g0xx_etim.o(i.ETIMx_ETxIF_OVIF_Clr)
    ETIMx_ETxINSEL_GRP1SEL_Set               0x000015f7   Thumb Code    18  fm33g0xx_etim.o(i.ETIMx_ETxINSEL_GRP1SEL_Set)
    ETIMx_ETxINSEL_GRP2SEL_Set               0x00001609   Thumb Code    24  fm33g0xx_etim.o(i.ETIMx_ETxINSEL_GRP2SEL_Set)
    ETIMx_ETxINSEL_SIG1SEL_Set               0x00001621   Thumb Code    24  fm33g0xx_etim.o(i.ETIMx_ETxINSEL_SIG1SEL_Set)
    ETIMx_ETxINSEL_SIG2SEL_Set               0x00001639   Thumb Code    24  fm33g0xx_etim.o(i.ETIMx_ETxINSEL_SIG2SEL_Set)
    ETIMx_ETxIVR_Write                       0x00001651   Thumb Code     6  fm33g0xx_etim.o(i.ETIMx_ETxIVR_Write)
    ETIMx_ETxPESCALE1_Write                  0x00001657   Thumb Code     6  fm33g0xx_etim.o(i.ETIMx_ETxPESCALE1_Write)
    ETIMx_ETxPESCALE2_Write                  0x0000165d   Thumb Code     6  fm33g0xx_etim.o(i.ETIMx_ETxPESCALE2_Write)
    ETIMx_Init                               0x00001663   Thumb Code   192  fm33g0xx_etim.o(i.ETIMx_Init)
    FLASH_EPCON_EREQ_Set                     0x00001725   Thumb Code    22  fm33g0xx_flash.o(i.FLASH_EPCON_EREQ_Set)
    FLASH_EPCON_ERTYPE_Set                   0x00001741   Thumb Code    28  fm33g0xx_flash.o(i.FLASH_EPCON_ERTYPE_Set)
    FLASH_EPCON_PREQ_Set                     0x00001761   Thumb Code    26  fm33g0xx_flash.o(i.FLASH_EPCON_PREQ_Set)
    FLASH_Erase_Sector                       0x00001781   Thumb Code    56  fm33g0xx_flash.o(i.FLASH_Erase_Sector)
    FLASH_FLSIF_ERDIF_Chk                    0x000017c5   Thumb Code    20  fm33g0xx_flash.o(i.FLASH_FLSIF_ERDIF_Chk)
    FLASH_FLSIF_ERDIF_Clr                    0x000017dd   Thumb Code     8  fm33g0xx_flash.o(i.FLASH_FLSIF_ERDIF_Clr)
    FLASH_FLSIF_PRDIF_Chk                    0x000017e9   Thumb Code    20  fm33g0xx_flash.o(i.FLASH_FLSIF_PRDIF_Chk)
    FLASH_FLSIF_PRDIF_Clr                    0x00001801   Thumb Code     8  fm33g0xx_flash.o(i.FLASH_FLSIF_PRDIF_Clr)
    FLASH_FLSKEY_Write                       0x0000180d   Thumb Code     6  fm33g0xx_flash.o(i.FLASH_FLSKEY_Write)
    FLASH_FLSRDCON_WAIT_Set                  0x00001819   Thumb Code    22  fm33g0xx_flash.o(i.FLASH_FLSRDCON_WAIT_Set)
    FLASH_Prog_ByteString                    0x00001835   Thumb Code    74  fm33g0xx_flash.o(i.FLASH_Prog_ByteString)
    Flash_Erase_Sector                       0x00001889   Thumb Code    82  flash.o(i.Flash_Erase_Sector)
    Flsah_Write_String                       0x000018e5   Thumb Code    86  flash.o(i.Flsah_Write_String)
    GPIO_ANASEL_PC12ANS_Set                  0x00001945   Thumb Code    22  fm33g0xx_gpio.o(i.GPIO_ANASEL_PC12ANS_Set)
    GPIO_ANASEL_PC13ANS_Set                  0x00001961   Thumb Code    26  fm33g0xx_gpio.o(i.GPIO_ANASEL_PC13ANS_Set)
    GPIO_ANASEL_PC14ANS_Set                  0x00001981   Thumb Code    26  fm33g0xx_gpio.o(i.GPIO_ANASEL_PC14ANS_Set)
    GPIO_ANASEL_PC15ANS_Set                  0x000019a1   Thumb Code    26  fm33g0xx_gpio.o(i.GPIO_ANASEL_PC15ANS_Set)
    GPIO_ANASEL_PE3ANS_Set                   0x000019c1   Thumb Code    26  fm33g0xx_gpio.o(i.GPIO_ANASEL_PE3ANS_Set)
    GPIO_ANASEL_PE4ANS_Set                   0x000019e1   Thumb Code    26  fm33g0xx_gpio.o(i.GPIO_ANASEL_PE4ANS_Set)
    GPIO_FOUTSEL_FOUTSEL_Set                 0x00001a01   Thumb Code    22  fm33g0xx_gpio.o(i.GPIO_FOUTSEL_FOUTSEL_Set)
    GPIO_Get_InitPara                        0x00001a1d   Thumb Code   148  fm33g0xx_gpio.o(i.GPIO_Get_InitPara)
    GPIO_HDSEL_PE2HDEN_Setable               0x00001ab1   Thumb Code    32  fm33g0xx_gpio.o(i.GPIO_HDSEL_PE2HDEN_Setable)
    GPIO_HDSEL_PG6HDEN_Setable               0x00001ad5   Thumb Code    32  fm33g0xx_gpio.o(i.GPIO_HDSEL_PG6HDEN_Setable)
    GPIO_IODF_SetableEx                      0x00001af9   Thumb Code    36  fm33g0xx_gpio.o(i.GPIO_IODF_SetableEx)
    GPIO_Init                                0x00001b21   Thumb Code   114  fm33g0xx_gpio.o(i.GPIO_Init)
    GPIO_PINWKEN_SetableEx                   0x00001b95   Thumb Code    28  fm33g0xx_gpio.o(i.GPIO_PINWKEN_SetableEx)
    GPIO_ResetBits                           0x00001bb5   Thumb Code     4  fm33g0xx_gpio.o(i.GPIO_ResetBits)
    GPIO_SetBits                             0x00001bb9   Thumb Code     4  fm33g0xx_gpio.o(i.GPIO_SetBits)
    GPIO_ToggleBits                          0x00001bbd   Thumb Code    16  fm33g0xx_gpio.o(i.GPIO_ToggleBits)
    GPIOx_DO_Write                           0x00001bcd   Thumb Code     6  fm33g0xx_gpio.o(i.GPIOx_DO_Write)
    IO_AnalogFunSet                          0x00001bd3   Thumb Code    40  user_init.o(i.IO_AnalogFunSet)
    IO_DFFunSet                              0x00001bfb   Thumb Code   156  user_init.o(i.IO_DFFunSet)
    IO_WKENFunSet                            0x00001c97   Thumb Code    68  user_init.o(i.IO_WKENFunSet)
    IWDT_Clr                                 0x00001cdd   Thumb Code     8  fm33g0xx_iwdt.o(i.IWDT_Clr)
    IWDT_IWDTCFG_IWDTOVP_Set                 0x00001ced   Thumb Code    22  fm33g0xx_iwdt.o(i.IWDT_IWDTCFG_IWDTOVP_Set)
    IWDT_IWDTCFG_IWDTSLP4096S_Setable        0x00001d09   Thumb Code    32  fm33g0xx_iwdt.o(i.IWDT_IWDTCFG_IWDTSLP4096S_Setable)
    IWDT_Init                                0x00001d2d   Thumb Code    28  user_init.o(i.IWDT_Init)
    Init_Etim2                               0x00001d4d   Thumb Code   120  main.o(i.Init_Etim2)
    Init_PLL                                 0x00001dd1   Thumb Code    32  user_init.o(i.Init_PLL)
    Init_Pad_Io                              0x00001df1   Thumb Code    72  user_init.o(i.Init_Pad_Io)
    Init_RCC_PERIPH_clk                      0x00001e3d   Thumb Code   410  user_init.o(i.Init_RCC_PERIPH_clk)
    Init_SysClk                              0x00001fe9   Thumb Code    48  user_init.o(i.Init_SysClk)
    Init_SysClk_Gen                          0x00002019   Thumb Code    46  user_init.o(i.Init_SysClk_Gen)
    Init_SysTick                             0x00002049   Thumb Code    50  user_init.o(i.Init_SysTick)
    Init_System                              0x00002081   Thumb Code    62  user_init.o(i.Init_System)
    Judge_RX_Frame                           0x000020c1   Thumb Code   702  uart.o(i.Judge_RX_Frame)
    LED0_Flash                               0x00002389   Thumb Code    54  user_init.o(i.LED0_Flash)
    OutputIO                                 0x000024e5   Thumb Code   114  user_init.o(i.OutputIO)
    RCC_GetClocksFreq                        0x00002559   Thumb Code   300  fm33g0xx_rcc.o(i.RCC_GetClocksFreq)
    RCC_Init_RCHF_Trim                       0x00002689   Thumb Code    82  fm33g0xx_rcc.o(i.RCC_Init_RCHF_Trim)
    RCC_MPRIL_MPRIL_Set                      0x000026e1   Thumb Code    22  fm33g0xx_rcc.o(i.RCC_MPRIL_MPRIL_Set)
    RCC_PERCLK_SetableEx                     0x000026fd   Thumb Code   100  fm33g0xx_rcc.o(i.RCC_PERCLK_SetableEx)
    RCC_PLLCON_PLLDB_Get                     0x00002765   Thumb Code    10  fm33g0xx_rcc.o(i.RCC_PLLCON_PLLDB_Get)
    RCC_PLLCON_PLLDB_Set                     0x00002779   Thumb Code    22  fm33g0xx_rcc.o(i.RCC_PLLCON_PLLDB_Set)
    RCC_PLLCON_PLLEN_Getable                 0x00002799   Thumb Code    20  fm33g0xx_rcc.o(i.RCC_PLLCON_PLLEN_Getable)
    RCC_PLLCON_PLLEN_Setable                 0x000027b1   Thumb Code    32  fm33g0xx_rcc.o(i.RCC_PLLCON_PLLEN_Setable)
    RCC_PLLCON_PLLINSEL_Get                  0x000027d5   Thumb Code    10  fm33g0xx_rcc.o(i.RCC_PLLCON_PLLINSEL_Get)
    RCC_PLLCON_PLLINSEL_Set                  0x000027e5   Thumb Code    26  fm33g0xx_rcc.o(i.RCC_PLLCON_PLLINSEL_Set)
    RCC_PLLCON_PLLOSEL_Set                   0x00002805   Thumb Code    26  fm33g0xx_rcc.o(i.RCC_PLLCON_PLLOSEL_Set)
    RCC_PLLDB_WriteEx                        0x00002825   Thumb Code    12  fm33g0xx_rcc.o(i.RCC_PLLDB_WriteEx)
    RCC_PLL_Init                             0x00002831   Thumb Code    30  fm33g0xx_rcc.o(i.RCC_PLL_Init)
    RCC_RCHFCON_FSEL_Get                     0x00002851   Thumb Code    12  fm33g0xx_rcc.o(i.RCC_RCHFCON_FSEL_Get)
    RCC_RCHFCON_FSEL_Set                     0x00002861   Thumb Code    28  fm33g0xx_rcc.o(i.RCC_RCHFCON_FSEL_Set)
    RCC_RCHFCON_RCHFEN_Getable               0x00002881   Thumb Code    20  fm33g0xx_rcc.o(i.RCC_RCHFCON_RCHFEN_Getable)
    RCC_RCHFCON_RCHFEN_Setable               0x00002899   Thumb Code    32  fm33g0xx_rcc.o(i.RCC_RCHFCON_RCHFEN_Setable)
    RCC_RCHFTRIM_Write                       0x000028bd   Thumb Code    10  fm33g0xx_rcc.o(i.RCC_RCHFTRIM_Write)
    RCC_RCHF_Init                            0x000028cd   Thumb Code    18  fm33g0xx_rcc.o(i.RCC_RCHF_Init)
    RCC_SYSCLKSEL_AHBPRES_Get                0x000028e1   Thumb Code    12  fm33g0xx_rcc.o(i.RCC_SYSCLKSEL_AHBPRES_Get)
    RCC_SYSCLKSEL_AHBPRES_Set                0x000028f1   Thumb Code    28  fm33g0xx_rcc.o(i.RCC_SYSCLKSEL_AHBPRES_Set)
    RCC_SYSCLKSEL_APBPRES_Get                0x00002911   Thumb Code    12  fm33g0xx_rcc.o(i.RCC_SYSCLKSEL_APBPRES_Get)
    RCC_SYSCLKSEL_APBPRES_Set                0x00002921   Thumb Code    28  fm33g0xx_rcc.o(i.RCC_SYSCLKSEL_APBPRES_Set)
    RCC_SYSCLKSEL_EXTICKSEL_Set              0x00002941   Thumb Code    26  fm33g0xx_rcc.o(i.RCC_SYSCLKSEL_EXTICKSEL_Set)
    RCC_SYSCLKSEL_LPM_RCLP_OFF_Setable       0x00002961   Thumb Code    32  fm33g0xx_rcc.o(i.RCC_SYSCLKSEL_LPM_RCLP_OFF_Setable)
    RCC_SYSCLKSEL_SLP_ENEXTI_Setable         0x00002985   Thumb Code    34  fm33g0xx_rcc.o(i.RCC_SYSCLKSEL_SLP_ENEXTI_Setable)
    RCC_SYSCLKSEL_SYSCLKSEL_Get              0x000029ad   Thumb Code    10  fm33g0xx_rcc.o(i.RCC_SYSCLKSEL_SYSCLKSEL_Get)
    RCC_SYSCLKSEL_SYSCLKSEL_Set              0x000029bd   Thumb Code    22  fm33g0xx_rcc.o(i.RCC_SYSCLKSEL_SYSCLKSEL_Set)
    RCC_SysClk_Init                          0x000029d9   Thumb Code    42  fm33g0xx_rcc.o(i.RCC_SysClk_Init)
    SCU_Init                                 0x00002a03   Thumb Code    70  user_init.o(i.SCU_Init)
    SCU_MCUDBGCR_DBG_BT1_STOP_Setable        0x00002a49   Thumb Code    36  fm33g0xx_scu.o(i.SCU_MCUDBGCR_DBG_BT1_STOP_Setable)
    SCU_MCUDBGCR_DBG_BT2_STOP_Setable        0x00002a6d   Thumb Code    36  fm33g0xx_scu.o(i.SCU_MCUDBGCR_DBG_BT2_STOP_Setable)
    SCU_MCUDBGCR_DBG_ET1_STOP_Setable        0x00002a91   Thumb Code    36  fm33g0xx_scu.o(i.SCU_MCUDBGCR_DBG_ET1_STOP_Setable)
    SCU_MCUDBGCR_DBG_ET2_STOP_Setable        0x00002ab5   Thumb Code    36  fm33g0xx_scu.o(i.SCU_MCUDBGCR_DBG_ET2_STOP_Setable)
    SCU_MCUDBGCR_DBG_ET3_STOP_Setable        0x00002ad9   Thumb Code    36  fm33g0xx_scu.o(i.SCU_MCUDBGCR_DBG_ET3_STOP_Setable)
    SCU_MCUDBGCR_DBG_ET4_STOP_Setable        0x00002afd   Thumb Code    36  fm33g0xx_scu.o(i.SCU_MCUDBGCR_DBG_ET4_STOP_Setable)
    SCU_MCUDBGCR_DBG_IWDT_STOP_Setable       0x00002b21   Thumb Code    36  fm33g0xx_scu.o(i.SCU_MCUDBGCR_DBG_IWDT_STOP_Setable)
    SCU_MCUDBGCR_DBG_WWDT_STOP_Setable       0x00002b45   Thumb Code    34  fm33g0xx_scu.o(i.SCU_MCUDBGCR_DBG_WWDT_STOP_Setable)
    SystemInit                               0x00002b69   Thumb Code     8  system_fm33g0xx.o(i.SystemInit)
    TicksDelay                               0x00002b79   Thumb Code    34  user_init.o(i.TicksDelay)
    TicksDelayMs                             0x00002ba1   Thumb Code    40  user_init.o(i.TicksDelayMs)
    Tx_Frame                                 0x00002bc9   Thumb Code   196  uart.o(i.Tx_Frame)
    UART0_IRQHandler                         0x00002c99   Thumb Code    86  interrupt.o(i.UART0_IRQHandler)
    UART1_IRQHandler                         0x00002cf5   Thumb Code    84  interrupt.o(i.UART1_IRQHandler)
    UART2_IRQHandler                         0x00002d4d   Thumb Code    86  interrupt.o(i.UART2_IRQHandler)
    UART_BaudREGCalc                         0x00002da9   Thumb Code    90  fm33g0xx_uart.o(i.UART_BaudREGCalc)
    UART_Init                                0x00002e0d   Thumb Code   130  fm33g0xx_uart.o(i.UART_Init)
    UART_SInit                               0x00002e8f   Thumb Code   142  fm33g0xx_uart.o(i.UART_SInit)
    UART_UARTIE_RxTxIE_GetableEx             0x00002f1d   Thumb Code    40  fm33g0xx_uart.o(i.UART_UARTIE_RxTxIE_GetableEx)
    UART_UARTIE_RxTxIE_SetableEx             0x00002f49   Thumb Code    60  fm33g0xx_uart.o(i.UART_UARTIE_RxTxIE_SetableEx)
    UART_UARTIF_RxTxIF_ChkEx                 0x00002f89   Thumb Code    40  fm33g0xx_uart.o(i.UART_UARTIF_RxTxIF_ChkEx)
    UART_UARTIF_RxTxIF_ClrEx                 0x00002fb5   Thumb Code    18  fm33g0xx_uart.o(i.UART_UARTIF_RxTxIF_ClrEx)
    UARTx_RTXCON_RTX7EN_Setable              0x00002fcd   Thumb Code    24  fm33g0xx_uart.o(i.UARTx_RTXCON_RTX7EN_Setable)
    UARTx_RTXCON_RXDFLAG_Setable             0x00002fe5   Thumb Code    24  fm33g0xx_uart.o(i.UARTx_RTXCON_RXDFLAG_Setable)
    UARTx_RTXCON_TXDFLAG_Setable             0x00002ffd   Thumb Code    24  fm33g0xx_uart.o(i.UARTx_RTXCON_TXDFLAG_Setable)
    UARTx_RXREG_Read                         0x00003015   Thumb Code     8  fm33g0xx_uart.o(i.UARTx_RXREG_Read)
    UARTx_RXSTA_ERRIE_Setable                0x0000301d   Thumb Code    24  fm33g0xx_uart.o(i.UARTx_RXSTA_ERRIE_Setable)
    UARTx_RXSTA_FERR_Chk                     0x00003035   Thumb Code    20  fm33g0xx_uart.o(i.UARTx_RXSTA_FERR_Chk)
    UARTx_RXSTA_FERR_Clr                     0x00003049   Thumb Code    10  fm33g0xx_uart.o(i.UARTx_RXSTA_FERR_Clr)
    UARTx_RXSTA_OERR_Chk                     0x00003053   Thumb Code    20  fm33g0xx_uart.o(i.UARTx_RXSTA_OERR_Chk)
    UARTx_RXSTA_OERR_Clr                     0x00003067   Thumb Code    10  fm33g0xx_uart.o(i.UARTx_RXSTA_OERR_Clr)
    UARTx_RXSTA_PDSEL_Set                    0x00003071   Thumb Code    24  fm33g0xx_uart.o(i.UARTx_RXSTA_PDSEL_Set)
    UARTx_RXSTA_PERR_Chk                     0x00003089   Thumb Code    20  fm33g0xx_uart.o(i.UARTx_RXSTA_PERR_Chk)
    UARTx_RXSTA_PERR_Clr                     0x0000309d   Thumb Code    10  fm33g0xx_uart.o(i.UARTx_RXSTA_PERR_Clr)
    UARTx_RXSTA_RXEN_Setable                 0x000030a7   Thumb Code    24  fm33g0xx_uart.o(i.UARTx_RXSTA_RXEN_Setable)
    UARTx_SPBRG_Write                        0x000030bf   Thumb Code     6  fm33g0xx_uart.o(i.UARTx_SPBRG_Write)
    UARTx_TXBUFSTA_TX_INTSEL_Set             0x000030c5   Thumb Code    24  fm33g0xx_uart.o(i.UARTx_TXBUFSTA_TX_INTSEL_Set)
    UARTx_TXREG_Write                        0x000030dd   Thumb Code     6  fm33g0xx_uart.o(i.UARTx_TXREG_Write)
    UARTx_TXSTA_IREN_Setable                 0x000030e3   Thumb Code    24  fm33g0xx_uart.o(i.UARTx_TXSTA_IREN_Setable)
    UARTx_TXSTA_STOPSEL_Set                  0x000030fb   Thumb Code    24  fm33g0xx_uart.o(i.UARTx_TXSTA_STOPSEL_Set)
    UARTx_TXSTA_TXEN_Setable                 0x00003113   Thumb Code    24  fm33g0xx_uart.o(i.UARTx_TXSTA_TXEN_Setable)
    UARTx_TXSTA_TXIS_Set                     0x0000312b   Thumb Code    24  fm33g0xx_uart.o(i.UARTx_TXSTA_TXIS_Set)
    Uart_Proc                                0x00003145   Thumb Code   780  uart.o(i.Uart_Proc)
    Uart_RXErr_Proc                          0x00003465   Thumb Code    84  uart.o(i.Uart_RXErr_Proc)
    Uart_RxErr_ChkEx                         0x000034bd   Thumb Code    42  uart.o(i.Uart_RxErr_ChkEx)
    Uart_RxErr_ClrEx                         0x000034e7   Thumb Code    24  uart.o(i.Uart_RxErr_ClrEx)
    Uartx_Init                               0x00003501   Thumb Code   456  main.o(i.Uartx_Init)
    __ARM_common_switch8                     0x000036d5   Thumb Code    28  main.o(i.__ARM_common_switch8)
    main                                     0x000036f1   Thumb Code   174  main.o(i.main)
    __aeabi_cfrcmple                         0x000037c1   Thumb Code     0  frlef.o(x$fpl$frleqf)
    _frcmple                                 0x000037c1   Thumb Code    84  frlef.o(x$fpl$frleqf)
    __I$use$fp                               0x00003818   Number         0  usenofp.o(x$fpl$usenofp)
    Region$$Table$$Base                      0x00003858   Number         0  anon$$obj.o(Region$$Table)
    Region$$Table$$Limit                     0x00003878   Number         0  anon$$obj.o(Region$$Table)
    BootEnable                               0x20000000   Data           1  main.o(.data)
    JumpCount                                0x20000002   Data           2  main.o(.data)
    FlashOpID                                0x20000004   Data           4  main.o(.data)
    SystemCoreClock                          0x20000008   Data           4  system_fm33g0xx.o(.data)
    Uart                                     0x2000000c   Data        4136  uart.o(.bss)
    __libspace_start                         0x20001034   Data          96  libspace.o(.bss)
    __temporary_stack_top$libspace           0x20001094   Data           0  libspace.o(.bss)



==============================================================================

Memory Map of the image

  Image Entry point : 0x000000c1

  Load Region LR_IROM1 (Base: 0x00000000, Size: 0x00003884, Max: 0x00040000, ABSOLUTE)

    Execution Region ER_IROM1 (Base: 0x00000000, Size: 0x00003878, Max: 0x00040000, ABSOLUTE)

    Base Addr    Size         Type   Attr      Idx    E Section Name        Object

    0x00000000   0x000000c0   Data   RO         7249    RESET               startup_fm33g0xx.o
    0x000000c0   0x00000008   Code   RO         7300  * !!!main             c_p.l(__main.o)
    0x000000c8   0x0000003c   Code   RO         7510    !!!scatter          c_p.l(__scatter.o)
    0x00000104   0x0000001a   Code   RO         7512    !!handler_copy      c_p.l(__scatter_copy.o)
    0x0000011e   0x00000002   PAD
    0x00000120   0x0000001c   Code   RO         7514    !!handler_zi        c_p.l(__scatter_zi.o)
    0x0000013c   0x00000002   Code   RO         7377    .ARM.Collect$$libinit$$00000000  c_p.l(libinit.o)
    0x0000013e   0x00000000   Code   RO         7393    .ARM.Collect$$libinit$$00000002  c_p.l(libinit2.o)
    0x0000013e   0x00000000   Code   RO         7395    .ARM.Collect$$libinit$$00000004  c_p.l(libinit2.o)
    0x0000013e   0x00000000   Code   RO         7398    .ARM.Collect$$libinit$$0000000A  c_p.l(libinit2.o)
    0x0000013e   0x00000000   Code   RO         7400    .ARM.Collect$$libinit$$0000000C  c_p.l(libinit2.o)
    0x0000013e   0x00000000   Code   RO         7402    .ARM.Collect$$libinit$$0000000E  c_p.l(libinit2.o)
    0x0000013e   0x00000000   Code   RO         7405    .ARM.Collect$$libinit$$00000011  c_p.l(libinit2.o)
    0x0000013e   0x00000000   Code   RO         7407    .ARM.Collect$$libinit$$00000013  c_p.l(libinit2.o)
    0x0000013e   0x00000000   Code   RO         7409    .ARM.Collect$$libinit$$00000015  c_p.l(libinit2.o)
    0x0000013e   0x00000000   Code   RO         7411    .ARM.Collect$$libinit$$00000017  c_p.l(libinit2.o)
    0x0000013e   0x00000000   Code   RO         7413    .ARM.Collect$$libinit$$00000019  c_p.l(libinit2.o)
    0x0000013e   0x00000000   Code   RO         7415    .ARM.Collect$$libinit$$0000001B  c_p.l(libinit2.o)
    0x0000013e   0x00000000   Code   RO         7417    .ARM.Collect$$libinit$$0000001D  c_p.l(libinit2.o)
    0x0000013e   0x00000000   Code   RO         7419    .ARM.Collect$$libinit$$0000001F  c_p.l(libinit2.o)
    0x0000013e   0x00000000   Code   RO         7421    .ARM.Collect$$libinit$$00000021  c_p.l(libinit2.o)
    0x0000013e   0x00000000   Code   RO         7423    .ARM.Collect$$libinit$$00000023  c_p.l(libinit2.o)
    0x0000013e   0x00000000   Code   RO         7425    .ARM.Collect$$libinit$$00000025  c_p.l(libinit2.o)
    0x0000013e   0x00000000   Code   RO         7429    .ARM.Collect$$libinit$$0000002C  c_p.l(libinit2.o)
    0x0000013e   0x00000000   Code   RO         7431    .ARM.Collect$$libinit$$0000002E  c_p.l(libinit2.o)
    0x0000013e   0x00000000   Code   RO         7433    .ARM.Collect$$libinit$$00000030  c_p.l(libinit2.o)
    0x0000013e   0x00000000   Code   RO         7435    .ARM.Collect$$libinit$$00000032  c_p.l(libinit2.o)
    0x0000013e   0x00000002   Code   RO         7436    .ARM.Collect$$libinit$$00000033  c_p.l(libinit2.o)
    0x00000140   0x00000002   Code   RO         7467    .ARM.Collect$$libshutdown$$00000000  c_p.l(libshutdown.o)
    0x00000142   0x00000000   Code   RO         7493    .ARM.Collect$$libshutdown$$00000002  c_p.l(libshutdown2.o)
    0x00000142   0x00000000   Code   RO         7495    .ARM.Collect$$libshutdown$$00000004  c_p.l(libshutdown2.o)
    0x00000142   0x00000000   Code   RO         7498    .ARM.Collect$$libshutdown$$00000007  c_p.l(libshutdown2.o)
    0x00000142   0x00000000   Code   RO         7501    .ARM.Collect$$libshutdown$$0000000A  c_p.l(libshutdown2.o)
    0x00000142   0x00000000   Code   RO         7503    .ARM.Collect$$libshutdown$$0000000C  c_p.l(libshutdown2.o)
    0x00000142   0x00000000   Code   RO         7506    .ARM.Collect$$libshutdown$$0000000F  c_p.l(libshutdown2.o)
    0x00000142   0x00000002   Code   RO         7507    .ARM.Collect$$libshutdown$$00000010  c_p.l(libshutdown2.o)
    0x00000144   0x00000000   Code   RO         7334    .ARM.Collect$$rtentry$$00000000  c_p.l(__rtentry.o)
    0x00000144   0x00000000   Code   RO         7343    .ARM.Collect$$rtentry$$00000002  c_p.l(__rtentry2.o)
    0x00000144   0x00000006   Code   RO         7355    .ARM.Collect$$rtentry$$00000004  c_p.l(__rtentry4.o)
    0x0000014a   0x00000000   Code   RO         7345    .ARM.Collect$$rtentry$$00000009  c_p.l(__rtentry2.o)
    0x0000014a   0x00000004   Code   RO         7346    .ARM.Collect$$rtentry$$0000000A  c_p.l(__rtentry2.o)
    0x0000014e   0x00000000   Code   RO         7348    .ARM.Collect$$rtentry$$0000000C  c_p.l(__rtentry2.o)
    0x0000014e   0x00000008   Code   RO         7349    .ARM.Collect$$rtentry$$0000000D  c_p.l(__rtentry2.o)
    0x00000156   0x00000002   Code   RO         7384    .ARM.Collect$$rtexit$$00000000  c_p.l(rtexit.o)
    0x00000158   0x00000000   Code   RO         7440    .ARM.Collect$$rtexit$$00000002  c_p.l(rtexit2.o)
    0x00000158   0x00000004   Code   RO         7441    .ARM.Collect$$rtexit$$00000003  c_p.l(rtexit2.o)
    0x0000015c   0x00000006   Code   RO         7442    .ARM.Collect$$rtexit$$00000004  c_p.l(rtexit2.o)
    0x00000162   0x00000002   PAD
    0x00000164   0x00000038   Code   RO         7288    .emb_text           c_p.l(rt_memcpy.o)
    0x0000019c   0x00000038   Code   RO         7250    .text               startup_fm33g0xx.o
    0x000001d4   0x00000082   Code   RO         7289    .text               c_p.l(rt_memcpy.o)
    0x00000256   0x00000040   Code   RO         7292    .text               c_p.l(rt_memclr.o)
    0x00000296   0x00000006   Code   RO         7298    .text               c_p.l(heapauxi.o)
    0x0000029c   0x00000358   Code   RO         7304    .text               fz_ps.l(daddsub.o)
    0x000005f4   0x00000048   Code   RO         7309    .text               fz_ps.l(dfixui.o)
    0x0000063c   0x00000054   Code   RO         7315    .text               fz_ps.l(f2d.o)
    0x00000690   0x00000160   Code   RO         7323    .text               fz_ps.l(fdiv.o)
    0x000007f0   0x0000005e   Code   RO         7326    .text               fz_ps.l(fflti.o)
    0x0000084e   0x00000002   PAD
    0x00000850   0x00000064   Code   RO         7339    .text               fz_ps.l(fcmpin.o)
    0x000008b4   0x0000002e   Code   RO         7359    .text               fz_ps.l(cmpret.o)
    0x000008e2   0x00000002   PAD
    0x000008e4   0x00000010   Code   RO         7361    .text               fz_ps.l(fnan2.o)
    0x000008f4   0x0000003e   Code   RO         7363    .text               c_p.l(sys_stackheap_outer.o)
    0x00000932   0x00000010   Code   RO         7366    .text               c_p.l(exit.o)
    0x00000942   0x0000005e   Code   RO         7378    .text               fz_ps.l(retnan.o)
    0x000009a0   0x00000008   Code   RO         7380    .text               c_p.l(libspace.o)
    0x000009a8   0x0000000c   Code   RO         7437    .text               c_p.l(sys_exit.o)
    0x000009b4   0x00000002   Code   RO         7456    .text               c_p.l(use_no_semi.o)
    0x000009b6   0x00000000   Code   RO         7458    .text               c_p.l(indicate_semi.o)
    0x000009b6   0x00000002   PAD
    0x000009b8   0x00000024   Code   RO          786    i.ANAC_BORCON_OFF_BOR_Setable  fm33g0xx_anac.o
    0x000009dc   0x00000024   Code   RO          831    i.ANAC_PDRCON_PDREN_Setable  fm33g0xx_anac.o
    0x00000a00   0x000000a6   Code   RO          184    i.AltFunIO          user_init.o
    0x00000aa6   0x00000002   PAD
    0x00000aa8   0x00000060   Code   RO          448    i.BitChange         uart.o
    0x00000b08   0x00000078   Code   RO          449    i.CalCRC16_CCITT    uart.o
    0x00000b80   0x00000012   Code   RO          187    i.CheckSysReg       user_init.o
    0x00000b92   0x00000042   Code   RO          404    i.ClearClosedIF     interrupt.o
    0x00000bd4   0x00000028   Code   RO          188    i.Close_AllIOEXTI   user_init.o
    0x00000bfc   0x0000031c   Code   RO          189    i.Close_AllIO_GPIO_80pin  user_init.o
    0x00000f18   0x000001c8   Code   RO          190    i.Close_None_GPIO_80pin  user_init.o
    0x000010e0   0x00000040   Code   RO          191    i.CloseeIO          user_init.o
    0x00001120   0x000000f4   Code   RO            3    i.DeinitSystem      main.o
    0x00001214   0x000002a0   Code   RO          405    i.ETIM2_IRQHandler  interrupt.o
    0x000014b4   0x00000006   Code   RO         2295    i.ETIMx_ETxCMP_Write  fm33g0xx_etim.o
    0x000014ba   0x00000018   Code   RO         2298    i.ETIMx_ETxCR_CAPCLR_Setable  fm33g0xx_etim.o
    0x000014d2   0x00000012   Code   RO         2300    i.ETIMx_ETxCR_CAPEDGE_Set  fm33g0xx_etim.o
    0x000014e4   0x00000018   Code   RO         2302    i.ETIMx_ETxCR_CAPMOD_Set  fm33g0xx_etim.o
    0x000014fc   0x00000018   Code   RO         2304    i.ETIMx_ETxCR_CAPONCE_Setable  fm33g0xx_etim.o
    0x00001514   0x00000018   Code   RO         2306    i.ETIMx_ETxCR_CASEN_Setable  fm33g0xx_etim.o
    0x0000152c   0x00000018   Code   RO         2308    i.ETIMx_ETxCR_CEN_Setable  fm33g0xx_etim.o
    0x00001544   0x00000018   Code   RO         2310    i.ETIMx_ETxCR_EDGESEL_Set  fm33g0xx_etim.o
    0x0000155c   0x0000001a   Code   RO         2312    i.ETIMx_ETxCR_EXFLT_Setable  fm33g0xx_etim.o
    0x00001576   0x00000018   Code   RO         2314    i.ETIMx_ETxCR_MOD_Set  fm33g0xx_etim.o
    0x0000158e   0x0000001a   Code   RO         2316    i.ETIMx_ETxCR_PWM_Setable  fm33g0xx_etim.o
    0x000015a8   0x00000018   Code   RO         2318    i.ETIMx_ETxIE_CAPIE_Setable  fm33g0xx_etim.o
    0x000015c0   0x00000018   Code   RO         2320    i.ETIMx_ETxIE_CMPIE_Setable  fm33g0xx_etim.o
    0x000015d8   0x00000018   Code   RO         2322    i.ETIMx_ETxIE_OVIE_Setable  fm33g0xx_etim.o
    0x000015f0   0x00000006   Code   RO         2329    i.ETIMx_ETxIF_OVIF_Clr  fm33g0xx_etim.o
    0x000015f6   0x00000012   Code   RO         2331    i.ETIMx_ETxINSEL_GRP1SEL_Set  fm33g0xx_etim.o
    0x00001608   0x00000018   Code   RO         2333    i.ETIMx_ETxINSEL_GRP2SEL_Set  fm33g0xx_etim.o
    0x00001620   0x00000018   Code   RO         2335    i.ETIMx_ETxINSEL_SIG1SEL_Set  fm33g0xx_etim.o
    0x00001638   0x00000018   Code   RO         2337    i.ETIMx_ETxINSEL_SIG2SEL_Set  fm33g0xx_etim.o
    0x00001650   0x00000006   Code   RO         2339    i.ETIMx_ETxIVR_Write  fm33g0xx_etim.o
    0x00001656   0x00000006   Code   RO         2341    i.ETIMx_ETxPESCALE1_Write  fm33g0xx_etim.o
    0x0000165c   0x00000006   Code   RO         2343    i.ETIMx_ETxPESCALE2_Write  fm33g0xx_etim.o
    0x00001662   0x000000c0   Code   RO         2344    i.ETIMx_Init        fm33g0xx_etim.o
    0x00001722   0x00000002   PAD
    0x00001724   0x0000001c   Code   RO         2626    i.FLASH_EPCON_EREQ_Set  fm33g0xx_flash.o
    0x00001740   0x00000020   Code   RO         2628    i.FLASH_EPCON_ERTYPE_Set  fm33g0xx_flash.o
    0x00001760   0x00000020   Code   RO         2630    i.FLASH_EPCON_PREQ_Set  fm33g0xx_flash.o
    0x00001780   0x00000044   Code   RO         2631    i.FLASH_Erase_Sector  fm33g0xx_flash.o
    0x000017c4   0x00000018   Code   RO         2646    i.FLASH_FLSIF_ERDIF_Chk  fm33g0xx_flash.o
    0x000017dc   0x0000000c   Code   RO         2647    i.FLASH_FLSIF_ERDIF_Clr  fm33g0xx_flash.o
    0x000017e8   0x00000018   Code   RO         2651    i.FLASH_FLSIF_PRDIF_Chk  fm33g0xx_flash.o
    0x00001800   0x0000000c   Code   RO         2652    i.FLASH_FLSIF_PRDIF_Clr  fm33g0xx_flash.o
    0x0000180c   0x0000000c   Code   RO         2653    i.FLASH_FLSKEY_Write  fm33g0xx_flash.o
    0x00001818   0x0000001c   Code   RO         2655    i.FLASH_FLSRDCON_WAIT_Set  fm33g0xx_flash.o
    0x00001834   0x00000054   Code   RO         2660    i.FLASH_Prog_ByteString  fm33g0xx_flash.o
    0x00001888   0x0000005c   Code   RO          375    i.Flash_Erase_Sector  flash.o
    0x000018e4   0x00000060   Code   RO          376    i.Flsah_Write_String  flash.o
    0x00001944   0x0000001c   Code   RO         2881    i.GPIO_ANASEL_PC12ANS_Set  fm33g0xx_gpio.o
    0x00001960   0x00000020   Code   RO         2883    i.GPIO_ANASEL_PC13ANS_Set  fm33g0xx_gpio.o
    0x00001980   0x00000020   Code   RO         2885    i.GPIO_ANASEL_PC14ANS_Set  fm33g0xx_gpio.o
    0x000019a0   0x00000020   Code   RO         2887    i.GPIO_ANASEL_PC15ANS_Set  fm33g0xx_gpio.o
    0x000019c0   0x00000020   Code   RO         2889    i.GPIO_ANASEL_PE3ANS_Set  fm33g0xx_gpio.o
    0x000019e0   0x00000020   Code   RO         2891    i.GPIO_ANASEL_PE4ANS_Set  fm33g0xx_gpio.o
    0x00001a00   0x0000001c   Code   RO         2900    i.GPIO_FOUTSEL_FOUTSEL_Set  fm33g0xx_gpio.o
    0x00001a1c   0x00000094   Code   RO         2901    i.GPIO_Get_InitPara  fm33g0xx_gpio.o
    0x00001ab0   0x00000024   Code   RO         2903    i.GPIO_HDSEL_PE2HDEN_Setable  fm33g0xx_gpio.o
    0x00001ad4   0x00000024   Code   RO         2905    i.GPIO_HDSEL_PG6HDEN_Setable  fm33g0xx_gpio.o
    0x00001af8   0x00000028   Code   RO         2906    i.GPIO_IODF_SetableEx  fm33g0xx_gpio.o
    0x00001b20   0x00000072   Code   RO         2907    i.GPIO_Init         fm33g0xx_gpio.o
    0x00001b92   0x00000002   PAD
    0x00001b94   0x00000020   Code   RO         2912    i.GPIO_PINWKEN_SetableEx  fm33g0xx_gpio.o
    0x00001bb4   0x00000004   Code   RO         2920    i.GPIO_ResetBits    fm33g0xx_gpio.o
    0x00001bb8   0x00000004   Code   RO         2921    i.GPIO_SetBits      fm33g0xx_gpio.o
    0x00001bbc   0x00000010   Code   RO         2922    i.GPIO_ToggleBits   fm33g0xx_gpio.o
    0x00001bcc   0x00000006   Code   RO         2925    i.GPIOx_DO_Write    fm33g0xx_gpio.o
    0x00001bd2   0x00000028   Code   RO          192    i.IO_AnalogFunSet   user_init.o
    0x00001bfa   0x0000009c   Code   RO          193    i.IO_DFFunSet       user_init.o
    0x00001c96   0x00000044   Code   RO          194    i.IO_WKENFunSet     user_init.o
    0x00001cda   0x00000002   PAD
    0x00001cdc   0x00000010   Code   RO         3842    i.IWDT_Clr          fm33g0xx_iwdt.o
    0x00001cec   0x0000001c   Code   RO         3845    i.IWDT_IWDTCFG_IWDTOVP_Set  fm33g0xx_iwdt.o
    0x00001d08   0x00000024   Code   RO         3847    i.IWDT_IWDTCFG_IWDTSLP4096S_Setable  fm33g0xx_iwdt.o
    0x00001d2c   0x00000020   Code   RO          195    i.IWDT_Init         user_init.o
    0x00001d4c   0x00000084   Code   RO            4    i.Init_Etim2        main.o
    0x00001dd0   0x00000020   Code   RO          197    i.Init_PLL          user_init.o
    0x00001df0   0x0000004c   Code   RO          198    i.Init_Pad_Io       user_init.o
    0x00001e3c   0x000001ac   Code   RO          199    i.Init_RCC_PERIPH_clk  user_init.o
    0x00001fe8   0x00000030   Code   RO          200    i.Init_SysClk       user_init.o
    0x00002018   0x0000002e   Code   RO          201    i.Init_SysClk_Gen   user_init.o
    0x00002046   0x00000002   PAD
    0x00002048   0x00000038   Code   RO          202    i.Init_SysTick      user_init.o
    0x00002080   0x0000003e   Code   RO          203    i.Init_System       user_init.o
    0x000020be   0x00000002   PAD
    0x000020c0   0x000002c8   Code   RO          452    i.Judge_RX_Frame    uart.o
    0x00002388   0x0000003c   Code   RO          205    i.LED0_Flash        user_init.o
    0x000023c4   0x00000018   Code   RO            5    i.NVIC_DisableIRQ   main.o
    0x000023dc   0x00000018   Code   RO            6    i.NVIC_EnableIRQ    main.o
    0x000023f4   0x00000078   Code   RO            7    i.NVIC_SetPriority  main.o
    0x0000246c   0x00000078   Code   RO          206    i.NVIC_SetPriority  user_init.o
    0x000024e4   0x00000072   Code   RO          207    i.OutputIO          user_init.o
    0x00002556   0x00000002   PAD
    0x00002558   0x00000130   Code   RO         5074    i.RCC_GetClocksFreq  fm33g0xx_rcc.o
    0x00002688   0x00000058   Code   RO         5075    i.RCC_Init_RCHF_Trim  fm33g0xx_rcc.o
    0x000026e0   0x0000001c   Code   RO         5077    i.RCC_MPRIL_MPRIL_Set  fm33g0xx_rcc.o
    0x000026fc   0x00000068   Code   RO         5080    i.RCC_PERCLK_SetableEx  fm33g0xx_rcc.o
    0x00002764   0x00000014   Code   RO         5081    i.RCC_PLLCON_PLLDB_Get  fm33g0xx_rcc.o
    0x00002778   0x00000020   Code   RO         5082    i.RCC_PLLCON_PLLDB_Set  fm33g0xx_rcc.o
    0x00002798   0x00000018   Code   RO         5083    i.RCC_PLLCON_PLLEN_Getable  fm33g0xx_rcc.o
    0x000027b0   0x00000024   Code   RO         5084    i.RCC_PLLCON_PLLEN_Setable  fm33g0xx_rcc.o
    0x000027d4   0x00000010   Code   RO         5085    i.RCC_PLLCON_PLLINSEL_Get  fm33g0xx_rcc.o
    0x000027e4   0x00000020   Code   RO         5086    i.RCC_PLLCON_PLLINSEL_Set  fm33g0xx_rcc.o
    0x00002804   0x00000020   Code   RO         5088    i.RCC_PLLCON_PLLOSEL_Set  fm33g0xx_rcc.o
    0x00002824   0x0000000c   Code   RO         5090    i.RCC_PLLDB_WriteEx  fm33g0xx_rcc.o
    0x00002830   0x0000001e   Code   RO         5091    i.RCC_PLL_Init      fm33g0xx_rcc.o
    0x0000284e   0x00000002   PAD
    0x00002850   0x00000010   Code   RO         5092    i.RCC_RCHFCON_FSEL_Get  fm33g0xx_rcc.o
    0x00002860   0x00000020   Code   RO         5093    i.RCC_RCHFCON_FSEL_Set  fm33g0xx_rcc.o
    0x00002880   0x00000018   Code   RO         5094    i.RCC_RCHFCON_RCHFEN_Getable  fm33g0xx_rcc.o
    0x00002898   0x00000024   Code   RO         5095    i.RCC_RCHFCON_RCHFEN_Setable  fm33g0xx_rcc.o
    0x000028bc   0x00000010   Code   RO         5097    i.RCC_RCHFTRIM_Write  fm33g0xx_rcc.o
    0x000028cc   0x00000012   Code   RO         5098    i.RCC_RCHF_Init     fm33g0xx_rcc.o
    0x000028de   0x00000002   PAD
    0x000028e0   0x00000010   Code   RO         5106    i.RCC_SYSCLKSEL_AHBPRES_Get  fm33g0xx_rcc.o
    0x000028f0   0x00000020   Code   RO         5107    i.RCC_SYSCLKSEL_AHBPRES_Set  fm33g0xx_rcc.o
    0x00002910   0x00000010   Code   RO         5108    i.RCC_SYSCLKSEL_APBPRES_Get  fm33g0xx_rcc.o
    0x00002920   0x00000020   Code   RO         5109    i.RCC_SYSCLKSEL_APBPRES_Set  fm33g0xx_rcc.o
    0x00002940   0x00000020   Code   RO         5111    i.RCC_SYSCLKSEL_EXTICKSEL_Set  fm33g0xx_rcc.o
    0x00002960   0x00000024   Code   RO         5113    i.RCC_SYSCLKSEL_LPM_RCLP_OFF_Setable  fm33g0xx_rcc.o
    0x00002984   0x00000028   Code   RO         5117    i.RCC_SYSCLKSEL_SLP_ENEXTI_Setable  fm33g0xx_rcc.o
    0x000029ac   0x00000010   Code   RO         5118    i.RCC_SYSCLKSEL_SYSCLKSEL_Get  fm33g0xx_rcc.o
    0x000029bc   0x0000001c   Code   RO         5119    i.RCC_SYSCLKSEL_SYSCLKSEL_Set  fm33g0xx_rcc.o
    0x000029d8   0x0000002a   Code   RO         5120    i.RCC_SysClk_Init   fm33g0xx_rcc.o
    0x00002a02   0x00000046   Code   RO          208    i.SCU_Init          user_init.o
    0x00002a48   0x00000024   Code   RO         5807    i.SCU_MCUDBGCR_DBG_BT1_STOP_Setable  fm33g0xx_scu.o
    0x00002a6c   0x00000024   Code   RO         5809    i.SCU_MCUDBGCR_DBG_BT2_STOP_Setable  fm33g0xx_scu.o
    0x00002a90   0x00000024   Code   RO         5811    i.SCU_MCUDBGCR_DBG_ET1_STOP_Setable  fm33g0xx_scu.o
    0x00002ab4   0x00000024   Code   RO         5813    i.SCU_MCUDBGCR_DBG_ET2_STOP_Setable  fm33g0xx_scu.o
    0x00002ad8   0x00000024   Code   RO         5815    i.SCU_MCUDBGCR_DBG_ET3_STOP_Setable  fm33g0xx_scu.o
    0x00002afc   0x00000024   Code   RO         5817    i.SCU_MCUDBGCR_DBG_ET4_STOP_Setable  fm33g0xx_scu.o
    0x00002b20   0x00000024   Code   RO         5819    i.SCU_MCUDBGCR_DBG_IWDT_STOP_Setable  fm33g0xx_scu.o
    0x00002b44   0x00000022   Code   RO         5821    i.SCU_MCUDBGCR_DBG_WWDT_STOP_Setable  fm33g0xx_scu.o
    0x00002b66   0x00000002   PAD
    0x00002b68   0x00000010   Code   RO         7257    i.SystemInit        system_fm33g0xx.o
    0x00002b78   0x00000028   Code   RO          209    i.TicksDelay        user_init.o
    0x00002ba0   0x00000028   Code   RO          210    i.TicksDelayMs      user_init.o
    0x00002bc8   0x000000d0   Code   RO          453    i.Tx_Frame          uart.o
    0x00002c98   0x0000005c   Code   RO          406    i.UART0_IRQHandler  interrupt.o
    0x00002cf4   0x00000058   Code   RO          407    i.UART1_IRQHandler  interrupt.o
    0x00002d4c   0x0000005c   Code   RO          408    i.UART2_IRQHandler  interrupt.o
    0x00002da8   0x00000064   Code   RO         6826    i.UART_BaudREGCalc  fm33g0xx_uart.o
    0x00002e0c   0x00000082   Code   RO         6835    i.UART_Init         fm33g0xx_uart.o
    0x00002e8e   0x0000008e   Code   RO         6836    i.UART_SInit        fm33g0xx_uart.o
    0x00002f1c   0x0000002c   Code   RO         6837    i.UART_UARTIE_RxTxIE_GetableEx  fm33g0xx_uart.o
    0x00002f48   0x00000040   Code   RO         6838    i.UART_UARTIE_RxTxIE_SetableEx  fm33g0xx_uart.o
    0x00002f88   0x0000002c   Code   RO         6839    i.UART_UARTIF_RxTxIF_ChkEx  fm33g0xx_uart.o
    0x00002fb4   0x00000018   Code   RO         6840    i.UART_UARTIF_RxTxIF_ClrEx  fm33g0xx_uart.o
    0x00002fcc   0x00000018   Code   RO         6843    i.UARTx_RTXCON_RTX7EN_Setable  fm33g0xx_uart.o
    0x00002fe4   0x00000018   Code   RO         6845    i.UARTx_RTXCON_RXDFLAG_Setable  fm33g0xx_uart.o
    0x00002ffc   0x00000018   Code   RO         6847    i.UARTx_RTXCON_TXDFLAG_Setable  fm33g0xx_uart.o
    0x00003014   0x00000008   Code   RO         6849    i.UARTx_RXREG_Read  fm33g0xx_uart.o
    0x0000301c   0x00000018   Code   RO         6851    i.UARTx_RXSTA_ERRIE_Setable  fm33g0xx_uart.o
    0x00003034   0x00000014   Code   RO         6852    i.UARTx_RXSTA_FERR_Chk  fm33g0xx_uart.o
    0x00003048   0x0000000a   Code   RO         6853    i.UARTx_RXSTA_FERR_Clr  fm33g0xx_uart.o
    0x00003052   0x00000014   Code   RO         6854    i.UARTx_RXSTA_OERR_Chk  fm33g0xx_uart.o
    0x00003066   0x0000000a   Code   RO         6855    i.UARTx_RXSTA_OERR_Clr  fm33g0xx_uart.o
    0x00003070   0x00000018   Code   RO         6857    i.UARTx_RXSTA_PDSEL_Set  fm33g0xx_uart.o
    0x00003088   0x00000014   Code   RO         6858    i.UARTx_RXSTA_PERR_Chk  fm33g0xx_uart.o
    0x0000309c   0x0000000a   Code   RO         6859    i.UARTx_RXSTA_PERR_Clr  fm33g0xx_uart.o
    0x000030a6   0x00000018   Code   RO         6862    i.UARTx_RXSTA_RXEN_Setable  fm33g0xx_uart.o
    0x000030be   0x00000006   Code   RO         6864    i.UARTx_SPBRG_Write  fm33g0xx_uart.o
    0x000030c4   0x00000018   Code   RO         6867    i.UARTx_TXBUFSTA_TX_INTSEL_Set  fm33g0xx_uart.o
    0x000030dc   0x00000006   Code   RO         6868    i.UARTx_TXREG_Write  fm33g0xx_uart.o
    0x000030e2   0x00000018   Code   RO         6870    i.UARTx_TXSTA_IREN_Setable  fm33g0xx_uart.o
    0x000030fa   0x00000018   Code   RO         6872    i.UARTx_TXSTA_STOPSEL_Set  fm33g0xx_uart.o
    0x00003112   0x00000018   Code   RO         6875    i.UARTx_TXSTA_TXEN_Setable  fm33g0xx_uart.o
    0x0000312a   0x00000018   Code   RO         6877    i.UARTx_TXSTA_TXIS_Set  fm33g0xx_uart.o
    0x00003142   0x00000002   PAD
    0x00003144   0x00000320   Code   RO          454    i.Uart_Proc         uart.o
    0x00003464   0x00000058   Code   RO          455    i.Uart_RXErr_Proc   uart.o
    0x000034bc   0x0000002a   Code   RO          456    i.Uart_RxErr_ChkEx  uart.o
    0x000034e6   0x00000018   Code   RO          457    i.Uart_RxErr_ClrEx  uart.o
    0x000034fe   0x00000002   PAD
    0x00003500   0x000001d4   Code   RO            8    i.Uartx_Init        main.o
    0x000036d4   0x0000001c   Code   RO           55    i.__ARM_common_switch8  main.o
    0x000036f0   0x000000d0   Code   RO            9    i.main              main.o
    0x000037c0   0x00000058   Code   RO         7332    x$fpl$frleqf        fz_ps.l(frlef.o)
    0x00003818   0x00000000   Code   RO         7341    x$fpl$usenofp       fz_ps.l(usenofp.o)
    0x00003818   0x00000040   Data   RO         7324    .constdata          fz_ps.l(fdiv.o)
    0x00003858   0x00000020   Data   RO         7508    Region$$Table       anon$$obj.o


    Execution Region RW_IRAM1 (Base: 0x20000000, Size: 0x00002298, Max: 0x00006000, ABSOLUTE)

    Base Addr    Size         Type   Attr      Idx    E Section Name        Object

    0x20000000   0x00000008   Data   RW           10    .data               main.o
    0x20000008   0x00000004   Data   RW         7258    .data               system_fm33g0xx.o
    0x2000000c   0x00001028   Zero   RW          458    .bss                uart.o
    0x20001034   0x00000060   Zero   RW         7381    .bss                c_p.l(libspace.o)
    0x20001094   0x00000004   PAD
    0x20001098   0x00000200   Zero   RW         7248    HEAP                startup_fm33g0xx.o
    0x20001298   0x00001000   Zero   RW         7247    STACK               startup_fm33g0xx.o


==============================================================================

Image component sizes


      Code (inc. data)   RO Data    RW Data    ZI Data      Debug   Object Name

       188         20          0          0          0       1962   flash.o
        72          8          0          0          0       1038   fm33g0xx_anac.o
       622          0          0          0          0      20615   fm33g0xx_etim.o
       356         66          0          0          0       6255   fm33g0xx_flash.o
       652         58          0          0          0      17741   fm33g0xx_gpio.o
        80         18          0          0          0       1514   fm33g0xx_iwdt.o
      1190        132          0          0          0      28335   fm33g0xx_rcc.o
       286          0          0          0          0       4258   fm33g0xx_scu.o
       922         28          0          0          0      20062   fm33g0xx_uart.o
      1010         42          0          0          0       3208   interrupt.o
      1248        106          0          8          0      60245   main.o
        56         26        192          0       4608        652   startup_fm33g0xx.o
        16          8          0          4          0        731   system_fm33g0xx.o
      2090         96          0          0       4136       6888   uart.o
      3028         72          0          0          0      21854   user_init.o

    ----------------------------------------------------------------------
     11840        680        224         12       8744     195358   Object Totals
         0          0         32          0          0          0   (incl. Generated)
        24          0          0          0          0          0   (incl. Padding)

    ----------------------------------------------------------------------

      Code (inc. data)   RO Data    RW Data    ZI Data      Debug   Library Member Name

         8          0          0          0          0         68   __main.o
         0          0          0          0          0          0   __rtentry.o
        12          0          0          0          0          0   __rtentry2.o
         6          0          0          0          0          0   __rtentry4.o
        60          8          0          0          0          0   __scatter.o
        26          0          0          0          0          0   __scatter_copy.o
        28          0          0          0          0          0   __scatter_zi.o
        16          0          0          0          0         68   exit.o
         6          0          0          0          0        136   heapauxi.o
         0          0          0          0          0          0   indicate_semi.o
         2          0          0          0          0          0   libinit.o
         2          0          0          0          0          0   libinit2.o
         2          0          0          0          0          0   libshutdown.o
         2          0          0          0          0          0   libshutdown2.o
         8          4          0          0         96         68   libspace.o
        64          0          0          0          0        108   rt_memclr.o
       186          0          0          0          0        144   rt_memcpy.o
         2          0          0          0          0          0   rtexit.o
        10          0          0          0          0          0   rtexit2.o
        12          4          0          0          0         60   sys_exit.o
        62          0          0          0          0         80   sys_stackheap_outer.o
         2          0          0          0          0         68   use_no_semi.o
        46          0          0          0          0         60   cmpret.o
       856         20          0          0          0        208   daddsub.o
        72          4          0          0          0         68   dfixui.o
        84          4          0          0          0         60   f2d.o
       100          4          0          0          0         68   fcmpin.o
       352         10         64          0          0         92   fdiv.o
        94          0          0          0          0         92   fflti.o
        16          6          0          0          0         68   fnan2.o
        88          4          0          0          0         76   frlef.o
        94          0          0          0          0         68   retnan.o
         0          0          0          0          0          0   usenofp.o

    ----------------------------------------------------------------------
      2328         68         64          0        100       1660   Library Totals
        10          0          0          0          4          0   (incl. Padding)

    ----------------------------------------------------------------------

      Code (inc. data)   RO Data    RW Data    ZI Data      Debug   Library Name

       516         16          0          0         96        800   c_p.l
      1802         52         64          0          0        860   fz_ps.l

    ----------------------------------------------------------------------
      2328         68         64          0        100       1660   Library Totals

    ----------------------------------------------------------------------

==============================================================================


      Code (inc. data)   RO Data    RW Data    ZI Data      Debug   

     14168        748        288         12       8844     189122   Grand Totals
     14168        748        288         12       8844     189122   ELF Image Totals
     14168        748        288         12          0          0   ROM Totals

==============================================================================

    Total RO  Size (Code + RO Data)                14456 (  14.12kB)
    Total RW  Size (RW Data + ZI Data)              8856 (   8.65kB)
    Total ROM Size (Code + RO Data + RW Data)      14468 (  14.13kB)

==============================================================================

