ARM Linker, 4.1 [Build 713] [Standard]

==============================================================================

Section Cross References

    system_stm32f10x.o(i.SetSysClock) refers to system_stm32f10x.o(i.SetSysClockTo72) for SetSysClockTo72
    system_stm32f10x.o(i.SystemCoreClockUpdate) refers to system_stm32f10x.o(.data) for SystemCoreClock
    system_stm32f10x.o(i.SystemInit) refers to system_stm32f10x.o(i.SetSysClock) for SetSysClock
    startup_stm32f10x_hd.o(RESET) refers to startup_stm32f10x_hd.o(STACK) for __initial_sp
    startup_stm32f10x_hd.o(RESET) refers to startup_stm32f10x_hd.o(.text) for Reset_Handler
    startup_stm32f10x_hd.o(RESET) refers to stm32f10x_it.o(i.NMI_Handler) for NMI_Handler
    startup_stm32f10x_hd.o(RESET) refers to stm32f10x_it.o(i.HardFault_Handler) for HardFault_Handler
    startup_stm32f10x_hd.o(RESET) refers to stm32f10x_it.o(i.MemManage_Handler) for MemManage_Handler
    startup_stm32f10x_hd.o(RESET) refers to stm32f10x_it.o(i.BusFault_Handler) for BusFault_Handler
    startup_stm32f10x_hd.o(RESET) refers to stm32f10x_it.o(i.UsageFault_Handler) for UsageFault_Handler
    startup_stm32f10x_hd.o(RESET) refers to stm32f10x_it.o(i.SVC_Handler) for SVC_Handler
    startup_stm32f10x_hd.o(RESET) refers to stm32f10x_it.o(i.DebugMon_Handler) for DebugMon_Handler
    startup_stm32f10x_hd.o(RESET) refers to stm32f10x_it.o(i.PendSV_Handler) for PendSV_Handler
    startup_stm32f10x_hd.o(RESET) refers to stm32f10x_it.o(i.SysTick_Handler) for SysTick_Handler
    startup_stm32f10x_hd.o(RESET) refers to stm32f10x_it.o(i.EXTI9_5_IRQHandler) for EXTI9_5_IRQHandler
    startup_stm32f10x_hd.o(RESET) refers to stm32f10x_it.o(i.TIM2_IRQHandler) for TIM2_IRQHandler
    startup_stm32f10x_hd.o(RESET) refers to stm32f10x_it.o(i.TIM3_IRQHandler) for TIM3_IRQHandler
    startup_stm32f10x_hd.o(RESET) refers to stm32f10x_it.o(i.USART2_IRQHandler) for USART2_IRQHandler
==============================================================================

Removing Unused input sections from the image.

    Removing core_cm3.o(.emb_text), (32 bytes).
    Removing system_stm32f10x.o(i.SystemCoreClockUpdate), (176 bytes).
    Removing startup_stm32f10x_hd.o(HEAP), (512 bytes).
    Removing stm32f10x_wwdg.o(i.WWDG_ClearFlag), (16 bytes).
    Removing stm32f10x_wwdg.o(i.WWDG_DeInit), (22 bytes).
    Removing stm32f10x_wwdg.o(i.WWDG_Enable), (16 bytes).
    Removing stm32f10x_wwdg.o(i.WWDG_EnableIT), (16 bytes).
    Removing stm32f10x_wwdg.o(i.WWDG_GetFlagStatus), (12 bytes).
    Removing stm32f10x_wwdg.o(i.WWDG_SetCounter), (16 bytes).
    Removing stm32f10x_wwdg.o(i.WWDG_SetPrescaler), (28 bytes).
    Removing stm32f10x_wwdg.o(i.WWDG_SetWindowValue), (32 bytes).
    Removing misc.o(i.NVIC_Init), (140 bytes).
    Removing misc.o(i.NVIC_PriorityGroupConfig), (20 bytes).
    Removing misc.o(i.NVIC_SetVectorTable), (24 bytes).
    Removing misc.o(i.NVIC_SystemLPConfig), (36 bytes).
    Removing misc.o(i.SysTick_CLKSourceConfig), (40 bytes).
    Removing stm32f10x_adc.o(i.ADC_AnalogWatchdogCmd), (28 bytes).
    Removing stm32f10x_adc.o(i.ADC_AnalogWatchdogSingleChannelConfig), (20 bytes).
==============================================================================

Image Symbol Table

    Local Symbols

    Symbol Name                              Value     Ov Type        Size  Object(Section)

    ../../microlib/division.c                0x00000000   Number         0  uidiv.o ABSOLUTE
    ../../microlib/division.c                0x00000000   Number         0  uldiv.o ABSOLUTE
    ../../microlib/fpadd.c                   0x00000000   Number         0  dadd.o ABSOLUTE
    ../../microlib/fpdiv.c                   0x00000000   Number         0  ddiv.o ABSOLUTE
    ../../microlib/fpepilogue.c              0x00000000   Number         0  depilogue.o ABSOLUTE
    ../../microlib/fpfix.c                   0x00000000   Number         0  dfixul.o ABSOLUTE
    ../../microlib/fpmul.c                   0x00000000   Number         0  dmul.o ABSOLUTE
    ../../microlib/init/entry.s              0x00000000   Number         0  entry2.o ABSOLUTE
    ../../microlib/init/entry.s              0x00000000   Number         0  entry.o ABSOLUTE
    ../../microlib/init/entry.s              0x00000000   Number         0  entry7.o ABSOLUTE
    ../../microlib/init/entry.s              0x00000000   Number         0  entry5.o ABSOLUTE
    ../../microlib/longlong.c                0x00000000   Number         0  llsshr.o ABSOLUTE
    ../../microlib/longlong.c                0x00000000   Number         0  llushr.o ABSOLUTE
    ../../microlib/longlong.c                0x00000000   Number         0  llshl.o ABSOLUTE
    ../../microlib/printf/printf.c           0x00000000   Number         0  printf0.o ABSOLUTE
    ../../microlib/printf/printf.c           0x00000000   Number         0  printf5.o ABSOLUTE
    ../../microlib/printf/printf.c           0x00000000   Number         0  printf1.o ABSOLUTE
    ../../microlib/printf/printf.c           0x00000000   Number         0  printf2.o ABSOLUTE
    ../../microlib/printf/printf.c           0x00000000   Number         0  printf8.o ABSOLUTE
    ../../microlib/printf/printf.c           0x00000000   Number         0  printfa.o ABSOLUTE
    ../../microlib/printf/printf.c           0x00000000   Number         0  printf6.o ABSOLUTE
    ../../microlib/printf/printf.c           0x00000000   Number         0  printf7.o ABSOLUTE
    ../../microlib/printf/printf.c           0x00000000   Number         0  printf4.o ABSOLUTE
    ../../microlib/printf/printf.c           0x00000000   Number         0  printf3.o ABSOLUTE
    ../../microlib/printf/printf.c           0x00000000   Number         0  printfb.o ABSOLUTE
    ../../microlib/printf/stubs.s            0x00000000   Number         0  stubs.o ABSOLUTE
    ../../microlib/stdio/streams.c           0x00000000   Number         0  stdout.o ABSOLUTE
    ../../microlib/string/memcpy.c           0x00000000   Number         0  memcpyb.o ABSOLUTE
    ../../microlib/string/memcpy.c           0x00000000   Number         0  memcpya.o ABSOLUTE
    ../../microlib/string/strlen.c           0x00000000   Number         0  strlen.o ABSOLUTE
    ../../microlib/stubs.s                   0x00000000   Number         0  iusefp.o ABSOLUTE
    CMSIS\CM3\CoreSupport\core_cm3.c         0x00000000   Number         0  core_cm3.o ABSOLUTE
    CMSIS\CM3\DeviceSupport\ST\STM32F10x\startup\arm\startup_stm32f10x_hd.s 0x00000000   Number         0  startup_stm32f10x_hd.o ABSOLUTE
    CMSIS\CM3\DeviceSupport\ST\STM32F10x\system_stm32f10x.c 0x00000000   Number         0  system_stm32f10x.o ABSOLUTE
    CMSIS\\CM3\\CoreSupport\\core_cm3.c      0x00000000   Number         0  core_cm3.o ABSOLUTE
    Driver\src\misc.c                        0x00000000   Number         0  misc.o ABSOLUTE
    Driver\src\stm32f10x_adc.c               0x00000000   Number         0  stm32f10x_adc.o ABSOLUTE
    Driver\src\stm32f10x_bkp.c               0x00000000   Number         0  stm32f10x_bkp.o ABSOLUTE
    Driver\src\stm32f10x_can.c               0x00000000   Number         0  stm32f10x_can.o ABSOLUTE
    Driver\src\stm32f10x_cec.c               0x00000000   Number         0  stm32f10x_cec.o ABSOLUTE
    Driver\src\stm32f10x_crc.c               0x00000000   Number         0  stm32f10x_crc.o ABSOLUTE
    Driver\src\stm32f10x_dac.c               0x00000000   Number         0  stm32f10x_dac.o ABSOLUTE
    Driver\src\stm32f10x_dbgmcu.c            0x00000000   Number         0  stm32f10x_dbgmcu.o ABSOLUTE
    Driver\src\stm32f10x_dma.c               0x00000000   Number         0  stm32f10x_dma.o ABSOLUTE
    Driver\src\stm32f10x_exti.c              0x00000000   Number         0  stm32f10x_exti.o ABSOLUTE
    Driver\src\stm32f10x_flash.c             0x00000000   Number         0  stm32f10x_flash.o ABSOLUTE
    Driver\src\stm32f10x_fsmc.c              0x00000000   Number         0  stm32f10x_fsmc.o ABSOLUTE
    Driver\src\stm32f10x_gpio.c              0x00000000   Number         0  stm32f10x_gpio.o ABSOLUTE
    Driver\src\stm32f10x_i2c.c               0x00000000   Number         0  stm32f10x_i2c.o ABSOLUTE
    Driver\src\stm32f10x_iwdg.c              0x00000000   Number         0  stm32f10x_iwdg.o ABSOLUTE
    Driver\src\stm32f10x_pwr.c               0x00000000   Number         0  stm32f10x_pwr.o ABSOLUTE
    Driver\src\stm32f10x_rcc.c               0x00000000   Number         0  stm32f10x_rcc.o ABSOLUTE
    Driver\src\stm32f10x_rtc.c               0x00000000   Number         0  stm32f10x_rtc.o ABSOLUTE
    Driver\src\stm32f10x_sdio.c              0x00000000   Number         0  stm32f10x_sdio.o ABSOLUTE
    Driver\src\stm32f10x_spi.c               0x00000000   Number         0  stm32f10x_spi.o ABSOLUTE
    Driver\src\stm32f10x_tim.c               0x00000000   Number         0  stm32f10x_tim.o ABSOLUTE
    Driver\src\stm32f10x_usart.c             0x00000000   Number         0  stm32f10x_usart.o ABSOLUTE
    Driver\src\stm32f10x_wwdg.c              0x00000000   Number         0  stm32f10x_wwdg.o ABSOLUTE
    IAP\stmflash.c                           0x00000000   Number         0  stmflash.o ABSOLUTE
    SD_FAT\ff.c                              0x00000000   Number         0  ff.o ABSOLUTE
    SD_FAT\sd_spi_stm32.c                    0x00000000   Number         0  sd_spi_stm32.o ABSOLUTE
    UserDriver\src\BaseInit.c                0x00000000   Number         0  baseinit.o ABSOLUTE
    UserDriver\src\HEX2BIN.c                 0x00000000   Number         0  hex2bin.o ABSOLUTE
    cdrcmple.s                               0x00000000   Number         0  cdrcmple.o ABSOLUTE
    dc.s                                     0x00000000   Number         0  dc.o ABSOLUTE
    handlers.s                               0x00000000   Number         0  handlers.o ABSOLUTE
    init.s                                   0x00000000   Number         0  init.o ABSOLUTE
    main.c                                   0x00000000   Number         0  main.o ABSOLUTE
    stm32f10x_it.c                           0x00000000   Number         0  stm32f10x_it.o ABSOLUTE
    RESET                                    0x08000000   Section      304  startup_stm32f10x_hd.o(RESET)
    .ARM.Collect$$$$00000000                 0x08000130   Section        0  entry.o(.ARM.Collect$$$$00000000)
    .ARM.Collect$$$$00000001                 0x08000130   Section        4  entry2.o(.ARM.Collect$$$$00000001)
    .ARM.Collect$$$$00000004                 0x08000134   Section        4  entry5.o(.ARM.Collect$$$$00000004)
    .ARM.Collect$$$$00000007                 0x08000138   Section        8  entry7.o(.ARM.Collect$$$$00000007)
    .ARM.Collect$$$$00002712                 0x08000140   Section        4  entry2.o(.ARM.Collect$$$$00002712)
    __lit__00000000                          0x08000140   Data           4  entry2.o(.ARM.Collect$$$$00002712)
    .text                                    0x08000144   Section       36  startup_stm32f10x_hd.o(.text)
    .text                                    0x08000168   Section        0  memcpya.o(.text)
    .text                                    0x0800018c   Section        0  strlen.o(.text)
    .text                                    0x0800019c   Section        0  uldiv.o(.text)
    .text                                    0x08000200   Section       36  init.o(.text)
    .text                                    0x08000224   Section        0  llshl.o(.text)
    .text                                    0x08000242   Section        0  llushr.o(.text)
    i.BusFault_Handler                       0x08000262   Section        0  stm32f10x_it.o(i.BusFault_Handler)
    i.CheckHexFile                           0x08000268   Section        0  hex2bin.o(i.CheckHexFile)
    i.DebugMon_Handler                       0x08000388   Section        0  stm32f10x_it.o(i.DebugMon_Handler)
    i.EXTI9_5_IRQHandler                     0x0800038a   Section        0  stm32f10x_it.o(i.EXTI9_5_IRQHandler)
    i.FLASH_ErasePage                        0x0800038c   Section        0  stm32f10x_flash.o(i.FLASH_ErasePage)
    i.FLASH_GetBank1Status                   0x080003dc   Section        0  stm32f10x_flash.o(i.FLASH_GetBank1Status)
    i.FLASH_Lock                             0x0800041c   Section        0  stm32f10x_flash.o(i.FLASH_Lock)
    i.FLASH_ProgramHalfWord                  0x08000430   Section        0  stm32f10x_flash.o(i.FLASH_ProgramHalfWord)
    i.FLASH_Unlock                           0x08000478   Section        0  stm32f10x_flash.o(i.FLASH_Unlock)
    i.FLASH_WaitForLastOperation             0x08000490   Section        0  stm32f10x_flash.o(i.FLASH_WaitForLastOperation)
    i.GPIO_Init                              0x080004bc   Section        0  stm32f10x_gpio.o(i.GPIO_Init)
    i.GPIO_ResetBits                         0x080005e0   Section        0  stm32f10x_gpio.o(i.GPIO_ResetBits)
    i.GPIO_SetBits                           0x080005e4   Section        0  stm32f10x_gpio.o(i.GPIO_SetBits)
    i.HardFault_Handler                      0x080005e8   Section        0  stm32f10x_it.o(i.HardFault_Handler)
    i.Hex2Bin                                0x080005fc   Section        0  hex2bin.o(i.Hex2Bin)
    i.Jump2App                               0x08000668   Section        0  main.o(i.Jump2App)
    i.MemManage_Handler                      0x080006bc   Section        0  stm32f10x_it.o(i.MemManage_Handler)
    i.NMI_Handler                            0x080006c0   Section        0  stm32f10x_it.o(i.NMI_Handler)
    i.PendSV_Handler                         0x080006c2   Section        0  stm32f10x_it.o(i.PendSV_Handler)
    i.RCC_AHBPeriphClockCmd                  0x080006c4   Section        0  stm32f10x_rcc.o(i.RCC_AHBPeriphClockCmd)
    i.RCC_APB1PeriphClockCmd                 0x080006e8   Section        0  stm32f10x_rcc.o(i.RCC_APB1PeriphClockCmd)
    i.RCC_APB1PeriphResetCmd                 0x0800070c   Section        0  stm32f10x_rcc.o(i.RCC_APB1PeriphResetCmd)
    i.RCC_APB2PeriphClockCmd                 0x08000730   Section        0  stm32f10x_rcc.o(i.RCC_APB2PeriphClockCmd)
    i.RCC_APB2PeriphResetCmd                 0x08000754   Section        0  stm32f10x_rcc.o(i.RCC_APB2PeriphResetCmd)
    i.RCC_Configuration                      0x08000778   Section        0  baseinit.o(i.RCC_Configuration)
    i.RCC_GetClocksFreq                      0x080007cc   Section        0  stm32f10x_rcc.o(i.RCC_GetClocksFreq)
    i.RCC_PCLK2Config                        0x080008b8   Section        0  stm32f10x_rcc.o(i.RCC_PCLK2Config)
    i.ReadLineInBuff                         0x080008d4   Section        0  hex2bin.o(i.ReadLineInBuff)
    i.SD2ROM                                 0x08000aa0   Section        0  hex2bin.o(i.SD2ROM)
    i.SPI_CalculateCRC                       0x08000c44   Section        0  stm32f10x_spi.o(i.SPI_CalculateCRC)
    i.SPI_Cmd                                0x08000c5e   Section        0  stm32f10x_spi.o(i.SPI_Cmd)
    i.SPI_I2S_DeInit                         0x08000c78   Section        0  stm32f10x_spi.o(i.SPI_I2S_DeInit)
    i.SPI_I2S_GetFlagStatus                  0x08000cd0   Section        0  stm32f10x_spi.o(i.SPI_I2S_GetFlagStatus)
    i.SPI_I2S_ReceiveData                    0x08000ce8   Section        0  stm32f10x_spi.o(i.SPI_I2S_ReceiveData)
    i.SPI_I2S_SendData                       0x08000cee   Section        0  stm32f10x_spi.o(i.SPI_I2S_SendData)
    i.SPI_Init                               0x08000cf2   Section        0  stm32f10x_spi.o(i.SPI_Init)
    i.STMFLASH_WriteOnePage                  0x08000d44   Section        0  stmflash.o(i.STMFLASH_WriteOnePage)
    i.STMFLASH_Write_NoCheck                 0x08000da8   Section        0  stmflash.o(i.STMFLASH_Write_NoCheck)
    i.STM_DeBugeInit                         0x08000dd4   Section        0  baseinit.o(i.STM_DeBugeInit)
    i.SVC_Handler                            0x08000e38   Section        0  stm32f10x_it.o(i.SVC_Handler)
    i.SetSysClock                            0x08000e3a   Section        0  system_stm32f10x.o(i.SetSysClock)
    SetSysClock                              0x08000e3b   Thumb Code     8  system_stm32f10x.o(i.SetSysClock)
    i.SetSysClockTo72                        0x08000e44   Section        0  system_stm32f10x.o(i.SetSysClockTo72)
    SetSysClockTo72                          0x08000e45   Thumb Code   200  system_stm32f10x.o(i.SetSysClockTo72)
    i.SysTick_Handler                        0x08000f14   Section        0  stm32f10x_it.o(i.SysTick_Handler)
    i.SystemInit                             0x08000f74   Section        0  system_stm32f10x.o(i.SystemInit)
    i.TIM2_IRQHandler                        0x08000fd8   Section        0  stm32f10x_it.o(i.TIM2_IRQHandler)
    i.TIM3_IRQHandler                        0x08000fda   Section        0  stm32f10x_it.o(i.TIM3_IRQHandler)
    i.USART2_IRQHandler                      0x08000fdc   Section        0  stm32f10x_it.o(i.USART2_IRQHandler)
    i.USART_Cmd                              0x08000fde   Section        0  stm32f10x_usart.o(i.USART_Cmd)
    i.USART_GetFlagStatus                    0x08000ff8   Section        0  stm32f10x_usart.o(i.USART_GetFlagStatus)
    i.USART_Init                             0x08001018   Section        0  stm32f10x_usart.o(i.USART_Init)
    i.USART_SendData                         0x08001118   Section        0  stm32f10x_usart.o(i.USART_SendData)
    i.UsageFault_Handler                     0x08001120   Section        0  stm32f10x_it.o(i.UsageFault_Handler)
    i.__0printf$8                            0x08001124   Section        0  printf8.o(i.__0printf$8)
    i.__scatterload_copy                     0x08001144   Section       14  handlers.o(i.__scatterload_copy)
    i.__scatterload_null                     0x08001152   Section        2  handlers.o(i.__scatterload_null)
    i.__scatterload_zeroinit                 0x08001154   Section       14  handlers.o(i.__scatterload_zeroinit)
    i._printf_core                           0x08001164   Section        0  printf8.o(i._printf_core)
    _printf_core                             0x08001165   Thumb Code  1064  printf8.o(i._printf_core)
    i._printf_post_padding                   0x0800158c   Section        0  printf8.o(i._printf_post_padding)
    _printf_post_padding                     0x0800158d   Thumb Code    38  printf8.o(i._printf_post_padding)
    i._printf_pre_padding                    0x080015b2   Section        0  printf8.o(i._printf_pre_padding)
    _printf_pre_padding                      0x080015b3   Thumb Code    46  printf8.o(i._printf_pre_padding)
    i.card_power                             0x080015e0   Section        0  sd_spi_stm32.o(i.card_power)
    card_power                               0x080015e1   Thumb Code     4  sd_spi_stm32.o(i.card_power)
    i.check_fs                               0x080015e4   Section        0  ff.o(i.check_fs)
    check_fs                                 0x080015e5   Thumb Code   140  ff.o(i.check_fs)
    i.chk_chr                                0x08001674   Section        0  ff.o(i.chk_chr)
    chk_chr                                  0x08001675   Thumb Code    22  ff.o(i.chk_chr)
    i.chk_mounted                            0x0800168c   Section        0  ff.o(i.chk_mounted)
    chk_mounted                              0x0800168d   Thumb Code   736  ff.o(i.chk_mounted)
    i.clust2sect                             0x08001974   Section        0  ff.o(i.clust2sect)
    i.create_name                            0x08001994   Section        0  ff.o(i.create_name)
    create_name                              0x08001995   Thumb Code   282  ff.o(i.create_name)
    i.dir_find                               0x08001ac0   Section        0  ff.o(i.dir_find)
    dir_find                                 0x08001ac1   Thumb Code    96  ff.o(i.dir_find)
    i.dir_next                               0x08001b20   Section        0  ff.o(i.dir_next)
    dir_next                                 0x08001b21   Thumb Code   148  ff.o(i.dir_next)
    i.dir_sdi                                0x08001bb4   Section        0  ff.o(i.dir_sdi)
    dir_sdi                                  0x08001bb5   Thumb Code   164  ff.o(i.dir_sdi)
    i.disk_initialize                        0x08001c58   Section        0  sd_spi_stm32.o(i.disk_initialize)
    i.disk_read                              0x08001dc0   Section        0  sd_spi_stm32.o(i.disk_read)
    i.disk_status                            0x08001e5c   Section        0  sd_spi_stm32.o(i.disk_status)
    i.disk_timerproc                         0x08001e70   Section        0  sd_spi_stm32.o(i.disk_timerproc)
    i.f_close                                0x08001efc   Section        0  ff.o(i.f_close)
    i.f_lseek                                0x08001f14   Section        0  ff.o(i.f_lseek)
    i.f_mount                                0x08002040   Section        0  ff.o(i.f_mount)
    i.f_open                                 0x08002070   Section        0  ff.o(i.f_open)
    i.f_read                                 0x08002100   Section        0  ff.o(i.f_read)
    i.follow_path                            0x0800228a   Section        0  ff.o(i.follow_path)
    follow_path                              0x0800228b   Thumb Code   156  ff.o(i.follow_path)
    i.fputc                                  0x08002328   Section        0  main.o(i.fputc)
    i.get_fat                                0x0800234c   Section        0  ff.o(i.get_fat)
    i.interface_speed                        0x0800243c   Section        0  sd_spi_stm32.o(i.interface_speed)
    interface_speed                          0x0800243d   Thumb Code    28  sd_spi_stm32.o(i.interface_speed)
    i.ld_clust                               0x0800245c   Section        0  ff.o(i.ld_clust)
    ld_clust                                 0x0800245d   Thumb Code    32  ff.o(i.ld_clust)
    i.main                                   0x0800247c   Section        0  main.o(i.main)
    i.mem_cmp                                0x080026ac   Section        0  ff.o(i.mem_cmp)
    mem_cmp                                  0x080026ad   Thumb Code    40  ff.o(i.mem_cmp)
    i.mem_cpy                                0x080026d4   Section        0  ff.o(i.mem_cpy)
    mem_cpy                                  0x080026d5   Thumb Code    26  ff.o(i.mem_cpy)
    i.mem_set                                0x080026ee   Section        0  ff.o(i.mem_set)
    mem_set                                  0x080026ef   Thumb Code    20  ff.o(i.mem_set)
    i.move_window                            0x08002702   Section        0  ff.o(i.move_window)
    move_window                              0x08002703   Thumb Code    40  ff.o(i.move_window)
    i.power_off                              0x0800272c   Section        0  sd_spi_stm32.o(i.power_off)
    power_off                                0x0800272d   Thumb Code    96  sd_spi_stm32.o(i.power_off)
    i.power_on                               0x0800279c   Section        0  sd_spi_stm32.o(i.power_on)
    power_on                                 0x0800279d   Thumb Code   266  sd_spi_stm32.o(i.power_on)
    i.rcvr_datablock                         0x080028b8   Section        0  sd_spi_stm32.o(i.rcvr_datablock)
    rcvr_datablock                           0x080028b9   Thumb Code   104  sd_spi_stm32.o(i.rcvr_datablock)
    i.rcvr_spi                               0x08002924   Section        0  sd_spi_stm32.o(i.rcvr_spi)
    rcvr_spi                                 0x08002925   Thumb Code    10  sd_spi_stm32.o(i.rcvr_spi)
    i.release_spi                            0x08002930   Section        0  sd_spi_stm32.o(i.release_spi)
    release_spi                              0x08002931   Thumb Code    16  sd_spi_stm32.o(i.release_spi)
    i.send_cmd                               0x08002944   Section        0  sd_spi_stm32.o(i.send_cmd)
    send_cmd                                 0x08002945   Thumb Code   170  sd_spi_stm32.o(i.send_cmd)
    i.socket_cp_init                         0x080029f4   Section        0  sd_spi_stm32.o(i.socket_cp_init)
    socket_cp_init                           0x080029f5   Thumb Code     2  sd_spi_stm32.o(i.socket_cp_init)
    i.socket_is_empty                        0x080029f6   Section        0  sd_spi_stm32.o(i.socket_is_empty)
    socket_is_empty                          0x080029f7   Thumb Code     4  sd_spi_stm32.o(i.socket_is_empty)
    i.socket_is_write_protected              0x080029fa   Section        0  sd_spi_stm32.o(i.socket_is_write_protected)
    socket_is_write_protected                0x080029fb   Thumb Code     4  sd_spi_stm32.o(i.socket_is_write_protected)
    i.socket_wp_init                         0x080029fe   Section        0  sd_spi_stm32.o(i.socket_wp_init)
    socket_wp_init                           0x080029ff   Thumb Code     2  sd_spi_stm32.o(i.socket_wp_init)
    i.stm32_spi_rw                           0x08002a00   Section        0  sd_spi_stm32.o(i.stm32_spi_rw)
    stm32_spi_rw                             0x08002a01   Thumb Code    36  sd_spi_stm32.o(i.stm32_spi_rw)
    i.validate                               0x08002a28   Section        0  ff.o(i.validate)
    validate                                 0x08002a29   Thumb Code    52  ff.o(i.validate)
    i.wait_ready                             0x08002a5c   Section        0  sd_spi_stm32.o(i.wait_ready)
    wait_ready                               0x08002a5d   Thumb Code    38  sd_spi_stm32.o(i.wait_ready)
    .data                                    0x20000000   Section       20  system_stm32f10x.o(.data)
    .data                                    0x20000014   Section       20  stm32f10x_rcc.o(.data)
    APBAHBPrescTable                         0x20000014   Data          16  stm32f10x_rcc.o(.data)
    ADCPrescTable                            0x20000024   Data           4  stm32f10x_rcc.o(.data)
    .data                                    0x20000028   Section        4  main.o(.data)
    .data                                    0x2000002c   Section        4  stm32f10x_it.o(.data)
    cnt                                      0x2000002c   Data           2  stm32f10x_it.o(.data)
    flip                                     0x2000002e   Data           1  stm32f10x_it.o(.data)
    cntdiskio                                0x2000002f   Data           1  stm32f10x_it.o(.data)
    .data                                    0x20000030   Section       17  sd_spi_stm32.o(.data)
    Stat                                     0x20000030   Data           1  sd_spi_stm32.o(.data)
    pv                                       0x20000034   Data           4  sd_spi_stm32.o(.data)
    Timer1                                   0x20000038   Data           4  sd_spi_stm32.o(.data)
    Timer2                                   0x2000003c   Data           4  sd_spi_stm32.o(.data)
    CardType                                 0x20000040   Data           1  sd_spi_stm32.o(.data)
    .data                                    0x20000044   Section        6  ff.o(.data)
    FatFs                                    0x20000044   Data           4  ff.o(.data)
    Fsid                                     0x20000048   Data           2  ff.o(.data)
    .data                                    0x2000004c   Section       16  hex2bin.o(.data)
    nStart                                   0x2000004c   Data           4  hex2bin.o(.data)
    nPos                                     0x20000050   Data           4  hex2bin.o(.data)
    nRemain                                  0x20000054   Data           4  hex2bin.o(.data)
    buffAddress                              0x20000058   Data           2  hex2bin.o(.data)
    Page                                     0x2000005a   Data           2  hex2bin.o(.data)
    .data                                    0x2000005c   Section        4  stdout.o(.data)
    STACK                                    0x20000060   Section     8192  startup_stm32f10x_hd.o(STACK)

    Global Symbols

    Symbol Name                              Value     Ov Type        Size  Object(Section)

    BuildAttributes$$THM_ISAv4$P$D$K$B$S$PE$A:L22UL41UL21$X:L11$S22US41US21$IEEE1$IW$USESV6$~STKCKD$USESV7$~SHL$OSPACE$ROPI$EBA8$MICROLIB$REQ8$PRES8$EABIv2 0x00000000   Number         0  anon$$obj.o ABSOLUTE
    __ARM_use_no_argv                        0x00000000   Number         0  main.o ABSOLUTE
    _printf_a                                0x00000000   Number         0  stubs.o ABSOLUTE
    _printf_c                                0x00000000   Number         0  stubs.o ABSOLUTE
    _printf_charcount                        0x00000000   Number         0  stubs.o ABSOLUTE
    _printf_d                                0x00000000   Number         0  stubs.o ABSOLUTE
    _printf_e                                0x00000000   Number         0  stubs.o ABSOLUTE
    _printf_f                                0x00000000   Number         0  stubs.o ABSOLUTE
    _printf_flags                            0x00000000   Number         0  stubs.o ABSOLUTE
    _printf_fp_dec                           0x00000000   Number         0  stubs.o ABSOLUTE
    _printf_fp_hex                           0x00000000   Number         0  stubs.o ABSOLUTE
    _printf_g                                0x00000000   Number         0  stubs.o ABSOLUTE
    _printf_i                                0x00000000   Number         0  stubs.o ABSOLUTE
    _printf_int_dec                          0x00000000   Number         0  stubs.o ABSOLUTE
    _printf_l                                0x00000000   Number         0  stubs.o ABSOLUTE
    _printf_lc                               0x00000000   Number         0  stubs.o ABSOLUTE
    _printf_ll                               0x00000000   Number         0  stubs.o ABSOLUTE
    _printf_lld                              0x00000000   Number         0  stubs.o ABSOLUTE
    _printf_lli                              0x00000000   Number         0  stubs.o ABSOLUTE
    _printf_llo                              0x00000000   Number         0  stubs.o ABSOLUTE
    _printf_llu                              0x00000000   Number         0  stubs.o ABSOLUTE
    _printf_llx                              0x00000000   Number         0  stubs.o ABSOLUTE
    _printf_longlong_dec                     0x00000000   Number         0  stubs.o ABSOLUTE
    _printf_longlong_hex                     0x00000000   Number         0  stubs.o ABSOLUTE
    _printf_longlong_oct                     0x00000000   Number         0  stubs.o ABSOLUTE
    _printf_ls                               0x00000000   Number         0  stubs.o ABSOLUTE
    _printf_mbtowc                           0x00000000   Number         0  stubs.o ABSOLUTE
    _printf_n                                0x00000000   Number         0  stubs.o ABSOLUTE
    _printf_o                                0x00000000   Number         0  stubs.o ABSOLUTE
    _printf_p                                0x00000000   Number         0  stubs.o ABSOLUTE
    _printf_percent                          0x00000000   Number         0  stubs.o ABSOLUTE
    _printf_pre_padding                      0x00000000   Number         0  stubs.o ABSOLUTE
    _printf_return_value                     0x00000000   Number         0  stubs.o ABSOLUTE
    _printf_s                                0x00000000   Number         0  stubs.o ABSOLUTE
    _printf_sizespec                         0x00000000   Number         0  stubs.o ABSOLUTE
    _printf_str                              0x00000000   Number         0  stubs.o ABSOLUTE
    _printf_truncate_signed                  0x00000000   Number         0  stubs.o ABSOLUTE
    _printf_truncate_unsigned                0x00000000   Number         0  stubs.o ABSOLUTE
    _printf_u                                0x00000000   Number         0  stubs.o ABSOLUTE
    _printf_wc                               0x00000000   Number         0  stubs.o ABSOLUTE
    _printf_wctomb                           0x00000000   Number         0  stubs.o ABSOLUTE
    _printf_widthprec                        0x00000000   Number         0  stubs.o ABSOLUTE
    _printf_x                                0x00000000   Number         0  stubs.o ABSOLUTE
    __decompress                              - Undefined Weak Reference
    __Vectors_Size                           0x00000130   Number         0  startup_stm32f10x_hd.o ABSOLUTE
    __Vectors                                0x08000000   Data           4  startup_stm32f10x_hd.o(RESET)
    __Vectors_End                            0x08000130   Data           0  startup_stm32f10x_hd.o(RESET)
    __main                                   0x08000131   Thumb Code     0  entry.o(.ARM.Collect$$$$00000000)
    _main_stk                                0x08000131   Thumb Code     0  entry2.o(.ARM.Collect$$$$00000001)
    _main_scatterload                        0x08000135   Thumb Code     0  entry5.o(.ARM.Collect$$$$00000004)
    __main_after_scatterload                 0x08000139   Thumb Code     0  entry5.o(.ARM.Collect$$$$00000004)
    _main_init                               0x08000139   Thumb Code     0  entry7.o(.ARM.Collect$$$$00000007)
    Reset_Handler                            0x08000145   Thumb Code     8  startup_stm32f10x_hd.o(.text)
    ADC1_2_IRQHandler                        0x0800015f   Thumb Code     0  startup_stm32f10x_hd.o(.text)
    ADC3_IRQHandler                          0x0800015f   Thumb Code     0  startup_stm32f10x_hd.o(.text)
    CAN1_RX1_IRQHandler                      0x0800015f   Thumb Code     0  startup_stm32f10x_hd.o(.text)
    CAN1_SCE_IRQHandler                      0x0800015f   Thumb Code     0  startup_stm32f10x_hd.o(.text)
    DMA1_Channel1_IRQHandler                 0x0800015f   Thumb Code     0  startup_stm32f10x_hd.o(.text)
    DMA1_Channel2_IRQHandler                 0x0800015f   Thumb Code     0  startup_stm32f10x_hd.o(.text)
    DMA1_Channel3_IRQHandler                 0x0800015f   Thumb Code     0  startup_stm32f10x_hd.o(.text)
    DMA1_Channel4_IRQHandler                 0x0800015f   Thumb Code     0  startup_stm32f10x_hd.o(.text)
    DMA1_Channel5_IRQHandler                 0x0800015f   Thumb Code     0  startup_stm32f10x_hd.o(.text)
    DMA1_Channel6_IRQHandler                 0x0800015f   Thumb Code     0  startup_stm32f10x_hd.o(.text)
    DMA1_Channel7_IRQHandler                 0x0800015f   Thumb Code     0  startup_stm32f10x_hd.o(.text)
    DMA2_Channel1_IRQHandler                 0x0800015f   Thumb Code     0  startup_stm32f10x_hd.o(.text)
    DMA2_Channel2_IRQHandler                 0x0800015f   Thumb Code     0  startup_stm32f10x_hd.o(.text)
    DMA2_Channel3_IRQHandler                 0x0800015f   Thumb Code     0  startup_stm32f10x_hd.o(.text)
    DMA2_Channel4_5_IRQHandler               0x0800015f   Thumb Code     0  startup_stm32f10x_hd.o(.text)
    EXTI0_IRQHandler                         0x0800015f   Thumb Code     0  startup_stm32f10x_hd.o(.text)
    EXTI15_10_IRQHandler                     0x0800015f   Thumb Code     0  startup_stm32f10x_hd.o(.text)
    EXTI1_IRQHandler                         0x0800015f   Thumb Code     0  startup_stm32f10x_hd.o(.text)
    EXTI2_IRQHandler                         0x0800015f   Thumb Code     0  startup_stm32f10x_hd.o(.text)
    EXTI3_IRQHandler                         0x0800015f   Thumb Code     0  startup_stm32f10x_hd.o(.text)
    EXTI4_IRQHandler                         0x0800015f   Thumb Code     0  startup_stm32f10x_hd.o(.text)
    FLASH_IRQHandler                         0x0800015f   Thumb Code     0  startup_stm32f10x_hd.o(.text)
    FSMC_IRQHandler                          0x0800015f   Thumb Code     0  startup_stm32f10x_hd.o(.text)
    I2C1_ER_IRQHandler                       0x0800015f   Thumb Code     0  startup_stm32f10x_hd.o(.text)
    I2C1_EV_IRQHandler                       0x0800015f   Thumb Code     0  startup_stm32f10x_hd.o(.text)
    I2C2_ER_IRQHandler                       0x0800015f   Thumb Code     0  startup_stm32f10x_hd.o(.text)
    I2C2_EV_IRQHandler                       0x0800015f   Thumb Code     0  startup_stm32f10x_hd.o(.text)
    PVD_IRQHandler                           0x0800015f   Thumb Code     0  startup_stm32f10x_hd.o(.text)
    RCC_IRQHandler                           0x0800015f   Thumb Code     0  startup_stm32f10x_hd.o(.text)
    RTCAlarm_IRQHandler                      0x0800015f   Thumb Code     0  startup_stm32f10x_hd.o(.text)
    RTC_IRQHandler                           0x0800015f   Thumb Code     0  startup_stm32f10x_hd.o(.text)
    SDIO_IRQHandler                          0x0800015f   Thumb Code     0  startup_stm32f10x_hd.o(.text)
    SPI1_IRQHandler                          0x0800015f   Thumb Code     0  startup_stm32f10x_hd.o(.text)
    SPI2_IRQHandler                          0x0800015f   Thumb Code     0  startup_stm32f10x_hd.o(.text)
    SPI3_IRQHandler                          0x0800015f   Thumb Code     0  startup_stm32f10x_hd.o(.text)
    TAMPER_IRQHandler                        0x0800015f   Thumb Code     0  startup_stm32f10x_hd.o(.text)
    TIM1_BRK_IRQHandler                      0x0800015f   Thumb Code     0  startup_stm32f10x_hd.o(.text)
    TIM1_CC_IRQHandler                       0x0800015f   Thumb Code     0  startup_stm32f10x_hd.o(.text)
    TIM1_TRG_COM_IRQHandler                  0x0800015f   Thumb Code     0  startup_stm32f10x_hd.o(.text)
    TIM1_UP_IRQHandler                       0x0800015f   Thumb Code     0  startup_stm32f10x_hd.o(.text)
    TIM4_IRQHandler                          0x0800015f   Thumb Code     0  startup_stm32f10x_hd.o(.text)
    TIM5_IRQHandler                          0x0800015f   Thumb Code     0  startup_stm32f10x_hd.o(.text)
    TIM6_IRQHandler                          0x0800015f   Thumb Code     0  startup_stm32f10x_hd.o(.text)
    TIM7_IRQHandler                          0x0800015f   Thumb Code     0  startup_stm32f10x_hd.o(.text)
    TIM8_BRK_IRQHandler                      0x0800015f   Thumb Code     0  startup_stm32f10x_hd.o(.text)
    TIM8_CC_IRQHandler                       0x0800015f   Thumb Code     0  startup_stm32f10x_hd.o(.text)
    TIM8_TRG_COM_IRQHandler                  0x0800015f   Thumb Code     0  startup_stm32f10x_hd.o(.text)
    TIM8_UP_IRQHandler                       0x0800015f   Thumb Code     0  startup_stm32f10x_hd.o(.text)
    UART4_IRQHandler                         0x0800015f   Thumb Code     0  startup_stm32f10x_hd.o(.text)
    UART5_IRQHandler                         0x0800015f   Thumb Code     0  startup_stm32f10x_hd.o(.text)
    USART1_IRQHandler                        0x0800015f   Thumb Code     0  startup_stm32f10x_hd.o(.text)
    USART3_IRQHandler                        0x0800015f   Thumb Code     0  startup_stm32f10x_hd.o(.text)
    USBWakeUp_IRQHandler                     0x0800015f   Thumb Code     0  startup_stm32f10x_hd.o(.text)
    USB_HP_CAN1_TX_IRQHandler                0x0800015f   Thumb Code     0  startup_stm32f10x_hd.o(.text)
    USB_LP_CAN1_RX0_IRQHandler               0x0800015f   Thumb Code     0  startup_stm32f10x_hd.o(.text)
    WWDG_IRQHandler                          0x0800015f   Thumb Code     0  startup_stm32f10x_hd.o(.text)
    __aeabi_memcpy                           0x08000169   Thumb Code    36  memcpya.o(.text)
    __aeabi_memcpy4                          0x08000169   Thumb Code     0  memcpya.o(.text)
    __aeabi_memcpy8                          0x08000169   Thumb Code     0  memcpya.o(.text)
    strlen                                   0x0800018d   Thumb Code    16  strlen.o(.text)
    __aeabi_uldivmod                         0x0800019d   Thumb Code    98  uldiv.o(.text)
    __scatterload                            0x08000201   Thumb Code    28  init.o(.text)
    __scatterload_rt2                        0x08000201   Thumb Code     0  init.o(.text)
    __aeabi_llsl                             0x08000225   Thumb Code    30  llshl.o(.text)
    _ll_shift_l                              0x08000225   Thumb Code     0  llshl.o(.text)
    __aeabi_llsr                             0x08000243   Thumb Code    32  llushr.o(.text)
    _ll_ushift_r                             0x08000243   Thumb Code     0  llushr.o(.text)
    BusFault_Handler                         0x08000263   Thumb Code     4  stm32f10x_it.o(i.BusFault_Handler)
    CheckHexFile                             0x08000269   Thumb Code   224  hex2bin.o(i.CheckHexFile)
    DebugMon_Handler                         0x08000389   Thumb Code     2  stm32f10x_it.o(i.DebugMon_Handler)
    EXTI9_5_IRQHandler                       0x0800038b   Thumb Code     2  stm32f10x_it.o(i.EXTI9_5_IRQHandler)
    FLASH_ErasePage                          0x0800038d   Thumb Code    76  stm32f10x_flash.o(i.FLASH_ErasePage)
    FLASH_GetBank1Status                     0x080003dd   Thumb Code    60  stm32f10x_flash.o(i.FLASH_GetBank1Status)
    FLASH_Lock                               0x0800041d   Thumb Code    14  stm32f10x_flash.o(i.FLASH_Lock)
    FLASH_ProgramHalfWord                    0x08000431   Thumb Code    68  stm32f10x_flash.o(i.FLASH_ProgramHalfWord)
    FLASH_Unlock                             0x08000479   Thumb Code    12  stm32f10x_flash.o(i.FLASH_Unlock)
    FLASH_WaitForLastOperation               0x08000491   Thumb Code    44  stm32f10x_flash.o(i.FLASH_WaitForLastOperation)
    GPIO_Init                                0x080004bd   Thumb Code   292  stm32f10x_gpio.o(i.GPIO_Init)
    GPIO_ResetBits                           0x080005e1   Thumb Code     4  stm32f10x_gpio.o(i.GPIO_ResetBits)
    GPIO_SetBits                             0x080005e5   Thumb Code     4  stm32f10x_gpio.o(i.GPIO_SetBits)
    HardFault_Handler                        0x080005e9   Thumb Code    10  stm32f10x_it.o(i.HardFault_Handler)
    Hex2Bin                                  0x080005fd   Thumb Code   106  hex2bin.o(i.Hex2Bin)
    Jump2App                                 0x08000669   Thumb Code    46  main.o(i.Jump2App)
    MemManage_Handler                        0x080006bd   Thumb Code     4  stm32f10x_it.o(i.MemManage_Handler)
    NMI_Handler                              0x080006c1   Thumb Code     2  stm32f10x_it.o(i.NMI_Handler)
    PendSV_Handler                           0x080006c3   Thumb Code     2  stm32f10x_it.o(i.PendSV_Handler)
    RCC_AHBPeriphClockCmd                    0x080006c5   Thumb Code    30  stm32f10x_rcc.o(i.RCC_AHBPeriphClockCmd)
    RCC_APB1PeriphClockCmd                   0x080006e9   Thumb Code    30  stm32f10x_rcc.o(i.RCC_APB1PeriphClockCmd)
    RCC_APB1PeriphResetCmd                   0x0800070d   Thumb Code    30  stm32f10x_rcc.o(i.RCC_APB1PeriphResetCmd)
    RCC_APB2PeriphClockCmd                   0x08000731   Thumb Code    30  stm32f10x_rcc.o(i.RCC_APB2PeriphClockCmd)
    RCC_APB2PeriphResetCmd                   0x08000755   Thumb Code    30  stm32f10x_rcc.o(i.RCC_APB2PeriphResetCmd)
    RCC_Configuration                        0x08000779   Thumb Code    84  baseinit.o(i.RCC_Configuration)
    RCC_GetClocksFreq                        0x080007cd   Thumb Code   216  stm32f10x_rcc.o(i.RCC_GetClocksFreq)
    RCC_PCLK2Config                          0x080008b9   Thumb Code    22  stm32f10x_rcc.o(i.RCC_PCLK2Config)
    ReadLineInBuff                           0x080008d5   Thumb Code   448  hex2bin.o(i.ReadLineInBuff)
    SD2ROM                                   0x08000aa1   Thumb Code   376  hex2bin.o(i.SD2ROM)
    SPI_CalculateCRC                         0x08000c45   Thumb Code    26  stm32f10x_spi.o(i.SPI_CalculateCRC)
    SPI_Cmd                                  0x08000c5f   Thumb Code    26  stm32f10x_spi.o(i.SPI_Cmd)
    SPI_I2S_DeInit                           0x08000c79   Thumb Code    76  stm32f10x_spi.o(i.SPI_I2S_DeInit)
    SPI_I2S_GetFlagStatus                    0x08000cd1   Thumb Code    24  stm32f10x_spi.o(i.SPI_I2S_GetFlagStatus)
    SPI_I2S_ReceiveData                      0x08000ce9   Thumb Code     6  stm32f10x_spi.o(i.SPI_I2S_ReceiveData)
    SPI_I2S_SendData                         0x08000cef   Thumb Code     4  stm32f10x_spi.o(i.SPI_I2S_SendData)
    SPI_Init                                 0x08000cf3   Thumb Code    80  stm32f10x_spi.o(i.SPI_Init)
    STMFLASH_WriteOnePage                    0x08000d45   Thumb Code    74  stmflash.o(i.STMFLASH_WriteOnePage)
    STMFLASH_Write_NoCheck                   0x08000da9   Thumb Code    44  stmflash.o(i.STMFLASH_Write_NoCheck)
    STM_DeBugeInit                           0x08000dd5   Thumb Code    90  baseinit.o(i.STM_DeBugeInit)
    SVC_Handler                              0x08000e39   Thumb Code     2  stm32f10x_it.o(i.SVC_Handler)
    SysTick_Handler                          0x08000f15   Thumb Code    82  stm32f10x_it.o(i.SysTick_Handler)
    SystemInit                               0x08000f75   Thumb Code    82  system_stm32f10x.o(i.SystemInit)
    TIM2_IRQHandler                          0x08000fd9   Thumb Code     2  stm32f10x_it.o(i.TIM2_IRQHandler)
    TIM3_IRQHandler                          0x08000fdb   Thumb Code     2  stm32f10x_it.o(i.TIM3_IRQHandler)
    USART2_IRQHandler                        0x08000fdd   Thumb Code     2  stm32f10x_it.o(i.USART2_IRQHandler)
    USART_Cmd                                0x08000fdf   Thumb Code    26  stm32f10x_usart.o(i.USART_Cmd)
    USART_GetFlagStatus                      0x08000ff9   Thumb Code    32  stm32f10x_usart.o(i.USART_GetFlagStatus)
    USART_Init                               0x08001019   Thumb Code   250  stm32f10x_usart.o(i.USART_Init)
    USART_SendData                           0x08001119   Thumb Code     8  stm32f10x_usart.o(i.USART_SendData)
    UsageFault_Handler                       0x08001121   Thumb Code     4  stm32f10x_it.o(i.UsageFault_Handler)
    __0printf$8                              0x08001125   Thumb Code    22  printf8.o(i.__0printf$8)
    __1printf$8                              0x08001125   Thumb Code     0  printf8.o(i.__0printf$8)
    __2printf                                0x08001125   Thumb Code     0  printf8.o(i.__0printf$8)
    __scatterload_copy                       0x08001145   Thumb Code    14  handlers.o(i.__scatterload_copy)
    __scatterload_null                       0x08001153   Thumb Code     2  handlers.o(i.__scatterload_null)
    __scatterload_zeroinit                   0x08001155   Thumb Code    14  handlers.o(i.__scatterload_zeroinit)
    clust2sect                               0x08001975   Thumb Code    30  ff.o(i.clust2sect)
    disk_initialize                          0x08001c59   Thumb Code   344  sd_spi_stm32.o(i.disk_initialize)
    disk_read                                0x08001dc1   Thumb Code   146  sd_spi_stm32.o(i.disk_read)
    disk_status                              0x08001e5d   Thumb Code    14  sd_spi_stm32.o(i.disk_status)
    disk_timerproc                           0x08001e71   Thumb Code   124  sd_spi_stm32.o(i.disk_timerproc)
    f_close                                  0x08001efd   Thumb Code    24  ff.o(i.f_close)
    f_lseek                                  0x08001f15   Thumb Code   300  ff.o(i.f_lseek)
    f_mount                                  0x08002041   Thumb Code    42  ff.o(i.f_mount)
    f_open                                   0x08002071   Thumb Code   144  ff.o(i.f_open)
    f_read                                   0x08002101   Thumb Code   394  ff.o(i.f_read)
    fputc                                    0x08002329   Thumb Code    32  main.o(i.fputc)
    get_fat                                  0x0800234d   Thumb Code   238  ff.o(i.get_fat)
    main                                     0x0800247d   Thumb Code   386  main.o(i.main)
    Region$$Table$$Base                      0x08002a88   Number         0  anon$$obj.o(Region$$Table)
    Region$$Table$$Limit                     0x08002aa8   Number         0  anon$$obj.o(Region$$Table)
    SystemCoreClock                          0x20000000   Data           4  system_stm32f10x.o(.data)
    AHBPrescTable                            0x20000004   Data          16  system_stm32f10x.o(.data)
    AppStart                                 0x20000028   Data           4  main.o(.data)
    __stdout                                 0x2000005c   Data           4  stdout.o(.data)
    __initial_sp                             0x20002060   Data           0  startup_stm32f10x_hd.o(STACK)



==============================================================================

Memory Map of the image

  Image Entry point : 0x08000131

  Load Region LR_IROM1 (Base: 0x08000000, Size: 0x00002b08, Max: 0x00004000, ABSOLUTE)

    Execution Region ER_IROM1 (Base: 0x08000000, Size: 0x00002aa8, Max: 0x00004000, ABSOLUTE)

    Base Addr    Size         Type   Attr      Idx    E Section Name        Object

    0x08000000   0x00000130   Data   RO          143    RESET               startup_stm32f10x_hd.o
    0x08000130   0x00000000   Code   RO         3675  * .ARM.Collect$$$$00000000  mc_w.l(entry.o)
    0x08000130   0x00000004   Code   RO         3945    .ARM.Collect$$$$00000001  mc_w.l(entry2.o)
    0x08000134   0x00000004   Code   RO         3948    .ARM.Collect$$$$00000004  mc_w.l(entry5.o)
    0x08000138   0x00000008   Code   RO         3949    .ARM.Collect$$$$00000007  mc_w.l(entry7.o)
    0x08000140   0x00000004   Code   RO         3946    .ARM.Collect$$$$00002712  mc_w.l(entry2.o)
    0x08000144   0x00000024   Code   RO          144    .text               startup_stm32f10x_hd.o
    0x08000168   0x00000024   Code   RO         3678    .text               mc_w.l(memcpya.o)
    0x0800018c   0x00000010   Code   RO         3680    .text               mc_w.l(strlen.o)
    0x0800019c   0x00000062   Code   RO         3953    .text               mc_w.l(uldiv.o)
    0x080001fe   0x00000002   PAD
    0x08000200   0x00000024   Code   RO         3966    .text               mc_w.l(init.o)
    0x08000224   0x0000001e   Code   RO         3968    .text               mc_w.l(llshl.o)
    0x08000242   0x00000020   Code   RO         3970    .text               mc_w.l(llushr.o)
    0x08000262   0x00000004   Code   RO         3233    i.BusFault_Handler  stm32f10x_it.o
    0x08000266   0x00000002   PAD
    0x08000268   0x00000120   Code   RO         3586    i.CheckHexFile      hex2bin.o
    0x08000388   0x00000002   Code   RO         3234    i.DebugMon_Handler  stm32f10x_it.o
    0x0800038a   0x00000002   Code   RO         3235    i.EXTI9_5_IRQHandler  stm32f10x_it.o
    0x0800038c   0x00000050   Code   RO         1081    i.FLASH_ErasePage   stm32f10x_flash.o
    0x080003dc   0x00000040   Code   RO         1082    i.FLASH_GetBank1Status  stm32f10x_flash.o
    0x0800041c   0x00000014   Code   RO         1091    i.FLASH_Lock        stm32f10x_flash.o
    0x08000430   0x00000048   Code   RO         1094    i.FLASH_ProgramHalfWord  stm32f10x_flash.o
    0x08000478   0x00000018   Code   RO         1099    i.FLASH_Unlock      stm32f10x_flash.o
    0x08000490   0x0000002c   Code   RO         1103    i.FLASH_WaitForLastOperation  stm32f10x_flash.o
    0x080004bc   0x00000124   Code   RO         1376    i.GPIO_Init         stm32f10x_gpio.o
    0x080005e0   0x00000004   Code   RO         1383    i.GPIO_ResetBits    stm32f10x_gpio.o
    0x080005e4   0x00000004   Code   RO         1384    i.GPIO_SetBits      stm32f10x_gpio.o
    0x080005e8   0x00000014   Code   RO         3236    i.HardFault_Handler  stm32f10x_it.o
    0x080005fc   0x0000006a   Code   RO         3587    i.Hex2Bin           hex2bin.o
    0x08000666   0x00000002   PAD
    0x08000668   0x00000054   Code   RO         3178    i.Jump2App          main.o
    0x080006bc   0x00000004   Code   RO         3237    i.MemManage_Handler  stm32f10x_it.o
    0x080006c0   0x00000002   Code   RO         3238    i.NMI_Handler       stm32f10x_it.o
    0x080006c2   0x00000002   Code   RO         3239    i.PendSV_Handler    stm32f10x_it.o
    0x080006c4   0x00000024   Code   RO         1791    i.RCC_AHBPeriphClockCmd  stm32f10x_rcc.o
    0x080006e8   0x00000024   Code   RO         1792    i.RCC_APB1PeriphClockCmd  stm32f10x_rcc.o
    0x0800070c   0x00000024   Code   RO         1793    i.RCC_APB1PeriphResetCmd  stm32f10x_rcc.o
    0x08000730   0x00000024   Code   RO         1794    i.RCC_APB2PeriphClockCmd  stm32f10x_rcc.o
    0x08000754   0x00000024   Code   RO         1795    i.RCC_APB2PeriphResetCmd  stm32f10x_rcc.o
    0x08000778   0x00000054   Code   RO         3139    i.RCC_Configuration  baseinit.o
    0x080007cc   0x000000ec   Code   RO         1802    i.RCC_GetClocksFreq  stm32f10x_rcc.o
    0x080008b8   0x0000001c   Code   RO         1814    i.RCC_PCLK2Config   stm32f10x_rcc.o
    0x080008d4   0x000001cc   Code   RO         3588    i.ReadLineInBuff    hex2bin.o
    0x08000aa0   0x000001a4   Code   RO         3589    i.SD2ROM            hex2bin.o
    0x08000c44   0x0000001a   Code   RO         2270    i.SPI_CalculateCRC  stm32f10x_spi.o
    0x08000c5e   0x0000001a   Code   RO         2271    i.SPI_Cmd           stm32f10x_spi.o
    0x08000c78   0x00000058   Code   RO         2278    i.SPI_I2S_DeInit    stm32f10x_spi.o
    0x08000cd0   0x00000018   Code   RO         2279    i.SPI_I2S_GetFlagStatus  stm32f10x_spi.o
    0x08000ce8   0x00000006   Code   RO         2282    i.SPI_I2S_ReceiveData  stm32f10x_spi.o
    0x08000cee   0x00000004   Code   RO         2283    i.SPI_I2S_SendData  stm32f10x_spi.o
    0x08000cf2   0x00000050   Code   RO         2284    i.SPI_Init          stm32f10x_spi.o
    0x08000d42   0x00000002   PAD
    0x08000d44   0x00000064   Code   RO         3630    i.STMFLASH_WriteOnePage  stmflash.o
    0x08000da8   0x0000002c   Code   RO         3631    i.STMFLASH_Write_NoCheck  stmflash.o
    0x08000dd4   0x00000064   Code   RO         3140    i.STM_DeBugeInit    baseinit.o
    0x08000e38   0x00000002   Code   RO         3240    i.SVC_Handler       stm32f10x_it.o
    0x08000e3a   0x00000008   Code   RO           17    i.SetSysClock       system_stm32f10x.o
    0x08000e42   0x00000002   PAD
    0x08000e44   0x000000d0   Code   RO           18    i.SetSysClockTo72   system_stm32f10x.o
    0x08000f14   0x00000060   Code   RO         3241    i.SysTick_Handler   stm32f10x_it.o
    0x08000f74   0x00000064   Code   RO           20    i.SystemInit        system_stm32f10x.o
    0x08000fd8   0x00000002   Code   RO         3242    i.TIM2_IRQHandler   stm32f10x_it.o
    0x08000fda   0x00000002   Code   RO         3243    i.TIM3_IRQHandler   stm32f10x_it.o
    0x08000fdc   0x00000002   Code   RO         3244    i.USART2_IRQHandler  stm32f10x_it.o
    0x08000fde   0x0000001a   Code   RO         2962    i.USART_Cmd         stm32f10x_usart.o
    0x08000ff8   0x00000020   Code   RO         2965    i.USART_GetFlagStatus  stm32f10x_usart.o
    0x08001018   0x00000100   Code   RO         2969    i.USART_Init        stm32f10x_usart.o
    0x08001118   0x00000008   Code   RO         2979    i.USART_SendData    stm32f10x_usart.o
    0x08001120   0x00000004   Code   RO         3245    i.UsageFault_Handler  stm32f10x_it.o
    0x08001124   0x00000020   Code   RO         3891    i.__0printf$8       mc_w.l(printf8.o)
    0x08001144   0x0000000e   Code   RO         3978    i.__scatterload_copy  mc_w.l(handlers.o)
    0x08001152   0x00000002   Code   RO         3979    i.__scatterload_null  mc_w.l(handlers.o)
    0x08001154   0x0000000e   Code   RO         3980    i.__scatterload_zeroinit  mc_w.l(handlers.o)
    0x08001162   0x00000002   PAD
    0x08001164   0x00000428   Code   RO         3898    i._printf_core      mc_w.l(printf8.o)
    0x0800158c   0x00000026   Code   RO         3899    i._printf_post_padding  mc_w.l(printf8.o)
    0x080015b2   0x0000002e   Code   RO         3900    i._printf_pre_padding  mc_w.l(printf8.o)
    0x080015e0   0x00000004   Code   RO         3318    i.card_power        sd_spi_stm32.o
    0x080015e4   0x00000090   Code   RO         3435    i.check_fs          ff.o
    0x08001674   0x00000016   Code   RO         3436    i.chk_chr           ff.o
    0x0800168a   0x00000002   PAD
    0x0800168c   0x000002e8   Code   RO         3437    i.chk_mounted       ff.o
    0x08001974   0x0000001e   Code   RO         3438    i.clust2sect        ff.o
    0x08001992   0x00000002   PAD
    0x08001994   0x0000012c   Code   RO         3439    i.create_name       ff.o
    0x08001ac0   0x00000060   Code   RO         3440    i.dir_find          ff.o
    0x08001b20   0x00000094   Code   RO         3441    i.dir_next          ff.o
    0x08001bb4   0x000000a4   Code   RO         3443    i.dir_sdi           ff.o
    0x08001c58   0x00000168   Code   RO         3319    i.disk_initialize   sd_spi_stm32.o
    0x08001dc0   0x0000009c   Code   RO         3320    i.disk_read         sd_spi_stm32.o
    0x08001e5c   0x00000014   Code   RO         3321    i.disk_status       sd_spi_stm32.o
    0x08001e70   0x0000008c   Code   RO         3322    i.disk_timerproc    sd_spi_stm32.o
    0x08001efc   0x00000018   Code   RO         3444    i.f_close           ff.o
    0x08001f14   0x0000012c   Code   RO         3445    i.f_lseek           ff.o
    0x08002040   0x00000030   Code   RO         3446    i.f_mount           ff.o
    0x08002070   0x00000090   Code   RO         3447    i.f_open            ff.o
    0x08002100   0x0000018a   Code   RO         3449    i.f_read            ff.o
    0x0800228a   0x0000009c   Code   RO         3452    i.follow_path       ff.o
    0x08002326   0x00000002   PAD
    0x08002328   0x00000024   Code   RO         3179    i.fputc             main.o
    0x0800234c   0x000000ee   Code   RO         3453    i.get_fat           ff.o
    0x0800243a   0x00000002   PAD
    0x0800243c   0x00000020   Code   RO         3324    i.interface_speed   sd_spi_stm32.o
    0x0800245c   0x00000020   Code   RO         3455    i.ld_clust          ff.o
    0x0800247c   0x00000230   Code   RO         3180    i.main              main.o
    0x080026ac   0x00000028   Code   RO         3456    i.mem_cmp           ff.o
    0x080026d4   0x0000001a   Code   RO         3457    i.mem_cpy           ff.o
    0x080026ee   0x00000014   Code   RO         3458    i.mem_set           ff.o
    0x08002702   0x00000028   Code   RO         3459    i.move_window       ff.o
    0x0800272a   0x00000002   PAD
    0x0800272c   0x00000070   Code   RO         3325    i.power_off         sd_spi_stm32.o
    0x0800279c   0x0000011c   Code   RO         3326    i.power_on          sd_spi_stm32.o
    0x080028b8   0x0000006c   Code   RO         3327    i.rcvr_datablock    sd_spi_stm32.o
    0x08002924   0x0000000a   Code   RO         3328    i.rcvr_spi          sd_spi_stm32.o
    0x0800292e   0x00000002   PAD
    0x08002930   0x00000014   Code   RO         3329    i.release_spi       sd_spi_stm32.o
    0x08002944   0x000000b0   Code   RO         3330    i.send_cmd          sd_spi_stm32.o
    0x080029f4   0x00000002   Code   RO         3331    i.socket_cp_init    sd_spi_stm32.o
    0x080029f6   0x00000004   Code   RO         3332    i.socket_is_empty   sd_spi_stm32.o
    0x080029fa   0x00000004   Code   RO         3333    i.socket_is_write_protected  sd_spi_stm32.o
    0x080029fe   0x00000002   Code   RO         3334    i.socket_wp_init    sd_spi_stm32.o
    0x08002a00   0x00000028   Code   RO         3335    i.stm32_spi_rw      sd_spi_stm32.o
    0x08002a28   0x00000034   Code   RO         3460    i.validate          ff.o
    0x08002a5c   0x0000002c   Code   RO         3336    i.wait_ready        sd_spi_stm32.o
    0x08002a88   0x00000020   Data   RO         3976    Region$$Table       anon$$obj.o


    Execution Region RW_IRAM1 (Base: 0x20000000, Size: 0x00002060, Max: 0x0000c000, ABSOLUTE)

    Base Addr    Size         Type   Attr      Idx    E Section Name        Object

    0x20000000   0x00000014   Data   RW           21    .data               system_stm32f10x.o
    0x20000014   0x00000014   Data   RW         1822    .data               stm32f10x_rcc.o
    0x20000028   0x00000004   Data   RW         3182    .data               main.o
    0x2000002c   0x00000004   Data   RW         3246    .data               stm32f10x_it.o
    0x20000030   0x00000011   Data   RW         3337    .data               sd_spi_stm32.o
    0x20000041   0x00000003   PAD
    0x20000044   0x00000006   Data   RW         3461    .data               ff.o
    0x2000004a   0x00000002   PAD
    0x2000004c   0x00000010   Data   RW         3590    .data               hex2bin.o
    0x2000005c   0x00000004   Data   RW         3950    .data               mc_w.l(stdout.o)
    0x20000060   0x00002000   Zero   RW          141    STACK               startup_stm32f10x_hd.o


==============================================================================

Image component sizes


      Code (inc. data)   RO Data    RW Data    ZI Data      Debug   Object Name

       184         10          0          0          0        981   baseinit.o
         0          0          0          0          0       4280   core_cm3.o
      3162         36          0          6          0      18655   ff.o
      1274        126          0         16          0       4407   hex2bin.o
       680        216          0          4          0      20924   main.o
      1518        110          0         17          0      12461   sd_spi_stm32.o
        36          8        304          0       8192        812   startup_stm32f10x_hd.o
       304         30          0          0          0       2954   stm32f10x_flash.o
       300          0          0          0          0       2716   stm32f10x_gpio.o
       144         24          0          4          0       4751   stm32f10x_it.o
       444         56          0         20          0       5970   stm32f10x_rcc.o
       254         12          0          0          0       4298   stm32f10x_spi.o
       322          6          0          0          0       3608   stm32f10x_usart.o
         0          0          0          0          0     203112   stm32f10x_wwdg.o
       144         26          0          0          0       1589   stmflash.o
       316         26          0         20          0      39493   system_stm32f10x.o

    ----------------------------------------------------------------------
      9102        686        336         92       8192     331011   Object Totals
         0          0         32          0          0          0   (incl. Generated)
        20          0          0          5          0          0   (incl. Padding)

    ----------------------------------------------------------------------

      Code (inc. data)   RO Data    RW Data    ZI Data      Debug   Library Member Name

         0          0          0          0          0          0   entry.o
         8          4          0          0          0          0   entry2.o
         4          0          0          0          0          0   entry5.o
         8          4          0          0          0          0   entry7.o
        30          0          0          0          0          0   handlers.o
        36          8          0          0          0         68   init.o
        30          0          0          0          0         68   llshl.o
        32          0          0          0          0         68   llushr.o
        36          0          0          0          0         68   memcpya.o
      1180         54          0          0          0        352   printf8.o
         0          0          0          4          0          0   stdout.o
        16          0          0          0          0         68   strlen.o
        98          0          0          0          0         92   uldiv.o

    ----------------------------------------------------------------------
      1482         70          0          4          0        784   Library Totals
         4          0          0          0          0          0   (incl. Padding)

    ----------------------------------------------------------------------

      Code (inc. data)   RO Data    RW Data    ZI Data      Debug   Library Name

      1478         70          0          4          0        784   mc_w.l

    ----------------------------------------------------------------------
      1482         70          0          4          0        784   Library Totals

    ----------------------------------------------------------------------

==============================================================================


      Code (inc. data)   RO Data    RW Data    ZI Data      Debug   

     10584        756        336         96       8192     326751   Grand Totals
     10584        756        336         96       8192     326751   ELF Image Totals
     10584        756        336         96          0          0   ROM Totals

==============================================================================

    Total RO  Size (Code + RO Data)                10920 (  10.66kB)
    Total RW  Size (RW Data + ZI Data)              8288 (   8.09kB)
    Total ROM Size (Code + RO Data + RW Data)      11016 (  10.76kB)

==============================================================================

