Component: ARM Compiler 5.06 update 6 (build 750) Tool: armlink [4d35ed]

==============================================================================

Section Cross References

    main.o(i.main) refers to user_init.o(i.Init_System) for Init_System
    main.o(i.main) refers to fm33g0xx_gpio.o(i.GPIO_ResetBits) for GPIO_ResetBits
    main.o(i.main) refers to fm33g0xx_iwdt.o(i.IWDT_Clr) for IWDT_Clr
    main.o(i.main) refers to user_init.o(i.TicksDelayMs) for TicksDelayMs
    user_init.o(i.AltFunIO) refers to fm33g0xx_gpio.o(i.GPIO_Get_InitPara) for GPIO_Get_InitPara
    user_init.o(i.AltFunIO) refers to fm33g0xx_gpio.o(i.GPIO_Init) for GPIO_Init
    user_init.o(i.AnalogIO) refers to fm33g0xx_gpio.o(i.GPIO_Get_InitPara) for GPIO_Get_InitPara
    user_init.o(i.AnalogIO) refers to fm33g0xx_gpio.o(i.GPIO_Init) for GPIO_Init
    user_init.o(i.Close_AllIOEXTI) refers to user_init.o(i.CheckSysReg) for CheckSysReg
    user_init.o(i.Close_AllIO_GPIO_80pin) refers to user_init.o(i.Close_AllIOEXTI) for Close_AllIOEXTI
    user_init.o(i.Close_AllIO_GPIO_80pin) refers to fm33g0xx_gpio.o(i.GPIO_HDSEL_PE2HDEN_Setable) for GPIO_HDSEL_PE2HDEN_Setable
    user_init.o(i.Close_AllIO_GPIO_80pin) refers to fm33g0xx_gpio.o(i.GPIO_HDSEL_PG6HDEN_Setable) for GPIO_HDSEL_PG6HDEN_Setable
    user_init.o(i.Close_AllIO_GPIO_80pin) refers to fm33g0xx_gpio.o(i.GPIO_FOUTSEL_FOUTSEL_Set) for GPIO_FOUTSEL_FOUTSEL_Set
    user_init.o(i.Close_AllIO_GPIO_80pin) refers to user_init.o(i.IO_AnalogFunSet) for IO_AnalogFunSet
    user_init.o(i.Close_AllIO_GPIO_80pin) refers to user_init.o(i.IO_DFFunSet) for IO_DFFunSet
    user_init.o(i.Close_AllIO_GPIO_80pin) refers to user_init.o(i.IO_WKENFunSet) for IO_WKENFunSet
    user_init.o(i.Close_AllIO_GPIO_80pin) refers to user_init.o(i.CloseeIO) for CloseeIO
    user_init.o(i.Close_AllIO_GPIO_80pin) refers to user_init.o(i.AltFunIO) for AltFunIO
==============================================================================

Removing Unused input sections from the image.

    Removing main.o(.rev16_text), (4 bytes).
    Removing main.o(.revsh_text), (4 bytes).
    Removing user_init.o(.rev16_text), (4 bytes).
    Removing user_init.o(.revsh_text), (4 bytes).
    Removing user_init.o(i.AnalogIO), (84 bytes).
    Removing user_init.o(i.CheckNvicIrqEn), (32 bytes).
    Removing user_init.o(i.InputtIO), (116 bytes).
    Removing user_init.o(i.TicksDelayUs), (28 bytes).
    Removing fm33g0xx_aes.o(.rev16_text), (4 bytes).
    Removing fm33g0xx_aes.o(.revsh_text), (4 bytes).
    Removing fm33g0xx_aes.o(i.AES_AESCR_AESEN_Getable), (24 bytes).
    Removing fm33g0xx_aes.o(i.AES_AESCR_AESEN_Setable), (36 bytes).
    Removing fm33g0xx_aes.o(i.AES_AESCR_CCFC_Clr), (20 bytes).
    Removing fm33g0xx_aes.o(i.AES_AESCR_CCFIE_Getable), (28 bytes).
    Removing fm33g0xx_aes.o(i.AES_AESCR_CCFIE_Setable), (40 bytes).
    Removing fm33g0xx_aes.o(i.AES_AESCR_CHMOD_Get), (16 bytes).
    Removing fm33g0xx_aes.o(i.AES_AESCR_CHMOD_Set), (32 bytes).
    Removing fm33g0xx_aes.o(i.AES_AESCR_DATATYP_Get), (16 bytes).
==============================================================================

Image Symbol Table

    Local Symbols

    Symbol Name                              Value     Ov Type        Size  Object(Section)

    ../clib/angel/boardlib.s                 0x00000000   Number         0  boardinit1.o ABSOLUTE
    ../clib/angel/boardlib.s                 0x00000000   Number         0  boardinit2.o ABSOLUTE
    ../clib/angel/boardlib.s                 0x00000000   Number         0  boardinit3.o ABSOLUTE
    ../clib/angel/boardlib.s                 0x00000000   Number         0  boardshut.o ABSOLUTE
    ../clib/angel/handlers.s                 0x00000000   Number         0  __scatter_zi.o ABSOLUTE
    ../clib/angel/handlers.s                 0x00000000   Number         0  __scatter_copy.o ABSOLUTE
    ../clib/angel/kernel.s                   0x00000000   Number         0  __rtentry2.o ABSOLUTE
    ../clib/angel/kernel.s                   0x00000000   Number         0  __rtentry.o ABSOLUTE
    ../clib/angel/kernel.s                   0x00000000   Number         0  rtexit2.o ABSOLUTE
    ../clib/angel/kernel.s                   0x00000000   Number         0  rtexit.o ABSOLUTE
    ../clib/angel/kernel.s                   0x00000000   Number         0  __rtentry4.o ABSOLUTE
    ../clib/angel/rt.s                       0x00000000   Number         0  rt_raise.o ABSOLUTE
    ../clib/angel/rt.s                       0x00000000   Number         0  aeabi_idiv0.o ABSOLUTE
    ../clib/angel/rt.s                       0x00000000   Number         0  aeabi_idiv0_sigfpe.o ABSOLUTE
    ../clib/angel/rt.s                       0x00000000   Number         0  rt_div0.o ABSOLUTE
    ../clib/angel/scatterp.s                 0x00000000   Number         0  __scatter.o ABSOLUTE
    ../clib/angel/startup.s                  0x00000000   Number         0  __main.o ABSOLUTE
    ../clib/angel/sys.s                      0x00000000   Number         0  indicate_semi.o ABSOLUTE
    ../clib/angel/sys.s                      0x00000000   Number         0  use_no_semi.o ABSOLUTE
    ../clib/angel/sys.s                      0x00000000   Number         0  sys_stackheap_outer.o ABSOLUTE
    ../clib/angel/sys.s                      0x00000000   Number         0  tempstk.o ABSOLUTE
    ../clib/angel/sys.s                      0x00000000   Number         0  libspace.o ABSOLUTE
    ../clib/angel/sysapp.c                   0x00000000   Number         0  sys_wrch.o ABSOLUTE
    ../clib/angel/sysapp.c                   0x00000000   Number         0  sys_command.o ABSOLUTE
    ../clib/angel/sysapp.c                   0x00000000   Number         0  sys_exit.o ABSOLUTE
    ../clib/armsys.c                         0x00000000   Number         0  argv_veneer.o ABSOLUTE
    ../clib/armsys.c                         0x00000000   Number         0  no_argv.o ABSOLUTE
    ../clib/armsys.c                         0x00000000   Number         0  _get_argv_nomalloc.o ABSOLUTE
    ../clib/division.s                       0x00000000   Number         0  aeabi_sdiv.o ABSOLUTE
    ../clib/division.s                       0x00000000   Number         0  aeabi_sdiv_div0.o ABSOLUTE
    ../clib/heapalloc.c                      0x00000000   Number         0  hrguard.o ABSOLUTE
    ../clib/heapaux.c                        0x00000000   Number         0  heapauxi.o ABSOLUTE
    ../clib/libinit.s                        0x00000000   Number         0  libinit2.o ABSOLUTE
    ../clib/libinit.s                        0x00000000   Number         0  libshutdown.o ABSOLUTE
    ../clib/libinit.s                        0x00000000   Number         0  libshutdown2.o ABSOLUTE
    ../clib/libinit.s                        0x00000000   Number         0  libinit.o ABSOLUTE
    ../clib/signal.c                         0x00000000   Number         0  defsig_abrt_inner.o ABSOLUTE
    ../clib/signal.c                         0x00000000   Number         0  defsig_rtmem_formal.o ABSOLUTE
    ../clib/signal.c                         0x00000000   Number         0  defsig_fpe_outer.o ABSOLUTE
    ../clib/signal.c                         0x00000000   Number         0  defsig_fpe_formal.o ABSOLUTE
    ../clib/signal.c                         0x00000000   Number         0  __raise.o ABSOLUTE
    ../clib/signal.c                         0x00000000   Number         0  defsig_fpe_inner.o ABSOLUTE
    ../clib/signal.c                         0x00000000   Number         0  defsig_other.o ABSOLUTE
    ../clib/signal.c                         0x00000000   Number         0  defsig_segv_inner.o ABSOLUTE
    ../clib/signal.c                         0x00000000   Number         0  defsig_cppl_inner.o ABSOLUTE
    ../clib/signal.c                         0x00000000   Number         0  defsig_pvfn_inner.o ABSOLUTE
    ../clib/signal.c                         0x00000000   Number         0  defsig_stak_inner.o ABSOLUTE
    ../clib/signal.c                         0x00000000   Number         0  defsig_rtmem_outer.o ABSOLUTE
    ../clib/signal.c                         0x00000000   Number         0  defsig_general.o ABSOLUTE
    ../clib/signal.c                         0x00000000   Number         0  defsig_rtmem_inner.o ABSOLUTE
    ../clib/signal.c                         0x00000000   Number         0  defsig_rtred_inner.o ABSOLUTE
    ../clib/signal.c                         0x00000000   Number         0  defsig_exit.o ABSOLUTE
    ../clib/signal.s                         0x00000000   Number         0  defsig.o ABSOLUTE
    ../clib/stdlib.c                         0x00000000   Number         0  exit.o ABSOLUTE
    ../fplib/cfplib/cmpret.c                 0x00000000   Number         0  cmpret.o ABSOLUTE
    ../fplib/cfplib/d2f.c                    0x00000000   Number         0  d2f.o ABSOLUTE
    ../fplib/cfplib/daddsub.c                0x00000000   Number         0  daddsub.o ABSOLUTE
    ../fplib/cfplib/ddiv.c                   0x00000000   Number         0  ddiv.o ABSOLUTE
    ../fplib/cfplib/dmul.c                   0x00000000   Number         0  dmul.o ABSOLUTE
    ../fplib/cfplib/f2d.c                    0x00000000   Number         0  f2d.o ABSOLUTE
    ../fplib/cfplib/fcmpin.c                 0x00000000   Number         0  fcmpin.o ABSOLUTE
    ../fplib/cfplib/fdiv.c                   0x00000000   Number         0  fdiv.o ABSOLUTE
    ../fplib/cfplib/ffix.c                   0x00000000   Number         0  dfixui.o ABSOLUTE
    ../fplib/cfplib/fflt.c                   0x00000000   Number         0  dflti.o ABSOLUTE
    ../fplib/cfplib/fflt.c                   0x00000000   Number         0  fflti.o ABSOLUTE
    ../fplib/cfplib/fpinit.c                 0x00000000   Number         0  fpinit.o ABSOLUTE
    ../fplib/cfplib/nan2.c                   0x00000000   Number         0  fnan2.o ABSOLUTE
    ../fplib/cfplib/retnan.c                 0x00000000   Number         0  retnan.o ABSOLUTE
    ../fplib/faddsub6m.s                     0x00000000   Number         0  faddsub.o ABSOLUTE
    ../fplib/fleqf6m.s                       0x00000000   Number         0  flef.o ABSOLUTE
    ../fplib/fmul6m.s                        0x00000000   Number         0  fmul.o ABSOLUTE
    ../fplib/frleqf6m.s                      0x00000000   Number         0  frlef.o ABSOLUTE
    ../fplib/usenofp.s                       0x00000000   Number         0  usenofp.o ABSOLUTE
    ..\Drivers\fm33g0xx_aes.c                0x00000000   Number         0  fm33g0xx_aes.o ABSOLUTE
    ..\Drivers\fm33g0xx_anac.c               0x00000000   Number         0  fm33g0xx_anac.o ABSOLUTE
    ..\Drivers\fm33g0xx_btim.c               0x00000000   Number         0  fm33g0xx_btim.o ABSOLUTE
    ..\Drivers\fm33g0xx_crc.c                0x00000000   Number         0  fm33g0xx_crc.o ABSOLUTE
    ..\Drivers\fm33g0xx_dma.c                0x00000000   Number         0  fm33g0xx_dma.o ABSOLUTE
    ..\Drivers\fm33g0xx_etim.c               0x00000000   Number         0  fm33g0xx_etim.o ABSOLUTE
    ..\Drivers\fm33g0xx_flash.c              0x00000000   Number         0  fm33g0xx_flash.o ABSOLUTE
    ..\Drivers\fm33g0xx_gpio.c               0x00000000   Number         0  fm33g0xx_gpio.o ABSOLUTE
    ..\Drivers\fm33g0xx_hspi.c               0x00000000   Number         0  fm33g0xx_hspi.o ABSOLUTE
    ..\Drivers\fm33g0xx_i2c.c                0x00000000   Number         0  fm33g0xx_i2c.o ABSOLUTE
    ..\Drivers\fm33g0xx_iwdt.c               0x00000000   Number         0  fm33g0xx_iwdt.o ABSOLUTE
    ..\Drivers\fm33g0xx_lcd.c                0x00000000   Number         0  fm33g0xx_lcd.o ABSOLUTE
    ..\Drivers\fm33g0xx_lptim.c              0x00000000   Number         0  fm33g0xx_lptim.o ABSOLUTE
    ..\Drivers\fm33g0xx_lpuart.c             0x00000000   Number         0  fm33g0xx_lpuart.o ABSOLUTE
    ..\Drivers\fm33g0xx_pmu.c                0x00000000   Number         0  fm33g0xx_pmu.o ABSOLUTE
    ..\Drivers\fm33g0xx_rcc.c                0x00000000   Number         0  fm33g0xx_rcc.o ABSOLUTE
    ..\Drivers\fm33g0xx_rtc.c                0x00000000   Number         0  fm33g0xx_rtc.o ABSOLUTE
    ..\Drivers\fm33g0xx_scu.c                0x00000000   Number         0  fm33g0xx_scu.o ABSOLUTE
    ..\Drivers\fm33g0xx_spi.c                0x00000000   Number         0  fm33g0xx_spi.o ABSOLUTE
    ..\Drivers\fm33g0xx_trng.c               0x00000000   Number         0  fm33g0xx_trng.o ABSOLUTE
    ..\Drivers\fm33g0xx_u7816.c              0x00000000   Number         0  fm33g0xx_u7816.o ABSOLUTE
    ..\Drivers\fm33g0xx_uart.c               0x00000000   Number         0  fm33g0xx_uart.o ABSOLUTE
    ..\Drivers\fm33g0xx_wwdt.c               0x00000000   Number         0  fm33g0xx_wwdt.o ABSOLUTE
    ..\UserCode\main.c                       0x00000000   Number         0  main.o ABSOLUTE
    ..\UserCode\user_init.c                  0x00000000   Number         0  user_init.o ABSOLUTE
    ..\\Drivers\\fm33g0xx_aes.c              0x00000000   Number         0  fm33g0xx_aes.o ABSOLUTE
    ..\\Drivers\\fm33g0xx_anac.c             0x00000000   Number         0  fm33g0xx_anac.o ABSOLUTE
    ..\\Drivers\\fm33g0xx_btim.c             0x00000000   Number         0  fm33g0xx_btim.o ABSOLUTE
    ..\\Drivers\\fm33g0xx_crc.c              0x00000000   Number         0  fm33g0xx_crc.o ABSOLUTE
    ..\\Drivers\\fm33g0xx_dma.c              0x00000000   Number         0  fm33g0xx_dma.o ABSOLUTE
    ..\\Drivers\\fm33g0xx_etim.c             0x00000000   Number         0  fm33g0xx_etim.o ABSOLUTE
    ..\\Drivers\\fm33g0xx_flash.c            0x00000000   Number         0  fm33g0xx_flash.o ABSOLUTE
    ..\\Drivers\\fm33g0xx_gpio.c             0x00000000   Number         0  fm33g0xx_gpio.o ABSOLUTE
    ..\\Drivers\\fm33g0xx_hspi.c             0x00000000   Number         0  fm33g0xx_hspi.o ABSOLUTE
    ..\\Drivers\\fm33g0xx_i2c.c              0x00000000   Number         0  fm33g0xx_i2c.o ABSOLUTE
    ..\\Drivers\\fm33g0xx_iwdt.c             0x00000000   Number         0  fm33g0xx_iwdt.o ABSOLUTE
    ..\\Drivers\\fm33g0xx_lcd.c              0x00000000   Number         0  fm33g0xx_lcd.o ABSOLUTE
    ..\\Drivers\\fm33g0xx_lptim.c            0x00000000   Number         0  fm33g0xx_lptim.o ABSOLUTE
    ..\\Drivers\\fm33g0xx_lpuart.c           0x00000000   Number         0  fm33g0xx_lpuart.o ABSOLUTE
    ..\\Drivers\\fm33g0xx_pmu.c              0x00000000   Number         0  fm33g0xx_pmu.o ABSOLUTE
    ..\\Drivers\\fm33g0xx_rcc.c              0x00000000   Number         0  fm33g0xx_rcc.o ABSOLUTE
    ..\\Drivers\\fm33g0xx_rtc.c              0x00000000   Number         0  fm33g0xx_rtc.o ABSOLUTE
    ..\\Drivers\\fm33g0xx_scu.c              0x00000000   Number         0  fm33g0xx_scu.o ABSOLUTE
    ..\\Drivers\\fm33g0xx_spi.c              0x00000000   Number         0  fm33g0xx_spi.o ABSOLUTE
    ..\\Drivers\\fm33g0xx_trng.c             0x00000000   Number         0  fm33g0xx_trng.o ABSOLUTE
    ..\\Drivers\\fm33g0xx_u7816.c            0x00000000   Number         0  fm33g0xx_u7816.o ABSOLUTE
    ..\\Drivers\\fm33g0xx_uart.c             0x00000000   Number         0  fm33g0xx_uart.o ABSOLUTE
    ..\\Drivers\\fm33g0xx_wwdt.c             0x00000000   Number         0  fm33g0xx_wwdt.o ABSOLUTE
    ..\\UserCode\\main.c                     0x00000000   Number         0  main.o ABSOLUTE
    ..\\UserCode\\user_init.c                0x00000000   Number         0  user_init.o ABSOLUTE
    RTE\Device\FM33G02X\startup_FM33G0XX.s   0x00000000   Number         0  startup_fm33g0xx.o ABSOLUTE
    RTE\Device\FM33G02X\system_FM33G0XX.c    0x00000000   Number         0  system_fm33g0xx.o ABSOLUTE
    RTE\\Device\\FM33G02X\\system_FM33G0XX.c 0x00000000   Number         0  system_fm33g0xx.o ABSOLUTE
    dc.s                                     0x00000000   Number         0  dc.o ABSOLUTE
    RESET                                    0x00004000   Section      192  startup_fm33g0xx.o(RESET)
    !!!main                                  0x000040c0   Section        8  __main.o(!!!main)
    !!!scatter                               0x000040c8   Section       60  __scatter.o(!!!scatter)
    !!handler_copy                           0x00004104   Section       26  __scatter_copy.o(!!handler_copy)
    !!handler_zi                             0x00004120   Section       28  __scatter_zi.o(!!handler_zi)
    .ARM.Collect$$libinit$$00000000          0x0000413c   Section        2  libinit.o(.ARM.Collect$$libinit$$00000000)
    .ARM.Collect$$libinit$$00000002          0x0000413e   Section        0  libinit2.o(.ARM.Collect$$libinit$$00000002)
    .ARM.Collect$$libinit$$00000004          0x0000413e   Section        0  libinit2.o(.ARM.Collect$$libinit$$00000004)
    .ARM.Collect$$libinit$$0000000A          0x0000413e   Section        0  libinit2.o(.ARM.Collect$$libinit$$0000000A)
    .ARM.Collect$$libinit$$0000000C          0x0000413e   Section        0  libinit2.o(.ARM.Collect$$libinit$$0000000C)
    .ARM.Collect$$libinit$$0000000E          0x0000413e   Section        0  libinit2.o(.ARM.Collect$$libinit$$0000000E)
    .ARM.Collect$$libinit$$00000011          0x0000413e   Section        0  libinit2.o(.ARM.Collect$$libinit$$00000011)
    .ARM.Collect$$libinit$$00000013          0x0000413e   Section        0  libinit2.o(.ARM.Collect$$libinit$$00000013)
    .ARM.Collect$$libinit$$00000015          0x0000413e   Section        0  libinit2.o(.ARM.Collect$$libinit$$00000015)
    .ARM.Collect$$libinit$$00000017          0x0000413e   Section        0  libinit2.o(.ARM.Collect$$libinit$$00000017)
    .ARM.Collect$$libinit$$00000019          0x0000413e   Section        0  libinit2.o(.ARM.Collect$$libinit$$00000019)
    .ARM.Collect$$libinit$$0000001B          0x0000413e   Section        0  libinit2.o(.ARM.Collect$$libinit$$0000001B)
    .ARM.Collect$$libinit$$0000001D          0x0000413e   Section        0  libinit2.o(.ARM.Collect$$libinit$$0000001D)
    .ARM.Collect$$libinit$$0000001F          0x0000413e   Section        0  libinit2.o(.ARM.Collect$$libinit$$0000001F)
    .ARM.Collect$$libinit$$00000021          0x0000413e   Section        0  libinit2.o(.ARM.Collect$$libinit$$00000021)
    .ARM.Collect$$libinit$$00000023          0x0000413e   Section        0  libinit2.o(.ARM.Collect$$libinit$$00000023)
    .ARM.Collect$$libinit$$00000025          0x0000413e   Section        0  libinit2.o(.ARM.Collect$$libinit$$00000025)
    .ARM.Collect$$libinit$$0000002C          0x0000413e   Section        0  libinit2.o(.ARM.Collect$$libinit$$0000002C)
    .ARM.Collect$$libinit$$0000002E          0x0000413e   Section        0  libinit2.o(.ARM.Collect$$libinit$$0000002E)
    .ARM.Collect$$libinit$$00000030          0x0000413e   Section        0  libinit2.o(.ARM.Collect$$libinit$$00000030)
    .ARM.Collect$$libinit$$00000032          0x0000413e   Section        0  libinit2.o(.ARM.Collect$$libinit$$00000032)
    .ARM.Collect$$libinit$$00000033          0x0000413e   Section        2  libinit2.o(.ARM.Collect$$libinit$$00000033)
    .ARM.Collect$$libshutdown$$00000000      0x00004140   Section        2  libshutdown.o(.ARM.Collect$$libshutdown$$00000000)
    .ARM.Collect$$libshutdown$$00000002      0x00004142   Section        0  libshutdown2.o(.ARM.Collect$$libshutdown$$00000002)
    .ARM.Collect$$libshutdown$$00000004      0x00004142   Section        0  libshutdown2.o(.ARM.Collect$$libshutdown$$00000004)
    .ARM.Collect$$libshutdown$$00000007      0x00004142   Section        0  libshutdown2.o(.ARM.Collect$$libshutdown$$00000007)
    .ARM.Collect$$libshutdown$$0000000A      0x00004142   Section        0  libshutdown2.o(.ARM.Collect$$libshutdown$$0000000A)
    .ARM.Collect$$libshutdown$$0000000C      0x00004142   Section        0  libshutdown2.o(.ARM.Collect$$libshutdown$$0000000C)
    .ARM.Collect$$libshutdown$$0000000F      0x00004142   Section        0  libshutdown2.o(.ARM.Collect$$libshutdown$$0000000F)
    .ARM.Collect$$libshutdown$$00000010      0x00004142   Section        2  libshutdown2.o(.ARM.Collect$$libshutdown$$00000010)
    .ARM.Collect$$rtentry$$00000000          0x00004144   Section        0  __rtentry.o(.ARM.Collect$$rtentry$$00000000)
    .ARM.Collect$$rtentry$$00000002          0x00004144   Section        0  __rtentry2.o(.ARM.Collect$$rtentry$$00000002)
    .ARM.Collect$$rtentry$$00000004          0x00004144   Section        6  __rtentry4.o(.ARM.Collect$$rtentry$$00000004)
    .ARM.Collect$$rtentry$$00000009          0x0000414a   Section        0  __rtentry2.o(.ARM.Collect$$rtentry$$00000009)
    .ARM.Collect$$rtentry$$0000000A          0x0000414a   Section        4  __rtentry2.o(.ARM.Collect$$rtentry$$0000000A)
    .ARM.Collect$$rtentry$$0000000C          0x0000414e   Section        0  __rtentry2.o(.ARM.Collect$$rtentry$$0000000C)
    .ARM.Collect$$rtentry$$0000000D          0x0000414e   Section        8  __rtentry2.o(.ARM.Collect$$rtentry$$0000000D)
    .ARM.Collect$$rtexit$$00000000           0x00004156   Section        2  rtexit.o(.ARM.Collect$$rtexit$$00000000)
    .ARM.Collect$$rtexit$$00000002           0x00004158   Section        0  rtexit2.o(.ARM.Collect$$rtexit$$00000002)
    .ARM.Collect$$rtexit$$00000003           0x00004158   Section        4  rtexit2.o(.ARM.Collect$$rtexit$$00000003)
    .ARM.Collect$$rtexit$$00000004           0x0000415c   Section        6  rtexit2.o(.ARM.Collect$$rtexit$$00000004)
    .text                                    0x00004164   Section       56  startup_fm33g0xx.o(.text)
    .text                                    0x0000419c   Section        0  heapauxi.o(.text)
    .text                                    0x000041a2   Section       62  sys_stackheap_outer.o(.text)
    .text                                    0x000041e0   Section        0  exit.o(.text)
    .text                                    0x000041f0   Section        8  libspace.o(.text)
    .text                                    0x000041f8   Section        0  sys_exit.o(.text)
    .text                                    0x00004204   Section        2  use_no_semi.o(.text)
    .text                                    0x00004206   Section        0  indicate_semi.o(.text)
    i.ANAC_BORCON_OFF_BOR_Setable            0x00004208   Section        0  fm33g0xx_anac.o(i.ANAC_BORCON_OFF_BOR_Setable)
    i.ANAC_PDRCON_PDREN_Setable              0x0000422c   Section        0  fm33g0xx_anac.o(i.ANAC_PDRCON_PDREN_Setable)
    i.AltFunIO                               0x00004250   Section        0  user_init.o(i.AltFunIO)
    i.CheckSysReg                            0x000042f6   Section        0  user_init.o(i.CheckSysReg)
    i.Close_AllIOEXTI                        0x00004308   Section        0  user_init.o(i.Close_AllIOEXTI)
    i.Close_AllIO_GPIO_80pin                 0x00004330   Section        0  user_init.o(i.Close_AllIO_GPIO_80pin)
    i.Close_None_GPIO_80pin                  0x0000464c   Section        0  user_init.o(i.Close_None_GPIO_80pin)
    i.CloseeIO                               0x00004814   Section        0  user_init.o(i.CloseeIO)
    i.FLASH_FLSRDCON_WAIT_Set                0x00004854   Section        0  fm33g0xx_flash.o(i.FLASH_FLSRDCON_WAIT_Set)
    i.GPIO_ANASEL_PC12ANS_Set                0x00004870   Section        0  fm33g0xx_gpio.o(i.GPIO_ANASEL_PC12ANS_Set)
    i.GPIO_ANASEL_PC13ANS_Set                0x0000488c   Section        0  fm33g0xx_gpio.o(i.GPIO_ANASEL_PC13ANS_Set)
    i.GPIO_ANASEL_PC14ANS_Set                0x000048ac   Section        0  fm33g0xx_gpio.o(i.GPIO_ANASEL_PC14ANS_Set)
    i.GPIO_ANASEL_PC15ANS_Set                0x000048cc   Section        0  fm33g0xx_gpio.o(i.GPIO_ANASEL_PC15ANS_Set)
    i.GPIO_ANASEL_PE3ANS_Set                 0x000048ec   Section        0  fm33g0xx_gpio.o(i.GPIO_ANASEL_PE3ANS_Set)
    i.GPIO_ANASEL_PE4ANS_Set                 0x0000490c   Section        0  fm33g0xx_gpio.o(i.GPIO_ANASEL_PE4ANS_Set)
    i.GPIO_FOUTSEL_FOUTSEL_Set               0x0000492c   Section        0  fm33g0xx_gpio.o(i.GPIO_FOUTSEL_FOUTSEL_Set)
    i.GPIO_Get_InitPara                      0x00004948   Section        0  fm33g0xx_gpio.o(i.GPIO_Get_InitPara)
    i.GPIO_HDSEL_PE2HDEN_Setable             0x000049dc   Section        0  fm33g0xx_gpio.o(i.GPIO_HDSEL_PE2HDEN_Setable)
    i.GPIO_HDSEL_PG6HDEN_Setable             0x00004a00   Section        0  fm33g0xx_gpio.o(i.GPIO_HDSEL_PG6HDEN_Setable)
    i.GPIO_IODF_SetableEx                    0x00004a24   Section        0  fm33g0xx_gpio.o(i.GPIO_IODF_SetableEx)
    i.GPIO_Init                              0x00004a4c   Section        0  fm33g0xx_gpio.o(i.GPIO_Init)
    i.GPIO_PINWKEN_SetableEx                 0x00004ac0   Section        0  fm33g0xx_gpio.o(i.GPIO_PINWKEN_SetableEx)
    i.GPIO_ResetBits                         0x00004ae0   Section        0  fm33g0xx_gpio.o(i.GPIO_ResetBits)
    i.GPIO_SetBits                           0x00004ae4   Section        0  fm33g0xx_gpio.o(i.GPIO_SetBits)
    i.GPIOx_DO_Write                         0x00004ae8   Section        0  fm33g0xx_gpio.o(i.GPIOx_DO_Write)
    i.IO_AnalogFunSet                        0x00004aee   Section        0  user_init.o(i.IO_AnalogFunSet)
    i.IO_DFFunSet                            0x00004b16   Section        0  user_init.o(i.IO_DFFunSet)
    i.IO_WKENFunSet                          0x00004bb2   Section        0  user_init.o(i.IO_WKENFunSet)
    i.IWDT_Clr                               0x00004bf8   Section        0  fm33g0xx_iwdt.o(i.IWDT_Clr)
    i.IWDT_IWDTCFG_IWDTOVP_Set               0x00004c08   Section        0  fm33g0xx_iwdt.o(i.IWDT_IWDTCFG_IWDTOVP_Set)
    i.IWDT_IWDTCFG_IWDTSLP4096S_Setable      0x00004c24   Section        0  fm33g0xx_iwdt.o(i.IWDT_IWDTCFG_IWDTSLP4096S_Setable)
    i.IWDT_Init                              0x00004c48   Section        0  user_init.o(i.IWDT_Init)
    i.Init_IO                                0x00004c68   Section        0  user_init.o(i.Init_IO)
    i.Init_PLL                               0x00004c88   Section        0  user_init.o(i.Init_PLL)
    i.Init_Pad_Io                            0x00004ca8   Section        0  user_init.o(i.Init_Pad_Io)
    i.Init_RCC_PERIPH_clk                    0x00004cf4   Section        0  user_init.o(i.Init_RCC_PERIPH_clk)
    i.Init_SysClk                            0x00004ea0   Section        0  user_init.o(i.Init_SysClk)
    i.Init_SysClk_Gen                        0x00004ed0   Section        0  user_init.o(i.Init_SysClk_Gen)
    i.Init_SysTick                           0x00004f00   Section        0  user_init.o(i.Init_SysTick)
    i.Init_System                            0x00004f38   Section        0  user_init.o(i.Init_System)
    i.LED0_Flash                             0x00004f7c   Section        0  user_init.o(i.LED0_Flash)
    i.NVIC_SetPriority                       0x00004fb8   Section        0  user_init.o(i.NVIC_SetPriority)
    NVIC_SetPriority                         0x00004fb9   Thumb Code   110  user_init.o(i.NVIC_SetPriority)
    i.OutputIO                               0x00005030   Section        0  user_init.o(i.OutputIO)
    i.RCC_Init_RCHF_Trim                     0x000050a4   Section        0  fm33g0xx_rcc.o(i.RCC_Init_RCHF_Trim)
    i.RCC_MPRIL_MPRIL_Set                    0x000050fc   Section        0  fm33g0xx_rcc.o(i.RCC_MPRIL_MPRIL_Set)
    i.RCC_PERCLK_SetableEx                   0x00005118   Section        0  fm33g0xx_rcc.o(i.RCC_PERCLK_SetableEx)
    i.RCC_PLLCON_PLLDB_Set                   0x00005180   Section        0  fm33g0xx_rcc.o(i.RCC_PLLCON_PLLDB_Set)
    i.RCC_PLLCON_PLLEN_Setable               0x000051a0   Section        0  fm33g0xx_rcc.o(i.RCC_PLLCON_PLLEN_Setable)
    i.RCC_PLLCON_PLLINSEL_Set                0x000051c4   Section        0  fm33g0xx_rcc.o(i.RCC_PLLCON_PLLINSEL_Set)
    i.RCC_PLLCON_PLLOSEL_Set                 0x000051e4   Section        0  fm33g0xx_rcc.o(i.RCC_PLLCON_PLLOSEL_Set)
    i.RCC_PLLDB_WriteEx                      0x00005204   Section        0  fm33g0xx_rcc.o(i.RCC_PLLDB_WriteEx)
    i.RCC_PLL_Init                           0x00005210   Section        0  fm33g0xx_rcc.o(i.RCC_PLL_Init)
    i.RCC_RCHFCON_FSEL_Set                   0x00005230   Section        0  fm33g0xx_rcc.o(i.RCC_RCHFCON_FSEL_Set)
    i.RCC_RCHFCON_RCHFEN_Setable             0x00005250   Section        0  fm33g0xx_rcc.o(i.RCC_RCHFCON_RCHFEN_Setable)
    i.RCC_RCHFTRIM_Write                     0x00005274   Section        0  fm33g0xx_rcc.o(i.RCC_RCHFTRIM_Write)
    i.RCC_RCHF_Init                          0x00005284   Section        0  fm33g0xx_rcc.o(i.RCC_RCHF_Init)
    i.RCC_SYSCLKSEL_AHBPRES_Set              0x00005298   Section        0  fm33g0xx_rcc.o(i.RCC_SYSCLKSEL_AHBPRES_Set)
    i.RCC_SYSCLKSEL_APBPRES_Set              0x000052b8   Section        0  fm33g0xx_rcc.o(i.RCC_SYSCLKSEL_APBPRES_Set)
    i.RCC_SYSCLKSEL_EXTICKSEL_Set            0x000052d8   Section        0  fm33g0xx_rcc.o(i.RCC_SYSCLKSEL_EXTICKSEL_Set)
    i.RCC_SYSCLKSEL_LPM_RCLP_OFF_Setable     0x000052f8   Section        0  fm33g0xx_rcc.o(i.RCC_SYSCLKSEL_LPM_RCLP_OFF_Setable)
    i.RCC_SYSCLKSEL_SLP_ENEXTI_Setable       0x0000531c   Section        0  fm33g0xx_rcc.o(i.RCC_SYSCLKSEL_SLP_ENEXTI_Setable)
    i.RCC_SYSCLKSEL_SYSCLKSEL_Set            0x00005344   Section        0  fm33g0xx_rcc.o(i.RCC_SYSCLKSEL_SYSCLKSEL_Set)
    i.RCC_SysClk_Init                        0x00005360   Section        0  fm33g0xx_rcc.o(i.RCC_SysClk_Init)
    i.SCU_Init                               0x0000538a   Section        0  user_init.o(i.SCU_Init)
    i.SCU_MCUDBGCR_DBG_BT1_STOP_Setable      0x000053d0   Section        0  fm33g0xx_scu.o(i.SCU_MCUDBGCR_DBG_BT1_STOP_Setable)
    i.SCU_MCUDBGCR_DBG_BT2_STOP_Setable      0x000053f4   Section        0  fm33g0xx_scu.o(i.SCU_MCUDBGCR_DBG_BT2_STOP_Setable)
    i.SCU_MCUDBGCR_DBG_ET1_STOP_Setable      0x00005418   Section        0  fm33g0xx_scu.o(i.SCU_MCUDBGCR_DBG_ET1_STOP_Setable)
    i.SCU_MCUDBGCR_DBG_ET2_STOP_Setable      0x0000543c   Section        0  fm33g0xx_scu.o(i.SCU_MCUDBGCR_DBG_ET2_STOP_Setable)
    i.SCU_MCUDBGCR_DBG_ET3_STOP_Setable      0x00005460   Section        0  fm33g0xx_scu.o(i.SCU_MCUDBGCR_DBG_ET3_STOP_Setable)
    i.SCU_MCUDBGCR_DBG_ET4_STOP_Setable      0x00005484   Section        0  fm33g0xx_scu.o(i.SCU_MCUDBGCR_DBG_ET4_STOP_Setable)
    i.SCU_MCUDBGCR_DBG_IWDT_STOP_Setable     0x000054a8   Section        0  fm33g0xx_scu.o(i.SCU_MCUDBGCR_DBG_IWDT_STOP_Setable)
    i.SCU_MCUDBGCR_DBG_WWDT_STOP_Setable     0x000054cc   Section        0  fm33g0xx_scu.o(i.SCU_MCUDBGCR_DBG_WWDT_STOP_Setable)
    i.SystemInit                             0x000054f0   Section        0  system_fm33g0xx.o(i.SystemInit)
    i.TicksDelay                             0x0000550c   Section        0  user_init.o(i.TicksDelay)
    i.TicksDelayMs                           0x00005534   Section        0  user_init.o(i.TicksDelayMs)
    i.main                                   0x0000555c   Section        0  main.o(i.main)
    .data                                    0x20000000   Section        4  system_fm33g0xx.o(.data)
    .bss                                     0x20000004   Section       96  libspace.o(.bss)
    HEAP                                     0x20000068   Section      512  startup_fm33g0xx.o(HEAP)
    Heap_Mem                                 0x20000068   Data         512  startup_fm33g0xx.o(HEAP)
    STACK                                    0x20000268   Section     4096  startup_fm33g0xx.o(STACK)
    Stack_Mem                                0x20000268   Data        4096  startup_fm33g0xx.o(STACK)
    __initial_sp                             0x20001268   Data           0  startup_fm33g0xx.o(STACK)

    Global Symbols

    Symbol Name                              Value     Ov Type        Size  Object(Section)

    BuildAttributes$$THM_ISAv3M$S$PE$A:L22$X:L11$S22$IEEE1$IW$USESV6$~STKCKD$USESV7$~SHL$OSPACE$ROPI$EBA8$UX$STANDARDLIB$REQ8$PRES8$EABIv2 0x00000000   Number         0  anon$$obj.o ABSOLUTE
    __ARM_use_no_argv                        0x00000000   Number         0  main.o ABSOLUTE
    __ARM_exceptions_init                     - Undefined Weak Reference
    __alloca_initialize                       - Undefined Weak Reference
    __arm_preinit_                            - Undefined Weak Reference
    __cpp_initialize__aeabi_                  - Undefined Weak Reference
    __cxa_finalize                            - Undefined Weak Reference
    __rt_locale                               - Undefined Weak Reference
    __sigvec_lookup                           - Undefined Weak Reference
    _atexit_init                              - Undefined Weak Reference
    _call_atexit_fns                          - Undefined Weak Reference
    _clock_init                               - Undefined Weak Reference
    _fp_trap_init                             - Undefined Weak Reference
    _fp_trap_shutdown                         - Undefined Weak Reference
    _get_lc_collate                           - Undefined Weak Reference
    _get_lc_ctype                             - Undefined Weak Reference
    _get_lc_monetary                          - Undefined Weak Reference
    _get_lc_numeric                           - Undefined Weak Reference
    _get_lc_time                              - Undefined Weak Reference
    _getenv_init                              - Undefined Weak Reference
    _handle_redirection                       - Undefined Weak Reference
    _init_alloc                               - Undefined Weak Reference
    _init_user_alloc                          - Undefined Weak Reference
    _initio                                   - Undefined Weak Reference
    _rand_init                                - Undefined Weak Reference
    _signal_finish                            - Undefined Weak Reference
    _signal_init                              - Undefined Weak Reference
    _terminate_alloc                          - Undefined Weak Reference
    _terminate_user_alloc                     - Undefined Weak Reference
    _terminateio                              - Undefined Weak Reference
    __Vectors_Size                           0x000000c0   Number         0  startup_fm33g0xx.o ABSOLUTE
    __Vectors                                0x00004000   Data           4  startup_fm33g0xx.o(RESET)
    __Vectors_End                            0x000040c0   Data           0  startup_fm33g0xx.o(RESET)
    __main                                   0x000040c1   Thumb Code     8  __main.o(!!!main)
    __scatterload                            0x000040c9   Thumb Code     0  __scatter.o(!!!scatter)
    __scatterload_rt2                        0x000040c9   Thumb Code    52  __scatter.o(!!!scatter)
    __scatterload_rt2_thumb_only             0x000040c9   Thumb Code     0  __scatter.o(!!!scatter)
    __scatterload_null                       0x000040d9   Thumb Code     0  __scatter.o(!!!scatter)
    __scatterload_copy                       0x00004105   Thumb Code    26  __scatter_copy.o(!!handler_copy)
    __scatterload_zeroinit                   0x00004121   Thumb Code    28  __scatter_zi.o(!!handler_zi)
    __rt_lib_init                            0x0000413d   Thumb Code     0  libinit.o(.ARM.Collect$$libinit$$00000000)
    __rt_lib_init_alloca_1                   0x0000413f   Thumb Code     0  libinit2.o(.ARM.Collect$$libinit$$0000002E)
    __rt_lib_init_argv_1                     0x0000413f   Thumb Code     0  libinit2.o(.ARM.Collect$$libinit$$0000002C)
    __rt_lib_init_atexit_1                   0x0000413f   Thumb Code     0  libinit2.o(.ARM.Collect$$libinit$$0000001B)
    __rt_lib_init_clock_1                    0x0000413f   Thumb Code     0  libinit2.o(.ARM.Collect$$libinit$$00000021)
    __rt_lib_init_cpp_1                      0x0000413f   Thumb Code     0  libinit2.o(.ARM.Collect$$libinit$$00000032)
    __rt_lib_init_exceptions_1               0x0000413f   Thumb Code     0  libinit2.o(.ARM.Collect$$libinit$$00000030)
    __rt_lib_init_fp_1                       0x0000413f   Thumb Code     0  libinit2.o(.ARM.Collect$$libinit$$00000002)
    __rt_lib_init_fp_trap_1                  0x0000413f   Thumb Code     0  libinit2.o(.ARM.Collect$$libinit$$0000001F)
    __rt_lib_init_getenv_1                   0x0000413f   Thumb Code     0  libinit2.o(.ARM.Collect$$libinit$$00000023)
    __rt_lib_init_heap_1                     0x0000413f   Thumb Code     0  libinit2.o(.ARM.Collect$$libinit$$0000000A)
    __rt_lib_init_lc_collate_1               0x0000413f   Thumb Code     0  libinit2.o(.ARM.Collect$$libinit$$00000011)
    __rt_lib_init_lc_ctype_1                 0x0000413f   Thumb Code     0  libinit2.o(.ARM.Collect$$libinit$$00000013)
    __rt_lib_init_lc_monetary_1              0x0000413f   Thumb Code     0  libinit2.o(.ARM.Collect$$libinit$$00000015)
    __rt_lib_init_lc_numeric_1               0x0000413f   Thumb Code     0  libinit2.o(.ARM.Collect$$libinit$$00000017)
    __rt_lib_init_lc_time_1                  0x0000413f   Thumb Code     0  libinit2.o(.ARM.Collect$$libinit$$00000019)
    __rt_lib_init_preinit_1                  0x0000413f   Thumb Code     0  libinit2.o(.ARM.Collect$$libinit$$00000004)
    __rt_lib_init_rand_1                     0x0000413f   Thumb Code     0  libinit2.o(.ARM.Collect$$libinit$$0000000E)
    __rt_lib_init_return                     0x0000413f   Thumb Code     0  libinit2.o(.ARM.Collect$$libinit$$00000033)
    __rt_lib_init_signal_1                   0x0000413f   Thumb Code     0  libinit2.o(.ARM.Collect$$libinit$$0000001D)
    __rt_lib_init_stdio_1                    0x0000413f   Thumb Code     0  libinit2.o(.ARM.Collect$$libinit$$00000025)
    __rt_lib_init_user_alloc_1               0x0000413f   Thumb Code     0  libinit2.o(.ARM.Collect$$libinit$$0000000C)
    __rt_lib_shutdown                        0x00004141   Thumb Code     0  libshutdown.o(.ARM.Collect$$libshutdown$$00000000)
    __rt_lib_shutdown_cpp_1                  0x00004143   Thumb Code     0  libshutdown2.o(.ARM.Collect$$libshutdown$$00000002)
    __rt_lib_shutdown_fp_trap_1              0x00004143   Thumb Code     0  libshutdown2.o(.ARM.Collect$$libshutdown$$00000007)
    __rt_lib_shutdown_heap_1                 0x00004143   Thumb Code     0  libshutdown2.o(.ARM.Collect$$libshutdown$$0000000F)
    __rt_lib_shutdown_return                 0x00004143   Thumb Code     0  libshutdown2.o(.ARM.Collect$$libshutdown$$00000010)
    __rt_lib_shutdown_signal_1               0x00004143   Thumb Code     0  libshutdown2.o(.ARM.Collect$$libshutdown$$0000000A)
    __rt_lib_shutdown_stdio_1                0x00004143   Thumb Code     0  libshutdown2.o(.ARM.Collect$$libshutdown$$00000004)
    __rt_lib_shutdown_user_alloc_1           0x00004143   Thumb Code     0  libshutdown2.o(.ARM.Collect$$libshutdown$$0000000C)
    __rt_entry                               0x00004145   Thumb Code     0  __rtentry.o(.ARM.Collect$$rtentry$$00000000)
    __rt_entry_presh_1                       0x00004145   Thumb Code     0  __rtentry2.o(.ARM.Collect$$rtentry$$00000002)
    __rt_entry_sh                            0x00004145   Thumb Code     0  __rtentry4.o(.ARM.Collect$$rtentry$$00000004)
    __rt_entry_li                            0x0000414b   Thumb Code     0  __rtentry2.o(.ARM.Collect$$rtentry$$0000000A)
    __rt_entry_postsh_1                      0x0000414b   Thumb Code     0  __rtentry2.o(.ARM.Collect$$rtentry$$00000009)
    __rt_entry_main                          0x0000414f   Thumb Code     0  __rtentry2.o(.ARM.Collect$$rtentry$$0000000D)
    __rt_entry_postli_1                      0x0000414f   Thumb Code     0  __rtentry2.o(.ARM.Collect$$rtentry$$0000000C)
    __rt_exit                                0x00004157   Thumb Code     0  rtexit.o(.ARM.Collect$$rtexit$$00000000)
    __rt_exit_ls                             0x00004159   Thumb Code     0  rtexit2.o(.ARM.Collect$$rtexit$$00000003)
    __rt_exit_prels_1                        0x00004159   Thumb Code     0  rtexit2.o(.ARM.Collect$$rtexit$$00000002)
    __rt_exit_exit                           0x0000415d   Thumb Code     0  rtexit2.o(.ARM.Collect$$rtexit$$00000004)
    Reset_Handler                            0x00004165   Thumb Code     8  startup_fm33g0xx.o(.text)
    NMI_Handler                              0x0000416d   Thumb Code     2  startup_fm33g0xx.o(.text)
    HardFault_Handler                        0x0000416f   Thumb Code     2  startup_fm33g0xx.o(.text)
    SVC_Handler                              0x00004171   Thumb Code     2  startup_fm33g0xx.o(.text)
    PendSV_Handler                           0x00004173   Thumb Code     2  startup_fm33g0xx.o(.text)
    SysTick_Handler                          0x00004175   Thumb Code     2  startup_fm33g0xx.o(.text)
    ADC_IRQHandler                           0x00004177   Thumb Code     0  startup_fm33g0xx.o(.text)
    AES_IRQHandler                           0x00004177   Thumb Code     0  startup_fm33g0xx.o(.text)
    BTIM1_IRQHandler                         0x00004177   Thumb Code     0  startup_fm33g0xx.o(.text)
    BTIM2_IRQHandler                         0x00004177   Thumb Code     0  startup_fm33g0xx.o(.text)
    COMP_IRQHandler                          0x00004177   Thumb Code     0  startup_fm33g0xx.o(.text)
    DMA_IRQHandler                           0x00004177   Thumb Code     0  startup_fm33g0xx.o(.text)
    ETIM1_IRQHandler                         0x00004177   Thumb Code     0  startup_fm33g0xx.o(.text)
    ETIM2_IRQHandler                         0x00004177   Thumb Code     0  startup_fm33g0xx.o(.text)
    ETIM3_IRQHandler                         0x00004177   Thumb Code     0  startup_fm33g0xx.o(.text)
    ETIM4_IRQHandler                         0x00004177   Thumb Code     0  startup_fm33g0xx.o(.text)
    FDET_IRQHandler                          0x00004177   Thumb Code     0  startup_fm33g0xx.o(.text)
    GPIO_IRQHandler                          0x00004177   Thumb Code     0  startup_fm33g0xx.o(.text)
    HSPI_IRQHandler                          0x00004177   Thumb Code     0  startup_fm33g0xx.o(.text)
    I2C_IRQHandler                           0x00004177   Thumb Code     0  startup_fm33g0xx.o(.text)
    LCD_IRQHandler                           0x00004177   Thumb Code     0  startup_fm33g0xx.o(.text)
    LPTIM_IRQHandler                         0x00004177   Thumb Code     0  startup_fm33g0xx.o(.text)
    LPUART_IRQHandler                        0x00004177   Thumb Code     0  startup_fm33g0xx.o(.text)
    NVMIF_IRQHandler                         0x00004177   Thumb Code     0  startup_fm33g0xx.o(.text)
    RTC_IRQHandler                           0x00004177   Thumb Code     0  startup_fm33g0xx.o(.text)
    SPI1_IRQHandler                          0x00004177   Thumb Code     0  startup_fm33g0xx.o(.text)
    SPI2_IRQHandler                          0x00004177   Thumb Code     0  startup_fm33g0xx.o(.text)
    SVD_IRQHandler                           0x00004177   Thumb Code     0  startup_fm33g0xx.o(.text)
    U78160_IRQHandler                        0x00004177   Thumb Code     0  startup_fm33g0xx.o(.text)
    U78161_IRQHandler                        0x00004177   Thumb Code     0  startup_fm33g0xx.o(.text)
    UART0_IRQHandler                         0x00004177   Thumb Code     0  startup_fm33g0xx.o(.text)
    UART1_IRQHandler                         0x00004177   Thumb Code     0  startup_fm33g0xx.o(.text)
    UART2_IRQHandler                         0x00004177   Thumb Code     0  startup_fm33g0xx.o(.text)
    UART3_IRQHandler                         0x00004177   Thumb Code     0  startup_fm33g0xx.o(.text)
    UART4_IRQHandler                         0x00004177   Thumb Code     0  startup_fm33g0xx.o(.text)
    UART5_IRQHandler                         0x00004177   Thumb Code     0  startup_fm33g0xx.o(.text)
    WKUP_IRQHandler                          0x00004177   Thumb Code     0  startup_fm33g0xx.o(.text)
    WWDT_IRQHandler                          0x00004177   Thumb Code     0  startup_fm33g0xx.o(.text)
    __user_initial_stackheap                 0x00004179   Thumb Code     0  startup_fm33g0xx.o(.text)
    __use_two_region_memory                  0x0000419d   Thumb Code     2  heapauxi.o(.text)
    __rt_heap_escrow$2region                 0x0000419f   Thumb Code     2  heapauxi.o(.text)
    __rt_heap_expand$2region                 0x000041a1   Thumb Code     2  heapauxi.o(.text)
    __user_setup_stackheap                   0x000041a3   Thumb Code    62  sys_stackheap_outer.o(.text)
    exit                                     0x000041e1   Thumb Code    16  exit.o(.text)
    __user_libspace                          0x000041f1   Thumb Code     8  libspace.o(.text)
    __user_perproc_libspace                  0x000041f1   Thumb Code     0  libspace.o(.text)
    __user_perthread_libspace                0x000041f1   Thumb Code     0  libspace.o(.text)
    _sys_exit                                0x000041f9   Thumb Code     8  sys_exit.o(.text)
    __I$use$semihosting                      0x00004205   Thumb Code     0  use_no_semi.o(.text)
    __use_no_semihosting_swi                 0x00004205   Thumb Code     2  use_no_semi.o(.text)
    __semihosting_library_function           0x00004207   Thumb Code     0  indicate_semi.o(.text)
    ANAC_BORCON_OFF_BOR_Setable              0x00004209   Thumb Code    32  fm33g0xx_anac.o(i.ANAC_BORCON_OFF_BOR_Setable)
    ANAC_PDRCON_PDREN_Setable                0x0000422d   Thumb Code    32  fm33g0xx_anac.o(i.ANAC_PDRCON_PDREN_Setable)
    AltFunIO                                 0x00004251   Thumb Code   166  user_init.o(i.AltFunIO)
    CheckSysReg                              0x000042f7   Thumb Code    18  user_init.o(i.CheckSysReg)
    Close_AllIOEXTI                          0x00004309   Thumb Code    32  user_init.o(i.Close_AllIOEXTI)
    Close_AllIO_GPIO_80pin                   0x00004331   Thumb Code   792  user_init.o(i.Close_AllIO_GPIO_80pin)
    Close_None_GPIO_80pin                    0x0000464d   Thumb Code   450  user_init.o(i.Close_None_GPIO_80pin)
    CloseeIO                                 0x00004815   Thumb Code    64  user_init.o(i.CloseeIO)
    FLASH_FLSRDCON_WAIT_Set                  0x00004855   Thumb Code    22  fm33g0xx_flash.o(i.FLASH_FLSRDCON_WAIT_Set)
    GPIO_ANASEL_PC12ANS_Set                  0x00004871   Thumb Code    22  fm33g0xx_gpio.o(i.GPIO_ANASEL_PC12ANS_Set)
    GPIO_ANASEL_PC13ANS_Set                  0x0000488d   Thumb Code    26  fm33g0xx_gpio.o(i.GPIO_ANASEL_PC13ANS_Set)
    GPIO_ANASEL_PC14ANS_Set                  0x000048ad   Thumb Code    26  fm33g0xx_gpio.o(i.GPIO_ANASEL_PC14ANS_Set)
    GPIO_ANASEL_PC15ANS_Set                  0x000048cd   Thumb Code    26  fm33g0xx_gpio.o(i.GPIO_ANASEL_PC15ANS_Set)
    GPIO_ANASEL_PE3ANS_Set                   0x000048ed   Thumb Code    26  fm33g0xx_gpio.o(i.GPIO_ANASEL_PE3ANS_Set)
    GPIO_ANASEL_PE4ANS_Set                   0x0000490d   Thumb Code    26  fm33g0xx_gpio.o(i.GPIO_ANASEL_PE4ANS_Set)
    GPIO_FOUTSEL_FOUTSEL_Set                 0x0000492d   Thumb Code    22  fm33g0xx_gpio.o(i.GPIO_FOUTSEL_FOUTSEL_Set)
    GPIO_Get_InitPara                        0x00004949   Thumb Code   148  fm33g0xx_gpio.o(i.GPIO_Get_InitPara)
    GPIO_HDSEL_PE2HDEN_Setable               0x000049dd   Thumb Code    32  fm33g0xx_gpio.o(i.GPIO_HDSEL_PE2HDEN_Setable)
    GPIO_HDSEL_PG6HDEN_Setable               0x00004a01   Thumb Code    32  fm33g0xx_gpio.o(i.GPIO_HDSEL_PG6HDEN_Setable)
    GPIO_IODF_SetableEx                      0x00004a25   Thumb Code    36  fm33g0xx_gpio.o(i.GPIO_IODF_SetableEx)
    GPIO_Init                                0x00004a4d   Thumb Code   114  fm33g0xx_gpio.o(i.GPIO_Init)
    GPIO_PINWKEN_SetableEx                   0x00004ac1   Thumb Code    28  fm33g0xx_gpio.o(i.GPIO_PINWKEN_SetableEx)
    GPIO_ResetBits                           0x00004ae1   Thumb Code     4  fm33g0xx_gpio.o(i.GPIO_ResetBits)
    GPIO_SetBits                             0x00004ae5   Thumb Code     4  fm33g0xx_gpio.o(i.GPIO_SetBits)
    GPIOx_DO_Write                           0x00004ae9   Thumb Code     6  fm33g0xx_gpio.o(i.GPIOx_DO_Write)
    IO_AnalogFunSet                          0x00004aef   Thumb Code    40  user_init.o(i.IO_AnalogFunSet)
    IO_DFFunSet                              0x00004b17   Thumb Code   156  user_init.o(i.IO_DFFunSet)
    IO_WKENFunSet                            0x00004bb3   Thumb Code    68  user_init.o(i.IO_WKENFunSet)
    IWDT_Clr                                 0x00004bf9   Thumb Code     8  fm33g0xx_iwdt.o(i.IWDT_Clr)
    IWDT_IWDTCFG_IWDTOVP_Set                 0x00004c09   Thumb Code    22  fm33g0xx_iwdt.o(i.IWDT_IWDTCFG_IWDTOVP_Set)
    IWDT_IWDTCFG_IWDTSLP4096S_Setable        0x00004c25   Thumb Code    32  fm33g0xx_iwdt.o(i.IWDT_IWDTCFG_IWDTSLP4096S_Setable)
    IWDT_Init                                0x00004c49   Thumb Code    28  user_init.o(i.IWDT_Init)
    Init_IO                                  0x00004c69   Thumb Code    26  user_init.o(i.Init_IO)
    Init_PLL                                 0x00004c89   Thumb Code    32  user_init.o(i.Init_PLL)
    Init_Pad_Io                              0x00004ca9   Thumb Code    72  user_init.o(i.Init_Pad_Io)
    Init_RCC_PERIPH_clk                      0x00004cf5   Thumb Code   410  user_init.o(i.Init_RCC_PERIPH_clk)
    Init_SysClk                              0x00004ea1   Thumb Code    48  user_init.o(i.Init_SysClk)
    Init_SysClk_Gen                          0x00004ed1   Thumb Code    46  user_init.o(i.Init_SysClk_Gen)
    Init_SysTick                             0x00004f01   Thumb Code    50  user_init.o(i.Init_SysTick)
    Init_System                              0x00004f39   Thumb Code    68  user_init.o(i.Init_System)
    LED0_Flash                               0x00004f7d   Thumb Code    54  user_init.o(i.LED0_Flash)
    OutputIO                                 0x00005031   Thumb Code   114  user_init.o(i.OutputIO)
    RCC_Init_RCHF_Trim                       0x000050a5   Thumb Code    82  fm33g0xx_rcc.o(i.RCC_Init_RCHF_Trim)
    RCC_MPRIL_MPRIL_Set                      0x000050fd   Thumb Code    22  fm33g0xx_rcc.o(i.RCC_MPRIL_MPRIL_Set)
    RCC_PERCLK_SetableEx                     0x00005119   Thumb Code   100  fm33g0xx_rcc.o(i.RCC_PERCLK_SetableEx)
    RCC_PLLCON_PLLDB_Set                     0x00005181   Thumb Code    22  fm33g0xx_rcc.o(i.RCC_PLLCON_PLLDB_Set)
    RCC_PLLCON_PLLEN_Setable                 0x000051a1   Thumb Code    32  fm33g0xx_rcc.o(i.RCC_PLLCON_PLLEN_Setable)
    RCC_PLLCON_PLLINSEL_Set                  0x000051c5   Thumb Code    26  fm33g0xx_rcc.o(i.RCC_PLLCON_PLLINSEL_Set)
    RCC_PLLCON_PLLOSEL_Set                   0x000051e5   Thumb Code    26  fm33g0xx_rcc.o(i.RCC_PLLCON_PLLOSEL_Set)
    RCC_PLLDB_WriteEx                        0x00005205   Thumb Code    12  fm33g0xx_rcc.o(i.RCC_PLLDB_WriteEx)
    RCC_PLL_Init                             0x00005211   Thumb Code    30  fm33g0xx_rcc.o(i.RCC_PLL_Init)
    RCC_RCHFCON_FSEL_Set                     0x00005231   Thumb Code    28  fm33g0xx_rcc.o(i.RCC_RCHFCON_FSEL_Set)
    RCC_RCHFCON_RCHFEN_Setable               0x00005251   Thumb Code    32  fm33g0xx_rcc.o(i.RCC_RCHFCON_RCHFEN_Setable)
    RCC_RCHFTRIM_Write                       0x00005275   Thumb Code    10  fm33g0xx_rcc.o(i.RCC_RCHFTRIM_Write)
    RCC_RCHF_Init                            0x00005285   Thumb Code    18  fm33g0xx_rcc.o(i.RCC_RCHF_Init)
    RCC_SYSCLKSEL_AHBPRES_Set                0x00005299   Thumb Code    28  fm33g0xx_rcc.o(i.RCC_SYSCLKSEL_AHBPRES_Set)
    RCC_SYSCLKSEL_APBPRES_Set                0x000052b9   Thumb Code    28  fm33g0xx_rcc.o(i.RCC_SYSCLKSEL_APBPRES_Set)
    RCC_SYSCLKSEL_EXTICKSEL_Set              0x000052d9   Thumb Code    26  fm33g0xx_rcc.o(i.RCC_SYSCLKSEL_EXTICKSEL_Set)
    RCC_SYSCLKSEL_LPM_RCLP_OFF_Setable       0x000052f9   Thumb Code    32  fm33g0xx_rcc.o(i.RCC_SYSCLKSEL_LPM_RCLP_OFF_Setable)
    RCC_SYSCLKSEL_SLP_ENEXTI_Setable         0x0000531d   Thumb Code    34  fm33g0xx_rcc.o(i.RCC_SYSCLKSEL_SLP_ENEXTI_Setable)
    RCC_SYSCLKSEL_SYSCLKSEL_Set              0x00005345   Thumb Code    22  fm33g0xx_rcc.o(i.RCC_SYSCLKSEL_SYSCLKSEL_Set)
    RCC_SysClk_Init                          0x00005361   Thumb Code    42  fm33g0xx_rcc.o(i.RCC_SysClk_Init)
    SCU_Init                                 0x0000538b   Thumb Code    70  user_init.o(i.SCU_Init)
    SCU_MCUDBGCR_DBG_BT1_STOP_Setable        0x000053d1   Thumb Code    36  fm33g0xx_scu.o(i.SCU_MCUDBGCR_DBG_BT1_STOP_Setable)
    SCU_MCUDBGCR_DBG_BT2_STOP_Setable        0x000053f5   Thumb Code    36  fm33g0xx_scu.o(i.SCU_MCUDBGCR_DBG_BT2_STOP_Setable)
    SCU_MCUDBGCR_DBG_ET1_STOP_Setable        0x00005419   Thumb Code    36  fm33g0xx_scu.o(i.SCU_MCUDBGCR_DBG_ET1_STOP_Setable)
    SCU_MCUDBGCR_DBG_ET2_STOP_Setable        0x0000543d   Thumb Code    36  fm33g0xx_scu.o(i.SCU_MCUDBGCR_DBG_ET2_STOP_Setable)
    SCU_MCUDBGCR_DBG_ET3_STOP_Setable        0x00005461   Thumb Code    36  fm33g0xx_scu.o(i.SCU_MCUDBGCR_DBG_ET3_STOP_Setable)
    SCU_MCUDBGCR_DBG_ET4_STOP_Setable        0x00005485   Thumb Code    36  fm33g0xx_scu.o(i.SCU_MCUDBGCR_DBG_ET4_STOP_Setable)
    SCU_MCUDBGCR_DBG_IWDT_STOP_Setable       0x000054a9   Thumb Code    36  fm33g0xx_scu.o(i.SCU_MCUDBGCR_DBG_IWDT_STOP_Setable)
    SCU_MCUDBGCR_DBG_WWDT_STOP_Setable       0x000054cd   Thumb Code    34  fm33g0xx_scu.o(i.SCU_MCUDBGCR_DBG_WWDT_STOP_Setable)
    SystemInit                               0x000054f1   Thumb Code    16  system_fm33g0xx.o(i.SystemInit)
    TicksDelay                               0x0000550d   Thumb Code    34  user_init.o(i.TicksDelay)
    TicksDelayMs                             0x00005535   Thumb Code    40  user_init.o(i.TicksDelayMs)
    main                                     0x0000555d   Thumb Code    52  main.o(i.main)
    Region$$Table$$Base                      0x00005594   Number         0  anon$$obj.o(Region$$Table)
    Region$$Table$$Limit                     0x000055b4   Number         0  anon$$obj.o(Region$$Table)
    SystemCoreClock                          0x20000000   Data           4  system_fm33g0xx.o(.data)
    __libspace_start                         0x20000004   Data          96  libspace.o(.bss)
    __temporary_stack_top$libspace           0x20000064   Data           0  libspace.o(.bss)



==============================================================================

Memory Map of the image

  Image Entry point : 0x000040c1

  Load Region LR_IROM1 (Base: 0x00004000, Size: 0x000015b8, Max: 0x0003c000, ABSOLUTE)

    Execution Region ER_IROM1 (Exec base: 0x00004000, Load base: 0x00004000, Size: 0x000015b4, Max: 0x0003c000, ABSOLUTE)

    Exec Addr    Load Addr    Size         Type   Attr      Idx    E Section Name        Object

    0x00004000   0x00004000   0x000000c0   Data   RO         7043    RESET               startup_fm33g0xx.o
    0x000040c0   0x000040c0   0x00000008   Code   RO         7088  * !!!main             c_p.l(__main.o)
    0x000040c8   0x000040c8   0x0000003c   Code   RO         7298    !!!scatter          c_p.l(__scatter.o)
    0x00004104   0x00004104   0x0000001a   Code   RO         7300    !!handler_copy      c_p.l(__scatter_copy.o)
    0x0000411e   0x0000411e   0x00000002   PAD
    0x00004120   0x00004120   0x0000001c   Code   RO         7302    !!handler_zi        c_p.l(__scatter_zi.o)
    0x0000413c   0x0000413c   0x00000002   Code   RO         7165    .ARM.Collect$$libinit$$00000000  c_p.l(libinit.o)
    0x0000413e   0x0000413e   0x00000000   Code   RO         7181    .ARM.Collect$$libinit$$00000002  c_p.l(libinit2.o)
    0x0000413e   0x0000413e   0x00000000   Code   RO         7183    .ARM.Collect$$libinit$$00000004  c_p.l(libinit2.o)
    0x0000413e   0x0000413e   0x00000000   Code   RO         7186    .ARM.Collect$$libinit$$0000000A  c_p.l(libinit2.o)
    0x0000413e   0x0000413e   0x00000000   Code   RO         7188    .ARM.Collect$$libinit$$0000000C  c_p.l(libinit2.o)
    0x0000413e   0x0000413e   0x00000000   Code   RO         7190    .ARM.Collect$$libinit$$0000000E  c_p.l(libinit2.o)
    0x0000413e   0x0000413e   0x00000000   Code   RO         7193    .ARM.Collect$$libinit$$00000011  c_p.l(libinit2.o)
    0x0000413e   0x0000413e   0x00000000   Code   RO         7195    .ARM.Collect$$libinit$$00000013  c_p.l(libinit2.o)
    0x0000413e   0x0000413e   0x00000000   Code   RO         7197    .ARM.Collect$$libinit$$00000015  c_p.l(libinit2.o)
    0x0000413e   0x0000413e   0x00000000   Code   RO         7199    .ARM.Collect$$libinit$$00000017  c_p.l(libinit2.o)
    0x0000413e   0x0000413e   0x00000000   Code   RO         7201    .ARM.Collect$$libinit$$00000019  c_p.l(libinit2.o)
    0x0000413e   0x0000413e   0x00000000   Code   RO         7203    .ARM.Collect$$libinit$$0000001B  c_p.l(libinit2.o)
    0x0000413e   0x0000413e   0x00000000   Code   RO         7205    .ARM.Collect$$libinit$$0000001D  c_p.l(libinit2.o)
    0x0000413e   0x0000413e   0x00000000   Code   RO         7207    .ARM.Collect$$libinit$$0000001F  c_p.l(libinit2.o)
    0x0000413e   0x0000413e   0x00000000   Code   RO         7209    .ARM.Collect$$libinit$$00000021  c_p.l(libinit2.o)
    0x0000413e   0x0000413e   0x00000000   Code   RO         7211    .ARM.Collect$$libinit$$00000023  c_p.l(libinit2.o)
    0x0000413e   0x0000413e   0x00000000   Code   RO         7213    .ARM.Collect$$libinit$$00000025  c_p.l(libinit2.o)
    0x0000413e   0x0000413e   0x00000000   Code   RO         7217    .ARM.Collect$$libinit$$0000002C  c_p.l(libinit2.o)
    0x0000413e   0x0000413e   0x00000000   Code   RO         7219    .ARM.Collect$$libinit$$0000002E  c_p.l(libinit2.o)
    0x0000413e   0x0000413e   0x00000000   Code   RO         7221    .ARM.Collect$$libinit$$00000030  c_p.l(libinit2.o)
    0x0000413e   0x0000413e   0x00000000   Code   RO         7223    .ARM.Collect$$libinit$$00000032  c_p.l(libinit2.o)
    0x0000413e   0x0000413e   0x00000002   Code   RO         7224    .ARM.Collect$$libinit$$00000033  c_p.l(libinit2.o)
    0x00004140   0x00004140   0x00000002   Code   RO         7255    .ARM.Collect$$libshutdown$$00000000  c_p.l(libshutdown.o)
    0x00004142   0x00004142   0x00000000   Code   RO         7281    .ARM.Collect$$libshutdown$$00000002  c_p.l(libshutdown2.o)
    0x00004142   0x00004142   0x00000000   Code   RO         7283    .ARM.Collect$$libshutdown$$00000004  c_p.l(libshutdown2.o)
    0x00004142   0x00004142   0x00000000   Code   RO         7286    .ARM.Collect$$libshutdown$$00000007  c_p.l(libshutdown2.o)
    0x00004142   0x00004142   0x00000000   Code   RO         7289    .ARM.Collect$$libshutdown$$0000000A  c_p.l(libshutdown2.o)
    0x00004142   0x00004142   0x00000000   Code   RO         7291    .ARM.Collect$$libshutdown$$0000000C  c_p.l(libshutdown2.o)
    0x00004142   0x00004142   0x00000000   Code   RO         7294    .ARM.Collect$$libshutdown$$0000000F  c_p.l(libshutdown2.o)
    0x00004142   0x00004142   0x00000002   Code   RO         7295    .ARM.Collect$$libshutdown$$00000010  c_p.l(libshutdown2.o)
    0x00004144   0x00004144   0x00000000   Code   RO         7122    .ARM.Collect$$rtentry$$00000000  c_p.l(__rtentry.o)
    0x00004144   0x00004144   0x00000000   Code   RO         7131    .ARM.Collect$$rtentry$$00000002  c_p.l(__rtentry2.o)
    0x00004144   0x00004144   0x00000006   Code   RO         7143    .ARM.Collect$$rtentry$$00000004  c_p.l(__rtentry4.o)
    0x0000414a   0x0000414a   0x00000000   Code   RO         7133    .ARM.Collect$$rtentry$$00000009  c_p.l(__rtentry2.o)
    0x0000414a   0x0000414a   0x00000004   Code   RO         7134    .ARM.Collect$$rtentry$$0000000A  c_p.l(__rtentry2.o)
    0x0000414e   0x0000414e   0x00000000   Code   RO         7136    .ARM.Collect$$rtentry$$0000000C  c_p.l(__rtentry2.o)
    0x0000414e   0x0000414e   0x00000008   Code   RO         7137    .ARM.Collect$$rtentry$$0000000D  c_p.l(__rtentry2.o)
    0x00004156   0x00004156   0x00000002   Code   RO         7172    .ARM.Collect$$rtexit$$00000000  c_p.l(rtexit.o)
    0x00004158   0x00004158   0x00000000   Code   RO         7228    .ARM.Collect$$rtexit$$00000002  c_p.l(rtexit2.o)
    0x00004158   0x00004158   0x00000004   Code   RO         7229    .ARM.Collect$$rtexit$$00000003  c_p.l(rtexit2.o)
    0x0000415c   0x0000415c   0x00000006   Code   RO         7230    .ARM.Collect$$rtexit$$00000004  c_p.l(rtexit2.o)
    0x00004162   0x00004162   0x00000002   PAD
    0x00004164   0x00004164   0x00000038   Code   RO         7044    .text               startup_fm33g0xx.o
    0x0000419c   0x0000419c   0x00000006   Code   RO         7086    .text               c_p.l(heapauxi.o)
    0x000041a2   0x000041a2   0x0000003e   Code   RO         7151    .text               c_p.l(sys_stackheap_outer.o)
    0x000041e0   0x000041e0   0x00000010   Code   RO         7154    .text               c_p.l(exit.o)
    0x000041f0   0x000041f0   0x00000008   Code   RO         7168    .text               c_p.l(libspace.o)
    0x000041f8   0x000041f8   0x0000000c   Code   RO         7225    .text               c_p.l(sys_exit.o)
    0x00004204   0x00004204   0x00000002   Code   RO         7244    .text               c_p.l(use_no_semi.o)
    0x00004206   0x00004206   0x00000000   Code   RO         7246    .text               c_p.l(indicate_semi.o)
    0x00004206   0x00004206   0x00000002   PAD
    0x00004208   0x00004208   0x00000024   Code   RO          578    i.ANAC_BORCON_OFF_BOR_Setable  fm33g0xx_anac.o
    0x0000422c   0x0000422c   0x00000024   Code   RO          623    i.ANAC_PDRCON_PDREN_Setable  fm33g0xx_anac.o
    0x00004250   0x00004250   0x000000a6   Code   RO          136    i.AltFunIO          user_init.o
    0x000042f6   0x000042f6   0x00000012   Code   RO          139    i.CheckSysReg       user_init.o
    0x00004308   0x00004308   0x00000028   Code   RO          140    i.Close_AllIOEXTI   user_init.o
    0x00004330   0x00004330   0x0000031c   Code   RO          141    i.Close_AllIO_GPIO_80pin  user_init.o
    0x0000464c   0x0000464c   0x000001c8   Code   RO          142    i.Close_None_GPIO_80pin  user_init.o
    0x00004814   0x00004814   0x00000040   Code   RO          143    i.CloseeIO          user_init.o
    0x00004854   0x00004854   0x0000001c   Code   RO         2449    i.FLASH_FLSRDCON_WAIT_Set  fm33g0xx_flash.o
    0x00004870   0x00004870   0x0000001c   Code   RO         2675    i.GPIO_ANASEL_PC12ANS_Set  fm33g0xx_gpio.o
    0x0000488c   0x0000488c   0x00000020   Code   RO         2677    i.GPIO_ANASEL_PC13ANS_Set  fm33g0xx_gpio.o
    0x000048ac   0x000048ac   0x00000020   Code   RO         2679    i.GPIO_ANASEL_PC14ANS_Set  fm33g0xx_gpio.o
    0x000048cc   0x000048cc   0x00000020   Code   RO         2681    i.GPIO_ANASEL_PC15ANS_Set  fm33g0xx_gpio.o
    0x000048ec   0x000048ec   0x00000020   Code   RO         2683    i.GPIO_ANASEL_PE3ANS_Set  fm33g0xx_gpio.o
    0x0000490c   0x0000490c   0x00000020   Code   RO         2685    i.GPIO_ANASEL_PE4ANS_Set  fm33g0xx_gpio.o
    0x0000492c   0x0000492c   0x0000001c   Code   RO         2694    i.GPIO_FOUTSEL_FOUTSEL_Set  fm33g0xx_gpio.o
    0x00004948   0x00004948   0x00000094   Code   RO         2695    i.GPIO_Get_InitPara  fm33g0xx_gpio.o
    0x000049dc   0x000049dc   0x00000024   Code   RO         2697    i.GPIO_HDSEL_PE2HDEN_Setable  fm33g0xx_gpio.o
    0x00004a00   0x00004a00   0x00000024   Code   RO         2699    i.GPIO_HDSEL_PG6HDEN_Setable  fm33g0xx_gpio.o
    0x00004a24   0x00004a24   0x00000028   Code   RO         2700    i.GPIO_IODF_SetableEx  fm33g0xx_gpio.o
    0x00004a4c   0x00004a4c   0x00000072   Code   RO         2701    i.GPIO_Init         fm33g0xx_gpio.o
    0x00004abe   0x00004abe   0x00000002   PAD
    0x00004ac0   0x00004ac0   0x00000020   Code   RO         2706    i.GPIO_PINWKEN_SetableEx  fm33g0xx_gpio.o
    0x00004ae0   0x00004ae0   0x00000004   Code   RO         2714    i.GPIO_ResetBits    fm33g0xx_gpio.o
    0x00004ae4   0x00004ae4   0x00000004   Code   RO         2715    i.GPIO_SetBits      fm33g0xx_gpio.o
    0x00004ae8   0x00004ae8   0x00000006   Code   RO         2719    i.GPIOx_DO_Write    fm33g0xx_gpio.o
    0x00004aee   0x00004aee   0x00000028   Code   RO          144    i.IO_AnalogFunSet   user_init.o
    0x00004b16   0x00004b16   0x0000009c   Code   RO          145    i.IO_DFFunSet       user_init.o
    0x00004bb2   0x00004bb2   0x00000044   Code   RO          146    i.IO_WKENFunSet     user_init.o
    0x00004bf6   0x00004bf6   0x00000002   PAD
    0x00004bf8   0x00004bf8   0x00000010   Code   RO         3636    i.IWDT_Clr          fm33g0xx_iwdt.o
    0x00004c08   0x00004c08   0x0000001c   Code   RO         3639    i.IWDT_IWDTCFG_IWDTOVP_Set  fm33g0xx_iwdt.o
    0x00004c24   0x00004c24   0x00000024   Code   RO         3641    i.IWDT_IWDTCFG_IWDTSLP4096S_Setable  fm33g0xx_iwdt.o
    0x00004c48   0x00004c48   0x00000020   Code   RO          147    i.IWDT_Init         user_init.o
    0x00004c68   0x00004c68   0x00000020   Code   RO          148    i.Init_IO           user_init.o
    0x00004c88   0x00004c88   0x00000020   Code   RO          149    i.Init_PLL          user_init.o
    0x00004ca8   0x00004ca8   0x0000004c   Code   RO          150    i.Init_Pad_Io       user_init.o
    0x00004cf4   0x00004cf4   0x000001ac   Code   RO          151    i.Init_RCC_PERIPH_clk  user_init.o
    0x00004ea0   0x00004ea0   0x00000030   Code   RO          152    i.Init_SysClk       user_init.o
    0x00004ed0   0x00004ed0   0x0000002e   Code   RO          153    i.Init_SysClk_Gen   user_init.o
    0x00004efe   0x00004efe   0x00000002   PAD
    0x00004f00   0x00004f00   0x00000038   Code   RO          154    i.Init_SysTick      user_init.o
    0x00004f38   0x00004f38   0x00000044   Code   RO          155    i.Init_System       user_init.o
    0x00004f7c   0x00004f7c   0x0000003c   Code   RO          157    i.LED0_Flash        user_init.o
    0x00004fb8   0x00004fb8   0x00000078   Code   RO          158    i.NVIC_SetPriority  user_init.o
    0x00005030   0x00005030   0x00000072   Code   RO          159    i.OutputIO          user_init.o
    0x000050a2   0x000050a2   0x00000002   PAD
    0x000050a4   0x000050a4   0x00000058   Code   RO         4869    i.RCC_Init_RCHF_Trim  fm33g0xx_rcc.o
    0x000050fc   0x000050fc   0x0000001c   Code   RO         4871    i.RCC_MPRIL_MPRIL_Set  fm33g0xx_rcc.o
    0x00005118   0x00005118   0x00000068   Code   RO         4874    i.RCC_PERCLK_SetableEx  fm33g0xx_rcc.o
    0x00005180   0x00005180   0x00000020   Code   RO         4876    i.RCC_PLLCON_PLLDB_Set  fm33g0xx_rcc.o
    0x000051a0   0x000051a0   0x00000024   Code   RO         4878    i.RCC_PLLCON_PLLEN_Setable  fm33g0xx_rcc.o
    0x000051c4   0x000051c4   0x00000020   Code   RO         4880    i.RCC_PLLCON_PLLINSEL_Set  fm33g0xx_rcc.o
    0x000051e4   0x000051e4   0x00000020   Code   RO         4882    i.RCC_PLLCON_PLLOSEL_Set  fm33g0xx_rcc.o
    0x00005204   0x00005204   0x0000000c   Code   RO         4884    i.RCC_PLLDB_WriteEx  fm33g0xx_rcc.o
    0x00005210   0x00005210   0x0000001e   Code   RO         4885    i.RCC_PLL_Init      fm33g0xx_rcc.o
    0x0000522e   0x0000522e   0x00000002   PAD
    0x00005230   0x00005230   0x00000020   Code   RO         4887    i.RCC_RCHFCON_FSEL_Set  fm33g0xx_rcc.o
    0x00005250   0x00005250   0x00000024   Code   RO         4889    i.RCC_RCHFCON_RCHFEN_Setable  fm33g0xx_rcc.o
    0x00005274   0x00005274   0x00000010   Code   RO         4891    i.RCC_RCHFTRIM_Write  fm33g0xx_rcc.o
    0x00005284   0x00005284   0x00000012   Code   RO         4892    i.RCC_RCHF_Init     fm33g0xx_rcc.o
    0x00005296   0x00005296   0x00000002   PAD
    0x00005298   0x00005298   0x00000020   Code   RO         4901    i.RCC_SYSCLKSEL_AHBPRES_Set  fm33g0xx_rcc.o
    0x000052b8   0x000052b8   0x00000020   Code   RO         4903    i.RCC_SYSCLKSEL_APBPRES_Set  fm33g0xx_rcc.o
    0x000052d8   0x000052d8   0x00000020   Code   RO         4905    i.RCC_SYSCLKSEL_EXTICKSEL_Set  fm33g0xx_rcc.o
    0x000052f8   0x000052f8   0x00000024   Code   RO         4907    i.RCC_SYSCLKSEL_LPM_RCLP_OFF_Setable  fm33g0xx_rcc.o
    0x0000531c   0x0000531c   0x00000028   Code   RO         4911    i.RCC_SYSCLKSEL_SLP_ENEXTI_Setable  fm33g0xx_rcc.o
    0x00005344   0x00005344   0x0000001c   Code   RO         4913    i.RCC_SYSCLKSEL_SYSCLKSEL_Set  fm33g0xx_rcc.o
    0x00005360   0x00005360   0x0000002a   Code   RO         4914    i.RCC_SysClk_Init   fm33g0xx_rcc.o
    0x0000538a   0x0000538a   0x00000046   Code   RO          160    i.SCU_Init          user_init.o
    0x000053d0   0x000053d0   0x00000024   Code   RO         5601    i.SCU_MCUDBGCR_DBG_BT1_STOP_Setable  fm33g0xx_scu.o
    0x000053f4   0x000053f4   0x00000024   Code   RO         5603    i.SCU_MCUDBGCR_DBG_BT2_STOP_Setable  fm33g0xx_scu.o
    0x00005418   0x00005418   0x00000024   Code   RO         5605    i.SCU_MCUDBGCR_DBG_ET1_STOP_Setable  fm33g0xx_scu.o
    0x0000543c   0x0000543c   0x00000024   Code   RO         5607    i.SCU_MCUDBGCR_DBG_ET2_STOP_Setable  fm33g0xx_scu.o
    0x00005460   0x00005460   0x00000024   Code   RO         5609    i.SCU_MCUDBGCR_DBG_ET3_STOP_Setable  fm33g0xx_scu.o
    0x00005484   0x00005484   0x00000024   Code   RO         5611    i.SCU_MCUDBGCR_DBG_ET4_STOP_Setable  fm33g0xx_scu.o
    0x000054a8   0x000054a8   0x00000024   Code   RO         5613    i.SCU_MCUDBGCR_DBG_IWDT_STOP_Setable  fm33g0xx_scu.o
    0x000054cc   0x000054cc   0x00000022   Code   RO         5615    i.SCU_MCUDBGCR_DBG_WWDT_STOP_Setable  fm33g0xx_scu.o
    0x000054ee   0x000054ee   0x00000002   PAD
    0x000054f0   0x000054f0   0x0000001c   Code   RO         7051    i.SystemInit        system_fm33g0xx.o
    0x0000550c   0x0000550c   0x00000028   Code   RO          161    i.TicksDelay        user_init.o
    0x00005534   0x00005534   0x00000028   Code   RO          162    i.TicksDelayMs      user_init.o
    0x0000555c   0x0000555c   0x00000038   Code   RO            3    i.main              main.o
    0x00005594   0x00005594   0x00000020   Data   RO         7296    Region$$Table       anon$$obj.o


    Execution Region RW_IRAM1 (Exec base: 0x20000000, Load base: 0x000055b4, Size: 0x00001268, Max: 0x00006000, ABSOLUTE)

    Exec Addr    Load Addr    Size         Type   Attr      Idx    E Section Name        Object

    0x20000000   0x000055b4   0x00000004   Data   RW         7052    .data               system_fm33g0xx.o
    0x20000004        -       0x00000060   Zero   RW         7169    .bss                c_p.l(libspace.o)
    0x20000064   0x000055b8   0x00000004   PAD
    0x20000068        -       0x00000200   Zero   RW         7042    HEAP                startup_fm33g0xx.o
    0x20000268        -       0x00001000   Zero   RW         7041    STACK               startup_fm33g0xx.o


==============================================================================

Image component sizes


      Code (inc. data)   RO Data    RW Data    ZI Data      Debug   Object Name

        72          8          0          0          0       1086   fm33g0xx_anac.o
        28          6          0          0          0        570   fm33g0xx_flash.o
       636         58          0          0          0      17643   fm33g0xx_gpio.o
        80         18          0          0          0       1586   fm33g0xx_iwdt.o
       738         86          0          0          0      24141   fm33g0xx_rcc.o
       286          0          0          0          0       4450   fm33g0xx_scu.o
        56          4          0          0          0      35239   main.o
        56         26        192          0       4608        676   startup_fm33g0xx.o
        28         12          0          4          0        787   system_fm33g0xx.o
      3066         78          0          0          0      22912   user_init.o

    ----------------------------------------------------------------------
      5060        296        224          4       4608     109090   Object Totals
         0          0         32          0          0          0   (incl. Generated)
        14          0          0          0          0          0   (incl. Padding)

    ----------------------------------------------------------------------

      Code (inc. data)   RO Data    RW Data    ZI Data      Debug   Library Member Name

         8          0          0          0          0         68   __main.o
         0          0          0          0          0          0   __rtentry.o
        12          0          0          0          0          0   __rtentry2.o
         6          0          0          0          0          0   __rtentry4.o
        60          8          0          0          0          0   __scatter.o
        26          0          0          0          0          0   __scatter_copy.o
        28          0          0          0          0          0   __scatter_zi.o
        16          0          0          0          0         68   exit.o
         6          0          0          0          0        136   heapauxi.o
         0          0          0          0          0          0   indicate_semi.o
         2          0          0          0          0          0   libinit.o
         2          0          0          0          0          0   libinit2.o
         2          0          0          0          0          0   libshutdown.o
         2          0          0          0          0          0   libshutdown2.o
         8          4          0          0         96         68   libspace.o
         2          0          0          0          0          0   rtexit.o
        10          0          0          0          0          0   rtexit2.o
        12          4          0          0          0         60   sys_exit.o
        62          0          0          0          0         80   sys_stackheap_outer.o
         2          0          0          0          0         68   use_no_semi.o

    ----------------------------------------------------------------------
       272         16          0          0        100        548   Library Totals
         6          0          0          0          4          0   (incl. Padding)

    ----------------------------------------------------------------------

      Code (inc. data)   RO Data    RW Data    ZI Data      Debug   Library Name

       266         16          0          0         96        548   c_p.l

    ----------------------------------------------------------------------
       272         16          0          0        100        548   Library Totals

    ----------------------------------------------------------------------

==============================================================================


      Code (inc. data)   RO Data    RW Data    ZI Data      Debug   

      5332        312        224          4       4708     106290   Grand Totals
      5332        312        224          4       4708     106290   ELF Image Totals
      5332        312        224          4          0          0   ROM Totals

==============================================================================

    Total RO  Size (Code + RO Data)                 5556 (   5.43kB)
    Total RW  Size (RW Data + ZI Data)              4712 (   4.60kB)
    Total ROM Size (Code + RO Data + RW Data)       5560 (   5.43kB)

==============================================================================

