:020000040000FA
:10000000982200209D010000A5010000A70100002A
:1000100000000000000000000000000000000000E0
:10002000000000000000000000000000A901000026
:100030000000000000000000AB010000AD01000066
:10004000AF010000AF010000AF010000AF010000F0
:10005000AF010000AF010000AF010000AF010000E0
:10006000AF010000992C0000F52C00004D2D000080
:10007000AF010000AF010000AF010000AF010000C0
:10008000AF010000AF010000AF010000AF010000B0
:10009000AF010000AF010000AF010000AF010000A0
:1000A000AF010000AF010000AF0100001512000019
:1000B000AF010000AF010000AF010000AF01000080
:1000C00000F002F800F03EF80CA030C80838241800
:1000D0002D18A246671EAB4654465D46AC4201D180
:1000E00000F030F87E460F3E0FCCB6460126334274
:1000F00000D0FB1AA246AB46334318475C370000DA
:100100007C370000103A02D378C878C1FAD8520779
:1001100001D330C830C101D504680C6070470000BD
:100120000023002400250026103A01D378C1FBD813
:10013000520700D330C100D50B6070471FB51FBDFB
:1001400010B510BD00F0D6FB1146FFF7F7FF03F026
:10015000CFFA00F0EEFB03B4FFF7F2FF03BC00F0B0
:1001600023FC000070B505460C46164602E00FCC95
:100170000FC5103E102EFAD2082E02D303CC03C5B1
:10018000083E042E07D301CC01C5361F03E02178B9
:100190002970641C6D1C761EF9D270BD074880471B
:1001A00007480047FEE7FEE7FEE7FEE7FEE7FEE75B
:1001B00004480549054A064B70470000692B0000BA
:1001C000C100000098100020982200209812002002
:1001D00098120020F8B5042A2CD3830712D00B788C
:1001E000491C0370401C521E83070BD00B78491C1E
:1001F0000370401C521E830704D00B78491C037007
:10020000401C521E8B079B0F05D0C91ADF0020230C
:10021000DE1B08C90AE0FFF7A5FFF8BD1D4608C9A7
:10022000FD401C46B4402C4310C0121F042AF5D2D6
:10023000F308C91A521EF0D40B78491C0370401CF5
:10024000521EEAD40B78491C0370401C012AE4D4E6
:1002500009780170F8BD01E004C0091F0429FBD230
:100260008B0701D50280801CC90700D0027070473F
:1002700000290BD0C30702D00270401C491E02297E
:1002800004D3830702D50280801C891EE3E7002285
:10029000EEE70022DFE7704770477047F0B50C4685
:1002A000871A9C410D46861A9D4103D2C01BA1416D
:1002B000D21963410D0D1F0DC94EEC1BAE435CD02E
:1002C0007F057F0D0026002F51D02D05AC46A94398
:1002D000DD020123ED0A1B051D4320231B1B24D433
:1002E0001746E740381871412F46E740CC199D402A
:1002F0002818314661410C0D27D161449A4013D52D
:100300000023401C594152000ED1400840000122F8
:100310004B005205D34207D305204007C14201D507
:10032000B04900E0B0493046F0BD6B00002A00D073
:1003300001229A181F23203C1B1B01D5002302E039
:10034000E540281871410C0DD7D001242405091966
:10035000C407CD0740084908E40F28436144002C36
:10036000D5D00024401C61419A40D0D1CDE76A0528
:10037000520DD9D1C90FC907D5E79C4D4E000028B1
:1003800001D0012400E0002434195F00002A01D0CC
:10039000012600E00026BE19954FAC420CD8AE42B3
:1003A0000AD8B44206D001256D05EC42BCD01046F7
:1003B0001946F0BD9942FCD000203946F0BDF0B599
:1003C0001FB40C460F46811A9F412546861A9D414F
:1003D00006D20125ED076F40401ABC4152187B41FF
:1003E000210D1E0D8D1BAC467D4D8D437ED07505B8
:1003F0006D0D7CD00D05AE46AC431B031B0B794D38
:1004000052429D41202366469B1B14D31746F7405A
:10041000381800260090744160462F460741E419C1
:1004200000989D402818664116D4714671189A406C
:1004300025D5012320E093182A466A415200002B5B
:1004400000D0521C1E23203E9B1B002B61DD35413A
:10045000EE1728186641E8D5001876415B1C9A40D3
:1004600000D3401C4B05F3181524E34010D3002B98
:1004700052D071467118D30FC01802D3491C05B071
:10048000F0BD0123DB079A42F9D140084000F6E7AE
:1004900001225205B21801D1002853D00123CC0A01
:1004A000DB029943891E002A08D1020C03D0020CFA
:1004B0000004103902E00246002020390023550BC9
:1004C00005D112020823550B01D152010D23550C01
:1004D00001D112011B1DD50C01D192009B1C150DE1
:1004E00001D152005B1C2025EE1A01E02CE022E035
:1004F0000546F54015439840CA1AE10769181305E7
:10050000C918002ABBDA032040070818C10FC90721
:100510000FE071466118B2E7F10740080843711017
:1005200071444A000CD001235B059A42A7D2C90F3F
:10053000C9070020A3E74905490D26D1002001E0A5
:100540000028F4D100219AE7284D6600002801D048
:10055000012100E0002171185F00002A01D001266E
:1005600000E00026BE19224FA94210D8AE420ED894
:10057000B14208D001256D05E94206D01946A8020E
:10058000414010467BE79C4201D0214677E700209E
:10059000394674E710B50C465C4005D50124E407E4
:1005A0006340FFF70CFF10BDFFF778FE10BD30B4BD
:1005B0000C465C4004D50124E407634030BC6DE682
:1005C00030BCFCE670B50124E40761400D465D4097
:1005D00002D4FFF763FE70BD6340FFF7F0FE70BD0D
:1005E000FF0700000000F0FF0000F07F0000E0FFC8
:1005F0000000F87F0346CA02400D10B510430A15EB
:1006000004D00124E4072043002A05DB0A4CA21A87
:1006100004D4D040FF2A00DD002010BD4A00002B8A
:1006200001D0012000E00020101801225205D04224
:10063000F2D8C817C04310BD1E0400000121C9052F
:100640000123411842001B06D3185B0E0AD0C110CB
:100650000722D206891840075242D14201D55200E2
:1006600089187047090208D50146002A03D0C10F36
:10067000C9070020704710467047420202D0002090
:1006800002497047072109050143F4E70000F87F9C
:10069000F0B5FF252D04C609C209FF2704462E40E8
:1006A0000137CB093E4348402A402B400746002AE9
:1006B0006BD0002B69D0AA4267D0AB4265D000282E
:1006C00000DA32460125ED0529432C4309022002B8
:1006D000090AD21A4B0C7F24E31A434C000A7C44CB
:1006E000E35C7D242404121914145B00A2188842D0
:1006F00001D3521C00E0400049420C465C432411E7
:100700005C43DB016415E318040A5C43C502200D59
:100710000C4644436419250A5D432303EC0C0D4643
:10072000654300030019EB184C42A34201D35B1848
:10073000401CD4052018002B07D05B00C91804D337
:10074000401C002901D1400840003F2189048A4211
:1007500009D3002A08DC1106090F04D00321490738
:100760004018C00FC007F0BD0122410012068918D1
:100770007F2252069142F6D205214907C84201D58F
:100780009010F0BDFF20C005F0BD002F00DA32460A
:100790001648AA4207D2AB4205D21902090E17D059
:1007A000F80FC007F0BDFF2563002D06AB42F9D856
:1007B0004900A942F6D8AB4201D1A942F2D0A942E0
:1007C00001D1002101E061004908D0050843F0BDD6
:1007D0001102090EFBD0FF200243D005F0BD0A46EE
:1007E0000146104654E70000363100000000C07F8B
:1007F0001F22030C02D10F2200041CD0030E01D1D2
:100800000002083A030F01D10001121F830F01D12A
:100810008000921E002801DB4000521ED2055118B4
:10082000021251181922904004D3491C002801D10A
:100830004908490008467047C10FC90700D0404227
:10084000012292071143D3E701218907D0E7000075
:1008500010B5FF231B0644009C421DD84C009C424F
:100860001AD80346124A0B4307D4401A02D3EFF3B7
:10087000008010BDEFF3008010BD081A06D2EFF320
:10088000008001219043C907084302E0EFF3008094
:10089000904380F3008810BD0D231B041A4204D03E
:1008A0001146002000F006F810BD00F01BF810BD46
:1008B00000000090C80212D54803400F002804D061
:1008C000C803C043012188407047EFF30080000156
:1008D000000903210907084380F3008870470020BE
:1008E0007047000010B5024800F02BF810BD000062
:1008F0000000C07F754600F053F8AE46050069461B
:100900005346C008C000854618B020B5FFF750FC1C
:1009100060BC00274908B6460026C0C5C0C5C0C592
:10092000C0C5C0C5C0C5C0C5C0C5403D49008D4695
:10093000704710B50446C046C0462046FFF70BFC82
:1009400010BD10B50C461107090F092904D00A295A
:100950000AD008290CD104E011460820FFF7AAFFAD
:1009600006E0510606D501E0510601D50120C00779
:10097000214610BDD10607D501010909CC08490758
:10098000000E0006044309E0410F20024907000A57
:100990000143200E00061D22D14101430846E7E72E
:1009A000004870473410002001491820ABBEFEE714
:1009B0002600020070470000012806D10649496858
:1009C00001221143044A516005E00349496849087E
:1009D0004900014A5160704700280140012806D1B2
:1009E0000649096801221143044A116005E00349E0
:1009F000096849084900014A116070470028014010
:100A00007FB506460D4614466A462946304601F033
:100A100005F80098A84227D16846C079002823D15C
:100A2000E007C00F002803D16846407900281BD199
:100A3000E007C00F002803D068464079012813D191
:100A400002202040002803D16846807900280BD17D
:100A500002202040002803D068468079012803D175
:100A60006846007902281DD0029500206946C873A7
:100A7000E007C00F002801D1487302E00120694659
:100A8000487302202040002802D16946887302E0A2
:100A900001206946887302206946087302A930461E
:100AA00001F03EF87FBD000001460846FF22120219
:100AB0000240120A03061B0C1A4310460C4A02405D
:100AC00012090C4B03401B011A4310460A4A02400C
:100AD00092080A4B03409B001A431046084A024002
:100AE0005208084B03405B001A4310467047000051
:100AF000F0F000000F0F0000CCCC000033330000FA
:100B0000AAAA000055550000F8B503460C4600207F
:100B100000906220174E7060304683600020F060C5
:100B200000211EE0605C134E30600025124EB0695B
:100B300000BF104E766808273E40002E01D10125E7
:100B400008E00D4EB669861B3602360A1927BF012A
:100B5000BE42EED300BF002D01D10848F8BD481CAD
:100B600081B29142DEDB0348006880B200900098B9
:100B7000F4E700000000014000E000E0FFFF00009B
:100B800002461068884202D01160012070470020A0
:100B9000FCE710B504460021204602F0BFF900280A
:100BA00008D10021204602F0EFF9012802D12046A9
:100BB00002F030FA0121204602F0B0F9002808D1F5
:100BC0000121204602F0E0F9012802D1204602F07E
:100BD000F1F910BD00B507490748FFF7D1FF0549F6
:100BE0000548001DFFF7CCFF024903480830FFF716
:100BF000C7FF00BD0000FFFFE00C004010B5FFF78D
:100C0000E9FF002000F054FF002000F063FF032004
:100C100000F0F6FE00F0DDFF00F0EFFF01F03BF822
:100C20000121BC4800F05CFA0221BA4800F058FAF1
:100C30000421B84800F054FA0821B64800F050FAF0
:100C40001021B44800F04CFA2021B24800F048FAD4
:100C50004021B04800F044FA8021AE4800F040FA4C
:100C6000FF210131AB4800F03BFA01214902A948BC
:100C700000F036FA01218902A64800F031FA01217C
:100C8000C902A44800F02CFA01210903A14800F090
:100C900027FA012149039F4800F022FA0121890324
:100CA0009C4800F01DFA0121C9039A4800F018FA87
:100CB00001219848203000F013FA02219548203095
:100CC00000F00EFA04219348203000F009FA0821C0
:100CD0009048203000F004FA10218E48203000F0B7
:100CE000FFF920218B48203000F0FAF94021894893
:100CF000203000F0F5F980218648203000F0F0F92E
:100D0000FF2101318348203000F0EAF90121490236
:100D10008048203000F0E4F9012189027D4820302C
:100D200000F0DEF90121C9027A48203000F0D8F93C
:100D3000012109037748203000F0D2F9012149034D
:100D40007448203000F0CCF901218903714820302B
:100D500000F0C6F90121C9036E48203000F0C0F947
:100D600004216C48403000F0BBF90821694840304C
:100D700000F0B6F910216748403000F0B1F92021A9
:100D80006448403000F0ACF940216248403000F047
:100D9000A7F980215F48403000F0A2F9FF2101311E
:100DA0005C48403000F09CF901214902594840302C
:100DB00000F096F9012189025648403000F090F980
:100DC0000121C9025348403000F08AF9012109038A
:100DD0005048403000F084F9012149034D4840302B
:100DE00000F07EF9012189034A48403000F078F98B
:100DF0000121C9034748403000F072F901214548FC
:100E0000603000F06DF902214248603000F068F96E
:100E100004214048603000F063F908213D4860300B
:100E200000F05EF910213B48603000F059F92021B4
:100E30003848603000F054F940213648603000F006
:100E40004FF980213348603000F04AF904213148DD
:100E5000803000F045F908212E48803000F040F93C
:100E600010212C48803000F03BF908212948A0309F
:100E700000F036F910212748A03000F031F9202188
:100E80002448A03000F02CF940212248A03000F086
:100E900027F90121C9021F48A03000F021F90121E2
:100EA00009031C48A03000F01BF90121490319482F
:100EB000A03000F015F9012189031648A03000F098
:100EC0000FF90121C9031348A03000F009F90421EA
:100ED0001048C03000F004F908210E48C03000F07E
:100EE000FFF840210B48C03000F0FAF88021094893
:100EF000C03000F0F5F80022FF2101310548C03074
:100F0000FFF77EFD0022012149020248C030FFF7B1
:100F100077FD10BD000C004010B501216F4800F0B6
:100F2000DFF802216D4800F0DBF8FF2101316B484A
:100F3000203000F0D5F8012149026848203000F047
:100F4000CFF8012189026548203000F0C9F801215D
:100F5000C9026248203000F0C3F8012109035F484C
:100F6000203000F0BDF8012149035C48203000F03A
:100F7000B7F8012189035948203000F0B1F8012168
:100F8000C9035648203000F0ABF8012153484030E7
:100F900000F0A6F802215148403000F0A1F82021CD
:100FA0004E48403000F09CF840214C48403000F062
:100FB00097F880214948403000F092F8FF21013134
:100FC0004648403000F08CF8012149024348403047
:100FD00000F086F8012189024048403000F080F896
:100FE0000121C9023D48403000F07AF8012109038F
:100FF0003A48403000F074F8012149033748403046
:1010000000F06EF8012189033448403000F068F8A0
:101010000121C9033148403000F062F801212F4816
:10102000603000F05DF802212C48603000F058F884
:1010300004212A48603000F053F8802127486030AE
:1010400000F04EF8FF2101312448603000F048F8EC
:10105000012149022148603000F042F80121890253
:101060001E48603000F03CF801211C48803000F040
:1010700037F802211948803000F032F81021174863
:10108000803000F02DF820211448803000F028F83E
:10109000012189021148803000F022F80121C902A3
:1010A0000E48803000F01CF8012109030B48803005
:1010B00000F016F8012149030848803000F010F8CC
:1010C000012189030548803000F00AF80121C90395
:1010D0000248803000F004F810BD0000400C0040D1
:1010E0007CB504460D466A462946204600F096FC2B
:1010F00068460079012809D02946204600F05CFDA9
:1011000001222946204601F0EDF908E00122294696
:10111000204601F0E7F92946204600F04DFD7CBD50
:1011200010B572B61B2001F04DF90021354800F0D2
:10113000FDF90021344801F0E1FA08213348FFF7B6
:10114000CFFF10213148FFF7CBFF092001F03AF91A
:10115000002201212E4801F0F7FE002211462C4802
:1011600001F0F2FE00212A4801F0D3FF00212848B7
:1011700001F099FF012125488038FFF7B1FF0221D6
:1011800022488038FFF7ACFF0A2001F01BF900224B
:1011900001211F48203001F0D7FE002211461C48D3
:1011A000203001F0D1FE00211948203001F0B1FFBC
:1011B00000211748203001F076FF042113488038C1
:1011C000FFF78EFF082111488038FFF789FF0B20B9
:1011D00001F0F8F8002201210D48403001F0B4FE82
:1011E000002211460A48403001F0AEFE00210848B6
:1011F000403001F08EFF00210548403001F053FFE0
:1012000010BD0000B030014003000004A00C0040FD
:101210000C20014010B5A14800F0EAF9A048008870
:10122000401C9F490880002473E09E4860439E490B
:101230004018012189024018C088002867D09948C9
:10124000604399494018012189024018C088401E16
:1012500081B294486043944A801801229202801817
:10126000C180904860439049401811464018C0889A
:1012700000284CD1002C09D1002201218B4801F01B
:1012800063FE01220021894801F05EFE012C0FD18E
:10129000002201218548203801F056FE012200215C
:1012A0008248203801F050FE0221814800F084FC81
:1012B000022C0BD1002201217C48403801F044FE71
:1012C000012200217948403801F03EFE0021754896
:1012D0006043754A8018012292028018817071481B
:1012E0006043714A8018012292028018C1706D48D3
:1012F00060436D4A8018012292028018017169488A
:101300006043694A80180122920280180181601CA2
:10131000C4B2032C89DB0024BBE06248604362490D
:101320004018012189024018007900287ED05D48CC
:1013300060435D4940180121890240180079401E30
:10134000C1B258486043584A80180122920280185E
:1013500001715448604354494018114640180079BF
:10136000002863D14F4860434F4940181146401848
:10137000C07888210840002877D0002C10D1494837
:101380006043494A115C494801F0A8FE0022114619
:10139000464801F0D9FD01221146444801F0D4FD30
:1013A000012C17D10221424800F004FC3D48604363
:1013B0003D4A115C3D48203801F090FE0022114664
:1013C0003A48203801F0C0FD012211463748203844
:1013D00001F0BAFD022C13D132486043324A115C4D
:1013E0003248403801F07AFE002211462F4840383A
:1013F00001F0AAFD012211462C48403801F0A4FD5D
:10140000012128486043284A80188A0280180181F7
:10141000244860432449401811464018C0780821E8
:101420000840002816D01F48604300E02FE01E4906
:101430004018407801021B4860431B4A801880789E
:101440000818C01D81B2174860438018012292021B
:10145000801801807D2113486043134A80180122BF
:1014600092028018C18012E0FFE70E4860430E49E7
:1014700040180121890240180079401CC1B2094876
:101480006043094A80180122920280180171601C91
:10149000C4B2032C00DA40E710BD0000B0300140B8
:1014A000020000200A0400000C0000204C20014033
:1014B000200C00408AB242617047012904D10268C1
:1014C00004231A43026003E0026804239A43026083
:1014D00070470A46016849084900D307DB0F1943E2
:1014E0000160704710B50A46016808240B46A34303
:1014F0001946082313401943016010BD012904D186
:10150000026802231A43026003E0026802239A433E
:1015100002607047012904D1026820231A43026047
:1015200003E0026820239A4302607047012904D136
:10153000026880231A43026003E0026880239A4312
:101540000260704710B50A46016810240B46A34399
:101550001946102313401943016010BD012904D11D
:1015600002684B021A43026004E0026801235B0236
:101570009A430260704710B50A46016840240B4642
:10158000A3431946402313401943016010BD0129AC
:1015900004D102680B021A43026004E00268FF23D0
:1015A00001339A4302607047012904D18269022302
:1015B0001A43826103E0826902239A438261704781
:1015C000012904D1826904231A43826103E08269FC
:1015D00004239A4382617047012904D1826901235F
:1015E0001A43826103E082695208520082617047A7
:1015F0000121C16170470A46416889088900930743
:101600009B0F19434160704710B50A4641681C247E
:101610000B46A34319461C2313401943416010BDD8
:1016200010B50A46416840240B46A343194640239F
:1016300013401943416010BD10B50A46416880242B
:101640000B46A3431946802313401943416010BD44
:101650008AB202617047CAB282607047CAB2C26081
:10166000704730B505460C4628462168FFF7D8FF7D
:1016700028466168FFF7E0FF2846A168FFF7BBFF37
:101680002846E168FFF7C0FF28462169FFF7E3FF1E
:1016900028466169FFF7E2FF217E2846FFF75EFFDB
:1016A0002846E169FFF767FF2020015D2846FFF724
:1016B00031FF2846616AFFF745FF2820015D284673
:1016C000FFF765FF2846E16AFFF70CFF3020015D58
:1016D0002846FFF7F2FE3120015D2846FFF70EFF96
:1016E0002846616BFFF7F5FE2846A16BFFF7B0FFB8
:1016F0002846E16BFFF7DEFE4020015D2846FFF73C
:101700005FFF4120015D2846FFF74EFF4220015D4B
:101710002846FFF761FF4320015D2846FFF706FFDB
:1017200030BD00000146054A506940084000CA0724
:10173000D20F1043014A5061704700000010004072
:101740000146064A506903231B0202469A4310468B
:101750001A460A401043014A506170470010004089
:101760000146064A5069022302469A431046022265
:101770000A401043014A50617047000000100040C9
:1017800010B504460020FFF7DBFF0120FFF7CAFF7A
:10179000094800F03BF8094800F038F80848206094
:1017A00000E000BF00F00EF80128FAD100F016F8B2
:1017B000002000F02BF810BD96969696EAEAEAEA29
:1017C000CDAB34120448006AC007C00F002801D016
:1017D000012070470020FCE7001000400120014973
:1017E00008627047001000400448006A0221084067
:1017F000002801D0012070470020FCE700100040C5
:1018000002200149086270470010004001498861C8
:1018100070470000001000400146054A106880082B
:1018200080008A07920F1043014A10607047000041
:1018300000100040F0B504460E4617460220FFF7A0
:101840008FFF0F48FFF7E2FF0E48FFF7DFFF00258D
:101850000FE00220FFF784FF705D2070641C00E041
:1018600000BFFFF7C1FF0028FAD0FFF7C9FF681CCF
:1018700085B2BD42EDDB0020FFF7C8FFF0BD0000E0
:10188000A5A5A5A5F1F1F1F1F8B505460F46002093
:101890000090202D01DA0220F8BD6E020F48874229
:1018A00003D101210E4800F029FF3046FFF768FF01
:1018B00000210B4800F022FF002409E0A00030586E
:1018C000401C002802D00120009003E0601C84B27C
:1018D000802CF3DB00BF0098DEE700000FF0AB12B6
:1018E00005000002FFB583B005460E4617460020EE
:1018F0000290019511490698884203D101211048B0
:1019000000F0FCFE3A4631462846FFF793FF0021DF
:101910000B4800F0F3FE002409E00198005D315D02
:10192000884202D00120029003E0601C84B2BC42D5
:10193000F3DB00BF029807B0F0BD00000FF0AB1260
:10194000050000020146054A106840084000CA0729
:10195000D20F1043014A106070470000000D004094
:101960000146064A1068022302469A4310460222A4
:101970000A401043014A106070470000000D00400B
:101980000146064A1068042302469A431046042280
:101990000A401043014A106070470000000D0040EB
:1019A0000146064A1068082302469A431046082258
:1019B0000A401043014A106070470000000D0040CB
:1019C0000146064A1068102302469A431046102228
:1019D0000A401043014A106070470000000D0040AB
:1019E0000146064A1068202302469A4310462022E8
:1019F0000A401043014A106070470000000D00408B
:101A00000146054A906B000900010A07120F1043B6
:101A1000014A906370470000C00C0040F0B50446D6
:101A20000025002307E001269E400E403546002D8C
:101A300000D002E05B1C102BF5D300BF102B36D278
:101A40001D46116026680E403046E840012802D14C
:101A50000126D67101E00026D67166680E40EE4080
:101A60003046012801D1967101E000269671A668E2
:101A70000E40EE403046012801D1567101E00026AB
:101A80005671E6686F00FE40B007800F002802D153
:101A9000002616710BE0012802D10126167106E01E
:101AA000022802D10226167101E003261671F0BD4C
:101AB000012806D10649C96B01221143044AD163AA
:101AC00005E00349C96B49084900014AD1637047E1
:101AD000C00C0040012806D10649C96B02221143FF
:101AE000044AD16305E00349C96B02229143014ACC
:101AF000D1637047C00C0040012907D1074A5268E2
:101B0000012383401A43054B5A6006E0034A52689A
:101B1000012383409A43014B5A607047000D0040F7
:101B2000F0B502460B4600210024002500BF2DE041
:101B300001268E4034461E6826403546A54224D1F3
:101B400010680646A6433046DE798E40304310606A
:101B500050680646A64330469E798E40304350601A
:101B600090680646A64330465E798E4030439060CA
:101B70004F000326BE403446D0680646A643304692
:101B80001E794F00BE403043D060491C1029CFD38E
:101B9000F0BD0000012905D1054A92680243044BBB
:101BA0009A6004E0024A92688243014B9A6070474F
:101BB000000D0040816170474161704702690A4031
:101BC000002A01D0816100E0416170478AB2026160
:101BD000704710B50020FFF703FF0020FFF7F0FE6D
:101BE0000020FFF7DDFE0020FFF7CAFE0020FFF710
:101BF000B7FE0020FFF7A6FE10BD10B5002117208C
:101C0000FFF77AFF00211120FFF776FF0021102057
:101C1000FFF772FF00210F20FFF76EFF00210E205B
:101C2000FFF76AFF00210D20FFF766FF00210C205F
:101C3000FFF762FF00210B20FFF75EFF00210A2063
:101C4000FFF75AFF00210920FFF756FF0021082067
:101C5000FFF752FF00210720FFF74EFF002106206B
:101C6000FFF74AFF00210520FFF746FF002104206F
:101C7000FFF742FF00210320FFF73EFF0021022073
:101C8000FFF73AFF00210120FFF736FF0021084649
:101C9000FFF732FF10BD10B500218020FFF77AFF5B
:101CA00000214020FFF776FF00212020FFF772FF80
:101CB00000211020FFF76EFF00210820FFF76AFFC8
:101CC00000210420FFF766FF00210220FFF762FFDA
:101CD00000210120FFF75EFF10BD0000014802490E
:101CE000086070475A5A3412001401400146054AF0
:101CF0005068800880008A07920F1043014A5060A4
:101D00007047000000140140012806D106494968C7
:101D100004221143044A516005E003494968042242
:101D20009143014A516070470014014010B50121F0
:101D3000054800F0E3FCFFF7D1FF0220FFF7D6FFD4
:101D40000020FFF7E1FF10BD0500000100B591B0D4
:101D500001211C4800F0D2FC00200090802001905E
:101D6000002002900820039000200490059001209C
:101D7000694608760021079106A80172099101744D
:101D80000B91017641760D910EA8017241720121ED
:101D900081720D490E9100210F91C1721B2000F03C
:101DA00011FB02211B2000F025FB1B2000F016FB7D
:101DB00069460648FFF755FC01210448FFF7B6FBCA
:101DC00011B000BD03000004FF820000B0300140EC
:101DD0001FB5FF20F430009000200290019069466A
:101DE0000873684600F024FD002000F0E1FC1FBDF0
:101DF00010B500211048FFF7E9FE00210E48203001
:101E0000FFF7E4FE00210C484030FFF7DFFE002121
:101E100009486030FFF7DAFE002107488030FFF7FD
:101E2000D5FE00210448A030FFF7D0FE0021024873
:101E3000C030FFF7CBFE10BD000C004010B50121F3
:101E4000654800F05BFC01216348153800F056FC42
:101E500001216148163800F051FC01215E48173815
:101E600000F04CFC01215C48183800F047FC0121CF
:101E70005948193800F042FC012157481A3800F03F
:101E80003DFC012154481B3800F038FC0121524828
:101E90001C3800F033FC01214F481D3800F02EFCA7
:101EA00001214D481E3800F029FC0121080600F0F0
:101EB00025FC0121494800F021FC01214748401E32
:101EC00000F01CFC00214548801E00F017FC00219A
:101ED0004248C01E00F012FC01214048001F00F0E3
:101EE0000DFC01213D48401F00F008FC01213B484A
:101EF000801F00F003FC01213848C01F00F0FEFBEA
:101F00000121480600F0FAFB0121354800F0F6FBFC
:101F100001213348401E00F0F1FB01213048C01F71
:101F200000F0ECFB01212E48083800F0E7FB01210E
:101F30002B48093800F0E2FB012129480A3800F05B
:101F4000DDFB012126480B3800F0D8FB0121244895
:101F50000C3800F0D3FB012121480D3800F0CEFBF6
:101F600001211F480E3800F0C9FB01211C480F3821
:101F700000F0C4FB01211A48103800F0BFFB01211A
:101F80001748163800F0BAFB01211548173800F041
:101F9000B5FB01210320000600F0B0FB0121114830
:101FA00000F0ACFB01210F48401E00F0A7FB01210F
:101FB0000C48801E00F0A2FB01210A48C01E00F060
:101FC0009DFB01210748001F00F098FB01218806B6
:101FD00000F094FB10BD00001F000001080000028B
:101FE000180000030500000400B587B0002005902C
:101FF00001216846017605A800F068FC00200090E9
:1020000001900290039001216846017400214174FF
:1020100000F0E2FC07B000BD10B50020FFF7FCFBAC
:10202000FFF7D6FEFFF7E0FFFFF708FF002000F004
:1020300057FB0120FEF7D2FC0020FEF7BDFC01207B
:1020400000F0DFFC10BD000010B501242406601E66
:102050000146884200D90CE0601E0849486103210E
:10206000081F00F003FA0020044988610720086176
:1020700000BF05200149086110BD000000E000E03C
:1020800010B572B6FFF752FEFFF728FEFFF7DCFF30
:1020900000210A2000F084FDFFF7BEFF012000F0C0
:1020A000F3FAFFF7A5FEFEF737FFFEF7A7FD0021C5
:1020B000642000F075FD052000F066F910BD0000F9
:1020C00070B504460D4600267D21AD486043AD4AFB
:1020D0008018012292028018C180A9486043A94952
:1020E0004018114640188078030001F0F3FA080503
:1020F0002D50FAFA6798C9FA682D23D1A048604399
:10210000A0494018012189024018C078F0210840F8
:102110009B4961439B4A8918012292028918C87021
:10212000012197486043974A80188A02801881707D
:10213000002193486043934A80180122920280183C
:10214000018100E0AA26CEE08D4860438D49401809
:102150000121890240180089022817DB8848604362
:102160008849401840780002401981B28448604391
:10217000844A80180122920280180180022180483E
:102180006043804A80184A0280188170ABE0682D55
:1021900012D100217A4860437A4A801801229202C3
:1021A0008018C170052176486043764A8018012264
:1021B00092028018817000E0AA2694E07048604383
:1021C0007049401801218902401801896C48604318
:1021D0006C4A80180122920280180088C01C81423B
:1021E00008D1062166486043664A8018012292029F
:1021F0008018817062486043624940180121890259
:10220000401801895E4860435E4A801801229202AC
:1022100080180088C01C814200DDAA2663E058486F
:1022200060435849401801218902401801895448E7
:102230006043544A80180122920280180088401D91
:10224000814208D107214E4860434E4A801801223E
:102250009202801881704A4860434A49401801211F
:1022600089024018018946486043464A8018012285
:10227000920280180088401D814200DDAA2632E0CB
:10228000162D2CD108213E4860433E4A8018CA01D1
:102290008018817000213A4860433A4A8018012230
:1022A00092028018C1800F2135486043354A80185A
:1022B000012292028018017131486043314940186F
:1022C00011464018C078042108432D4961432D4A26
:1022D0008918012292028918C87001E001E0AA263B
:1022E00001E0AA2600BF00BF002E1DD12448604394
:1022F0002449411822486043224A80180122920250
:10230000801800890D541E4860431E49401811462C
:1023100040180089401C81B219486043194A80184E
:102320000122920280180181204601F09BF80028CA
:1023300000D0AA26AA2E19D1002111486043114AC3
:10234000801801229202801881700D4860430D4967
:10235000401811464018C078FC21084008496143E4
:10236000084A8918012292028918C87004486043FB
:1023700004494018012189024018807870BD00008E
:102380000A0400000C00002070B50446002513E08C
:10239000012189030A48FFF70DFC0021642000F0A9
:1023A000FFFB012189030648FFF706FC002164209A
:1023B00000F0F6FB681CC5B2A542E9DB70BD000069
:1023C000400C0040002805DBC206D20E01219140DE
:1023D000014A11607047000080E100E0002805DB41
:1023E000C206D20E01219140014A116070470000DF
:1023F00000E100E010B5002819DB1A4A03231B0294
:10240000D21883089B00D2588307DC0EFF23A34019
:102410009A438B071B0E8407E40EA3401A43114B0B
:10242000032424021B198408A4001A5118E00E4A40
:1024300003071B0F083B9B089B00D2588307DC0E49
:10244000FF23A3409A438B071B0E8407E40EA3408F
:102450001A43054B0407240F083CA408A4001A5192
:1024600010BD000000E100E01CED00E010B5002808
:1024700019DB1A4A03231B02D21883089B00D25887
:102480008307DC0EFF23A3409A438B071B0E8407B0
:10249000E40EA3401A43114B032424021B198408A1
:1024A000A4001A5118E00E4A03071B0F083B9B08B3
:1024B0009B00D2588307DC0EFF23A3409A438B076F
:1024C0001B0E8407E40EA3401A43054B0407240F98
:1024D000083CA408A4001A5110BD000000E100E06F
:1024E0001CED00E07FB506460D4614466A462946B7
:1024F0003046FFF793FA0098A84217D16846C07992
:10250000002813D1002C03D16846407900280DD152
:10251000012C03D168464079012807D168468079AB
:10252000002803D168460079012813D002950020C5
:102530006946C873002C01D1487302E00120694646
:1025400048730021684681730121017302A9304656
:10255000FFF7E6FA7FBD000010B502460023002415
:102560000020D060106110605060906000F088F929
:10257000012807D100F06CF903461B0C581C414997
:102580004843D06000F008F9012819D100F022F981
:1025900003465B08012B02D0022B06D102E07D240A
:1025A000240205E0D068040A02E00124E40300BF2D
:1025B00000BF00F0D7F803461B0C581C60431061A5
:1025C00000F0F4F9034600BF002B06D0012B07D022
:1025D000022B09D0032B0ED10AE0D06810600DE069
:1025E0007D200003106009E00120C003106005E0B9
:1025F0001069106002E0D068106000BF00BF00F0FA
:102600006FF903461B0A042B06D0052B08D0062BB6
:102610000AD0072B10D10BE01068400850600EE084
:102620001068800850600AE01068C008506006E03A
:1026300010680009506002E01068506000BF00BFE1
:1026400000F066F903461B0C042B06D0052B08D0BE
:10265000062B0AD0072B10D10BE050684008906081
:102660000EE05068800890600AE05068C0089060F2
:1026700006E050680009906002E05068906000BF7A
:1026800000BF10BD00127A0010B50446012C02D123
:102690001248036813E0022C03D110484038C36B82
:1026A0000DE0032C03D10D484038836B07E0042C68
:1026B00003D10A484038036901E008480368180C50
:1026C000D94389B2884204D15806400E00F0F6F88A
:1026D00002E0402000F0F2F810BD000040FDFF1FB6
:1026E0000146054A506840084000CA07D20F10430F
:1026F000014A5060704700004002004030B5024679
:102700000B4600200F2424061440FF252D066419D3
:10271000002C09D06419002C08D06419002C08D0B2
:102720006419002C0BD107E00D4809E00C48001D8E
:1027300006E00B48083003E009480C3000E000BF19
:1027400000BF00280BD0D2B201219140002B03D052
:1027500004680C43046002E004688C43046030BDEC
:102760002802004002488069024908407047000082
:10277000000200400000FF030146054A9069054A37
:102780001040D2430A401043014A90617047000054
:1027900000020040FFFF00FC04488069C007C00F32
:1027A000002801D0012070470020FCE70002004013
:1027B000012806D10649896901221143044A916121
:1027C00005E00349896949084900014A9161704758
:1027D000000200400248806906210840704700005E
:1027E000000200400146064A9069062302469A43C9
:1027F000104606220A401043014A906170470000CB
:10280000000200400146064A9069082302469A43A6
:10281000104608220A401043014A906170470000A8
:102820000002004000B503461804FFF7A5FF00BDF5
:1028300010B504462068FFF7F5FF6068FFF7E2FF78
:10284000A068FFF7CFFF207BFFF7B2FF10BD0000AD
:10285000024800690F210904084070470002004047
:102860000146064A10690F231B0402469A4310468C
:102870001A460A401043014A1061704700020040A6
:1028800004480069C007C00F002801D0012070472C
:102890000020FCE700020040012806D10649096932
:1028A00001221143044A116105E0034909694908FD
:1028B0004900014A11617047000200404106490E7B
:1028C000014A5161704700000002004010B5044603
:1028D0002068FFF7C5FF2079FFF7DEFF10BD00007D
:1028E0000248C06807210902084070470002004002
:1028F0000146064AD06807231B0202469A43104647
:102900001A460A401043014AD06070470002004056
:102910000248C068072109040840704700020040CF
:102920000146064AD06807231B0402469A43104614
:102930001A460A401043014AD06070470002004026
:102940000146064AD068D30302469A4310461A4607
:102950000A401043014AD060704700000002004066
:10296000012806D10649C968C2071143044AD1604B
:1029700005E00349C96849004908014AD160704728
:1029800000020040012806D10749C96842061143E8
:10299000054AD16006E00449C96801225206914304
:1029A000014AD16070470000000200400248C06840
:1029B0008007800F70470000000200400146054A72
:1029C000D068800880008A07920F1043014AD060C7
:1029D000704700000002004010B504462068FFF771
:1029E000EDFF6068FFF784FFA068FFF799FFE068DC
:1029F000FFF7A6FF207CFFF7C5FF607CFFF7B0FF65
:102A000010BD10B50446012C05D100F09BF8012043
:102A100000F086F805E0002000F094F8002000F0B7
:102A20007FF8002000F06AF8002000F055F8002040
:102A300000F040F8002000F02BF8002000F016F81D
:102A4000002000F001F810BD012806D18107496877
:102A5000020211438207516007E00121890749689A
:102A6000FF2201329143920551607047012806D13F
:102A700081074968420211438207516007E0012142
:102A800089074968012252029143520551607047FB
:102A9000012806D1810749688202114382075160EB
:102AA00007E001218907496801229202914312053A
:102AB00051607047012806D181074968C20211435D
:102AC0008207516007E00121890749680122D2028B
:102AD0009143D20451607047012806D181074968AB
:102AE000020311438207516007E001218907496809
:102AF000012212039143920451607047012806D1CC
:102B000081074968420311438207516007E00121B0
:102B1000890749680122520391435204516070476A
:102B2000012806D1810749680122114382075160BB
:102B300007E00121890749684908490001229207F5
:102B400051607047012806D181074968022211436C
:102B50008207516006E001218907496802229143FA
:102B600052075160704700000148024908607047F1
:102B700000127A0008000020084A916900BF0F2265
:102B80001205904200D9104600BF044A92698A1A81
:102B90001202120A8242F8D37047000000E000E0FF
:102BA00070B504460D467D26B60109E0002D03D020
:102BB000A847002800D070BD3046FFF7DDFF641E37
:102BC000002CF3D100BFF6E770B504462F486043F0
:102BD0002F49401801218902401801892B48604380
:102BE0002B4A80180122920280180088814208DB5B
:102BF000022126486043264A80184A028018C18074
:102C000043E0224860432249411820486043204A5B
:102C1000801801229202801800890D5C002C04D1DA
:102C200029461C4800F05AFA14E0012C08D1294624
:102C30001848203800F052FA16484C38856309E0ED
:102C4000022C07D129461348403800F047FA1148B2
:102C50004C3885610D4860430D49401801218902B7
:102C600040180089401C81B208486043084A801817
:102C700001229202801801817D2104486043044AA8
:102C80008018012292028018C18070BD0A040000E1
:102C90000C0000204C20014010B50021144800F029
:102CA0003DF901280DD10021114800F06DF90128EE
:102CB00007D10F4800F0AEF9C4B221460220FFF759
:102CC000FFF901210A4800F029F901280BD101215F
:102CD000074800F059F9012805D10220FFF774FFD9
:102CE000034800F067F90248FDF753FF10BD0000EC
:102CF0000C20014010B50021134800F00FF9012805
:102D00000DD10021104800F03FF9012807D10E48ED
:102D100000F080F9C4B221460120FFF7D1F901216A
:102D2000094800F0FBF801280AD10121064800F00B
:102D30002BF9012804D1FFF747FF034800F03AF9C7
:102D40000148FDF726FF10BD2C20014010B50021E1
:102D5000144800F0E3F801280DD10021114800F0DB
:102D600013F9012807D10F4800F054F9C4B22146E5
:102D70000020FFF7A5F901210A4800F0CFF801284B
:102D80000BD10121074800F0FFF8012805D10020F0
:102D9000FFF71AFF034800F00DF90248FDF7F9FEAE
:102DA00010BD00004C200140F3B585B00F460598DA
:102DB000FDF74AFD05463846FDF746FD064629461D
:102DC000FDF766FC04907F21C905049800F0F8FC2B
:102DD00013D20498FDF732FC05460022094BFDF79B
:102DE000E6FB0022084B01910090FDF7D3FB039115
:102DF0000290FDF7FFFB044600E00024204607B0E8
:102E0000F0BD00000000F03F0000E03F30B5054697
:102E10000C462846616800F052F92846A16800F087
:102E200027F92020015D284600F0D0F828462169C6
:102E300000F063F9217B284600F0F0F8284661692C
:102E400000F073F92846E16900F03CF9227800218E
:102E5000284600F079F862780121284600F074F8DD
:102E60002120015D284600F0BDF82220015D2846A2
:102E700000F0C4F8617B284600F015F9217E284651
:102E800000F047F9617E284600F02BF930BD70B59F
:102E90008AB006460C46154629462068FFF784FF8F
:102EA0000290002008A90871207901280ED16079CC
:102EB000012802D14020039013E06079022802D15A
:102EC000802003900DE0002003900AE02079022882
:102ED00002D1C020039004E000200390012008A943
:102EE0000871A079002801D1059001E040200590EB
:102EF0000021684601714171017420200690002074
:102F0000089008A841718171684641740177417742
:102F100001A93046FFF77AFF0AB070BD30B502460E
:102F2000084C141B2309002900D15B1C054C0C3CE8
:102F3000246801259D402C40002C01D0012000E098
:102F4000002030BD0C20014030B503460D4C1C1B49
:102F50002009002900D1401C012A09D1094C0C3C50
:102F60002468012585402C43064D0C3D2C6008E06B
:102F7000044C0C3C246801258540AC43014D0C3DBC
:102F80002C6030BD0C20014030B50246084C141BAB
:102F90002309002900D15B1C054C0C3C6468012509
:102FA0009D402C40002C01D0012000E0002030BDCD
:102FB0000C200140044A821A110901228A40024B66
:102FC0000C3B5A60704700000C200140012904D1DD
:102FD000C26904231A43C26103E0C26904239A430D
:102FE000C2617047012904D1C26902231A43C26138
:102FF00003E0C26902239A43C2617047012904D1E8
:10300000C26901231A43C26103E0C2695208520037
:10301000C261704701468868C0B27047012904D177
:10302000026820231A43026003E0026820239A43C7
:10303000026070470146086804221040002801D051
:10304000012070470020FCE70168042291430160E1
:1030500070470146086802221040002801D0012074
:1030600070470020FCE7016802229143016070472D
:1030700010B50A460168C0240B46A3431946C02375
:1030800013401943016010BD014608680822104032
:10309000002801D0012070470020FCE701680822C9
:1030A000914301607047012904D1026810231A433B
:1030B000026003E0026810239A43026070478AB2FC
:1030C0000261704710B50A4641690C240B46A343C0
:1030D00019460C2313401943416110BDCAB2C260A6
:1030E0007047012904D1426808231A43426003E073
:1030F000426808239A434260704710B50A46416807
:1031000040240B46A3431946402313401943416012
:1031100010BD012904D1426810231A43426003E024
:10312000426810239A434260704710B50A464168CE
:1031300020240B46A3431946202313401943416022
:1031400010BD0000F0B5FFB088B00446C048604331
:10315000C0494018012189024018C07804218843E1
:10316000BB496143BB4A8918012292028918C87081
:10317000B7486043B749401840780102B4486043FB
:10318000B44A801880780818001D86B2B0486043A1
:10319000811832460020FDF7B7FC85B2AC48604389
:1031A000AC494018805D0102A9486043A94A8218D1
:1031B000701C105C0818A84202D07FB008B0F0BDA7
:1031C000A3486043A3494018017980A80175A0482D
:1031D0006043A0494018417980A841759C486043EC
:1031E0009C4940188079000699496143994A891899
:1031F000C97909040843964961438918097A090283
:103200000843934961438918497A0843839000270A
:1032100080A8007D15286ED180A8407D082845D063
:1032200006DC01280BD0022825D004287ED130E00E
:10323000FD2861D0FE287AD0FF28F7D1ADE086487E
:1032400086490860002086900CE0FEF747FD8699CD
:10325000203188B281490968FEF716FB8698401C28
:1032600080B28690FF21E13186988842EDDB002014
:103270007A49086096E07848784908608399C901DE
:10328000080C76490968FEF7FFFA002073490860C8
:1032900088E001277F026E4961436E4A891808461B
:1032A0000A303A468399FCF795FF7BE06A486B4900
:1032B000086067486043674940180A3000906748D3
:1032C00001225202036800998398FEF70BFB849059
:1032D000002062490860849800280BD05C48604355
:1032E0005C49401800794021084359496143594AD3
:1032F0008918087156E057E00121490201A8FCF73E
:10330000C8FF06275248604352494018807A000699
:103310004F4961434F4A8918C97A090408434C4907
:1033200061438918097B0902084301E039E030E074
:10333000474961438918497B084382900025002052
:10334000819017E02846FDF7AFFB85B2819A8398FC
:1033500081180122520201A8FCF73CFF012252020F
:1033600001A92846FDF7D0FB85B28198FF30FF30D8
:1033700002308190829981988842E3D3291234489F
:103380006043344A80188173314860438018C573A4
:1033900008E000203249087004E0552030490870E8
:1033A00000E000BF00BF00E000BF00BF284860434E
:1033B0002849401800798021084325496143254A5E
:1033C00089180871B81D87B23812214961438918DC
:1033D00048701F486043801887701D48604311463D
:1033E0004018407801021A48604380188078081815
:1033F000001D86B216486043811832460020FDF752
:1034000083FB85B2291212486043124A8018815505
:103410000F4860438218701C155416210C486043F5
:103420000C4A8218B01C11540948604309494018DD
:10343000012189024018C0780821084304496143EA
:10344000044A8918012292028918C87000BFB4E6A4
:103450000A0400000C0000200FF0AB120400002052
:103460000000002070B504460025002C08D1124849
:1034700000F024F8012803D1AA250F4800F033F802
:10348000012C0AD10C48203800F018F8012804D18A
:10349000AA250948203800F026F8022C0AD106484F
:1034A000403800F00BF8012804D1AA250248403822
:1034B00000F019F8284670BD4C20014010B50446B4
:1034C0002046FFF7E1FD012809D02046FFF7B2FDB5
:1034D000012804D02046FFF7BCFD012801D10120BE
:1034E00010BD0020FCE710B504462046FFF7D6FDCE
:1034F0002046FFF7A9FD2046FFF7B5FD10BD0000EF
:1035000010B588B0044601216F48FFF7F7F86F48FF
:10351000201AC004010E009168460078030000F0F4
:10352000D9F806041E3A567490AC01216648801FF3
:10353000FFF7E4F8002208216548FDF761FA002250
:1035400010216348FDF75CFA0920FEF73BFF0221DA
:103550000920FEF74FFF0920FEF740FF8EE0012112
:103560005948401FFFF7CAF8002201215848803807
:10357000FDF746FA0022022155488038FDF740FA4F
:103580000A20FEF71FFF02210A20FEF733FF0A2060
:10359000FEF724FF72E001214B48001FFFF7AEF851
:1035A000002204214A488038FDF72AFA0022082127
:1035B00047488038FDF724FA0B20FEF703FF02216D
:1035C0000B20FEF717FF0B20FEF708FF56E0012146
:1035D0003D48C01EFFF792F80022012189023C48B5
:1035E0006038FDF70DFA00220121C9023848603821
:1035F000FDF706FA0C20FEF7E5FE02210C20FEF78F
:10360000F9FE0C20FEF7EAFE38E001212E48801E6C
:10361000FFF774F8002201212D484038FDF7F0F93A
:10362000002202212A484038FDF7EAF90D20FEF772
:10363000C9FE02210D20FEF7DDFE0D20FEF7CEFEB5
:103640001CE001212048401EFFF758F800221021FD
:103650001F486038FDF7D4F9002220211C4860384B
:10366000FDF7CEF90E20FEF7ADFE02210E20FEF78B
:10367000C1FE0E20FEF7B2FE00E000BF00BFE12059
:103680004002069001216846017700214177817749
:1036900001A8FEF761FF06A92046039AFFF7F7FB92
:1036A000002201212046FFF74FFC01220021204685
:1036B000FFF74AFC01212046FFF72BFD01212046A0
:1036C000FFF7F1FC08B010BD0E0000030C20014014
:1036D000A00C004030B47446641E2578641CAB42D4
:1036E00004D3635D5B00E31830BC18471D46F8E760
:1036F000FEF7C6FC2A48FFF703FF29482030FFF7F2
:10370000FFFE27484030FFF7FBFEFEF71FFB62B6C7
:10371000002024490870244908802449086000BF1B
:10372000FEF7DCFA012189032148FEF747FA214818
:10373000C07804210840002804D00020FFF702FDD3
:10374000FEF7CCFA1C48C07804210840002804D0B9
:103750000120FFF7F7FCFEF7C1FA1848C0780421F2
:103760000840002804D00220FFF7ECFCFEF7B6FA70
:103770000C4800780028D3D10B480088FA28CFDB0A
:10378000FDF7CEFC00200949086001208003446851
:103790000146086880F3088800BFA047C0E7000022
:1037A0000C20014000000020020000200400002046
:1037B000400C00400C04002016080020200C0020C3
:1037C00001230A00DB0502430DD4DA4203D49A42F6
:1037D00007D481427047D94214D4D84212D48142CE
:1037E000704789427047DA4203D59A42F9D5884238
:1037F00070475B004A00DA4204D24200DA4201D24A
:10380000884270474840414010B5024A4840FDF7A1
:103810001FF810BD0900160481828384858687887D
:10382000898B8C8D8E8F919293959697999A9C9D6A
:103830009FA0A2A3A5A7A8AAACAEB0B2B3B5B7B9D2
:10384000BCBEC0C2C5C7C9CCCED1D4D7D9DCDFE29B
:10385000E6E9ECF0F3F7FAFE78380000000000200B
:103860000C00000004010000843800000C0000205F
:103870008C22000020010000000000000000000079
:0438800000127A00B8
:04000005000000C136
:00000001FF
