:020000040800F2
:1000000000450020DD010008611300082F120008E0
:100010005D130008690900085B3700080000000054
:10002000000000000000000000000000073300088E
:10003000350E0008000000001514000819340008EF
:10004000F7010008F7010008F7010008F51500089E
:10005000F7010008F7010008F7010008F7010008A0
:10006000F7010008F7010008F7010008F701000890
:10007000F7010008F7010008F7010008F701000880
:10008000F7010008F7010008F7010008F701000870
:10009000F7010008F7010008F7010008F701000860
:1000A000F7010008F7010008F7010008F701000850
:1000B000F7010008F7010008F7010008F701000840
:1000C000F7010008F7010008F7010008F701000830
:1000D000F70100087D340008F7010008F701000867
:1000E000F70100086D150008F7010008F701000886
:1000F000F7010008F7010008F7010008F701000800
:10010000F7010008AD1A0008F7010008F701000820
:10011000F7010008F7010008F7010008F7010008DF
:10012000F7010008F7010008F7010008F7010008CF
:1001300000F002F800F03FF80AA090E8000C8244BA
:100140008344AAF10107DA4501D100F034F8AFF297
:10015000090EBAE80F0013F0010F18BFFB1A43F0A5
:10016000010318473052000050520000103A24BFDB
:1001700078C878C1FAD8520724BF30C830C144BF0C
:1001800004680C607047000000230024002500264E
:10019000103A28BF78C1FBD8520728BF30C148BFEA
:1001A0000B607047782900F09380002070471FB5DE
:1001B0001FBD10B510BD00F0D7FA1146FFF7F7FFCD
:1001C00004F098FD00F0F5FA03B4FFF7F2FF03BC6A
:1001D00003F0CCFA80F30888704700000948804794
:1001E00009480047FEE7FEE7FEE7FEE7FEE7FEE719
:1001F000FEE7FEE7FEE7FEE704480549054A064B31
:10020000704700001D34000831010008003F002045
:10021000004500200041002000410020704710B53B
:100220004C1084EA530404D54042C1F1000138BFA8
:10023000491E1B4204D55242C3F1000338BF5B1E66
:1002400000F061F914F0804F04D04042C1F1000188
:1002500038BF491E14F0004F04D05242C3F10003CE
:1002600038BF5B1E10BD00000FB4044910B503AACF
:10027000029800F019FA10BC5DF814FB1800002079
:1002800070B5044685690068C10601D5302600E0D6
:100290002026C00707D070BDD4E901213046904721
:1002A000206A401C20626D1EF6D570BD70B50446F4
:1002B00085690078C00707D170BDD4E901212020ED
:1002C0009047206A401C20626D1EF6D570BD00006C
:1002D00070B504460D4621461068AFF300802188B2
:1002E000090502D50F4A7A4402E00E4A7A440E32DA
:1002F000002104F1240305E000F00F060009965DDB
:100300005E54491C0028F7D120780023000704D54B
:10031000702D02D009B1022311322046BDE8704091
:1003200000F068B9825000002DE9F0474FF0000A54
:1003300089460446C0F820A02046E1688847002886
:1003400076D0252806D0D4E901219047206A401CA8
:100350002062F1E7E168204600258847C4F81CA028
:1003600006460027C4F818A02A2E09D0304603F00C
:10037000F6F938B304EB8708303EC8F8186019E086
:1003800059F8041B204604EB87029161E168884715
:10039000012F064618D1E069002820DA25F0200553
:1003A0001DE0D8F8180000EB800006EB4000303864
:1003B000C8F818002046E1688847064603F0CFF9E0
:1003C0000028EED1012F0AD02E2E08D12046E16858
:1003D00088477F1C0646022F45F02005C4DBA06934
:1003E000002803DA404245F00105A061E80701D08A
:1003F00025F01005B6B1A6F14100192802D8203623
:1004000045F400654A463146204625604D46FFF7D3
:10041000C9FE58B1012806D0ED1D25F0070000F1F6
:10042000080989E704E005F1040985E730468AE711
:10043000206ABDE8F08710B5431C02E010F8011BEC
:1004400071B18107FAD14FF0013202C88C1A8C4386
:1004500014EAC211F9D0C01A0A0603D0C01E10BD9A
:10046000C01A10BD0A0401D0801E10BD0902FCD0C4
:10047000401E10BD032A40F2308010F0030C00F043
:10048000158011F8013BBCF1020F624498BF11F8CE
:1004900001CB00F8013B38BF11F8013BA2F1040287
:1004A00098BF00F801CB38BF00F8013B11F00303FF
:1004B00000F00C81083AC0F0088051F8043B083A7B
:1004C00051F804CBA0E80810F5E7121D5CBF51F805
:1004D000043B40F8043BAFF30080D20724BF11F87F
:1004E000013B11F801CB48BF11F8012B24BF00F8E4
:1004F000013B00F801CB48BF00F8012B7047704763
:1005000070477047704753EA020C00F069802DE98C
:10051000F04B4FF00006002B1FBFB3FA83F503FA30
:1005200005F424FA05F65E4012BF1643B2FA82F5CE
:1005300002FA05F4C5F120051EBF22FA05FC44EAC3
:100540000C04203556EA044C4FEA144418BF641CCE
:100550004FF000084FF00009904271EB030C39D3C3
:10056000002919BFB1FA81F701FA07F6B0FA80F74E
:1005700000FA07F6C7F120071EBF20FA07FC46EA7B
:100580000C062037B6FBF4FCA7EB0507103F07F07D
:100590001F0BCBF120060CFA0BFB2CFA06F644BF1E
:1005A000B3460026202FA4BF5E464FF0000B5BEA47
:1005B000060C08BF4FF0010B19EB0B09ABFB027CDB
:1005C00048EB0608C01B06FB02CC0BFB03CC71EB0F
:1005D0000C01C1E70B46024641464846BDE8F08B98
:1005E00013B54FF000004FF00001AFF30080BDE8FD
:1005F0001C4070472DE9F0470D4699469246044647
:1006000000F124080168880604D5E06921F0100192
:10061000216000E00120A84201DD471B00E0002727
:10062000A1697A1902EB0900081AA0612078C006B6
:1006300002D42046FFF724FE002608E0D4E9012179
:100640001AF806009047206A401C761C20624E452E
:10065000F4DB2078C0060AD52046FFF711FE06E03D
:10066000D4E9012130209047206A401C2062381EC6
:10067000A7F10107F4DC07E0D4E9012118F805002F
:100680009047206A401C2062281EA5F10105F3DC7A
:100690002046FFF70BFE2078000602D50220BDE8B9
:1006A000F0870120FBE70000074B70B50D467B4447
:1006B00000F043F80446284600F052F810B14FF01D
:1006C000FF3070BD204670BD5F44000010B5203A79
:1006D000C0F00B80B1E81850203AA0E81850B1E8FB
:1006E0001850A0E81850BFF4F5AF5FEA027C24BFB1
:1006F000B1E81850A0E8185044BF18C918C0BDE8A8
:1007000010405FEA827C24BF51F8043B40F8043B70
:1007100008BF7047D20728BF31F8023B48BF11F825
:10072000012B28BF20F8023B48BF00F8012B70477F
:1007300001694A1C02610878704700B58FB0CDE9A5
:1007400001310021059105497944CDE90310114695
:100750006846FFF7E9FD0FB000BD0000E5FFFFFFB1
:10076000007B00F080007047754600F029F8AE4627
:1007700005006946534620F00700854618B020B5AD
:10078000FFF73AFDBDE820404FF000064FF00007AC
:100790004FF000084FF0000B21F00701AC46ACE829
:1007A000C009ACE8C009ACE8C009ACE8C0098D4696
:1007B00070470446AFF300802046FFF705FD0000B8
:1007C00000487047A03E002030B5ADF51B7D0020ED
:1007D00004F002FB39A0FFF747FD02E03AA0FFF763
:1007E00043FD01F0A1FB0028F8D103F0D7FB39A0AD
:1007F000FFF73AFD3C49012208683CA103F06EFD79
:100800003BA0FFF731FD01223CA1684603F090FDBB
:1008100004461CB13DA0FFF727FD1AE000BF9AABCC
:100820004FF400623E49684603F076FE04460CB978
:100830009A9800B90CE08BAA39489A9900F096F87A
:1008400020B938A0FFF710FD002501E00125E6E7FB
:1008500000BF012D23D10021684603F0E6FB0446CA
:100860001CB135A0FFF700FD19E000BF9AAB4FF4B3
:1008700000622B49684603F04FFE04460CB99A9873
:1008800000B90BE0314B8BAA25489A9900F096FFEE
:100890000028EBD12EA0FFF7E7FC00BF00BF6846A1
:1008A00003F0B2FB00F0C8FA00F0FCFC2D4804F0A5
:1008B000D5F900200DF51B7D30BD00006D796D650B
:1008C0006E206F6B200D0A00736420696E69740DD1
:1008D0000A000000657866756E735F696E69742042
:1008E0006F6B0D0A0000000040000020303A00004D
:1008F0006D6F756E74206F6B0D0A0000303A2F48D3
:1009000065785F5254432E6865780000665F6F70AB
:10091000656E2069732774206F6B0D0A000000005C
:1009200058090020636865636B2077726F6E6721DA
:100930002121210D00000000706F696E742062613A
:10094000636B2077726F6E670D0000005801002006
:10095000534432524F4D2077726F6E67212121210F
:100960000D0000000000020800BFFEE72DE9F0477F
:1009700088B0074688461546B8F1000F00D01FB969
:10098000002008B0BDE8F0870123424639462846DA
:1009900000F044FE53E02846FFF74DFD86B228786C
:1009A0003A2801D10B2E01DA0020EAE74FF0000AC5
:1009B000002412E005EB4401481C00F03AFC0DF85D
:1009C00004001DF8040050441FFA80FA1DF80410BA
:1009D00020A0FFF749FC601C84B206EBD671B4EB93
:1009E000610FE7DB0AF0FF0020B11CA0FFF73CFC21
:1009F0000020C6E79DF80300052820D19DF80400DB
:100A000000069DF8051040EA01409DF8061040EAF6
:100A100001209DF8071040EA0109164809EA000084
:100A20001449884205D1494613A0FFF71DFC012057
:100A3000A7E7494612A0FFF717FC0020A1E7002313
:100A400042463946284600F0E9FD0028A3D101209E
:100A500097E7000025327820000000006368656396
:100A60006B2073756E2069732077726F6E6721211A
:100A7000212100000000020830782578200D0000B8
:100A8000626F6F742041646472737320697320779E
:100A9000726F6E67202578200D00000070B500256C
:100AA0004FF4803404E0802000F0ECFF00B103E05C
:100AB0002000A4F10104F6D100BF0CB9032070BDE1
:100AC00040F2FF5000F098FF2846F8E770B5044662
:100AD00005E01548456B05F0450000B100E0F8E77A
:100AE00000BF042000F0CEFF20B1042000F084FFFE
:100AF000032070BD012000F0C5FF20B1012000F0EF
:100B00007BFF0120F5E708480069A04201D01020D2
:100B1000EFE740F2FF500449886308464069082126
:100B20000840C0B2E5E700000080014070B5002633
:100B30004FF4803505E01148446B04F0450000B1E6
:100B400003E02800A5F10105F5D100BF15B104F0BF
:100B5000040028B10326042000F04EFF304670BD8B
:100B6000012000F08FFF18B10126012000F044FFA2
:100B700040F2FF5000F040FF3046F0E700800140B7
:100B800010B505E00B48446B04F0450000B100E0EF
:100B9000F8E700BF042000F075FF20B1042000F04A
:100BA0002BFF032010BD40F2FF5000F025FF002076
:100BB000F8E70000008001402DE9F04105460E46AF
:100BC0004FF0000805E01F48476B07F0450000B1F3
:100BD00000E0F8E700BF042000F054FF28B1042033
:100BE00000F00AFF0320BDE8F081012000F04AFF79
:100BF00020B1012000F000FF0120F4E71148006956
:100C0000A84201D01020EEE740F2FF5000F0F4FEC1
:100C10000C48446904F4604018B9200C3080404608
:100C2000E1E704F4005008B11320DCE704F480404D
:100C300008B11020D7E704F4004008B10F20D2E734
:100C40004046D0E70080014070B500264FF4803563
:100C500005E00F48446B04F0450000B103E02800B4
:100C6000A5F10105F5D100BF15B104F0040028B1CC
:100C70000326042000F0C0FE304670BD04F04000A2
:100C800018B10026402000F0B7FE3046F5E700001E
:100C90000080014021B1026842F00102026004E0DC
:100CA00002684FF6FE731A400260704701684FF603
:100CB000FE72114001600021016041608160C160ED
:100CC0004B49884208D14A490839496841F00F0127
:100CD000474A083A51608AE045491431884208D1B0
:100CE00043490839496841F0F001414A083A5160E6
:100CF0007DE03F492831884208D13D49083949689B
:100D000041F470613A4A083A516070E038493C3128
:100D1000884208D136490839496841F47041344A5B
:100D2000083A516063E032495031884208D1304975
:100D30000839496841F470212D4A083A516056E05B
:100D40002B496431884208D129490839496841F45E
:100D50007001274A083A516049E0254978318842B4
:100D600008D123490839496841F07061204A083A9E
:100D700051603CE01F49884206D1011F096841F0DB
:100D80000F01021F116032E01A491431884208D164
:100D90001849091F096841F0F001164A121F116035
:100DA00025E014492831884208D11249091F0968F1
:100DB00041F470610F4A121F116018E00D493C3177
:100DC000884208D10B49091F096841F47041094A5A
:100DD000121F11600BE007495031884207D10549C5
:100DE000091F096841F47021024A121F11607047FF
:100DF000080002400804024010B50022026847F6CD
:100E0000F0739A430C6A8B6823430C6923434C6943
:100E100023438C692343CC6923434C6A23438C6A64
:100E200023431A430260CB6843600B6883604B68BE
:100E3000C36010BD7047000010B572B600210748AE
:100E400002F06FFB002240F22551044802F0EEFB55
:100E500000210348FFF71EFF10BD000000380140CD
:100E60004404024001490860704700001404014036
:100E700030B5044604254FF4302000F06FF80546E5
:100E8000042D17D10C48006940F002000A4908619E
:100E900008464461006940F0400008614FF430208A
:100EA00000F05CF805460448006941F6FD71084011
:100EB00001490861284630BD0020024004200B494A
:100EC000C96801F0010109B101200EE00749C968B4
:100ED00001F0040109B1022007E00449C96801F0EA
:100EE000100109B1032000E00420704700200240F7
:100EF0000348006940F08000014908617047000024
:100F00000020024070B504460D460426F00200F0B1
:100F100025F80646042E11D10948006940F0010069
:100F2000074908612580F00200F018F806460448D9
:100F3000006941F6FE71084001490861304670BD04
:100F40000020024002480349486003484860704757
:100F50002301674500200240AB89EFCD00B5024672
:100F60000423FFF7ABFF034603E0FFF7A7FF0346A9
:100F7000521E012B01D1002AF7D102B905231846D0
:100F800000BD00002DE9FC4107460D460026002467
:100F900000200090019008205B4908601020486004
:100FA000402088600020C8604FF4806008610846D7
:100FB00000F09EFD1020FFF789FD044614B1204685
:100FC000BDE8FC815148008800044F490860372083
:100FD0004860402088600020C8604FF4806008614D
:100FE000084600F085FD3720FFF770FD04460CB180
:100FF0002046E5E74FF0FF3045490860082048608B
:10100000302088600220C86000200861012048610B
:10101000084600F00DFD00203B4908603320486081
:10102000402088600020C8604FF480600861084656
:1010300000F05EFD3320FFF749FD04460CB1204669
:10104000BEE70CE04FF4001000F01CFD38B100F0DA
:1010500049FD4DF82600761C022E00D306E02D48EF
:10106000406B40F22A6108400028EBD000BF082006
:1010700000F008FD20B1082000F0BEFC04209FE72E
:10108000022000F0FFFC20B1022000F0B5FC02209D
:1010900096E7202000F0F6FC20B1202000F0ACFC08
:1010A00006208DE74FF4007000F0ECFC28B14FF4FF
:1010B000007000F0A1FC072082E740F2FF5000F032
:1010C0009BFC00980006009901F47F4140EA012052
:1010D000009901F47F0140EA1120009940EA116073
:1010E000686001980006019901F47F4140EA0120FF
:1010F000019901F47F0140EA1120019940EA116051
:10110000286020465CE70000F83B002074000020C7
:101110000C3C0020008001402DE9F04102460025F2
:101120000026002000230024002791F803C00CF0C3
:101130000F0591F803C00CF0100CBCF1000F03D0A8
:1011400091F802C04CEA050591F800C0BCF1000F0F
:1011500031D0146800202BE04FF0010C0CFA00F3A2
:10116000B1F800C00CEA03069E4220D183004FF084
:101170000F0C0CFA03F7BC4305FA03FC4CEA040419
:1011800091F803C0BCF1280F06D14FF0010C0CFA06
:1011900000FCC2F814C00AE091F803C0BCF1480F8B
:1011A00005D14FF0010C0CFA00FCC2F810C0401C35
:1011B0000828D1D31460B1F800C0BCF1FF0F34DDB2
:1011C000546800202EE000F1080C4FF0010808FAE6
:1011D0000CF3B1F800C00CEA03069E4221D1830053
:1011E0004FF00F0C0CFA03F7BC4305FA03FC4CEA72
:1011F000040491F803C0BCF1280F05D100F1080CDC
:1012000008FA0CF8C2F8148091F803C0BCF1480F3A
:1012100007D100F1080C4FF0010808FA0CF8C2F8E9
:101220001080401C0828CED35460BDE8F08100BF78
:10123000FEE7034619785A78302A05DB392A03DCA1
:10124000A2F13000C2B20EE0612A05DB662A03DC9F
:10125000A2F15700C2B206E0412A04DB462A02DCB2
:10126000A2F13700C2B2302905DB392903DCA1F134
:101270003000C1B20EE0612905DB662903DCA1F173
:101280005700C1B206E0412904DB462902DCA1F186
:101290003700C1B202EB0110C0B2704772B670479E
:1012A00062B6704710B5044802F048F90348FFF7EA
:1012B000FDFC00F0D5FB10BD0038014044040240A5
:1012C0001CB50446002001900090214800880004CD
:1012D000204908600D204860402088600020C860D8
:1012E0004FF480600861084600F002FC1A48406B29
:1012F000009002E01848406B0090009800F0450014
:101300000028F7D0012000F0BDFB20B1012000F043
:1013100073FB01201CBD042000F0B4FB20B10420AD
:1013200000F06AFB0320F5E70B4800690D2801D0A7
:101330001020EFE740F2FF5000F05EFB06484069E6
:1013400001900198C0F3432020700020E2E70000E4
:1013500074000020F83B00200080014000BFFEE741
:101360007047000070B5002100230F22C47804B339
:10137000154C246804F4E064C4F5E064210AC1F16A
:101380000403CA40447804FA03F1847814402143EA
:1013900009010E4C0678A155047804F01F050124BC
:1013A000AC4005786D11AD0005F1E025C5F80041B0
:1013B00009E0047804F01F050124AC40044D0678D0
:1013C000761145F8264070BD0CED00E000E400E029
:1013D00080E100E002490143024A116070470000C9
:1013E0000000FA050CED00E00349096841EA8001BC
:1013F000014A116070470000007000400146002063
:10140000034A52680A400AB1012000E000207047F8
:10141000007000407047000029B1064A526902433B
:10142000044B5A6104E0034A52698243014B5A61FA
:10143000704700000010024029B1064A12690243B9
:10144000044B1A6104E0034A12698243014B1A619A
:10145000704700000010024029B1064A9269024319
:10146000044B9A6104E0034A92698243014B9A61FA
:10147000704700000010024029B1064AD2680243BA
:10148000044BDA6004E0034AD2688243014BDA601D
:10149000704700000010024030B5002100220024F7
:1014A00000232D4D6D6805F00C0121B1042905D0F4
:1014B000082923D105E0294D056022E0274D05606C
:1014C0001FE0254D6D6805F47012234D6D6805F41D
:1014D0008034022505EB92421CB9214D554305602D
:1014E0000BE01D4D6D6805F400351DB11C4D5543D5
:1014F000056002E0194D5543056002E0174D056097
:1015000000BF00BF144D6D6805F0F0010909154DCD
:101510006B5C0568DD4045600F4D6D6805F4E0616A
:10152000090A104D6B5C4568DD4085600A4D6D68A9
:1015300005F46051C90A0B4D6B5C4568DD40C56020
:10154000054D6D6805F44041890B074D6B5CC5681E
:10155000B5FBF3F5056130BD0010024000127A00C2
:1015600000093D001E0000202E00002010B50220C2
:1015700000F02EF8F8B14FF40030FFF773FC0120B3
:10158000FFF73CFF10B10120FFF72EFF00F03CF801
:10159000022000F015F800F037F840F22551064817
:1015A00001F0B0FF01F03AFF0448806940F2FD11FC
:1015B00008430249886110BD003801400010024014
:1015C000024909888143014A11807047042800407C
:1015D00001460020064A12880A40D0B2044A121F6F
:1015E00012880A4012B108B1012000E000207047C3
:1015F0000428004010B50120FFF7EAFF10B10120D8
:10160000FFF7DEFF10BD000000BF0348008800F0B8
:1016100020000028F9D07047042800402DE9F0414F
:1016200006460D4617469846B8F1000F07D0002031
:101630005F4908605F4908600120BDE8F0815C48AF
:101640000068002860D15B48006800285CD15A48D7
:101650000068002858D056480068564908604FE096
:1016600054480068285C0A2819D153480068401E75
:10167000305C0D2813D14F4800684D490968441A61
:1016800000214D480068401E31544A480068401C03
:10169000474908600020484908600120CDE74548D7
:1016A0000068285C0D2826D142480068401C285C50
:1016B0000A2820D13F4800683D490968441A3C2C5B
:1016C00001D30020B9E73A4A1268A9183A4A1268C9
:1016D000B0182246FEF7CEFE0020374909682144A3
:1016E000705434480068801C314908600020324939
:1016F00008600120A1E72F480068401C2D490860C0
:101700002C480068B842ABD329480068B84201D3DE
:10171000002092E726480068264908602BE025480B
:101720000068285C0D2821D122480068401C285CF4
:101730000A281BD11F4800681D490968441A3C2C1F
:1017400001D3002079E71A4800682918224630465C
:10175000FEF790FE0020305516480068801C1449A2
:101760000860002014490860012066E711480068FD
:10177000401C104908600F480068B842CFD30D489C
:1017800000680B490968441A3C2C01D3002054E737
:1017900007480068291822463046FEF76BFE0020F5
:1017A00030550548046002480760002045E7000006
:1017B0008000002084000020880000202DE9FF4FD9
:1017C0008BB0824617461D460C9810B1BAF1000F37
:1017D00003D100200FB0BDE8F08F012351463846F9
:1017E0000C9AFFF71BFF8FE03846FEF724FE1FFA26
:1017F00080F838783A2802D1B8F10B0F01DA0020CE
:10180000E8E70020029000240EE007EB4401481CAA
:10181000FFF70FFD03A9085503A8015D02980844CE
:1018200080B20290601C84B208EBD871B4EB610FF7
:10183000EBDB0298C0B220B139A0FEF715FD002005
:10184000C8E79DF80FB09DF80C90BBF1050F59D279
:10185000DFE80BF0034155575600374800884844ED
:10186000B0F5006F27DB34480088C0F5006086B211
:10187000A9EB060000F0FF092F49098868183246D5
:1018800004A9FEF7F7FD2C480088295C2BA0FEF781
:10189000EBFC2C4909882C4A02EBC1204FF48062F2
:1018A000294601F0EDFC00202349088025480088E6
:1018B000401C2449088004AA91191F4A1288A818BC
:1018C0004A46FEF7D7FD06B100261B48008848446B
:1018D0001949088017E018480688711C019101EB2E
:1018E000D171C1F34F0217490988174B4FF4006CAF
:1018F0000CFB0130294601F0C3FC01206AE702E03D
:1019000001E000E000BF00BF0023514638460C9ABA
:10191000FFF784FE00287FF467AF01205AE700003C
:10192000636865636B2073756E2069732077726FCF
:101930006E672121212100008C00002025327820B3
:10194000000000008E000020000002087CB5054663
:10195000002400200090019000260DB1022600E036
:1019600000262248406900F0007008B10E207CBDBE
:101970001F49098888B26946FFF704FB04460CB189
:101980002046F4E7019800F4802060B318480088EE
:101990000004184908603720486040208860002013
:1019A000C8604FF480600861084600F0A1F8372055
:1019B000FFF78CF804460CB12046D8E70D480660C6
:1019C00006200C494860402088600020C8604FF421
:1019D00080600861084600F08BF80620FFF776F873
:1019E00004462046C3E72520C1E7000000800140EF
:1019F00074000020F83B0020014988637047000014
:101A0000008001400149086070470000A00030429A
:101A10000146034A506820F0FF00084350607047B9
:101A20000080014001490860704700008C05304289
:101A300000210A4B02685A6242689A621A46D16AC9
:101A400021F0F701D0E902231A4303691A434369DD
:101A50001A431143014AD1627047000000800140DF
:101A600000200649086048608860C8604862886253
:101A7000C862034888630020C86370470080014043
:101A8000FF07C00001460020034A526B0A400AB11A
:101A9000012000E0002070470080014002480068FB
:101AA00000F00300704700000080014010B500F016
:101AB00053FC10BD00210A4A516847F6FF6291436A
:101AC000027D83681A4343681A43C3681A43036854
:101AD0001A4303691A431143014A516070470000D9
:101AE000008001400148006870470000808001408C
:101AF0000021094B02689A601A46D1686FF30A0107
:101B0000D0E901231A43C3681A4303691A431143F6
:101B1000014AD16070470000008001400549096812
:101B200021F00301034A1160114609680143116065
:101B300070470000008001400149086070470000C4
:101B40008080014070B58CB006460C4615460121D8
:101B50000220FFF761FC1348FFF7A8F800211148A5
:101B6000FFF798F81048019002960395A00804909A
:101B7000002005908020069080000790800008904B
:101B8000002009904FF400500A9000200B9001A90A
:101B90000448FFF731F900210248FFF77BF80CB049
:101BA00070BD0000440402408080014070B50446CE
:101BB000002516480078032801D1272070BD13485E
:101BC000007838B111480078012803D00F48007818
:101BD000022818D1022C01D32720EFE7E0B2FFF74B
:101BE000B5FE05467DB90A48406820F4C050084952
:101BF000486008464068A1B240EAC12004494860F4
:101C00000846406848602846D8E700007000002079
:101C100000800140F0B5014600200022BE4B1B7839
:101C200081F85630BD4B1B88A1F85430BC4B1B6863
:101C30001A0E93090B70C2F383034B7002F0030377
:101C40008B70B74B1B68C3F30742CA70B44B1B8839
:101C5000C3F307220A71B24B1A784A715B681A0EF5
:101C60001301CB80AE4B5B68C3F30742CB8843EADA
:101C70001213CB8002F00F030B72A94B9B88C3F3A6
:101C80000722D3094B72C2F380138B72C2F3401345
:101C9000CB72C2F300130B7300234B739E4B1B7864
:101CA0003BB19D4B1B78012B03D09B4B1B78032B27
:101CB0004FD193071B0D0B61994B1A790B6943EABE
:101CC00082030B61964B9B681A0E0B6943EA9213D1
:101CD0000B61C2F3C2030B7502F007034B75904B07
:101CE0009B68C3F3074253098B75C2F38203CB751C
:101CF00093075B0F0B768A4B1B89C3F307220B7E7E
:101D000043EAD2130B760B695B1C0024C1E9123441
:101D10000B7E9B1C012404FA03F3DC17D1E9125655
:101D2000A5FB037C06FB03C305FB0433C1E9127367
:101D30000C7A0123A3400B650024D1E912650B6DD9
:101D4000A6FB037C05FB03C306FB0433C1E9127346
:101D50002EE0714B1B78022B2AD1714B1A79930616
:101D60009B0A0B616E4B9B681A0E0B6943EA0223B8
:101D70000B616B4B9B68C3F307420B6913430B6109
:101D8000674B1B89C3F307220B695B1C4FF400747C
:101D9000A3FB04464FF480630025A4FB037C06FBF1
:101DA00003C304FB0533C1E912734FF400730B65E1
:101DB000C2F3801301F8193F93065B0E4B70584B2A
:101DC0001A7A4B7843EAD2134B7002F07F038B7080
:101DD000534BDB681A0ED309CB70C2F341130B715E
:101DE000C2F382034B7193071B0F8B714C4BDB6863
:101DF000C3F307428B7943EA92138B71C2F340130A
:101E0000CB7100230B7202F001034B72444B9B8990
:101E1000C3F30722D3098B72C2F38013CB72C2F3D0
:101E200040130B73C2F300134B73C2F381038B7324
:101E300002F00303CB733A4B1A7B53080B74012354
:101E40004B74384B1B681A0ECA741939354B1B6812
:101E5000C3F307421402CC85324B1B88C3F307221D
:101E6000CB8D1343CB852F4B1A7814060C635B681C
:101E70001A0E0B6B43EA02440C632A4B5B68C3F3F4
:101E800007420B6B43EA02240C63264B9B88C3F387
:101E900007220B6B13430B63224B1A7934235A54DA
:101EA000204B9B681A0E35235A541E4B9B68C3F374
:101EB000074214068C631B4B1B89C3F307228B6BF1
:101EC00043EA02448C63174B1A7A8B6B43EA022471
:101ED0008C63144BDB681A0E8B6B13438B63114BB3
:101EE000DB68C3F307423C235B5C43EA12143C23E8
:101EF0005C5413071C0DCC870A4B9B89C3F3072244
:101F0000CB8F1343CB87074B1A7B540840235C5479
:101F1000012441235C54F0BD7000002074000020B7
:101F2000243C0020343C00207CB500250024012105
:101F30003020FFF791FA012140F20240FFF76CFADE
:101F40004FF4F850ADF8000018208DF8030003207E
:101F50008DF8020069463048FFF7DEF80420ADF83E
:101F6000000018208DF8030003208DF80200694658
:101F70002A48FFF7D1F88020ADF8000048208DF8FE
:101F8000030003208DF8020069462448FFF7C4F8D7
:101F9000FFF766FD31208DF8040000208DF8050064
:101FA0008DF8060001208DF8070001A8FFF7DAF987
:101FB00000F0E4F8044614B900F036F804461CB901
:101FC0001748FFF727FE044634B91549B1F85410F5
:101FD000080400F04BFD04461CB90120FFF7E6FDA4
:101FE00004461CB10F480078032812D10C4890F821
:101FF000560020B10A4890F85600012801D10A2560
:1020000000E004252846FFF703FD002000F046FD10
:10201000044620467CBD0000001001400014014031
:10202000483C00207000002038B5002401200090BA
:10203000FFF734FD08B9252038BD4A480078042848
:1020400021D000204849086002204860C0208860F4
:102050000020C8604FF4806008610846FFF748FD23
:10206000FEF764FD04460CB12046E5E73F484069B1
:102070003F4908603D48806948603C48C0698860C5
:102080003A48006AC8603748007858B13548007847
:10209000012807D033480078062803D0314800785B
:1020A000022816D1002030490860032048604020F3
:1020B00088600020C8604FF4806008610846FFF720
:1020C00017FD69460320FEF777FD04460CB1204654
:1020D000B2E724480078032816D1BDF800000004B8
:1020E0002149086003204860402088600020C860C3
:1020F0004FF4806008610846FFF7FAFCFEF716FD12
:1021000004460CB1204697E716480078042827D0EB
:10211000BDF8000017490860BDF80000000412492E
:10212000086009204860C02088600020C8604FF423
:10213000806008610846FFF7DBFCFEF7F7FC044609
:102140000CB1204678E7094840690B490860074808
:10215000806948600548C06988600448006AC860B2
:10216000002069E770000020F83B0020008001405B
:10217000343C002074000020243C00202DE9F0476E
:102180000027002400260025A046A146B2206C4965
:1021900008750020086048608860C86008610846CB
:1021A000FFF788FC0320FFF7B9FC0120FFF72AFCAA
:1021B00000BF12E000206349086048608860C86082
:1021C0004FF4806008610846FFF792FCFEF766FC5A
:1021D000044604B903E0781CC7B24A2FEADB00BF0B
:1021E00014B12046BDE8F0874FF4D570554908601A
:1021F00008204860402088600020C8604FF480605C
:1022000008610846FFF774FCFEF71EFD044624B97A
:1022100001204D4908704FF080490020494908606D
:1022200037204860402088600020C8604FF48060FC
:1022300008610846FFF75CFC3720FEF747FC0446C0
:10224000002C4BD134E000203E4908603720486024
:10225000402088600020C8604FF480600861084614
:10226000FFF746FC3720FEF731FC04460CB1204650
:10227000B8E7364849EA000032490860292048603A
:10228000402088600020C8604FF4806008610846E4
:10229000FFF72EFCFEF774FC04460CB12046A1E7C4
:1022A0002B484669012080EAD67080F001086D1C39
:1022B000B8F1000F03D14FF6FF708542C3D34FF63C
:1022C000FF70854202D31B2420468BE706F0804036
:1022D000060032D002201C4908702EE01CE01D4888
:1022E0001849086001204860402088600020C860CC
:1022F0004FF4806008610846FFF7FAFBFEF740FCE8
:1023000004460CB120466DE711484669012080EA79
:10231000D67080F001086D1CB8F1000F03D14FF6A4
:10232000FF708542DBD34FF6FF70854202D31B243A
:10233000204657E7032004490870204652E7000072
:10234000E03B0020F83B00207000002000001080DF
:10235000008001400080FF8010B54948406B00F4C8
:10236000807070B347480078012814D10020464996
:1023700008600C204860402088600020C8604FF44E
:10238000806008610846FFF7B3FB0C20FEF79EFB58
:102390003E49087002E000203C4908703848806BD4
:1023A00040F48070364988630846C06B4CF23A317D
:1023B00088433349C86301203549087033480078A1
:1023C00010BDFFE70220FFF75DFB68B10220FFF7B9
:1023D00013FB2B48C06B4CF23A3188432849C86341
:1023E00002202A490870EBE70820FFF74BFB68B191
:1023F0000820FFF701FB2248C06B4CF23A318843BA
:102400001F49C863042021490870D9E72020FFF73D
:1024100039FB68B12020FFF7EFFA1948C06B4CF286
:102420003A3188431649C863062018490870C7E73F
:102430001020FFF727FB68B11020FFF7DDFA1048E6
:10244000C06B4CF23A3188430D49C86305200F49EF
:102450000870B5E74FF40070FFF714FB70B14FF44C
:102460000070FFF7C9FA0648C06B4CF23A31884356
:102470000349C863072005490870A1E700209FE7CA
:102480000080014079000020F83B00207A00002005
:102490007B0000202DE9F84F8146174698460A9C9C
:1024A0004FF0000AD3464D464FF0FF36B9F1000F0A
:1024B00002D12620BDE8F88F00208249C8628248F8
:1024C0000078022805D10402780A40EAC8574FEA8A
:1024D000682800207D4988604860401E086001200F
:1024E00048610020C86008610846FFF7A1FA7548F6
:1024F000406900F0007008B10E20DBE7002C21DD00
:10250000B4F5006F1EDC601E2040D8B9204601F0F3
:102510009FF900906E48046010206D49486040208B
:1025200088600020C8604FF4806008610846FFF7AB
:10253000DFFA1020FEF7CAFA8246BAF1000F03D084
:102540005046B7E72620B5E7009800015F4988604C
:10255000084644604FF0FF300860012048610220C7
:10256000C860002008610846FFF762FA5848076013
:10257000112057494860402088600020C8604FF40F
:10258000806008610846FFF7B3FA1120FEF79EFA53
:102590008246BAF1000F01D050468BE74D480078D3
:1025A00000285AD1FEF77AFE18E04FF40040FFF7FA
:1025B00069FA78B14FF0000B06E0424880300068BD
:1025C00045F82B000BF1010BBBF1080FF5D32035BB
:1025D000414E03E00EB904206CE7761E3948406B8B
:1025E00040F22A6108400028DFD00820FFF74AFAAD
:1025F00020B10820FFF700FA04205BE70220FFF774
:1026000041FA20B10220FFF7F7F9022052E720201B
:10261000FFF738FA20B12020FFF7EEF9062049E74E
:102620004FF40070FFF72EFA28B14FF40070FFF757
:10263000E3F907203EE703E0FFF754FA28602D1D79
:102640004FF40010FFF71EFA0028F5D1FEF728FE20
:1026500040F2FF50FFF7D0F931E01E480078012822
:102660002DD1002221464846FFF76CFA00201B4975
:1026700008701B4908701B4908701248C06B40F273
:102680002A3108430F49C8630120FFF7CBF900E066
:10269000761E1548006800F4005038B911480078DB
:1026A00020B90E48007808B9002EF1D10EB90420E7
:1026B00000E70A48007810B1084890F800A050469A
:1026C000F8E6000000800140700000200C3C002073
:1026D000F83B002078000020FFFF7F007A000020F8
:1026E000790000207B000020000402402DE9FE4F0D
:1026F00083460C46914600200290002625462C4633
:10270000700240EAD5566D020BF00300F0B14FF0B5
:10271000000A18E04FF4007000904FEA4A20471971
:1027200046EBE0733A461648FFF7B4FE02904FF4CA
:10273000007213495846FDF79DFE0BF5007B0AF128
:10274000010000F0FF0ACA45E4DB16E0B9F1010F11
:1027500009D14FF400702A46334600905846FFF7DF
:1027600099FE029009E04FF400702A463346CDE905
:102770000009584600F006F802900298BDE8FE8F66
:10278000A03C00202DE9FF5F17469846DDE90E4684
:102790004FF00009CA464FF0FF35A949009808607C
:1027A0000020A849C862A8480078022805D1040280
:1027B000780A40EAC8574FEA68280020A349886091
:1027C0004860401E0860012048610020C860086120
:1027D0000846FFF72DF99B48406900F0007018B1DA
:1027E0000E2004B0BDE8F09F002C21DDB4F5006F91
:1027F0001EDC601E2040D8B9204601F029F883462F
:10280000934804601020924948604020886000206E
:10281000C8604FF4806008610846FFF769F910202E
:10282000FEF754F98146B9F1000F03D04846D8E7C6
:102830002620D6E7012E70D906FB04F0B0F1007F08
:1028400001D32620CDE74FEA0B108049886006FBB4
:1028500004F048604FF0FF3008600120486102201A
:10286000C860002008610846FFF7E2F87848076072
:10287000122077494860402088600020C8604FF4EB
:10288000806008610846FFF733F91220FEF71EF951
:102890008146B9F1000F01D04846A2E76D480078A3
:1028A00000287DD1FEF7FAFC1EE04FF40040FFF750
:1028B000E9F8A8B14FF0000A08E0624880300068EB
:1028C0005F49096841F82A000AF1010ABAF1080FC4
:1028D000F3D35B4800682030594908605E4D03E03F
:1028E0000DB904207DE76D1E5648406B40F22A3139
:1028F00008400028D9D00820FFF7C4F820B10820EC
:10290000FFF77AF804206CE70220FFF7BBF828B144
:102910000220FFF771F8022063E78EE02020FFF726
:10292000B1F820B12020FFF767F8062059E74FF4EF
:102930000070FFF7A7F828B14FF40070FFF75CF8BC
:1029400007204EE709E0FFF7CDF83D490968086028
:102950003B480068001D3A4908604FF40010FFF73B
:1029600091F80028EFD14FF48070FFF78BF820B377
:102970003548007838B134480078012803D032480F
:102980000078022819D10020314908600C204860E5
:10299000402088600020C8604FF48060086100E03B
:1029A00012E00846FFF7A4F80C20FEF78FF88146E6
:1029B000B9F1000F01D0484613E7FEF771FC40F271
:1029C000FF50FFF719F838E022480078012834D189
:1029D00006FB04F100220098FFF7B4F800201F491D
:1029E000087001201E49087000201E490870154813
:1029F000C06B40F22A3108431249C8630846C06AD6
:102A000040F00800C86200E06D1E1748006800F43E
:102A1000005008B9002DF7D10DB90420E1E600BF40
:102A20001048007818B90D4800780028F8D00B48F5
:102A3000007810B1094890F800904846D1E60000AF
:102A40007C00002000800140700000200C3C002031
:102A5000F83B002078000020FFFF7F007A00002074
:102A6000790000207B0000200004024010B50446DD
:102A70000948046007200849486040208860002019
:102A8000C8604FF4806008610846FFF731F80720FE
:102A9000FEF71CF810BD0000F83B002001460020A6
:102AA000012900D011B9024B197000E026207047AF
:102AB000780000202DE9FF5F86B017469846149DE8
:102AC0000026002005900490002481460390824651
:102AD00002900195DDF818B0DDF818B0BBF1000FD9
:102AE00003D126200AB0BDE8F09F0020C449C86287
:102AF000C44988604860401E086001204861002089
:102B0000C86008610846FEF793FFBD48406900F0C1
:102B1000007008B10E20E5E7BB480078022805D117
:102B20000502780A40EAC8574FEA6828002D1FDDE1
:102B3000B5F5006F1CDC681E2840C8B9284600F0B7
:102B400087FE0590B14805601020B04948604020DC
:102B500088600020C8604FF4806008610846FEF776
:102B6000C7FF1020FDF7B2FF06461EB13046B9E799
:102B70002620B7E7A64800880004A44908600D2075
:102B80004860402088600020C8604FF48060086181
:102B90000846FEF7ADFF0D20FDF798FF06460EB183
:102BA00030469FE79648406903904FF0FF341BE0A2
:102BB000641E974800880004944908600D2048600E
:102BC000402088600020C8604FF48060086108469B
:102BD000FEF78EFF0D20FDF779FF06460EB1304659
:102BE00080E7874840690390039800F4807008B933
:102BF000002CDDD10CB9292074E784480760182027
:102C000082494860402088600020C8604FF480609E
:102C100008610846FEF76CFF1820FDF757FF0646CF
:102C20000EB130465EE700207A4908700598000131
:102C300074498860084645604FF0FF300860012005
:102C400048610020C86008610846FEF7F1FE4FF0B9
:102C5000FF347148007800287BD1FEF71FFB43E06A
:102C60004FF48040FEF70EFFC8B30198A0EB0900B7
:102C7000202821D20198A0EB090000F0030020B920
:102C80000198A0EB0900800804E00198A0EB09007E
:102C90008008401C02904FF0000A09E0DBF80000B9
:102CA000FEF74AFF0AF1010A0BF1040B09F10409CE
:102CB00002988245F2D30FE04FF0000A05E05BF87E
:102CC0002A00FEF739FF0AF1010ABAF1080FF6D31C
:102CD0000BF1200B09F120096FF0404404E0FFE7FD
:102CE0000CB90420FEE6641E4548406B40F21A61B0
:102CF00008400028B4D00820FEF7C4FE20B1082008
:102D0000FEF77AFE0420EDE60220FEF7BBFE20B1BE
:102D10000220FEF771FE0220E4E61020FEF7B2FE6C
:102D200020B11020FEF768FE0520DBE64FF40070AE
:102D3000FEF7A8FE30B14FF40070FEF75DFE0720ED
:102D4000D0E606E0FEF7ACFA40F2FF502C4988636B
:102D50003EE03148007801283AD1102229460698F1
:102D6000FEF7F0FE00202D4908702A4908702C4912
:102D700008702348C06B40F21A3108432049C863E9
:102D80000846C06A40F00800C86200E0641E25489A
:102D9000006800F4005008B9002CF7D11CB9FFF707
:102DA000C3F804209EE64FF0FF3400E0641E1C4888
:102DB000007820B91948007808B9002CF6D10CB970
:102DC00004208FE61548007810B11448007889E691
:102DD00040F2FF50FEF710FE04A8FEF771FA064617
:102DE00003E004A8FEF76CFA06463EB99DF8100011
:102DF0000728F6D09DF810000628F2D0304671E67C
:102E0000008001400C3C002070000020F83B0020B6
:102E10007400002079000020780000207A00002053
:102E20007B000020000402402DE9FE4F81460C4645
:102E3000924600200290002625462C46700240EA69
:102E4000D5566D0209F00300F0B14FF0000B18E009
:102E50004FF4007249461948FDF70CFB4FF400701F
:102E600000904FEA4B20471946EBE0733A4613486F
:102E7000FFF720FE029009F500790BF1010000F048
:102E8000FF0BD345E4DB16E0BAF1010F09D14FF493
:102E900000702A46334600904846FFF70BFE02902A
:102EA00009E04FF400702A463346CDE9000A48464F
:102EB00000F006F802900298BDE8FE8FA03C0020CA
:102EC0002DE9FF5F84B0DDE9124700260020039062
:102ED0000290002580468146019007FB04FBDDF847
:102EE00010A0DDF810A0BAF1000F03D1262008B021
:102EF000BDE8F09F0020D849C862D8498860486082
:102F0000401E0860012048610020C8600861084632
:102F1000FEF78EFDD048406900F0007008B10E2029
:102F2000E5E7CF480078022808D10402DDE9060170
:102F3000400A40EAC1504912CDE90601002C1FDDCC
:102F4000B4F5006F1CDC601E2040C8B9204600F0BC
:102F50007FFC0390C34804601020C24948604020B1
:102F600088600020C8604FF4806008610846FEF762
:102F7000BFFD1020FDF7AAFD06461EB13046B6E79C
:102F80002620B4E7012F6FD907FB04F0B0F1007FD2
:102F900001D32620ABE7B248007838B1B0480078BA
:102FA000012803D0AE48007802282DD1AE48008811
:102FB0000004AC4908603720486040208860002049
:102FC000C8604FF4806008610846FEF791FD372025
:102FD000FDF77CFD06460EB1304688E7A148076044
:102FE0001720A0494860402088600020C8604FF446
:102FF000806008610846FEF77BFD1720FDF766FD3F
:1030000006460EB1304672E79649069808601920C8
:103010004860402088600020C8604FF480600861EC
:103020000846FEF765FD1920FDF750FD06460EB176
:1030300030465CE7039800018849886007FB04F08C
:1030400048604FF0FF300860012048610020C860F0
:1030500008610846FEF7ECFC84480078002871D12E
:10306000451EFEF71BF940E0DEE07B48406B00F4B4
:103070008040A8B3ABEB080020281ED2ABEB0800C1
:1030800000F0030018B9ABEB0800800803E0ABEBDD
:1030900008008008401C01904FF0000909E0DAF8B0
:1030A0000000FEF749FD09F101090AF1040A08F1DF
:1030B000040801988145F2D30FE04FF0000905E0C4
:1030C0005AF82900FEF738FD09F10109B9F1080F96
:1030D000F6D30AF1200A08F120086FF0404504E019
:1030E000FFE70DB9042002E76D1E5B48406B40F21C
:1030F0001A3108400028B8D00820FEF7C3FC20B1E0
:103100000820FEF779FC0420F1E60220FEF7BAFC65
:1031100020B10220FEF770FC0220E8E61020FEF746
:10312000B1FC20B11020FEF767FC0520DFE64FF46C
:103130000070FEF7A7FC30B14FF40070FEF75CFCA6
:103140000720D4E62CE04FF48070FEF79BFC00B320
:103150004348007838B142480078012803D04048FD
:103160000078022815D100203E4908600C204860F4
:10317000402088600020C8604FF4806008610846E5
:10318000FEF7B6FC0C20FDF7A1FC06460EB130465A
:10319000ADE6FEF785F840F2FF50FEF72DFC43E068
:1031A0003248007801283FD107FB04F1102204982F
:1031B000FEF7C8FC00202E49087001202D49087038
:1031C00000202D4908702448C06B40F21A31084392
:1031D0002149C8630846C06A40F00800C8624FF041
:1031E000FF3500E06D1E2548006800F4005008B966
:1031F000002DF7D11DB9FEF797FE042077E64FF0BA
:10320000FF3500E06D1E1C48007820B91848007892
:1032100008B9002DF6D10DB9042068E614480078ED
:1032200010B11348007862E640F2FF50FEF7E4FB6D
:1032300002A8FEF745F8064603E002A8FEF740F8AC
:1032400006463EB99DF808000728F6D09DF808000C
:103250000628F2D030464AE6008001400C3C0020AF
:1032600070000020F83B002074000020780000204F
:103270007A000020790000207B000020000402403A
:103280002DE9F04104460F469046B4F1006F02D399
:103290000D48844204D30DA0FCF7E6FFBDE8F081A1
:1032A000FDF750FEA4F10066F50A4FF0006101EB56
:1032B000C520FDF7DDFD42463946204600F010F8F6
:1032C000FDF716FE00BFE9E7000008084F757420FF
:1032D0006F66662072616E6765212121200D0000F6
:1032E0002DE9F04105460E461746002407E036F862
:1032F00014102846FDF706FEAD1C601C84B2BC42CB
:10330000F5DBBDE8F081704710B500F001F810BDA5
:103310000CB50020019000903348006840F48030E4
:103320003149086000BF3048006800F40030009068
:103330000198401C0190009818B90198B0F5A06F51
:10334000F1D12948006800F4003010B1012000904C
:1033500001E0002000900098012843D12348006834
:1033600040F01000214908600846006820F0030082
:1033700008600846006840F0020008601A4840688B
:10338000194948600846406848600846406840F46B
:10339000806048600846406820F47C104860084619
:1033A000406840F4E81048600846006840F08070CB
:1033B000086000BF0C48006800F000700028F9D0D9
:1033C0000948406820F00300074948600846406803
:1033D00040F00200486000BF0348406800F00C0065
:1033E0000828F9D10CBD0000001002400020024066
:1033F000042808D14FF0E021096941F004014FF0A1
:10340000E022116107E04FF0E021096921F0040199
:103410004FF0E022116170477047000010B513486B
:10342000006840F0010011490860084640681049F2
:1034300008400E494860084600680E4908400B499C
:1034400008600846006820F480200860084640684C
:1034500020F4FE0048604FF41F008860FFF754FF1F
:103460004FF000600449086010BD000000100240E9
:103470000000FFF8FFFFF6FE08ED00E010B540F297
:1034800025511D4800F0A8F810B31B4800F060F962
:10349000C4B21A48008800F40040C8B91748008830
:1034A00000F4804060B10A2C03D00020134908804A
:1034B00020E01248008840F400401049088019E0DC
:1034C0000D2C06D10D48008840F480400B4908803F
:1034D00010E00A480088C0F30D0009490C54074861
:1034E0000088401C0549088008460088C72801DD7F
:1034F0000020088010BD0000003801401C000020A2
:103500009000002010B50022002340F66A14A1426A
:1035100000D100BF0A1201249440A3B2DC4304800E
:1035200010BD21B1828942F40052828104E0828977
:103530004DF6FF731A4082817047000010B50446B3
:103540002048844209D101218803FDF795FF00211D
:103550004FF48040FDF790FF32E01B48844209D1D0
:1035600001214804FDF768FF00214FF40030FDF70A
:1035700063FF25E01548844209D101218804FDF745
:103580005BFF00214FF48020FDF756FF18E0104844
:10359000844209D10121C804FDF74EFF00214FF4F8
:1035A0000020FDF749FF0BE00A48844208D10121C1
:1035B0000805FDF741FF00214FF48010FDF73CFFA7
:1035C00010BD0000003801400044004000480040A9
:1035D000004C00400050004070B50246002400231B
:1035E0000025002040F66A16B14200D100BFC1F3A9
:1035F000421501F01F03012606FA03F3012D02D143
:103600009689334006E0022D02D1168A334001E04C
:10361000968A33400C12012606FA04F416883440C8
:1036200013B10CB1012000E0002070BDF0B50346DD
:10363000002400260025002040F66A17B94200D178
:1036400000BF1846C1F3421401F01F06012707FA14
:1036500006F5012C01D10C3004E0022C01D1103010
:1036600000E014301AB107682F43076002E00768D2
:10367000AF430760F0BD00002DE9F04786B0054676
:103680000E460024A24600BFA1460027B08900B123
:1036900000BF2F462C8A4CF6FF700440F08804438C
:1036A0002C82AC894EF6F3100440B088318908436F
:1036B000718908430443AC81AC8A4FF6FF40044053
:1036C000B0890443AC8201A8FDF7E6FE1F4887429B
:1036D00002D1DDF810A001E0DDF80CA0A88900F40B
:1036E000004040B10AEBCA0000EB0A103168490003
:1036F000B0FBF1F807E00AEBCA0000EB0A103168F2
:103700008900B0FBF1F86420B8FBF0F00401200957
:10371000642101FB1089A88900F4004040B13220E7
:1037200000EBC900B0FBF1F000F00700044308E033
:10373000322000EB09106421B0FBF1F000F00F0023
:1037400004432C8106B0BDE8F0870000003801403A
:1037500001468888C0F30800704700BFFEE7303894
:103760000A2801D20120704700207047014600BF9F
:103770007047000070B504460D460020E070401E02
:10378000E0622946204601F00DFB08B1042070BD1F
:1037900004F22E2001F0A7FA4AF65521884201D002
:1037A0000320F4E794F83000E92807D094F83000BB
:1037B000EB2803D094F83000E82811D1032209A1A6
:1037C00004F1660001F0C6FA08B90020DFE705221F
:1037D00005A104F1820001F0BDFA08B90020D6E786
:1037E0000220D4E7464154004641543332000000E1
:1037F000024600E0521C107810B110788842F9D1CE
:1038000010787047F0B503460D461E68986A021D91
:10381000680A7789B0FBF7F400BF02CA09B9002033
:10382000F0BD8C4200D202E0641A121DF5E700BF21
:1038300010682044F4E70246891E5069801E8842C1
:1038400001D8002070475389906A03FB0100F9E713
:103850000146002002E04910421CD0B20129FAD1F1
:1038600070472DE9F04782468846DAF80040B8F103
:10387000000F06D1E76817B16069B84215D8012773
:1038800013E04146504601F051F90546022D02D29F
:103890000120BDE8F087681C08B92846F9E760698F
:1038A000A84201D92846F4E74746206908B9002014
:1038B000EFE70026474518D17E1C6069B04200D86A
:1038C00002263146504601F031F90546012D01D05E
:1038D000681C08B92846DCE73DB1E568022D03D332
:1038E0006069A84200D92F460026E6B93E4600BFCF
:1038F000761C6069B04204D80226BE4201D900207D
:10390000C7E73146504601F011F9054605B909E00F
:10391000012D01D0681C08B92846BAE7BE42E7D19C
:103920000020B6E700BF4FF0FF323146204601F0DD
:1039300007FB8146B9F1000F08D1B8F1000F05D09F
:1039400032464146204601F0FBFA8146B9F1000FAC
:103950000DD1E660D4E90410801E814202D82069AE
:10396000401E2061207940F00100207107E0B9F18C
:10397000010F02D14FF0FF3000E001200646304633
:1039800087E700002DE9F35F8946D9F800800098A9
:1039900000F120050B222021284601F0FAF9002031
:1039A000074606464FF0080B00BF3046761C18F855
:1039B0000040202C00DC4AE02F2C01D05C2C0AD1E6
:1039C00000E0761C18F806002F28FAD018F8060038
:1039D0005C28F6D03BE02E2C01D05F450BD3BBF129
:1039E0000B0F01D02E2C02D00620BDE8FC9F08272B
:1039F0004FF00B0BD9E7204600F046F8A8B130464F
:103A0000761C18F800A0504600F058F818B1ABF139
:103A10000100B84201D80620E7E738467F1C2C5445
:103A200038467F1C05F800A010E0214612A0FFF7E1
:103A3000DFFE08B10620D8E7612C04DB7A2C02DC1B
:103A4000A4F12000C4B238467F1C2C54ADE700BF5F
:103A500008EB0600C9F800000FB90620C5E7287872
:103A6000E52801D105202870202C01DC042000E08D
:103A70000020E8720020B8E7222A2B2C3A3B3C3D7C
:103A80003E3F5B5D7C7F000001460B48007888422A
:103A90000FDC09484078884201DB01207047064866
:103AA0008078884205DC0448C078884201DB012028
:103AB000F4E70020F2E700001C530008014610481C
:103AC0000079884219DC0E484079884201DB0120E8
:103AD00070470B488079884205DC0948C0798842E4
:103AE00001DB0120F4E70648007A884205DC04483F
:103AF000407A884201DB0120EAE70020E8E7000085
:103B00001C53000810B56FF00400FFF771FC0A4861
:103B100000680A49B0FBF1F00949087008460078CE
:103B200000EB4001C1EBC0104FF6FF7101EAC0008D
:103B30000449088010BD00000000002000127A0037
:103B400014000020160000200146114A12884A4342
:103B50004FF0E0235A6100229A611A46126942F03E
:103B600001021A6100BF4FF0E022106900F001026B
:103B70001AB100F48032002AF5D04FF0E022126929
:103B800022F001024FF0E0231A6100229A6170478F
:103B9000160000202DE9F04104460E46D4F80080BE
:103BA0000021204600F00DF90546EDB9002700BFC1
:103BB0004046A16901F0F6F8054605B113E0E06959
:103BC0000078E52802D0E069007820B9781C074623
:103BD000B04201D107E000270121204600F070F833
:103BE0000546002DE4D000BF042D00D1072528464E
:103BF000BDE8F0812DE9F04704468946204601F0F2
:103C0000F5FA10B10120BDE8F08749462046FFF7DC
:103C100012FE0646E6624FF40072002104F1300005
:103C200001F0B7F804F130080127002500E03D4419
:103C30006089A84207D9721960783B46414600F076
:103C400081F90028F3D06089A84201D00120DAE789
:103C50000020D8E72DE9F0410446276800212046DE
:103C600000F0AFF8054615B12846BDE8F08100BF69
:103C70003846A16901F096F8054605B11DE0E069F6
:103C800006780EB9042518E0E069C07A00F03F001C
:103C9000A071E069C07A00F0080038B90B2204F185
:103CA0002001E06901F056F800B906E00021204645
:103CB00000F006F80546002DDAD000BF2846D4E70C
:103CC0002DE9F041044688462768206900F1200666
:103CD000A06910B1B6F5001F02D30420BDE8F08141
:103CE000C6F30800002845D1A069401CA0616069A6
:103CF00038B93889B0EB561F3CD80020A0610420A9
:103D0000ECE77889401E00EA562098BB204661699E
:103D100000F00CFF0546012D01D80220DEE7681CEB
:103D200008B90120DAE77869A8421DD8B8F1000F78
:103D300003D10020A0610420D0E720466169FFF78D
:103D400090FD05460DB90720C8E7012D01D10220DD
:103D5000C4E7681C08B90120C0E729463846FFF7C8
:103D600049FF08B10120B9E7656129463846FFF7E8
:103D700062FDA0612661C6F3080107F13000084426
:103D8000E0610020AAE770B50446266801212046BC
:103D9000FFF700FF054695B93046A16901F002F82A
:103DA000054665B920220021E06900F0F2FF0B22F0
:103DB00004F12001E06900F0DFFF0120F0702846E7
:103DC00070BD2DE9F04104460D462668B5F5001F8B
:103DD00002D205F01F0010B10220BDE8F08125617C
:103DE000A7681FB93078032800DB776A47B93089A4
:103DF000B0EB551F01D80220EFE7706AA0611CE00C
:103E000070894FEA402811E03946204600F08EFEC6
:103E10000746781C08B90120DFE7022F02D370693A
:103E2000B84201D80220D8E7A5EB08054545EBD2FA
:103E300039463046FFF7FFFCA0616761A06908B909
:103E40000220CAE7A06900EB5520A061C5F3080174
:103E500006F130000844E0610020BEE770B504467A
:103E600000251CB9FEF760F8054601E0012500BFFA
:103E700000BF0DB1012070BD0020FCE72DE9F04727
:103E800006468946154646BBB9F1000F09D0B9F17F
:103E9000010F13D0B9F1020F05D0B9F1030F19D1F9
:103EA00006E0002418E04FF400702860002413E0BE
:103EB0000C48B0F85000288000240DE009484FF469
:103EC00000720023D0E912713846FCF7A8F9286087
:103ED000002401E0042400BF00E001242046BDE8E6
:103EE000F0870000483C00202DE9F04105460E46D1
:103EF00017461C464FF0000814B90420BDE8F081B5
:103F000095B9E2B239463046FEF7F0FB804607E04D
:103F1000FEF70AF8E2B239463046FEF7E7FB804684
:103F2000B8F1000FF4D102E04FF0010800BF00BF6C
:103F3000B8F1000F01D10020E0E70120DEE70146E3
:103F4000002070472DE9F04105460E4617461C46F5
:103F50004FF0000814B90420BDE8F08195B9E2B231
:103F600039463046FEF760FF804607E0FDF7DCFF8C
:103F7000E2B239463046FEF757FF8046B8F1000FEF
:103F8000F4D102E04FF0010800BF00BFB8F1000F0C
:103F900001D10020E0E70120DEE7000010B5002499
:103FA0000EE04FF40C71002000F0ACFF134941F813
:103FB0002400084650F8240000B903E0601CC4B295
:103FC000012CEEDB00BF4FF40B71002000F09AFFD4
:103FD0000B4908604FF40071002000F093FF09497D
:103FE0000860012C07D10648006820B10846006827
:103FF00008B1002010BD0120FCE7000040000020B7
:10400000440000205000002038B50546284600F046
:1040100059FB04463CB96946284601F061F904465B
:104020000CB900202860204638BD2DE9F04F89B03A
:1040300004460D4607A9204601F052F90890089859
:1040400008B9607C0890089818B1089809B0BDE8D4
:10405000F08FA06A00287CD0681C002843D1D4F8D7
:1040600028A05AF8040B029002200190A76867B3B9
:1040700000BF0397002004900198801C019000BFAE
:1040800005970498401C04903946204600F04EFDE8
:104090000746012F02D802206074D7E7781C10B9B8
:1040A00001206074D2E70598401C8742E8D0DDE922
:1040B0000101884205D804984AF8040B03984AF88D
:1040C000040B07984069B842D3D80198A16A0860E8
:1040D000DDE90101884203D80020CAF80000FAE0B7
:1040E00011200890F7E0E068A84200D2E568656119
:1040F000002DF4D0691E2046FFF784FBA061A16962
:104100000798FFF798FB8146B9F1000F02D1022012
:1041100060749BE707984089401E691E00EA5120A1
:104120008144A08AC0F308000028D8D0E06948453F
:10413000D5D0207C00F0800080B1E26907994878F2
:10414000012304F12C01FFF7FDFE18B1012060747A
:104150007CE712E0207C00F07F002074079948780B
:1041600001234A4604F12C01FFF7BEFE10B10120E5
:1041700060746BE7C4F81C90ADE0E068A84204D21C
:10418000207C00F0020000B9E568606906904FF0FD
:10419000000BC4F814B0002D6AD0079840894FEA8C
:1041A0004028069890B1681EB0FBF8F10698401EB2
:1041B000B0FBF8F0814209D30698401EA8F1010136
:1041C0008843606160692D1AA66912E0A6687EB90D
:1041D00000212046FFF745FB0646012E02D10220B2
:1041E000607433E7701C10B9012060742EE7A6607C
:1041F000A661D6B325E0A5EB08056069404460617F
:10420000207C00F0020040B100BF31462046FFF79D
:1042100028FB064636B9002515E03146204600F059
:1042200085FC0646701C10B9012060740EE7012E53
:1042300003D907984069B04202D80220607405E7AC
:10424000A6614545D7D800BF606928446061C5F3C1
:10425000080050B131460798FFF7EDFA8346BBF1ED
:10426000000F03D102206074F0E601E00BEB552B48
:10427000E1686069884205D96069E060207C40F0AF
:1042800040002074A08AC0F3080020B3E0695845BC
:1042900021D0207C00F0800078B1E269079948784D
:1042A000012304F12C01FFF74DFE10B101206074D1
:1042B000CCE6207C00F07F00207407994878012329
:1042C0005A4604F12C01FFF70FFE10B10120607473
:1042D000BCE6C4F81CB00898B8E60000F7B582B098
:1042E00016460398019001A800F092FC0546002DA7
:1042F00002DA0B2005B0F0BD0C4850F825400CB197
:1043000000202070029810B100200299087007491F
:10431000029841F825000EB90020EBE7002202A91F
:1043200003A800F01FFA07463846E3E734000020F0
:104330002DE9F74F8EB0044616461CB9092011B07E
:10434000BDE8F08F06F03F06324602A90FA800F044
:1043500009FA0546002D7DD10298039003A80F9914
:1043600000F086FB05462DB99DF8370000F080006F
:1043700000B1062506F01C00002850D045B1042DE0
:1043800003D103A8FFF7FFFC054646F008060AE044
:104390009DF8120000F0110008B1072503E006F0B7
:1043A000040000B10825002D4AD106F008000028BD
:1043B00046D00A99029800F077FC814600F026FC6E
:1043C00000900A9901F10E00009900F0B4FE20203F
:1043D0000A99C87200220A99029800F09AFE0A9976
:1043E00001F11C00002100F0A6FE01200299C87016
:1043F000B9F1000F24D00298C06A0190002249460A
:1044000003A800F039FE0546D5B9DDE9011000F03A
:10441000C9FC0546A9F101000299C86010E07DB908
:104420009DF8120000F0100008B1042508E006F025
:10443000020028B19DF8120000F0010000B107252C
:104440005DB906F0080008B146F040060298C06A5F
:10445000206200E04DE00A986062002D57D10A9971
:10446000029800F021FCA0600A9901F11C0000F004
:104470002EFCE0600020A062029820600298C088B4
:10448000A080267400206074E06160614FF40072C7
:10449000002104F12C0000F07CFC06F0200040B369
:1044A000E06830B3E0686061029840894FEA402AD2
:1044B000A768D4F80C800CE03946204600F036FBA3
:1044C0000746012F00D80225781C00B90125A8EB6A
:1044D0000A080DB9D045EFD8A76155B9C8F308004F
:1044E00038B139460298FFF7A6F95FEA000B01D10F
:1044F00002250CE00BEB5820E061E2690299487854
:10450000012304F12C01FFF7EFFC00B101250DB1EF
:1045100000202060284612E72DE9FF4F85B00446B1
:1045200015469A46DDF818B00020CAF8000003A925
:10453000204600F0D5FE0490049810B9607C0490E9
:1045400018B1049809B0BDE8F08F207C00F001009C
:1045500008B90720F6E76169E068401A0190019800
:10456000854200D9019DA8E0A08AC0F30800002878
:1045700074D103984089401E616900EA5129B9F15C
:10458000000F1FD1606910B9A06802900CE0A06A0A
:1045900028B120466169FFF735F9029004E0204612
:1045A000A16900F0C3FA02900298022802D2022008
:1045B0006074C7E70298401C10B901206074C1E71D
:1045C0000298A061A1690398FFF735F9064616B96C
:1045D00002206074B6E74E444FEA5528B8F1000F48
:1045E00029D009EB080003994989884203D9039827
:1045F0004089A0EB0908039948784346324659465A
:10460000FFF772FC10B1012060749BE7207C00F082
:10461000800068B1E069801B404509D2E169891BCF
:104620000BEB41204FF4007204F12C0100F0A4FBCD
:104630004FEA482737E0E069B04220D0207C00F004
:10464000800080B1E26903994878012304F12C01CC
:10465000FFF778FC18B10120607473E710E0207C4C
:1046600000F07F002074039948780123324604F15A
:104670002C01FFF739FC10B10120607462E7E6619C
:10468000A08AC0F30800C0F50077AF4200D92F46DA
:10469000A08AC0F3080204F12C0011183A465846CB
:1046A00000F06AFB00BFED1BDAF800003844CAF8DE
:1046B0000000BB44606938446061002D7FF454AF52
:1046C00000203FE7F8B504466946204600F008FEA2
:1046D0000646002E44D1207C00F0400000283FD048
:1046E000207C00F0800070B1E269009948780123D5
:1046F00004F12C01FFF726FC08B10120F8BD207C55
:1047000000F07F00207400F081FA0746216A0098CB
:1047100000F048FB06461EBB656AE87A40F02000C0
:10472000E8722946A268206800F0F3FC05F11C003D
:10473000E16800F000FD394605F1160000F0FBFCD1
:10474000002105F1120000F002FD01200099C8705F
:10475000009800F003FD0646207C00F0BF002074A6
:104760003046CBE72DE9F74F8AB000210B98016066
:104770000A9800F04DFA08900898002803DA0B20F8
:104780000DB0BDE8F08FB549089851F820400CB93C
:104790000C20F5E70B9804600C9800F0FE000C90DC
:1047A000207878B16078FFF7CAFB814609F00100F4
:1047B00040B90C9820B109F0040008B10A20DFE7E5
:1047C0000020DDE700202070089860706078FFF717
:1047D00045FB814609F0010008B10320D0E70C98A1
:1047E00020B109F0040008B10A20C9E700273946C2
:1047F0002046FEF7BFFF0546022D01D02EDA2DE040
:10480000002614E04FF4DF7000EB061104F13000D5
:10481000084409900998007920B10998083000F0FF
:1048200056FA00E0002002A941F82600761C042E6A
:10483000E8D3002606B1761E00BF02A850F8267005
:1048400027B139462046FEF795FF00E003200546D4
:10485000022D03DB701C06460428EED3042D01D183
:1048600001208DE7022D01DB0D2089E704F13B00DB
:1048700000F039FAB0F5007F01D00D2080E704F197
:10488000460000F030FA8046B8F1000F04D104F180
:10489000540000F01CFA8046C4F818804020005DE7
:1048A000A070A078012804D0A078022801D00D20A3
:1048B00066E7A07808FB00F83D20005D6081608914
:1048C00018B16089411E084008B10D2058E704F175
:1048D000410000F008FA2081207A00F00F0008B1B2
:1048E0000D204DE704F1430000F0FDF98346BBF1D4
:1048F000000F04D104F1500000F0E9F9834604F1FF
:104900003E0000F0F0F90190019808B90D2037E75A
:1049100001984044218900EB1110079007988345C6
:1049200001D20D202CE70798ABEB00006189B0FBAA
:10493000F1FABAF1000F01D10D2021E70025484816
:10494000824500D803254FF6F570824500D8022530
:1049500040F6F570824500D801250DB90D200FE70E
:104960000AF102006061E76101983844206207980B
:104970003844A062032D13D104F15A0000F0B3F9BA
:1049800008B10D20FCE6208908B10D20F8E604F1FD
:104990005C0000F09CF9606260698000069014E0A1
:1049A000208908B90D20EBE6206A40446062022DA0
:1049B00002D16069400007E0207D00F001006169DC
:1049C00001EB410100EB51000690A169069800F24D
:1049D000FF10B1EB502F01D20D20D1E64FF0FF3088
:1049E0002061E06080202071032D2CD104F1600053
:1049F00000F079F9012826D1791C204600F0D2F97F
:104A000008BB0020207104F22E2000F06CF94AF659
:104A10005521884217D104F1300000F058F91149AE
:104A2000884210D104F5057000F051F90E49884212
:104A300009D104F5067000F04AF9206104F5077009
:104A400000F045F9E060257008480088401C80B2FD
:104A500006490880E080002092E600003400002033
:104A6000F5FFFF0F52526141727241613800002020
:104A70002DE9F3410446276802E00198401C0190AB
:104A8000019800782F28F8D0019800785C28F4D09D
:104A90000020A06001980078202808D280212B20D7
:104AA000015500212046FFF78CF905462CE000BF98
:104AB00001A92046FEF766FF054605B123E0204622
:104AC000FFF7C8F805462B20065D3DB1042D04D143
:104AD00000BF06F0040000B9052514E006F004004C
:104AE00000B110E0A07900F0100008B905250AE037
:104AF000208AC0F3080207F130001118384600F090
:104B0000D3F8A060D4E700BF2846BDE8FC810000D0
:104B100000BF054A128802F04002002AF9D0C2B252
:104B2000014B1B1D1A807047003801402DE9F047EA
:104B300081460C46D9F80050022C02D36869A04285
:104B400002D84FF001085EE04FF0FF3828780128C6
:104B500004D002282CD0032851D13CE0264606EB95
:104B60005606286A00EB5621284600F01BF900B1D2
:104B700048E03046761CC0F3080105F13000475C80
:104B8000286A00EB5621284600F00CF900B139E004
:104B9000C6F3080105F13000405C47EA002704F045
:104BA000010008B1380901E0C7F30B00804629E095
:104BB000286A00EB1421284600F0F4F800B121E047
:104BC00040F2FF1101EA440205F13001501800F0F3
:104BD0008AF8804616E0286A00EBD411284600F0D7
:104BE000E1F800B10EE040F2FF1101EA840205F1A4
:104BF0003001501800F06BF820F0704802E04FF0E0
:104C0000010800BF00BF4046BDE8F08700207047A4
:104C100030B502464FF0FF301568F5B1116800E07D
:104C2000491C0D78212D02D30D783A2DF8D10D783D
:104C30003A2D11D1146814F8013B302B0DD3392BC8
:104C40000BD88C4209D1A3F130052B0005D11846B1
:104C50004D1C2946156000E0002030BD10B504460B
:104C6000206809490840B0F1005F09D16068074930
:104C700008602068FBF7AEFA04480068804702E04D
:104C800003A0FBF7F1FA10BD0000FE2F3C0000204E
:104C90006A756D7020746F20617070206973206573
:104CA00072726F720D0A000070B505460C4604F171
:104CB0001A0000F018F806462878032805D104F1F8
:104CC000140000F010F846EA0046304670BD014678
:104CD000C8788A7842EA00204A7842EA00200A78B6
:104CE00042EA00207047014648780A7842EA0020EC
:104CF0007047000010B562B64FF000600F490860C1
:104D00004FF4A060FCF766FBFEF7FCFE4FF4E130C9
:104D100000F092FA4FF47A70FEF716FF4FF47A70B3
:104D2000FEF712FF4FF47A70FEF70EFF04A0FBF7B8
:104D30009BFAFBF749FD002010BD000008ED00E0E4
:104D400053797374656D20696E6974206973206F7F
:104D50006B0D0000F0B503461D460C46002000BF59
:104D600015F8017B14F801CBA7EB0C00561E32009E
:104D700001D00028F4D0F0BD30B503460C463AB15E
:104D800000BF14F8015B03F8015B551E2A00F8D13F
:104D900030BD10B5034600BF03F8011B541E2200AE
:104DA000FAD110BD70B504460D460026E06AA8424F
:104DB00010D0204600F01AFA06465EB9607801234A
:104DC0002A4604F13001FFF78FF810B14FF0FF359C
:104DD0000126E562304670BD10B504460C4951F815
:104DE00024104A000B4951F82400002100F09EF8DD
:104DF000094951F824200749083951F824000021B5
:104E000000F094F8012103480830015510BD00005E
:104E10005453000864000020645300082DE9F04753
:104E200004460F460025A9462348005D20B92248C4
:104E300018380168204688471FB94FF0FF30BDE899
:104E4000F0871E4850F82400B7FBF0F61B4850F8D6
:104E50002400B7FBF0F100FB117000B1761C18487C
:104E600050F82400451E22E01348083850F824006A
:104E700030F8150010B909F1010901E04FF00009FF
:104E8000B14513D14FF0000809E00B48083850F83D
:104E9000240005EB080220F8126008F10108B04573
:104EA000F3D3064850F824006843C8E76D1E002D70
:104EB000DADA4FF0FF30C2E76C0000205C530008E4
:104EC0005453000810B501460023002207E00B48A8
:104ED00050F8210030F8120000B15B1C521C084849
:104EE00050F821009042F2D864205843044C54F802
:104EF0002140B0FBF4F0C0B210BD000064000020FF
:104F00005453000870B504460E4631462046FFF75C
:104F100085FF0546681C08B9002070BD024850F89E
:104F200024002844F9E700005C00002030B5034667
:104F300001E003F8011B1400A2F10102F9D130BD18
:104F40002DE9F04704460D4616464FF00209022DA2
:104F500074D36069A84271D92078012804D002284E
:104F600049D003280DD15EE02F4607EB5707206A92
:104F700000EB57212046FFF715FF8146B9F1000FDE
:104F800000D075E038467F1CC0F3080104F1300002
:104F900001EB000805F0010028B1F1B298F800001B
:104FA00061F31F1000E0304688F800000120E07037
:104FB000206A00EB57212046FFF7F4FE8146B9F145
:104FC000000F00D054E0C7F3080104F1300001EBFA
:104FD000000805F0010010B1C6F3071006E098F8CC
:104FE000000000F0F000C6F30321084388F8000039
:104FF0000120E0703CE0206A00EB15212046FFF71D
:10500000D1FE8146B9F1000F00D031E0B1B240F2DB
:10501000FF1202EA450304F13002981800F097F8F5
:105020000120E07024E0206A00EBD5112046FFF754
:10503000B9FE8146B9F1000F01D019E019E040F244
:10504000FF1101EA850204F130015018FFF73FFE1D
:1050500066F31B00064640F2FF1101EA850204F1E7
:1050600030015018314600F066F80120E07000BFB2
:1050700000BF4846BDE8F0872DE9F04781460E465F
:1050800017464FF00008D9F80040022E02D360699D
:10509000B04202D80220BDE8F08767B100BF4FF0F0
:1050A000FF3239462046FFF74BFF8046B8F1000F2C
:1050B00001D04046EFE700BF31464846FFF736FDD6
:1050C000054605B922E0012D01D10220E3E7681C65
:1050D00008B90120DFE7002231462046FFF730FF04
:1050E0008046B8F1000F01D04046D4E7D4E904105F
:1050F000801E814206D22069401C2061207940F048
:10510000010020712E466069B042D5D800BF002052
:10511000C1E770B506460C461546A9B204F11A005F
:1051200000F015F83078032804D1290C04F114009C
:1051300000F00DF870BD00F8011B090A00F8011B12
:10514000090A00F8011B090A00F8011B704700F862
:10515000011B091200F8011B7047000070B50446DE
:10516000204600F043F80546002D38D1207803286A
:105170002ED1207901282BD14202002104F13000E8
:10518000FFF707FE4AF6552104F22E20FFF7DFFF56
:10519000144904F13000FFF7CEFF134904F5057000
:1051A000FFF7C9FF04F506702169FFF7C4FF04F596
:1051B0000770E168FFF7BFFFE069401CE0626078BC
:1051C000012304F13001E26AFEF7BCFE00202071E9
:1051D000607800221146FEF751FE00B101252846F5
:1051E00070BD0000525261417272416170B5044657
:1051F0000025E078E8B16078012304F13001E26A2B
:10520000FEF7A0FEA0B90020E070216AE06A401A13
:10521000A16988420DD2A07802280AD1A369E16A67
:10522000CA186078012304F13001FEF78BFE00E01C
:105230000125284670BD000010B586B00446012146
:1052400044F20400FCF708F92348FEF777F94FF41D
:105250000070ADF8140003208DF8160018208DF8AA
:10526000170005A91D48FBF757FF4FF48060ADF804
:10527000140004208DF8170005A91848FBF74CFF0F
:1052800025208DF8000003208DF801008DF8020024
:1052900001208DF803006846FCF764F801940020B3
:1052A000ADF80800ADF80A00ADF80C00ADF810003C
:1052B0000C20ADF80E0001A90748FEF7DDF9012228
:1052C00040F225510448FEF7B1F901210248FEF7EA
:1052D00028F906B010BD0000003801400008014068
:1052E00070B504460D4609268CB1206878B1206857
:1052F000007860B1A0882168C988884207D12168F8
:105300004878FEF71CFE00F0010000B900260EB937
:10531000206800E000202860304670BD81FE00005B
:10532000407E80FE00002B2E2C3B3D5B5D222A3A06
:105330003C3E3F7C7F000100040010004000000163
:10534000000200000100020004000800100020001C
:1053500000000000400100000040000020000000AC
:105360002000000000280000000008003031323327
:105370003435363738394142434445464030580089
:1053800030313233343536373839616263646566BB
:1053900040307800B4530008000000209000000066
:1053A0006C01000844540008900000207044000084
:1053B0008801000800A24A0400000000000000006C
:1053C00001020304060708090000000000000000B5
:1053D00000000000000001020304010203040607AC
:1053E0000809020406080000000000000000000098
:1053F00000000000000000000000000000000000AD
:105400000000000000000000D94D0008C54E000853
:10541000601100200000006860390020000008686A
:10542000000000000000000000000000010000007B
:10543000000000000000000000000000000000006C
:045440000000000068
:04000005080001DD11
:00000001FF
