Component: ARM Compiler 5.06 update 6 (build 750) Tool: armlink [4d35ed]

==============================================================================

Section Cross References

    stm32f4xx_assert.o(i.assert_failed) refers to printf8.o(i.__0printf$8) for __2printf
    bsp.o(i.bsp_Init) refers to bsp_uart_fifo.o(i.bsp_InitUart) for bsp_InitUart
    bsp.o(i.bsp_Init) refers to bsp_timer.o(i.bsp_InitTimer) for bsp_InitTimer
    bsp.o(i.bsp_Init) refers to bsp_led.o(i.bsp_InitLed) for bsp_InitLed
    bsp.o(i.bsp_Init) refers to bsp_oled.o(i.OLED_InitHard) for OLED_InitHard
    bsp.o(i.bsp_Init) refers to bsp_spi_flash.o(i.bsp_InitSFlash) for bsp_InitSFlash
    bsp.o(i.bsp_Init) refers to bsp_key.o(i.bsp_InitKey) for bsp_InitKey
    bsp.o(i.bsp_Init) refers to bsp_timer.o(i.bsp_StartAutoTimer) for bsp_StartAutoTimer
    bsp.o(i.bsp_Init) refers to bsp_beep.o(i.BEEP_Start) for BEEP_Start
    bsp.o(i.bsp_RunPer10ms) refers to bsp_beep.o(i.BEEP_Pro) for BEEP_Pro
    bsp.o(i.bsp_RunPer10ms) refers to bsp_timer.o(i.bsp_CheckTimer) for bsp_CheckTimer
    bsp.o(i.bsp_RunPer1ms) refers to iap.o(.data) for IAP_t
    bsp.o(i.bsp_RunPer1ms) refers to bsp_protocol.o(.data) for COM1Receive
    bsp_key.o(i.bsp_InitKey) refers to bsp_key.o(i.bsp_InitKeyHard) for bsp_InitKeyHard
    bsp_key.o(i.bsp_InitKeyHard) refers to stm32f4xx_rcc.o(i.RCC_AHB1PeriphClockCmd) for RCC_AHB1PeriphClockCmd
    bsp_key.o(i.bsp_InitKeyHard) refers to stm32f4xx_gpio.o(i.GPIO_Init) for GPIO_Init
    bsp_user_lib.o(i.CRC16_CCITT) refers to bsp_user_lib.o(i.InvertUint8) for InvertUint8
    bsp_user_lib.o(i.CRC16_CCITT) refers to bsp_user_lib.o(i.InvertUint16) for InvertUint16
==============================================================================

Removing Unused input sections from the image.

    Removing stm32f4xx_assert.o(.rev16_text), (4 bytes).
    Removing stm32f4xx_assert.o(.revsh_text), (4 bytes).
    Removing stm32f4xx_assert.o(.rrx_text), (6 bytes).
    Removing stm32f4xx_assert.o(i.assert_failed), (68 bytes).
    Removing stm32f4xx_it.o(.rev16_text), (4 bytes).
    Removing stm32f4xx_it.o(.revsh_text), (4 bytes).
    Removing stm32f4xx_it.o(.rrx_text), (6 bytes).
    Removing bsp.o(.rev16_text), (4 bytes).
    Removing bsp.o(.revsh_text), (4 bytes).
    Removing bsp.o(.rrx_text), (6 bytes).
    Removing bsp_key.o(.rev16_text), (4 bytes).
    Removing bsp_key.o(.revsh_text), (4 bytes).
    Removing bsp_key.o(.rrx_text), (6 bytes).
    Removing bsp_user_lib.o(.rev16_text), (4 bytes).
    Removing bsp_user_lib.o(.revsh_text), (4 bytes).
    Removing bsp_user_lib.o(.rrx_text), (6 bytes).
    Removing bsp_user_lib.o(i.AscBin_To_LongInt), (90 bytes).
    Removing bsp_user_lib.o(i.Asc_To_Char), (110 bytes).
==============================================================================

Image Symbol Table

    Local Symbols

    Symbol Name                              Value     Ov Type        Size  Object(Section)

    ../clib/../cmprslib/zerorunl2.c          0x00000000   Number         0  __dczerorl2.o ABSOLUTE
    ../clib/microlib/division.c              0x00000000   Number         0  uidiv.o ABSOLUTE
    ../clib/microlib/division.c              0x00000000   Number         0  uldiv.o ABSOLUTE
    ../clib/microlib/division.c              0x00000000   Number         0  ldiv.o ABSOLUTE
    ../clib/microlib/init/entry.s            0x00000000   Number         0  entry10a.o ABSOLUTE
    ../clib/microlib/init/entry.s            0x00000000   Number         0  entry8b.o ABSOLUTE
    ../clib/microlib/init/entry.s            0x00000000   Number         0  entry7a.o ABSOLUTE
    ../clib/microlib/init/entry.s            0x00000000   Number         0  entry7b.o ABSOLUTE
    ../clib/microlib/init/entry.s            0x00000000   Number         0  entry9a.o ABSOLUTE
    ../clib/microlib/init/entry.s            0x00000000   Number         0  entry9b.o ABSOLUTE
    ../clib/microlib/init/entry.s            0x00000000   Number         0  entry2.o ABSOLUTE
    ../clib/microlib/init/entry.s            0x00000000   Number         0  entry10b.o ABSOLUTE
    ../clib/microlib/init/entry.s            0x00000000   Number         0  entry11a.o ABSOLUTE
    ../clib/microlib/init/entry.s            0x00000000   Number         0  entry11b.o ABSOLUTE
    ../clib/microlib/init/entry.s            0x00000000   Number         0  entry.o ABSOLUTE
    ../clib/microlib/init/entry.s            0x00000000   Number         0  entry5.o ABSOLUTE
    ../clib/microlib/init/entry.s            0x00000000   Number         0  entry8a.o ABSOLUTE
    ../clib/microlib/longlong.c              0x00000000   Number         0  llshl.o ABSOLUTE
    ../clib/microlib/longlong.c              0x00000000   Number         0  llushr.o ABSOLUTE
    ../clib/microlib/longlong.c              0x00000000   Number         0  llsshr.o ABSOLUTE
    ../clib/microlib/malloc/malloc.c         0x00000000   Number         0  mallocra.o ABSOLUTE
    ../clib/microlib/malloc/malloc.c         0x00000000   Number         0  malloca.o ABSOLUTE
    ../clib/microlib/malloc/malloc.c         0x00000000   Number         0  mallocr.o ABSOLUTE
    ../clib/microlib/malloc/malloc.c         0x00000000   Number         0  malloc.o ABSOLUTE
    ../clib/microlib/malloc/mvars.c          0x00000000   Number         0  mvars.o ABSOLUTE
    ../clib/microlib/printf/printf.c         0x00000000   Number         0  printf4.o ABSOLUTE
    ../clib/microlib/printf/printf.c         0x00000000   Number         0  printf8.o ABSOLUTE
    ../clib/microlib/printf/printf.c         0x00000000   Number         0  printf2.o ABSOLUTE
    ../clib/microlib/printf/printf.c         0x00000000   Number         0  printf1.o ABSOLUTE
    ../clib/microlib/printf/printf.c         0x00000000   Number         0  printf0.o ABSOLUTE
    ../clib/microlib/printf/printf.c         0x00000000   Number         0  printfb.o ABSOLUTE
    ../clib/microlib/printf/printf.c         0x00000000   Number         0  printf5.o ABSOLUTE
    ../clib/microlib/printf/printf.c         0x00000000   Number         0  printf3.o ABSOLUTE
    ../clib/microlib/printf/printf.c         0x00000000   Number         0  printf6.o ABSOLUTE
    ../clib/microlib/printf/printf.c         0x00000000   Number         0  printf7.o ABSOLUTE
    ../clib/microlib/printf/printf.c         0x00000000   Number         0  printfa.o ABSOLUTE
    ../clib/microlib/printf/stubs.s          0x00000000   Number         0  stubs.o ABSOLUTE
    ../clib/microlib/stdio/streams.c         0x00000000   Number         0  stdout.o ABSOLUTE
    ../clib/microlib/string/memcmp.c         0x00000000   Number         0  memcmp.o ABSOLUTE
    ../clib/microlib/string/memcpy.c         0x00000000   Number         0  memcpya.o ABSOLUTE
    ../clib/microlib/string/memcpy.c         0x00000000   Number         0  memcpyb.o ABSOLUTE
    ../clib/microlib/string/memset.c         0x00000000   Number         0  memseta.o ABSOLUTE
    ../clib/microlib/string/strcmp.c         0x00000000   Number         0  strcmp.o ABSOLUTE
    ../clib/microlib/string/strcpy.c         0x00000000   Number         0  strcpy.o ABSOLUTE
    ../clib/microlib/string/strlen.c         0x00000000   Number         0  strlen.o ABSOLUTE
    ../clib/microlib/stubs.s                 0x00000000   Number         0  iusefp.o ABSOLUTE
    ../fplib/microlib/fpadd.c                0x00000000   Number         0  dadd.o ABSOLUTE
    ../fplib/microlib/fpdiv.c                0x00000000   Number         0  ddiv.o ABSOLUTE
    ../fplib/microlib/fpepilogue.c           0x00000000   Number         0  depilogue.o ABSOLUTE
    ../fplib/microlib/fpfix.c                0x00000000   Number         0  dfixul.o ABSOLUTE
    ../fplib/microlib/fpmul.c                0x00000000   Number         0  dmul.o ABSOLUTE
    ..\..\Bsp\bsp.c                          0x00000000   Number         0  bsp.o ABSOLUTE
    ..\..\Bsp\bsp_swd.c                      0x00000000   Number         0  bsp_swd.o ABSOLUTE
    ..\..\Bsp\bsp_swd_flash.c                0x00000000   Number         0  bsp_swd_flash.o ABSOLUTE
    ..\..\Bsp\src\bsp_beep.c                 0x00000000   Number         0  bsp_beep.o ABSOLUTE
    ..\..\Bsp\src\bsp_key.c                  0x00000000   Number         0  bsp_key.o ABSOLUTE
    ..\..\Bsp\src\bsp_led.c                  0x00000000   Number         0  bsp_led.o ABSOLUTE
    ..\..\Bsp\src\bsp_oled.c                 0x00000000   Number         0  bsp_oled.o ABSOLUTE
    ..\..\Bsp\src\bsp_protocol.c             0x00000000   Number         0  bsp_protocol.o ABSOLUTE
    ..\..\Bsp\src\bsp_sdio_sd.c              0x00000000   Number         0  bsp_sdio_sd.o ABSOLUTE
    ..\..\Bsp\src\bsp_spi_flash.c            0x00000000   Number         0  bsp_spi_flash.o ABSOLUTE
    ..\..\Bsp\src\bsp_tim_pwm.c              0x00000000   Number         0  bsp_tim_pwm.o ABSOLUTE
    ..\..\Bsp\src\bsp_timer.c                0x00000000   Number         0  bsp_timer.o ABSOLUTE
    ..\..\Bsp\src\bsp_uart_fifo.c            0x00000000   Number         0  bsp_uart_fifo.o ABSOLUTE
    ..\..\Bsp\src\bsp_user_lib.c             0x00000000   Number         0  bsp_user_lib.o ABSOLUTE
    ..\..\Bsp\stm32f4xx_assert.c             0x00000000   Number         0  stm32f4xx_assert.o ABSOLUTE
    ..\..\Bsp\stm32f4xx_it.c                 0x00000000   Number         0  stm32f4xx_it.o ABSOLUTE
    ..\..\FatFS\src\diskio.c                 0x00000000   Number         0  diskio.o ABSOLUTE
    ..\..\FatFS\src\ff.c                     0x00000000   Number         0  ff.o ABSOLUTE
    ..\..\Libraries\CMSIS\Device\ST\STM32F4xx\Source\Templates\arm\startup_stm32f401xx.s 0x00000000   Number         0  startup_stm32f401xx.o ABSOLUTE
    ..\..\Libraries\CMSIS\system_stm32f4xx.c 0x00000000   Number         0  system_stm32f4xx.o ABSOLUTE
    ..\..\Libraries\STM32F4xx_StdPeriph_Driver\src\misc.c 0x00000000   Number         0  misc.o ABSOLUTE
    ..\..\Libraries\STM32F4xx_StdPeriph_Driver\src\stm32f4xx_adc.c 0x00000000   Number         0  stm32f4xx_adc.o ABSOLUTE
    ..\..\Libraries\STM32F4xx_StdPeriph_Driver\src\stm32f4xx_can.c 0x00000000   Number         0  stm32f4xx_can.o ABSOLUTE
    ..\..\Libraries\STM32F4xx_StdPeriph_Driver\src\stm32f4xx_cec.c 0x00000000   Number         0  stm32f4xx_cec.o ABSOLUTE
    ..\..\Libraries\STM32F4xx_StdPeriph_Driver\src\stm32f4xx_crc.c 0x00000000   Number         0  stm32f4xx_crc.o ABSOLUTE
    ..\..\Libraries\STM32F4xx_StdPeriph_Driver\src\stm32f4xx_cryp.c 0x00000000   Number         0  stm32f4xx_cryp.o ABSOLUTE
    ..\..\Libraries\STM32F4xx_StdPeriph_Driver\src\stm32f4xx_cryp_aes.c 0x00000000   Number         0  stm32f4xx_cryp_aes.o ABSOLUTE
    ..\..\Libraries\STM32F4xx_StdPeriph_Driver\src\stm32f4xx_cryp_des.c 0x00000000   Number         0  stm32f4xx_cryp_des.o ABSOLUTE
    ..\..\Libraries\STM32F4xx_StdPeriph_Driver\src\stm32f4xx_cryp_tdes.c 0x00000000   Number         0  stm32f4xx_cryp_tdes.o ABSOLUTE
    ..\..\Libraries\STM32F4xx_StdPeriph_Driver\src\stm32f4xx_dac.c 0x00000000   Number         0  stm32f4xx_dac.o ABSOLUTE
    ..\..\Libraries\STM32F4xx_StdPeriph_Driver\src\stm32f4xx_dbgmcu.c 0x00000000   Number         0  stm32f4xx_dbgmcu.o ABSOLUTE
    ..\..\Libraries\STM32F4xx_StdPeriph_Driver\src\stm32f4xx_dcmi.c 0x00000000   Number         0  stm32f4xx_dcmi.o ABSOLUTE
    ..\..\Libraries\STM32F4xx_StdPeriph_Driver\src\stm32f4xx_dfsdm.c 0x00000000   Number         0  stm32f4xx_dfsdm.o ABSOLUTE
    ..\..\Libraries\STM32F4xx_StdPeriph_Driver\src\stm32f4xx_dma.c 0x00000000   Number         0  stm32f4xx_dma.o ABSOLUTE
    ..\..\Libraries\STM32F4xx_StdPeriph_Driver\src\stm32f4xx_dma2d.c 0x00000000   Number         0  stm32f4xx_dma2d.o ABSOLUTE
    ..\..\Libraries\STM32F4xx_StdPeriph_Driver\src\stm32f4xx_dsi.c 0x00000000   Number         0  stm32f4xx_dsi.o ABSOLUTE
    ..\..\Libraries\STM32F4xx_StdPeriph_Driver\src\stm32f4xx_exti.c 0x00000000   Number         0  stm32f4xx_exti.o ABSOLUTE
    ..\..\Libraries\STM32F4xx_StdPeriph_Driver\src\stm32f4xx_flash.c 0x00000000   Number         0  stm32f4xx_flash.o ABSOLUTE
    ..\..\Libraries\STM32F4xx_StdPeriph_Driver\src\stm32f4xx_flash_ramfunc.c 0x00000000   Number         0  stm32f4xx_flash_ramfunc.o ABSOLUTE
    ..\..\Libraries\STM32F4xx_StdPeriph_Driver\src\stm32f4xx_gpio.c 0x00000000   Number         0  stm32f4xx_gpio.o ABSOLUTE
    ..\..\Libraries\STM32F4xx_StdPeriph_Driver\src\stm32f4xx_hash.c 0x00000000   Number         0  stm32f4xx_hash.o ABSOLUTE
    ..\..\Libraries\STM32F4xx_StdPeriph_Driver\src\stm32f4xx_hash_md5.c 0x00000000   Number         0  stm32f4xx_hash_md5.o ABSOLUTE
    ..\..\Libraries\STM32F4xx_StdPeriph_Driver\src\stm32f4xx_hash_sha1.c 0x00000000   Number         0  stm32f4xx_hash_sha1.o ABSOLUTE
    ..\..\Libraries\STM32F4xx_StdPeriph_Driver\src\stm32f4xx_i2c.c 0x00000000   Number         0  stm32f4xx_i2c.o ABSOLUTE
    ..\..\Libraries\STM32F4xx_StdPeriph_Driver\src\stm32f4xx_iwdg.c 0x00000000   Number         0  stm32f4xx_iwdg.o ABSOLUTE
    ..\..\Libraries\STM32F4xx_StdPeriph_Driver\src\stm32f4xx_lptim.c 0x00000000   Number         0  stm32f4xx_lptim.o ABSOLUTE
    ..\..\Libraries\STM32F4xx_StdPeriph_Driver\src\stm32f4xx_ltdc.c 0x00000000   Number         0  stm32f4xx_ltdc.o ABSOLUTE
    ..\..\Libraries\STM32F4xx_StdPeriph_Driver\src\stm32f4xx_pwr.c 0x00000000   Number         0  stm32f4xx_pwr.o ABSOLUTE
    ..\..\Libraries\STM32F4xx_StdPeriph_Driver\src\stm32f4xx_qspi.c 0x00000000   Number         0  stm32f4xx_qspi.o ABSOLUTE
    ..\..\Libraries\STM32F4xx_StdPeriph_Driver\src\stm32f4xx_rcc.c 0x00000000   Number         0  stm32f4xx_rcc.o ABSOLUTE
    ..\..\Libraries\STM32F4xx_StdPeriph_Driver\src\stm32f4xx_rng.c 0x00000000   Number         0  stm32f4xx_rng.o ABSOLUTE
    ..\..\Libraries\STM32F4xx_StdPeriph_Driver\src\stm32f4xx_rtc.c 0x00000000   Number         0  stm32f4xx_rtc.o ABSOLUTE
    ..\..\Libraries\STM32F4xx_StdPeriph_Driver\src\stm32f4xx_sai.c 0x00000000   Number         0  stm32f4xx_sai.o ABSOLUTE
    ..\..\Libraries\STM32F4xx_StdPeriph_Driver\src\stm32f4xx_sdio.c 0x00000000   Number         0  stm32f4xx_sdio.o ABSOLUTE
    ..\..\Libraries\STM32F4xx_StdPeriph_Driver\src\stm32f4xx_spdifrx.c 0x00000000   Number         0  stm32f4xx_spdifrx.o ABSOLUTE
    ..\..\Libraries\STM32F4xx_StdPeriph_Driver\src\stm32f4xx_spi.c 0x00000000   Number         0  stm32f4xx_spi.o ABSOLUTE
    ..\..\Libraries\STM32F4xx_StdPeriph_Driver\src\stm32f4xx_syscfg.c 0x00000000   Number         0  stm32f4xx_syscfg.o ABSOLUTE
    ..\..\Libraries\STM32F4xx_StdPeriph_Driver\src\stm32f4xx_tim.c 0x00000000   Number         0  stm32f4xx_tim.o ABSOLUTE
    ..\..\Libraries\STM32F4xx_StdPeriph_Driver\src\stm32f4xx_usart.c 0x00000000   Number         0  stm32f4xx_usart.o ABSOLUTE
    ..\..\Libraries\STM32F4xx_StdPeriph_Driver\src\stm32f4xx_wwdg.c 0x00000000   Number         0  stm32f4xx_wwdg.o ABSOLUTE
    ..\..\Libraries\STM32_USB_Device_Library\Class\msc\src\usbd_msc_bot.c 0x00000000   Number         0  usbd_msc_bot.o ABSOLUTE
    ..\..\Libraries\STM32_USB_Device_Library\Class\msc\src\usbd_msc_core.c 0x00000000   Number         0  usbd_msc_core.o ABSOLUTE
    ..\..\Libraries\STM32_USB_Device_Library\Class\msc\src\usbd_msc_data.c 0x00000000   Number         0  usbd_msc_data.o ABSOLUTE
    ..\..\Libraries\STM32_USB_Device_Library\Class\msc\src\usbd_msc_scsi.c 0x00000000   Number         0  usbd_msc_scsi.o ABSOLUTE
    ..\..\Libraries\STM32_USB_Device_Library\Core\src\usbd_core.c 0x00000000   Number         0  usbd_core.o ABSOLUTE
    ..\..\Libraries\STM32_USB_Device_Library\Core\src\usbd_ioreq.c 0x00000000   Number         0  usbd_ioreq.o ABSOLUTE
    ..\..\Libraries\STM32_USB_Device_Library\Core\src\usbd_req.c 0x00000000   Number         0  usbd_req.o ABSOLUTE
    ..\..\Libraries\STM32_USB_OTG_Driver\src\usb_core.c 0x00000000   Number         0  usb_core.o ABSOLUTE
    ..\..\Libraries\STM32_USB_OTG_Driver\src\usb_dcd.c 0x00000000   Number         0  usb_dcd.o ABSOLUTE
    ..\..\Libraries\STM32_USB_OTG_Driver\src\usb_dcd_int.c 0x00000000   Number         0  usb_dcd_int.o ABSOLUTE
    ..\..\User\HexToBin.c                    0x00000000   Number         0  hextobin.o ABSOLUTE
    ..\..\User\IAP.c                         0x00000000   Number         0  iap.o ABSOLUTE
    ..\..\User\demo_sdio_fatfs.c             0x00000000   Number         0  demo_sdio_fatfs.o ABSOLUTE
    ..\..\User\demo_spi_flash.c              0x00000000   Number         0  demo_spi_flash.o ABSOLUTE
    ..\..\User\fonts\asc12.c                 0x00000000   Number         0  asc12.o ABSOLUTE
    ..\..\User\fonts\asc16.c                 0x00000000   Number         0  asc16.o ABSOLUTE
    ..\..\User\fonts\asc24.c                 0x00000000   Number         0  asc24.o ABSOLUTE
    ..\..\User\fonts\asc32.c                 0x00000000   Number         0  asc32.o ABSOLUTE
    ..\..\User\fonts\hz12.c                  0x00000000   Number         0  hz12.o ABSOLUTE
    ..\..\User\fonts\hz16.c                  0x00000000   Number         0  hz16.o ABSOLUTE
    ..\..\User\fonts\hz24.c                  0x00000000   Number         0  hz24.o ABSOLUTE
    ..\..\User\fonts\hz32.c                  0x00000000   Number         0  hz32.o ABSOLUTE
    ..\..\User\fonts\ra8875_asc_width.c      0x00000000   Number         0  ra8875_asc_width.o ABSOLUTE
    ..\..\User\main.c                        0x00000000   Number         0  main.o ABSOLUTE
    ..\..\User\usbd_mass_storage\usb_bsp.c   0x00000000   Number         0  usb_bsp.o ABSOLUTE
    ..\..\User\usbd_mass_storage\usb_it.c    0x00000000   Number         0  usb_it.o ABSOLUTE
    ..\..\User\usbd_mass_storage\usbd_desc.c 0x00000000   Number         0  usbd_desc.o ABSOLUTE
    ..\..\User\usbd_mass_storage\usbd_storage_msd.c 0x00000000   Number         0  usbd_storage_msd.o ABSOLUTE
    ..\..\User\usbd_mass_storage\usbd_usr.c  0x00000000   Number         0  usbd_usr.o ABSOLUTE
    ..\\..\\Bsp\\bsp.c                       0x00000000   Number         0  bsp.o ABSOLUTE
    ..\\..\\Bsp\\bsp_swd.c                   0x00000000   Number         0  bsp_swd.o ABSOLUTE
    ..\\..\\Bsp\\bsp_swd_flash.c             0x00000000   Number         0  bsp_swd_flash.o ABSOLUTE
    ..\\..\\Bsp\\src\\bsp_beep.c             0x00000000   Number         0  bsp_beep.o ABSOLUTE
    ..\\..\\Bsp\\src\\bsp_key.c              0x00000000   Number         0  bsp_key.o ABSOLUTE
    ..\\..\\Bsp\\src\\bsp_led.c              0x00000000   Number         0  bsp_led.o ABSOLUTE
    ..\\..\\Bsp\\src\\bsp_oled.c             0x00000000   Number         0  bsp_oled.o ABSOLUTE
    ..\\..\\Bsp\\src\\bsp_protocol.c         0x00000000   Number         0  bsp_protocol.o ABSOLUTE
    ..\\..\\Bsp\\src\\bsp_sdio_sd.c          0x00000000   Number         0  bsp_sdio_sd.o ABSOLUTE
    ..\\..\\Bsp\\src\\bsp_spi_flash.c        0x00000000   Number         0  bsp_spi_flash.o ABSOLUTE
    ..\\..\\Bsp\\src\\bsp_tim_pwm.c          0x00000000   Number         0  bsp_tim_pwm.o ABSOLUTE
    ..\\..\\Bsp\\src\\bsp_timer.c            0x00000000   Number         0  bsp_timer.o ABSOLUTE
    ..\\..\\Bsp\\src\\bsp_uart_fifo.c        0x00000000   Number         0  bsp_uart_fifo.o ABSOLUTE
    ..\\..\\Bsp\\src\\bsp_user_lib.c         0x00000000   Number         0  bsp_user_lib.o ABSOLUTE
    ..\\..\\Bsp\\stm32f4xx_assert.c          0x00000000   Number         0  stm32f4xx_assert.o ABSOLUTE
    ..\\..\\Bsp\\stm32f4xx_it.c              0x00000000   Number         0  stm32f4xx_it.o ABSOLUTE
    ..\\..\\FatFS\\src\\diskio.c             0x00000000   Number         0  diskio.o ABSOLUTE
    ..\\..\\Libraries\\CMSIS\\system_stm32f4xx.c 0x00000000   Number         0  system_stm32f4xx.o ABSOLUTE
    ..\\..\\Libraries\\STM32F4xx_StdPeriph_Driver\\src\\misc.c 0x00000000   Number         0  misc.o ABSOLUTE
    ..\\..\\Libraries\\STM32F4xx_StdPeriph_Driver\\src\\stm32f4xx_adc.c 0x00000000   Number         0  stm32f4xx_adc.o ABSOLUTE
    ..\\..\\Libraries\\STM32F4xx_StdPeriph_Driver\\src\\stm32f4xx_can.c 0x00000000   Number         0  stm32f4xx_can.o ABSOLUTE
    ..\\..\\Libraries\\STM32F4xx_StdPeriph_Driver\\src\\stm32f4xx_cec.c 0x00000000   Number         0  stm32f4xx_cec.o ABSOLUTE
    ..\\..\\Libraries\\STM32F4xx_StdPeriph_Driver\\src\\stm32f4xx_crc.c 0x00000000   Number         0  stm32f4xx_crc.o ABSOLUTE
    ..\\..\\Libraries\\STM32F4xx_StdPeriph_Driver\\src\\stm32f4xx_cryp.c 0x00000000   Number         0  stm32f4xx_cryp.o ABSOLUTE
    ..\\..\\Libraries\\STM32F4xx_StdPeriph_Driver\\src\\stm32f4xx_cryp_aes.c 0x00000000   Number         0  stm32f4xx_cryp_aes.o ABSOLUTE
    ..\\..\\Libraries\\STM32F4xx_StdPeriph_Driver\\src\\stm32f4xx_cryp_des.c 0x00000000   Number         0  stm32f4xx_cryp_des.o ABSOLUTE
    ..\\..\\Libraries\\STM32F4xx_StdPeriph_Driver\\src\\stm32f4xx_cryp_tdes.c 0x00000000   Number         0  stm32f4xx_cryp_tdes.o ABSOLUTE
    ..\\..\\Libraries\\STM32F4xx_StdPeriph_Driver\\src\\stm32f4xx_dac.c 0x00000000   Number         0  stm32f4xx_dac.o ABSOLUTE
    ..\\..\\Libraries\\STM32F4xx_StdPeriph_Driver\\src\\stm32f4xx_dbgmcu.c 0x00000000   Number         0  stm32f4xx_dbgmcu.o ABSOLUTE
    ..\\..\\Libraries\\STM32F4xx_StdPeriph_Driver\\src\\stm32f4xx_dcmi.c 0x00000000   Number         0  stm32f4xx_dcmi.o ABSOLUTE
    ..\\..\\Libraries\\STM32F4xx_StdPeriph_Driver\\src\\stm32f4xx_dfsdm.c 0x00000000   Number         0  stm32f4xx_dfsdm.o ABSOLUTE
    ..\\..\\Libraries\\STM32F4xx_StdPeriph_Driver\\src\\stm32f4xx_dma.c 0x00000000   Number         0  stm32f4xx_dma.o ABSOLUTE
    ..\\..\\Libraries\\STM32F4xx_StdPeriph_Driver\\src\\stm32f4xx_dma2d.c 0x00000000   Number         0  stm32f4xx_dma2d.o ABSOLUTE
    ..\\..\\Libraries\\STM32F4xx_StdPeriph_Driver\\src\\stm32f4xx_dsi.c 0x00000000   Number         0  stm32f4xx_dsi.o ABSOLUTE
    ..\\..\\Libraries\\STM32F4xx_StdPeriph_Driver\\src\\stm32f4xx_exti.c 0x00000000   Number         0  stm32f4xx_exti.o ABSOLUTE
    ..\\..\\Libraries\\STM32F4xx_StdPeriph_Driver\\src\\stm32f4xx_flash.c 0x00000000   Number         0  stm32f4xx_flash.o ABSOLUTE
    ..\\..\\Libraries\\STM32F4xx_StdPeriph_Driver\\src\\stm32f4xx_flash_ramfunc.c 0x00000000   Number         0  stm32f4xx_flash_ramfunc.o ABSOLUTE
    ..\\..\\Libraries\\STM32F4xx_StdPeriph_Driver\\src\\stm32f4xx_gpio.c 0x00000000   Number         0  stm32f4xx_gpio.o ABSOLUTE
    ..\\..\\Libraries\\STM32F4xx_StdPeriph_Driver\\src\\stm32f4xx_hash.c 0x00000000   Number         0  stm32f4xx_hash.o ABSOLUTE
    ..\\..\\Libraries\\STM32F4xx_StdPeriph_Driver\\src\\stm32f4xx_hash_md5.c 0x00000000   Number         0  stm32f4xx_hash_md5.o ABSOLUTE
    ..\\..\\Libraries\\STM32F4xx_StdPeriph_Driver\\src\\stm32f4xx_hash_sha1.c 0x00000000   Number         0  stm32f4xx_hash_sha1.o ABSOLUTE
    ..\\..\\Libraries\\STM32F4xx_StdPeriph_Driver\\src\\stm32f4xx_i2c.c 0x00000000   Number         0  stm32f4xx_i2c.o ABSOLUTE
    ..\\..\\Libraries\\STM32F4xx_StdPeriph_Driver\\src\\stm32f4xx_iwdg.c 0x00000000   Number         0  stm32f4xx_iwdg.o ABSOLUTE
    ..\\..\\Libraries\\STM32F4xx_StdPeriph_Driver\\src\\stm32f4xx_lptim.c 0x00000000   Number         0  stm32f4xx_lptim.o ABSOLUTE
    ..\\..\\Libraries\\STM32F4xx_StdPeriph_Driver\\src\\stm32f4xx_ltdc.c 0x00000000   Number         0  stm32f4xx_ltdc.o ABSOLUTE
    ..\\..\\Libraries\\STM32F4xx_StdPeriph_Driver\\src\\stm32f4xx_pwr.c 0x00000000   Number         0  stm32f4xx_pwr.o ABSOLUTE
    ..\\..\\Libraries\\STM32F4xx_StdPeriph_Driver\\src\\stm32f4xx_qspi.c 0x00000000   Number         0  stm32f4xx_qspi.o ABSOLUTE
    ..\\..\\Libraries\\STM32F4xx_StdPeriph_Driver\\src\\stm32f4xx_rcc.c 0x00000000   Number         0  stm32f4xx_rcc.o ABSOLUTE
    ..\\..\\Libraries\\STM32F4xx_StdPeriph_Driver\\src\\stm32f4xx_rng.c 0x00000000   Number         0  stm32f4xx_rng.o ABSOLUTE
    ..\\..\\Libraries\\STM32F4xx_StdPeriph_Driver\\src\\stm32f4xx_rtc.c 0x00000000   Number         0  stm32f4xx_rtc.o ABSOLUTE
    ..\\..\\Libraries\\STM32F4xx_StdPeriph_Driver\\src\\stm32f4xx_sai.c 0x00000000   Number         0  stm32f4xx_sai.o ABSOLUTE
    ..\\..\\Libraries\\STM32F4xx_StdPeriph_Driver\\src\\stm32f4xx_sdio.c 0x00000000   Number         0  stm32f4xx_sdio.o ABSOLUTE
    ..\\..\\Libraries\\STM32F4xx_StdPeriph_Driver\\src\\stm32f4xx_spdifrx.c 0x00000000   Number         0  stm32f4xx_spdifrx.o ABSOLUTE
    ..\\..\\Libraries\\STM32F4xx_StdPeriph_Driver\\src\\stm32f4xx_spi.c 0x00000000   Number         0  stm32f4xx_spi.o ABSOLUTE
    ..\\..\\Libraries\\STM32F4xx_StdPeriph_Driver\\src\\stm32f4xx_syscfg.c 0x00000000   Number         0  stm32f4xx_syscfg.o ABSOLUTE
    ..\\..\\Libraries\\STM32F4xx_StdPeriph_Driver\\src\\stm32f4xx_tim.c 0x00000000   Number         0  stm32f4xx_tim.o ABSOLUTE
    ..\\..\\Libraries\\STM32F4xx_StdPeriph_Driver\\src\\stm32f4xx_usart.c 0x00000000   Number         0  stm32f4xx_usart.o ABSOLUTE
    ..\\..\\Libraries\\STM32F4xx_StdPeriph_Driver\\src\\stm32f4xx_wwdg.c 0x00000000   Number         0  stm32f4xx_wwdg.o ABSOLUTE
    ..\\..\\Libraries\\STM32_USB_Device_Library\\Class\\msc\\src\\usbd_msc_bot.c 0x00000000   Number         0  usbd_msc_bot.o ABSOLUTE
    ..\\..\\Libraries\\STM32_USB_Device_Library\\Class\\msc\\src\\usbd_msc_core.c 0x00000000   Number         0  usbd_msc_core.o ABSOLUTE
    ..\\..\\Libraries\\STM32_USB_Device_Library\\Class\\msc\\src\\usbd_msc_data.c 0x00000000   Number         0  usbd_msc_data.o ABSOLUTE
    ..\\..\\Libraries\\STM32_USB_Device_Library\\Class\\msc\\src\\usbd_msc_scsi.c 0x00000000   Number         0  usbd_msc_scsi.o ABSOLUTE
    ..\\..\\Libraries\\STM32_USB_Device_Library\\Core\\src\\usbd_core.c 0x00000000   Number         0  usbd_core.o ABSOLUTE
    ..\\..\\Libraries\\STM32_USB_Device_Library\\Core\\src\\usbd_ioreq.c 0x00000000   Number         0  usbd_ioreq.o ABSOLUTE
    ..\\..\\Libraries\\STM32_USB_Device_Library\\Core\\src\\usbd_req.c 0x00000000   Number         0  usbd_req.o ABSOLUTE
    ..\\..\\Libraries\\STM32_USB_OTG_Driver\\src\\usb_core.c 0x00000000   Number         0  usb_core.o ABSOLUTE
    ..\\..\\Libraries\\STM32_USB_OTG_Driver\\src\\usb_dcd.c 0x00000000   Number         0  usb_dcd.o ABSOLUTE
    ..\\..\\Libraries\\STM32_USB_OTG_Driver\\src\\usb_dcd_int.c 0x00000000   Number         0  usb_dcd_int.o ABSOLUTE
    ..\\..\\User\\HexToBin.c                 0x00000000   Number         0  hextobin.o ABSOLUTE
    ..\\..\\User\\IAP.c                      0x00000000   Number         0  iap.o ABSOLUTE
    ..\\..\\User\\demo_sdio_fatfs.c          0x00000000   Number         0  demo_sdio_fatfs.o ABSOLUTE
    ..\\..\\User\\demo_spi_flash.c           0x00000000   Number         0  demo_spi_flash.o ABSOLUTE
    ..\\..\\User\\main.c                     0x00000000   Number         0  main.o ABSOLUTE
    ..\\..\\User\\usbd_mass_storage\\usb_bsp.c 0x00000000   Number         0  usb_bsp.o ABSOLUTE
    ..\\..\\User\\usbd_mass_storage\\usb_it.c 0x00000000   Number         0  usb_it.o ABSOLUTE
    ..\\..\\User\\usbd_mass_storage\\usbd_desc.c 0x00000000   Number         0  usbd_desc.o ABSOLUTE
    ..\\..\\User\\usbd_mass_storage\\usbd_storage_msd.c 0x00000000   Number         0  usbd_storage_msd.o ABSOLUTE
    ..\\..\\User\\usbd_mass_storage\\usbd_usr.c 0x00000000   Number         0  usbd_usr.o ABSOLUTE
    cdrcmple.s                               0x00000000   Number         0  cdrcmple.o ABSOLUTE
    dc.s                                     0x00000000   Number         0  dc.o ABSOLUTE
    handlers.s                               0x00000000   Number         0  handlers.o ABSOLUTE
    init.s                                   0x00000000   Number         0  init.o ABSOLUTE
    RESET                                    0x08000000   Section      404  startup_stm32f401xx.o(RESET)
    .ARM.Collect$$$$00000000                 0x08000194   Section        0  entry.o(.ARM.Collect$$$$00000000)
    .ARM.Collect$$$$00000001                 0x08000194   Section        4  entry2.o(.ARM.Collect$$$$00000001)
    .ARM.Collect$$$$00000004                 0x08000198   Section        4  entry5.o(.ARM.Collect$$$$00000004)
    .ARM.Collect$$$$00000008                 0x0800019c   Section        0  entry7b.o(.ARM.Collect$$$$00000008)
    .ARM.Collect$$$$0000000A                 0x0800019c   Section        0  entry8b.o(.ARM.Collect$$$$0000000A)
    .ARM.Collect$$$$0000000B                 0x0800019c   Section        8  entry9a.o(.ARM.Collect$$$$0000000B)
    .ARM.Collect$$$$0000000D                 0x080001a4   Section        0  entry10a.o(.ARM.Collect$$$$0000000D)
    .ARM.Collect$$$$0000000F                 0x080001a4   Section        0  entry11a.o(.ARM.Collect$$$$0000000F)
    .ARM.Collect$$$$00002712                 0x080001a4   Section        4  entry2.o(.ARM.Collect$$$$00002712)
    __lit__00000000                          0x080001a4   Data           4  entry2.o(.ARM.Collect$$$$00002712)
    .text                                    0x080001a8   Section       36  startup_stm32f401xx.o(.text)
    $v0                                      0x080001a8   Number         0  startup_stm32f401xx.o(.text)
    .text                                    0x080001cc   Section        0  uldiv.o(.text)
    .text                                    0x0800022e   Section        0  memcpya.o(.text)
    .text                                    0x08000252   Section        0  memseta.o(.text)
    .text                                    0x08000276   Section        0  strlen.o(.text)
    .text                                    0x08000284   Section        0  strcmp.o(.text)
    .text                                    0x080002a0   Section        0  strcpy.o(.text)
    .text                                    0x080002b2   Section        0  llshl.o(.text)
    .text                                    0x080002d0   Section        0  llushr.o(.text)
    .text                                    0x080002f0   Section       36  init.o(.text)
    .text                                    0x08000314   Section        0  __dczerorl2.o(.text)
    i.BEEP_KeyTone                           0x0800036a   Section        0  bsp_beep.o(i.BEEP_KeyTone)
    i.BEEP_Pro                               0x08000378   Section        0  bsp_beep.o(i.BEEP_Pro)
    i.BEEP_Start                             0x08000440   Section        0  bsp_beep.o(i.BEEP_Start)
    i.BEEP_Stop                              0x08000488   Section        0  bsp_beep.o(i.BEEP_Stop)
    i.BusFault_Handler                       0x080004bc   Section        0  stm32f4xx_it.o(i.BusFault_Handler)
    i.COM1_Recieve_Callback                  0x080004c0   Section        0  bsp_protocol.o(i.COM1_Recieve_Callback)
    i.COM1_SendData                          0x08000544   Section        0  bsp_uart_fifo.o(i.COM1_SendData)
    i.CRC16_CCITT                            0x08000570   Section        0  bsp_user_lib.o(i.CRC16_CCITT)
    i.CloseFile                              0x080005e4   Section        0  iap.o(i.CloseFile)
    i.CmdError                               0x080005fe   Section        0  bsp_sdio_sd.o(i.CmdError)
    CmdError                                 0x080005ff   Thumb Code    44  bsp_sdio_sd.o(i.CmdError)
    i.CmdResp1Error                          0x0800062c   Section        0  bsp_sdio_sd.o(i.CmdResp1Error)
    CmdResp1Error                            0x0800062d   Thumb Code   298  bsp_sdio_sd.o(i.CmdResp1Error)
    i.CmdResp2Error                          0x08000760   Section        0  bsp_sdio_sd.o(i.CmdResp2Error)
    CmdResp2Error                            0x08000761   Thumb Code    70  bsp_sdio_sd.o(i.CmdResp2Error)
    i.CmdResp3Error                          0x080007ac   Section        0  bsp_sdio_sd.o(i.CmdResp3Error)
    CmdResp3Error                            0x080007ad   Thumb Code    52  bsp_sdio_sd.o(i.CmdResp3Error)
    i.CmdResp6Error                          0x080007e4   Section        0  bsp_sdio_sd.o(i.CmdResp6Error)
    CmdResp6Error                            0x080007e5   Thumb Code   152  bsp_sdio_sd.o(i.CmdResp6Error)
    i.CmdResp7Error                          0x08000880   Section        0  bsp_sdio_sd.o(i.CmdResp7Error)
    CmdResp7Error                            0x08000881   Thumb Code    72  bsp_sdio_sd.o(i.CmdResp7Error)
    i.ConfigUartNVIC                         0x080008cc   Section        0  bsp_uart_fifo.o(i.ConfigUartNVIC)
    ConfigUartNVIC                           0x080008cd   Thumb Code    52  bsp_uart_fifo.o(i.ConfigUartNVIC)
    i.DCD_EP_Close                           0x08000900   Section        0  usb_dcd.o(i.DCD_EP_Close)
    i.DCD_EP_ClrStall                        0x0800094a   Section        0  usb_dcd.o(i.DCD_EP_ClrStall)
    i.DCD_EP_Flush                           0x08000992   Section        0  usb_dcd.o(i.DCD_EP_Flush)
    i.DCD_EP_Open                            0x080009b6   Section        0  usb_dcd.o(i.DCD_EP_Open)
    i.DCD_EP_PrepareRx                       0x08000a1e   Section        0  usb_dcd.o(i.DCD_EP_PrepareRx)
    i.DCD_EP_SetAddress                      0x08000a70   Section        0  usb_dcd.o(i.DCD_EP_SetAddress)
    i.DCD_EP_Stall                           0x08000a8c   Section        0  usb_dcd.o(i.DCD_EP_Stall)
    i.DCD_EP_Tx                              0x08000ad4   Section        0  usb_dcd.o(i.DCD_EP_Tx)
    i.DCD_HandleEnumDone_ISR                 0x08000b22   Section        0  usb_dcd_int.o(i.DCD_HandleEnumDone_ISR)
    DCD_HandleEnumDone_ISR                   0x08000b23   Thumb Code   102  usb_dcd_int.o(i.DCD_HandleEnumDone_ISR)
    i.DCD_HandleInEP_ISR                     0x08000b88   Section        0  usb_dcd_int.o(i.DCD_HandleInEP_ISR)
    DCD_HandleInEP_ISR                       0x08000b89   Thumb Code   320  usb_dcd_int.o(i.DCD_HandleInEP_ISR)
    i.DCD_HandleOutEP_ISR                    0x08000ccc   Section        0  usb_dcd_int.o(i.DCD_HandleOutEP_ISR)
    DCD_HandleOutEP_ISR                      0x08000ccd   Thumb Code   252  usb_dcd_int.o(i.DCD_HandleOutEP_ISR)
    i.DCD_HandleResume_ISR                   0x08000dcc   Section        0  usb_dcd_int.o(i.DCD_HandleResume_ISR)
    DCD_HandleResume_ISR                     0x08000dcd   Thumb Code   100  usb_dcd_int.o(i.DCD_HandleResume_ISR)
    i.DCD_HandleRxStatusQueueLevel_ISR       0x08000e34   Section        0  usb_dcd_int.o(i.DCD_HandleRxStatusQueueLevel_ISR)
    DCD_HandleRxStatusQueueLevel_ISR         0x08000e35   Thumb Code   176  usb_dcd_int.o(i.DCD_HandleRxStatusQueueLevel_ISR)
    i.DCD_HandleSof_ISR                      0x08000ee4   Section        0  usb_dcd_int.o(i.DCD_HandleSof_ISR)
    DCD_HandleSof_ISR                        0x08000ee5   Thumb Code    38  usb_dcd_int.o(i.DCD_HandleSof_ISR)
    i.DCD_HandleUSBSuspend_ISR               0x08000f10   Section        0  usb_dcd_int.o(i.DCD_HandleUSBSuspend_ISR)
    DCD_HandleUSBSuspend_ISR                 0x08000f11   Thumb Code   158  usb_dcd_int.o(i.DCD_HandleUSBSuspend_ISR)
    i.DCD_HandleUsbReset_ISR                 0x08000fb8   Section        0  usb_dcd_int.o(i.DCD_HandleUsbReset_ISR)
    DCD_HandleUsbReset_ISR                   0x08000fb9   Thumb Code   254  usb_dcd_int.o(i.DCD_HandleUsbReset_ISR)
    i.DCD_Init                               0x080010bc   Section        0  usb_dcd.o(i.DCD_Init)
    i.DCD_IsoINIncomplete_ISR                0x08001158   Section        0  usb_dcd_int.o(i.DCD_IsoINIncomplete_ISR)
    DCD_IsoINIncomplete_ISR                  0x08001159   Thumb Code    40  usb_dcd_int.o(i.DCD_IsoINIncomplete_ISR)
    i.DCD_IsoOUTIncomplete_ISR               0x08001184   Section        0  usb_dcd_int.o(i.DCD_IsoOUTIncomplete_ISR)
    DCD_IsoOUTIncomplete_ISR                 0x08001185   Thumb Code    40  usb_dcd_int.o(i.DCD_IsoOUTIncomplete_ISR)
    i.DCD_ReadDevInEP                        0x080011b0   Section        0  usb_dcd_int.o(i.DCD_ReadDevInEP)
    DCD_ReadDevInEP                          0x080011b1   Thumb Code    40  usb_dcd_int.o(i.DCD_ReadDevInEP)
    i.DCD_WriteEmptyTxFifo                   0x080011d8   Section        0  usb_dcd_int.o(i.DCD_WriteEmptyTxFifo)
    DCD_WriteEmptyTxFifo                     0x080011d9   Thumb Code   144  usb_dcd_int.o(i.DCD_WriteEmptyTxFifo)
    i.DMA2_Stream3_IRQHandler                0x08001268   Section        0  bsp_sdio_sd.o(i.DMA2_Stream3_IRQHandler)
    i.DMA_ClearFlag                          0x08001270   Section        0  stm32f4xx_dma.o(i.DMA_ClearFlag)
    i.DMA_Cmd                                0x080012a4   Section        0  stm32f4xx_dma.o(i.DMA_Cmd)
    i.DMA_DeInit                             0x080012bc   Section        0  stm32f4xx_dma.o(i.DMA_DeInit)
    i.DMA_FlowControllerConfig               0x08001414   Section        0  stm32f4xx_dma.o(i.DMA_FlowControllerConfig)
    i.DMA_ITConfig                           0x0800142a   Section        0  stm32f4xx_dma.o(i.DMA_ITConfig)
    i.DMA_Init                               0x08001464   Section        0  stm32f4xx_dma.o(i.DMA_Init)
    i.DebugMon_Handler                       0x080014bc   Section        0  stm32f4xx_it.o(i.DebugMon_Handler)
    i.ExtraSubStr                            0x080014c0   Section        0  hextobin.o(i.ExtraSubStr)
    i.FindSCR                                0x08001548   Section        0  bsp_sdio_sd.o(i.FindSCR)
    FindSCR                                  0x08001549   Thumb Code   386  bsp_sdio_sd.o(i.FindSCR)
    i.GPIO_Init                              0x080016dc   Section        0  stm32f4xx_gpio.o(i.GPIO_Init)
    i.GPIO_PinAFConfig                       0x0800176c   Section        0  stm32f4xx_gpio.o(i.GPIO_PinAFConfig)
    i.GPIO_WriteBit                          0x080017b2   Section        0  stm32f4xx_gpio.o(i.GPIO_WriteBit)
    i.HardFault_Handler                      0x080017bc   Section        0  stm32f4xx_it.o(i.HardFault_Handler)
    i.HexToDec                               0x08001814   Section        0  hextobin.o(i.HexToDec)
    i.IAPData                                0x08001868   Section        0  iap.o(i.IAPData)
    i.IAP_SendCMD                            0x08001d04   Section        0  iap.o(i.IAP_SendCMD)
    i.IAP_SendData                           0x08001d80   Section        0  iap.o(i.IAP_SendData)
    i.InitHardUart                           0x08001eac   Section        0  bsp_uart_fifo.o(i.InitHardUart)
    InitHardUart                             0x08001ead   Thumb Code   324  bsp_uart_fifo.o(i.InitHardUart)
    i.InvertUint16                           0x08002000   Section        0  bsp_user_lib.o(i.InvertUint16)
    i.InvertUint8                            0x0800203a   Section        0  bsp_user_lib.o(i.InvertUint8)
    i.IsKeyDown1                             0x08002074   Section        0  bsp_key.o(i.IsKeyDown1)
    i.MSC_BOT_Abort                          0x0800208c   Section        0  usbd_msc_bot.o(i.MSC_BOT_Abort)
    MSC_BOT_Abort                            0x0800208d   Thumb Code    60  usbd_msc_bot.o(i.MSC_BOT_Abort)
    i.MSC_BOT_CBW_Decode                     0x080020d0   Section        0  usbd_msc_bot.o(i.MSC_BOT_CBW_Decode)
    MSC_BOT_CBW_Decode                       0x080020d1   Thumb Code   178  usbd_msc_bot.o(i.MSC_BOT_CBW_Decode)
    i.MSC_BOT_CplClrFeature                  0x080021a0   Section        0  usbd_msc_bot.o(i.MSC_BOT_CplClrFeature)
    i.MSC_BOT_DataIn                         0x080021dc   Section        0  usbd_msc_bot.o(i.MSC_BOT_DataIn)
    i.MSC_BOT_DataOut                        0x0800222c   Section        0  usbd_msc_bot.o(i.MSC_BOT_DataOut)
    i.MSC_BOT_DeInit                         0x08002270   Section        0  usbd_msc_bot.o(i.MSC_BOT_DeInit)
    i.MSC_BOT_Init                           0x0800227c   Section        0  usbd_msc_bot.o(i.MSC_BOT_Init)
    i.MSC_BOT_Reset                          0x080022c4   Section        0  usbd_msc_bot.o(i.MSC_BOT_Reset)
    i.MSC_BOT_SendCSW                        0x080022f0   Section        0  usbd_msc_bot.o(i.MSC_BOT_SendCSW)
    i.MSC_BOT_SendData                       0x08002330   Section        0  usbd_msc_bot.o(i.MSC_BOT_SendData)
    MSC_BOT_SendData                         0x08002331   Thumb Code    60  usbd_msc_bot.o(i.MSC_BOT_SendData)
    i.MemManage_Handler                      0x08002378   Section        0  stm32f4xx_it.o(i.MemManage_Handler)
    i.NMI_Handler                            0x0800237c   Section        0  stm32f4xx_it.o(i.NMI_Handler)
    i.NVIC_Init                              0x08002380   Section        0  misc.o(i.NVIC_Init)
    i.NVIC_PriorityGroupConfig               0x080023f8   Section        0  misc.o(i.NVIC_PriorityGroupConfig)
    i.OLED_BufToPanel                        0x0800240c   Section        0  bsp_oled.o(i.OLED_BufToPanel)
    OLED_BufToPanel                          0x0800240d   Thumb Code    62  bsp_oled.o(i.OLED_BufToPanel)
    i.OLED_ClrScr                            0x08002450   Section        0  bsp_oled.o(i.OLED_ClrScr)
    i.OLED_ConfigGPIO                        0x08002480   Section        0  bsp_oled.o(i.OLED_ConfigGPIO)
    OLED_ConfigGPIO                          0x08002481   Thumb Code   106  bsp_oled.o(i.OLED_ConfigGPIO)
    i.OLED_DispOn                            0x080024f0   Section        0  bsp_oled.o(i.OLED_DispOn)
    i.OLED_DispStr                           0x08002514   Section        0  bsp_oled.o(i.OLED_DispStr)
    i.OLED_InitHard                          0x08002760   Section        0  bsp_oled.o(i.OLED_InitHard)
    i.OLED_PutPixel                          0x08002834   Section        0  bsp_oled.o(i.OLED_PutPixel)
    i.OLED_Set_Pos                           0x080028e4   Section        0  bsp_oled.o(i.OLED_Set_Pos)
    i.OLED_WriteCmd                          0x08002910   Section        0  bsp_oled.o(i.OLED_WriteCmd)
    OLED_WriteCmd                            0x08002911   Thumb Code    70  bsp_oled.o(i.OLED_WriteCmd)
    i.OLED_WriteData                         0x0800295c   Section        0  bsp_oled.o(i.OLED_WriteData)
    OLED_WriteData                           0x0800295d   Thumb Code    70  bsp_oled.o(i.OLED_WriteData)
    i.OTG_FS_IRQHandler                      0x080029a8   Section        0  usb_it.o(i.OTG_FS_IRQHandler)
    i.OpenFile                               0x080029b8   Section        0  iap.o(i.OpenFile)
    i.PendSV_Handler                         0x08002be4   Section        0  stm32f4xx_it.o(i.PendSV_Handler)
    i.PrintfLogo                             0x08002be8   Section        0  main.o(i.PrintfLogo)
    PrintfLogo                               0x08002be9   Thumb Code   106  main.o(i.PrintfLogo)
    i.RCC_AHB1PeriphClockCmd                 0x08002dd0   Section        0  stm32f4xx_rcc.o(i.RCC_AHB1PeriphClockCmd)
    i.RCC_AHB2PeriphClockCmd                 0x08002df0   Section        0  stm32f4xx_rcc.o(i.RCC_AHB2PeriphClockCmd)
    i.RCC_APB1PeriphClockCmd                 0x08002e10   Section        0  stm32f4xx_rcc.o(i.RCC_APB1PeriphClockCmd)
    i.RCC_APB2PeriphClockCmd                 0x08002e30   Section        0  stm32f4xx_rcc.o(i.RCC_APB2PeriphClockCmd)
    i.RCC_APB2PeriphResetCmd                 0x08002e50   Section        0  stm32f4xx_rcc.o(i.RCC_APB2PeriphResetCmd)
    i.RCC_GetClocksFreq                      0x08002e70   Section        0  stm32f4xx_rcc.o(i.RCC_GetClocksFreq)
    i.SCSI_CheckAddressRange                 0x08002f58   Section        0  usbd_msc_scsi.o(i.SCSI_CheckAddressRange)
    SCSI_CheckAddressRange                   0x08002f59   Thumb Code    38  usbd_msc_scsi.o(i.SCSI_CheckAddressRange)
    i.SCSI_Inquiry                           0x08002f84   Section        0  usbd_msc_scsi.o(i.SCSI_Inquiry)
    SCSI_Inquiry                             0x08002f85   Thumb Code    70  usbd_msc_scsi.o(i.SCSI_Inquiry)
    i.SCSI_ModeSense10                       0x08002fdc   Section        0  usbd_msc_scsi.o(i.SCSI_ModeSense10)
    SCSI_ModeSense10                         0x08002fdd   Thumb Code    34  usbd_msc_scsi.o(i.SCSI_ModeSense10)
    i.SCSI_ModeSense6                        0x0800300c   Section        0  usbd_msc_scsi.o(i.SCSI_ModeSense6)
    SCSI_ModeSense6                          0x0800300d   Thumb Code    34  usbd_msc_scsi.o(i.SCSI_ModeSense6)
    i.SCSI_ProcessCmd                        0x0800303c   Section        0  usbd_msc_scsi.o(i.SCSI_ProcessCmd)
    i.SCSI_ProcessRead                       0x08003114   Section        0  usbd_msc_scsi.o(i.SCSI_ProcessRead)
    SCSI_ProcessRead                         0x08003115   Thumb Code   150  usbd_msc_scsi.o(i.SCSI_ProcessRead)
    i.SCSI_ProcessWrite                      0x080031cc   Section        0  usbd_msc_scsi.o(i.SCSI_ProcessWrite)
    SCSI_ProcessWrite                        0x080031cd   Thumb Code   176  usbd_msc_scsi.o(i.SCSI_ProcessWrite)
    i.SCSI_Read10                            0x08003298   Section        0  usbd_msc_scsi.o(i.SCSI_Read10)
    SCSI_Read10                              0x08003299   Thumb Code   212  usbd_msc_scsi.o(i.SCSI_Read10)
    i.SCSI_ReadCapacity10                    0x08003388   Section        0  usbd_msc_scsi.o(i.SCSI_ReadCapacity10)
    SCSI_ReadCapacity10                      0x08003389   Thumb Code   118  usbd_msc_scsi.o(i.SCSI_ReadCapacity10)
    i.SCSI_ReadFormatCapacity                0x08003414   Section        0  usbd_msc_scsi.o(i.SCSI_ReadFormatCapacity)
    SCSI_ReadFormatCapacity                  0x08003415   Thumb Code   122  usbd_msc_scsi.o(i.SCSI_ReadFormatCapacity)
    i.SCSI_RequestSense                      0x0800349c   Section        0  usbd_msc_scsi.o(i.SCSI_RequestSense)
    SCSI_RequestSense                        0x0800349d   Thumb Code   132  usbd_msc_scsi.o(i.SCSI_RequestSense)
    i.SCSI_SenseCode                         0x08003534   Section        0  usbd_msc_scsi.o(i.SCSI_SenseCode)
    i.SCSI_StartStopUnit                     0x08003570   Section        0  usbd_msc_scsi.o(i.SCSI_StartStopUnit)
    SCSI_StartStopUnit                       0x08003571   Thumb Code    10  usbd_msc_scsi.o(i.SCSI_StartStopUnit)
    i.SCSI_TestUnitReady                     0x08003580   Section        0  usbd_msc_scsi.o(i.SCSI_TestUnitReady)
    SCSI_TestUnitReady                       0x08003581   Thumb Code    68  usbd_msc_scsi.o(i.SCSI_TestUnitReady)
    i.SCSI_Verify10                          0x080035d0   Section        0  usbd_msc_scsi.o(i.SCSI_Verify10)
    SCSI_Verify10                            0x080035d1   Thumb Code    68  usbd_msc_scsi.o(i.SCSI_Verify10)
    i.SCSI_Write10                           0x08003620   Section        0  usbd_msc_scsi.o(i.SCSI_Write10)
    SCSI_Write10                             0x08003621   Thumb Code   274  usbd_msc_scsi.o(i.SCSI_Write10)
    i.SDEnWideBus                            0x08003754   Section        0  bsp_sdio_sd.o(i.SDEnWideBus)
    SDEnWideBus                              0x08003755   Thumb Code   274  bsp_sdio_sd.o(i.SDEnWideBus)
    i.SDIO_ClearFlag                         0x08003870   Section        0  stm32f4xx_sdio.o(i.SDIO_ClearFlag)
    i.SDIO_ClearITPendingBit                 0x0800387c   Section        0  stm32f4xx_sdio.o(i.SDIO_ClearITPendingBit)
    i.SDIO_ClockCmd                          0x08003888   Section        0  stm32f4xx_sdio.o(i.SDIO_ClockCmd)
    i.SDIO_DMACmd                            0x08003894   Section        0  stm32f4xx_sdio.o(i.SDIO_DMACmd)
    i.SDIO_DataConfig                        0x080038a0   Section        0  stm32f4xx_sdio.o(i.SDIO_DataConfig)
    i.SDIO_DeInit                            0x080038d4   Section        0  stm32f4xx_sdio.o(i.SDIO_DeInit)
    i.SDIO_GetCommandResponse                0x080038ec   Section        0  stm32f4xx_sdio.o(i.SDIO_GetCommandResponse)
    i.SDIO_GetFlagStatus                     0x080038f8   Section        0  stm32f4xx_sdio.o(i.SDIO_GetFlagStatus)
    i.SDIO_GetITStatus                       0x08003910   Section        0  stm32f4xx_sdio.o(i.SDIO_GetITStatus)
    i.SDIO_GetPowerState                     0x08003928   Section        0  stm32f4xx_sdio.o(i.SDIO_GetPowerState)
    i.SDIO_GetResponse                       0x08003938   Section        0  stm32f4xx_sdio.o(i.SDIO_GetResponse)
    i.SDIO_IRQHandler                        0x08003950   Section        0  bsp_sdio_sd.o(i.SDIO_IRQHandler)
    i.SDIO_ITConfig                          0x08003958   Section        0  stm32f4xx_sdio.o(i.SDIO_ITConfig)
    i.SDIO_Init                              0x08003978   Section        0  stm32f4xx_sdio.o(i.SDIO_Init)
    i.SDIO_Interrupts_Config                 0x080039a8   Section        0  bsp_sdio_sd.o(i.SDIO_Interrupts_Config)
    i.SDIO_ReadData                          0x080039e4   Section        0  stm32f4xx_sdio.o(i.SDIO_ReadData)
    i.SDIO_SendCommand                       0x080039f0   Section        0  stm32f4xx_sdio.o(i.SDIO_SendCommand)
    i.SDIO_SetPowerState                     0x08003a1c   Section        0  stm32f4xx_sdio.o(i.SDIO_SetPowerState)
    i.SD_Detect                              0x08003a28   Section        0  bsp_sdio_sd.o(i.SD_Detect)
    i.SD_EnableWideBusOperation              0x08003a34   Section        0  bsp_sdio_sd.o(i.SD_EnableWideBusOperation)
    i.SD_GetCardInfo                         0x08003ac4   Section        0  bsp_sdio_sd.o(i.SD_GetCardInfo)
    i.SD_GetState                            0x08003dd0   Section        0  bsp_sdio_sd.o(i.SD_GetState)
    i.SD_GetStatus                           0x08003df6   Section        0  bsp_sdio_sd.o(i.SD_GetStatus)
    i.SD_Init                                0x08003e14   Section        0  bsp_sdio_sd.o(i.SD_Init)
    i.SD_InitializeCards                     0x08003e9c   Section        0  bsp_sdio_sd.o(i.SD_InitializeCards)
    i.SD_LowLevel_DMA_RxConfig               0x08003fd8   Section        0  bsp_sdio_sd.o(i.SD_LowLevel_DMA_RxConfig)
    i.SD_LowLevel_DMA_TxConfig               0x08004064   Section        0  bsp_sdio_sd.o(i.SD_LowLevel_DMA_TxConfig)
    i.SD_LowLevel_Init                       0x080040f4   Section        0  bsp_sdio_sd.o(i.SD_LowLevel_Init)
    i.SD_PowerON                             0x080041b8   Section        0  bsp_sdio_sd.o(i.SD_PowerON)
    i.SD_ProcessDMAIRQ                       0x08004358   Section        0  bsp_sdio_sd.o(i.SD_ProcessDMAIRQ)
    i.SD_ProcessIRQSrc                       0x08004380   Section        0  bsp_sdio_sd.o(i.SD_ProcessIRQSrc)
    i.SD_ReadBlock                           0x0800442c   Section        0  bsp_sdio_sd.o(i.SD_ReadBlock)
    i.SD_ReadMultiBlocks                     0x0800450c   Section        0  bsp_sdio_sd.o(i.SD_ReadMultiBlocks)
    i.SD_SelectDeselect                      0x080045f4   Section        0  bsp_sdio_sd.o(i.SD_SelectDeselect)
    i.SD_SendStatus                          0x08004628   Section        0  bsp_sdio_sd.o(i.SD_SendStatus)
    i.SD_StopTransfer                        0x0800467c   Section        0  bsp_sdio_sd.o(i.SD_StopTransfer)
    i.SD_WaitReadOperation                   0x080046b0   Section        0  bsp_sdio_sd.o(i.SD_WaitReadOperation)
    i.SD_WaitWriteOperation                  0x08004730   Section        0  bsp_sdio_sd.o(i.SD_WaitWriteOperation)
    i.SD_WriteBlock                          0x080047b0   Section        0  bsp_sdio_sd.o(i.SD_WriteBlock)
    i.SD_WriteMultiBlocks                    0x0800488c   Section        0  bsp_sdio_sd.o(i.SD_WriteMultiBlocks)
    i.SD_disk_initialize                     0x080049d4   Section        0  diskio.o(i.SD_disk_initialize)
    i.SPI_Cmd                                0x080049e6   Section        0  stm32f4xx_spi.o(i.SPI_Cmd)
    i.SPI_I2S_GetFlagStatus                  0x080049fe   Section        0  stm32f4xx_spi.o(i.SPI_I2S_GetFlagStatus)
    i.SPI_I2S_ReceiveData                    0x08004a10   Section        0  stm32f4xx_spi.o(i.SPI_I2S_ReceiveData)
    i.SPI_I2S_SendData                       0x08004a16   Section        0  stm32f4xx_spi.o(i.SPI_I2S_SendData)
    i.SPI_Init                               0x08004a1a   Section        0  stm32f4xx_spi.o(i.SPI_Init)
    i.STORAGE_GetCapacity                    0x08004a58   Section        0  usbd_storage_msd.o(i.STORAGE_GetCapacity)
    i.STORAGE_GetMaxLun                      0x08004ab4   Section        0  usbd_storage_msd.o(i.STORAGE_GetMaxLun)
    i.STORAGE_Init                           0x08004ab8   Section        0  usbd_storage_msd.o(i.STORAGE_Init)
    i.STORAGE_IsReady                        0x08004aec   Section        0  usbd_storage_msd.o(i.STORAGE_IsReady)
    i.STORAGE_IsWriteProtected               0x08004b20   Section        0  usbd_storage_msd.o(i.STORAGE_IsWriteProtected)
    i.STORAGE_Read                           0x08004b50   Section        0  usbd_storage_msd.o(i.STORAGE_Read)
    i.STORAGE_Write                          0x08004b90   Section        0  usbd_storage_msd.o(i.STORAGE_Write)
    i.SVC_Handler                            0x08004bd0   Section        0  stm32f4xx_it.o(i.SVC_Handler)
    i.SetSysClock                            0x08004bd4   Section        0  system_stm32f4xx.o(i.SetSysClock)
    SetSysClock                              0x08004bd5   Thumb Code   216  system_stm32f4xx.o(i.SetSysClock)
    i.SysTick_Handler                        0x08004cbc   Section        0  bsp_timer.o(i.SysTick_Handler)
    i.SysTick_ISR                            0x08004cc4   Section        0  bsp_timer.o(i.SysTick_ISR)
    i.SystemInit                             0x08004d48   Section        0  system_stm32f4xx.o(i.SystemInit)
    i.TIM5_IRQHandler                        0x08004db0   Section        0  bsp_timer.o(i.TIM5_IRQHandler)
    i.TIM_ARRPreloadConfig                   0x08004e50   Section        0  stm32f4xx_tim.o(i.TIM_ARRPreloadConfig)
    i.TIM_ClearITPendingBit                  0x08004e68   Section        0  stm32f4xx_tim.o(i.TIM_ClearITPendingBit)
    i.TIM_Cmd                                0x08004e6e   Section        0  stm32f4xx_tim.o(i.TIM_Cmd)
    i.TIM_CtrlPWMOutputs                     0x08004e86   Section        0  stm32f4xx_tim.o(i.TIM_CtrlPWMOutputs)
    i.TIM_GetITStatus                        0x08004ea4   Section        0  stm32f4xx_tim.o(i.TIM_GetITStatus)
    i.TIM_ITConfig                           0x08004ec6   Section        0  stm32f4xx_tim.o(i.TIM_ITConfig)
    i.TIM_OC1Init                            0x08004ed8   Section        0  stm32f4xx_tim.o(i.TIM_OC1Init)
    i.TIM_OC1PreloadConfig                   0x08004f54   Section        0  stm32f4xx_tim.o(i.TIM_OC1PreloadConfig)
    i.TIM_OC2Init                            0x08004f68   Section        0  stm32f4xx_tim.o(i.TIM_OC2Init)
    i.TIM_OC2PreloadConfig                   0x0800500c   Section        0  stm32f4xx_tim.o(i.TIM_OC2PreloadConfig)
    i.TIM_OC3Init                            0x08005028   Section        0  stm32f4xx_tim.o(i.TIM_OC3Init)
    i.TIM_OC3PreloadConfig                   0x080050c8   Section        0  stm32f4xx_tim.o(i.TIM_OC3PreloadConfig)
    i.TIM_OC4Init                            0x080050dc   Section        0  stm32f4xx_tim.o(i.TIM_OC4Init)
    i.TIM_OC4PreloadConfig                   0x08005154   Section        0  stm32f4xx_tim.o(i.TIM_OC4PreloadConfig)
    i.TIM_TimeBaseInit                       0x08005170   Section        0  stm32f4xx_tim.o(i.TIM_TimeBaseInit)
    i.Test_Hex2Bin                           0x080051f4   Section        0  hextobin.o(i.Test_Hex2Bin)
    i.TranHex                                0x08005278   Section        0  hextobin.o(i.TranHex)
    i.USART1_IRQHandler                      0x08005358   Section        0  bsp_uart_fifo.o(i.USART1_IRQHandler)
    i.USART6_IRQHandler                      0x08005368   Section        0  bsp_uart_fifo.o(i.USART6_IRQHandler)
    i.USART_ClearFlag                        0x08005378   Section        0  stm32f4xx_usart.o(i.USART_ClearFlag)
    i.USART_Cmd                              0x0800538a   Section        0  stm32f4xx_usart.o(i.USART_Cmd)
    i.USART_GetFlagStatus                    0x080053a2   Section        0  stm32f4xx_usart.o(i.USART_GetFlagStatus)
    i.USART_GetITStatus                      0x080053bc   Section        0  stm32f4xx_usart.o(i.USART_GetITStatus)
    i.USART_ITConfig                         0x08005410   Section        0  stm32f4xx_usart.o(i.USART_ITConfig)
    i.USART_Init                             0x0800545c   Section        0  stm32f4xx_usart.o(i.USART_Init)
    i.USART_ReceiveData                      0x08005530   Section        0  stm32f4xx_usart.o(i.USART_ReceiveData)
    i.USART_SendData                         0x0800553a   Section        0  stm32f4xx_usart.o(i.USART_SendData)
    i.USBD_ClrCfg                            0x08005542   Section        0  usbd_core.o(i.USBD_ClrCfg)
    i.USBD_ClrFeature                        0x08005558   Section        0  usbd_req.o(i.USBD_ClrFeature)
    USBD_ClrFeature                          0x08005559   Thumb Code    72  usbd_req.o(i.USBD_ClrFeature)
    i.USBD_CtlContinueRx                     0x080055a0   Section        0  usbd_ioreq.o(i.USBD_CtlContinueRx)
    i.USBD_CtlContinueSendData               0x080055be   Section        0  usbd_ioreq.o(i.USBD_CtlContinueSendData)
    i.USBD_CtlError                          0x080055dc   Section        0  usbd_req.o(i.USBD_CtlError)
    i.USBD_CtlReceiveStatus                  0x080055fa   Section        0  usbd_ioreq.o(i.USBD_CtlReceiveStatus)
    i.USBD_CtlSendData                       0x0800561e   Section        0  usbd_ioreq.o(i.USBD_CtlSendData)
    i.USBD_CtlSendStatus                     0x0800564c   Section        0  usbd_ioreq.o(i.USBD_CtlSendStatus)
    i.USBD_DataInStage                       0x08005670   Section        0  usbd_core.o(i.USBD_DataInStage)
    USBD_DataInStage                         0x08005671   Thumb Code   208  usbd_core.o(i.USBD_DataInStage)
    i.USBD_DataOutStage                      0x08005740   Section        0  usbd_core.o(i.USBD_DataOutStage)
    USBD_DataOutStage                        0x08005741   Thumb Code   150  usbd_core.o(i.USBD_DataOutStage)
    i.USBD_DeInit                            0x080057d6   Section        0  usbd_core.o(i.USBD_DeInit)
    i.USBD_GetConfig                         0x080057dc   Section        0  usbd_req.o(i.USBD_GetConfig)
    USBD_GetConfig                           0x080057dd   Thumb Code    78  usbd_req.o(i.USBD_GetConfig)
    i.USBD_GetDescriptor                     0x08005830   Section        0  usbd_req.o(i.USBD_GetDescriptor)
    USBD_GetDescriptor                       0x08005831   Thumb Code   290  usbd_req.o(i.USBD_GetDescriptor)
    i.USBD_GetLen                            0x08005952   Section        0  usbd_req.o(i.USBD_GetLen)
    USBD_GetLen                              0x08005953   Thumb Code    20  usbd_req.o(i.USBD_GetLen)
    i.USBD_GetRxCount                        0x08005966   Section        0  usbd_ioreq.o(i.USBD_GetRxCount)
    i.USBD_GetStatus                         0x0800597c   Section        0  usbd_req.o(i.USBD_GetStatus)
    USBD_GetStatus                           0x0800597d   Thumb Code    74  usbd_req.o(i.USBD_GetStatus)
    i.USBD_GetString                         0x080059cc   Section        0  usbd_req.o(i.USBD_GetString)
    i.USBD_Init                              0x08005a1e   Section        0  usbd_core.o(i.USBD_Init)
    i.USBD_IsoINIncomplete                   0x08005a60   Section        0  usbd_core.o(i.USBD_IsoINIncomplete)
    USBD_IsoINIncomplete                     0x08005a61   Thumb Code    18  usbd_core.o(i.USBD_IsoINIncomplete)
    i.USBD_IsoOUTIncomplete                  0x08005a72   Section        0  usbd_core.o(i.USBD_IsoOUTIncomplete)
    USBD_IsoOUTIncomplete                    0x08005a73   Thumb Code    18  usbd_core.o(i.USBD_IsoOUTIncomplete)
    i.USBD_MSC_DataIn                        0x08005a84   Section        0  usbd_msc_core.o(i.USBD_MSC_DataIn)
    i.USBD_MSC_DataOut                       0x08005a96   Section        0  usbd_msc_core.o(i.USBD_MSC_DataOut)
    i.USBD_MSC_DeInit                        0x08005aa8   Section        0  usbd_msc_core.o(i.USBD_MSC_DeInit)
    i.USBD_MSC_GetCfgDesc                    0x08005ac8   Section        0  usbd_msc_core.o(i.USBD_MSC_GetCfgDesc)
    i.USBD_MSC_Init                          0x08005ad8   Section        0  usbd_msc_core.o(i.USBD_MSC_Init)
    i.USBD_MSC_Setup                         0x08005b08   Section        0  usbd_msc_core.o(i.USBD_MSC_Setup)
    i.USBD_OTG_ISR_Handler                   0x08005c28   Section        0  usb_dcd_int.o(i.USBD_OTG_ISR_Handler)
    i.USBD_ParseSetupRequest                 0x08005d08   Section        0  usbd_req.o(i.USBD_ParseSetupRequest)
    i.USBD_Reset                             0x08005d50   Section        0  usbd_core.o(i.USBD_Reset)
    USBD_Reset                               0x08005d51   Thumb Code    50  usbd_core.o(i.USBD_Reset)
    i.USBD_Resume                            0x08005d82   Section        0  usbd_core.o(i.USBD_Resume)
    USBD_Resume                              0x08005d83   Thumb Code    30  usbd_core.o(i.USBD_Resume)
    i.USBD_RunTestMode                       0x08005da0   Section        0  usbd_core.o(i.USBD_RunTestMode)
    USBD_RunTestMode                         0x08005da1   Thumb Code    14  usbd_core.o(i.USBD_RunTestMode)
    i.USBD_SOF                               0x08005db4   Section        0  usbd_core.o(i.USBD_SOF)
    USBD_SOF                                 0x08005db5   Thumb Code    26  usbd_core.o(i.USBD_SOF)
    i.USBD_SetAddress                        0x08005dce   Section        0  usbd_req.o(i.USBD_SetAddress)
    USBD_SetAddress                          0x08005dcf   Thumb Code    92  usbd_req.o(i.USBD_SetAddress)
    i.USBD_SetCfg                            0x08005e2a   Section        0  usbd_core.o(i.USBD_SetCfg)
    i.USBD_SetConfig                         0x08005e48   Section        0  usbd_req.o(i.USBD_SetConfig)
    USBD_SetConfig                           0x08005e49   Thumb Code   204  usbd_req.o(i.USBD_SetConfig)
    i.USBD_SetFeature                        0x08005f18   Section        0  usbd_req.o(i.USBD_SetFeature)
    USBD_SetFeature                          0x08005f19   Thumb Code   160  usbd_req.o(i.USBD_SetFeature)
    i.USBD_SetupStage                        0x08005fbc   Section        0  usbd_core.o(i.USBD_SetupStage)
    USBD_SetupStage                          0x08005fbd   Thumb Code    84  usbd_core.o(i.USBD_SetupStage)
    i.USBD_StdDevReq                         0x08006010   Section        0  usbd_req.o(i.USBD_StdDevReq)
    i.USBD_StdEPReq                          0x08006084   Section        0  usbd_req.o(i.USBD_StdEPReq)
    i.USBD_StdItfReq                         0x080061e0   Section        0  usbd_req.o(i.USBD_StdItfReq)
    i.USBD_Suspend                           0x0800622c   Section        0  usbd_core.o(i.USBD_Suspend)
    USBD_Suspend                             0x0800622d   Thumb Code    32  usbd_core.o(i.USBD_Suspend)
    i.USBD_USR_ConfigStrDescriptor           0x0800624c   Section        0  usbd_desc.o(i.USBD_USR_ConfigStrDescriptor)
    i.USBD_USR_DeviceConfigured              0x08006280   Section        0  usbd_usr.o(i.USBD_USR_DeviceConfigured)
    i.USBD_USR_DeviceConnected               0x080062a8   Section        0  usbd_usr.o(i.USBD_USR_DeviceConnected)
    i.USBD_USR_DeviceDescriptor              0x080062d0   Section        0  usbd_desc.o(i.USBD_USR_DeviceDescriptor)
    i.USBD_USR_DeviceDisconnected            0x080062e0   Section        0  usbd_usr.o(i.USBD_USR_DeviceDisconnected)
    i.USBD_USR_DeviceReset                   0x0800630c   Section        0  usbd_usr.o(i.USBD_USR_DeviceReset)
    i.USBD_USR_DeviceResumed                 0x080063a4   Section        0  usbd_usr.o(i.USBD_USR_DeviceResumed)
    i.USBD_USR_DeviceSuspended               0x080063c4   Section        0  usbd_usr.o(i.USBD_USR_DeviceSuspended)
    i.USBD_USR_Init                          0x080063ec   Section        0  usbd_usr.o(i.USBD_USR_Init)
    i.USBD_USR_InterfaceStrDescriptor        0x0800640c   Section        0  usbd_desc.o(i.USBD_USR_InterfaceStrDescriptor)
    i.USBD_USR_LangIDStrDescriptor           0x08006444   Section        0  usbd_desc.o(i.USBD_USR_LangIDStrDescriptor)
    i.USBD_USR_ManufacturerStrDescriptor     0x08006454   Section        0  usbd_desc.o(i.USBD_USR_ManufacturerStrDescriptor)
    i.USBD_USR_ProductStrDescriptor          0x08006480   Section        0  usbd_desc.o(i.USBD_USR_ProductStrDescriptor)
    i.USBD_USR_SerialStrDescriptor           0x080064d8   Section        0  usbd_desc.o(i.USBD_USR_SerialStrDescriptor)
    i.USB_OTG_BSP_EnableInterrupt            0x08006520   Section        0  usb_bsp.o(i.USB_OTG_BSP_EnableInterrupt)
    i.USB_OTG_BSP_Init                       0x0800654c   Section        0  usb_bsp.o(i.USB_OTG_BSP_Init)
    i.USB_OTG_BSP_mDelay                     0x080065a8   Section        0  usb_bsp.o(i.USB_OTG_BSP_mDelay)
    i.USB_OTG_BSP_uDelay                     0x080065ba   Section        0  usb_bsp.o(i.USB_OTG_BSP_uDelay)
    i.USB_OTG_CoreInit                       0x080065d0   Section        0  usb_core.o(i.USB_OTG_CoreInit)
    i.USB_OTG_CoreInitDev                    0x080066f6   Section        0  usb_core.o(i.USB_OTG_CoreInitDev)
    i.USB_OTG_CoreReset                      0x08006900   Section        0  usb_core.o(i.USB_OTG_CoreReset)
    USB_OTG_CoreReset                        0x08006901   Thumb Code   108  usb_core.o(i.USB_OTG_CoreReset)
    i.USB_OTG_DisableGlobalInt               0x08006970   Section        0  usb_core.o(i.USB_OTG_DisableGlobalInt)
    i.USB_OTG_EP0Activate                    0x08006992   Section        0  usb_core.o(i.USB_OTG_EP0Activate)
    i.USB_OTG_EP0StartXfer                   0x080069fc   Section        0  usb_core.o(i.USB_OTG_EP0StartXfer)
    i.USB_OTG_EP0_OutStart                   0x08006b52   Section        0  usb_core.o(i.USB_OTG_EP0_OutStart)
    i.USB_OTG_EPActivate                     0x08006bb4   Section        0  usb_core.o(i.USB_OTG_EPActivate)
    i.USB_OTG_EPClearStall                   0x08006c4c   Section        0  usb_core.o(i.USB_OTG_EPClearStall)
    i.USB_OTG_EPDeactivate                   0x08006c9c   Section        0  usb_core.o(i.USB_OTG_EPDeactivate)
    i.USB_OTG_EPSetStall                     0x08006cfa   Section        0  usb_core.o(i.USB_OTG_EPSetStall)
    i.USB_OTG_EPStartXfer                    0x08006d5e   Section        0  usb_core.o(i.USB_OTG_EPStartXfer)
    i.USB_OTG_EnableCommonInt                0x08006f54   Section        0  usb_core.o(i.USB_OTG_EnableCommonInt)
    USB_OTG_EnableCommonInt                  0x08006f55   Thumb Code    52  usb_core.o(i.USB_OTG_EnableCommonInt)
    i.USB_OTG_EnableDevInt                   0x08006f88   Section        0  usb_core.o(i.USB_OTG_EnableDevInt)
    i.USB_OTG_EnableGlobalInt                0x08007022   Section        0  usb_core.o(i.USB_OTG_EnableGlobalInt)
    i.USB_OTG_FlushRxFifo                    0x08007044   Section        0  usb_core.o(i.USB_OTG_FlushRxFifo)
    i.USB_OTG_FlushTxFifo                    0x08007090   Section        0  usb_core.o(i.USB_OTG_FlushTxFifo)
    i.USB_OTG_GetDeviceSpeed                 0x080070e4   Section        0  usb_core.o(i.USB_OTG_GetDeviceSpeed)
    i.USB_OTG_GetMode                        0x08007118   Section        0  usb_core.o(i.USB_OTG_GetMode)
    i.USB_OTG_InitDevSpeed                   0x08007124   Section        0  usb_core.o(i.USB_OTG_InitDevSpeed)
    i.USB_OTG_IsDeviceMode                   0x0800713c   Section        0  usb_core.o(i.USB_OTG_IsDeviceMode)
    i.USB_OTG_ReadCoreItr                    0x08007152   Section        0  usb_core.o(i.USB_OTG_ReadCoreItr)
    i.USB_OTG_ReadDevAllInEPItr              0x08007162   Section        0  usb_core.o(i.USB_OTG_ReadDevAllInEPItr)
    i.USB_OTG_ReadDevAllOutEp_itr            0x08007172   Section        0  usb_core.o(i.USB_OTG_ReadDevAllOutEp_itr)
    i.USB_OTG_ReadDevOutEP_itr               0x08007182   Section        0  usb_core.o(i.USB_OTG_ReadDevOutEP_itr)
    i.USB_OTG_ReadPacket                     0x08007196   Section        0  usb_core.o(i.USB_OTG_ReadPacket)
    i.USB_OTG_SelectCore                     0x080071c0   Section        0  usb_core.o(i.USB_OTG_SelectCore)
    i.USB_OTG_SetCurrentMode                 0x08007290   Section        0  usb_core.o(i.USB_OTG_SetCurrentMode)
    i.USB_OTG_WritePacket                    0x080072de   Section        0  usb_core.o(i.USB_OTG_WritePacket)
    i.UartIRQ                                0x08007320   Section        0  bsp_uart_fifo.o(i.UartIRQ)
    UartIRQ                                  0x08007321   Thumb Code   236  bsp_uart_fifo.o(i.UartIRQ)
    i.UartVarInit                            0x08007410   Section        0  bsp_uart_fifo.o(i.UartVarInit)
    UartVarInit                              0x08007411   Thumb Code    86  bsp_uart_fifo.o(i.UartVarInit)
    i.UsageFault_Handler                     0x08007488   Section        0  stm32f4xx_it.o(i.UsageFault_Handler)
    i.__0printf$8                            0x0800748c   Section        0  printf8.o(i.__0printf$8)
    i.__scatterload_copy                     0x080074ac   Section       14  handlers.o(i.__scatterload_copy)
    i.__scatterload_null                     0x080074ba   Section        2  handlers.o(i.__scatterload_null)
    i.__scatterload_zeroinit                 0x080074bc   Section       14  handlers.o(i.__scatterload_zeroinit)
    i.__set_PRIMASK                          0x080074ca   Section        0  bsp_timer.o(i.__set_PRIMASK)
    __set_PRIMASK                            0x080074cb   Thumb Code     6  bsp_timer.o(i.__set_PRIMASK)
    i._printf_core                           0x080074d0   Section        0  printf8.o(i._printf_core)
    _printf_core                             0x080074d1   Thumb Code   996  printf8.o(i._printf_core)
    i._printf_post_padding                   0x080078e0   Section        0  printf8.o(i._printf_post_padding)
    _printf_post_padding                     0x080078e1   Thumb Code    36  printf8.o(i._printf_post_padding)
    i._printf_pre_padding                    0x08007904   Section        0  printf8.o(i._printf_pre_padding)
    _printf_pre_padding                      0x08007905   Thumb Code    46  printf8.o(i._printf_pre_padding)
    i.bsp_CfgSPIForSFlash                    0x08007934   Section        0  bsp_spi_flash.o(i.bsp_CfgSPIForSFlash)
    bsp_CfgSPIForSFlash                      0x08007935   Thumb Code    96  bsp_spi_flash.o(i.bsp_CfgSPIForSFlash)
    i.bsp_CheckTimer                         0x08007998   Section        0  bsp_timer.o(i.bsp_CheckTimer)
    i.bsp_ConfigGpioOut                      0x080079cc   Section        0  bsp_tim_pwm.o(i.bsp_ConfigGpioOut)
    i.bsp_ConfigTimGpio                      0x08007a04   Section        0  bsp_tim_pwm.o(i.bsp_ConfigTimGpio)
    i.bsp_DelayMS                            0x08007ab0   Section        0  bsp_timer.o(i.bsp_DelayMS)
    i.bsp_GetAFofTIM                         0x08007af4   Section        0  bsp_tim_pwm.o(i.bsp_GetAFofTIM)
    i.bsp_GetPinSource                       0x08007bb0   Section        0  bsp_tim_pwm.o(i.bsp_GetPinSource)
    i.bsp_GetRCCofGPIO                       0x08007c44   Section        0  bsp_tim_pwm.o(i.bsp_GetRCCofGPIO)
    i.bsp_GetRCCofTIM                        0x08007cc8   Section        0  bsp_tim_pwm.o(i.bsp_GetRCCofTIM)
    i.bsp_Idle                               0x08007d94   Section        0  bsp.o(i.bsp_Idle)
    i.bsp_Init                               0x08007d96   Section        0  bsp.o(i.bsp_Init)
    i.bsp_InitHardTimer                      0x08007dc8   Section        0  bsp_timer.o(i.bsp_InitHardTimer)
    i.bsp_InitKey                            0x08007e30   Section        0  bsp_key.o(i.bsp_InitKey)
    i.bsp_InitKeyHard                        0x08007e38   Section        0  bsp_key.o(i.bsp_InitKeyHard)
    bsp_InitKeyHard                          0x08007e39   Thumb Code    44  bsp_key.o(i.bsp_InitKeyHard)
    i.bsp_InitLed                            0x08007e68   Section        0  bsp_led.o(i.bsp_InitLed)
    i.bsp_InitSFlash                         0x08007eb8   Section        0  bsp_spi_flash.o(i.bsp_InitSFlash)
    i.bsp_InitTimer                          0x08007f58   Section        0  bsp_timer.o(i.bsp_InitTimer)
    i.bsp_InitUart                           0x08007ff4   Section        0  bsp_uart_fifo.o(i.bsp_InitUart)
    i.bsp_LedOff                             0x08008004   Section        0  bsp_led.o(i.bsp_LedOff)
    i.bsp_LedToggle                          0x08008024   Section        0  bsp_led.o(i.bsp_LedToggle)
    i.bsp_RunPer10ms                         0x08008050   Section        0  bsp.o(i.bsp_RunPer10ms)
    i.bsp_RunPer1ms                          0x08008060   Section        0  bsp.o(i.bsp_RunPer1ms)
    i.bsp_SetTIMOutPWM                       0x080080a4   Section        0  bsp_tim_pwm.o(i.bsp_SetTIMOutPWM)
    i.bsp_SoftTimerDec                       0x08008248   Section        0  bsp_timer.o(i.bsp_SoftTimerDec)
    bsp_SoftTimerDec                         0x08008249   Thumb Code    28  bsp_timer.o(i.bsp_SoftTimerDec)
    i.bsp_StartAutoTimer                     0x08008264   Section        0  bsp_timer.o(i.bsp_StartAutoTimer)
    i.check_fs                               0x080082fc   Section        0  ff.o(i.check_fs)
    check_fs                                 0x080082fd   Thumb Code   138  ff.o(i.check_fs)
    i.chk_chr                                0x0800838c   Section        0  ff.o(i.chk_chr)
    chk_chr                                  0x0800838d   Thumb Code    20  ff.o(i.chk_chr)
    i.chk_lock                               0x080083a0   Section        0  ff.o(i.chk_lock)
    chk_lock                                 0x080083a1   Thumb Code   134  ff.o(i.chk_lock)
    i.chk_mounted                            0x0800842c   Section        0  ff.o(i.chk_mounted)
    chk_mounted                              0x0800842d   Thumb Code   914  ff.o(i.chk_mounted)
    i.clearBuff                              0x080087d0   Section        0  bsp_protocol.o(i.clearBuff)
    i.clear_lock                             0x080087e8   Section        0  ff.o(i.clear_lock)
    clear_lock                               0x080087e9   Thumb Code    42  ff.o(i.clear_lock)
    i.clust2sect                             0x08008818   Section        0  ff.o(i.clust2sect)
    i.create_chain                           0x08008832   Section        0  ff.o(i.create_chain)
    create_chain                             0x08008833   Thumb Code   202  ff.o(i.create_chain)
    i.create_name                            0x080088fc   Section        0  ff.o(i.create_name)
    create_name                              0x080088fd   Thumb Code   328  ff.o(i.create_name)
    i.dec_lock                               0x08008a54   Section        0  ff.o(i.dec_lock)
    dec_lock                                 0x08008a55   Thumb Code    72  ff.o(i.dec_lock)
    i.dir_alloc                              0x08008aa0   Section        0  ff.o(i.dir_alloc)
    dir_alloc                                0x08008aa1   Thumb Code    86  ff.o(i.dir_alloc)
    i.dir_find                               0x08008af6   Section        0  ff.o(i.dir_find)
    dir_find                                 0x08008af7   Thumb Code    92  ff.o(i.dir_find)
    i.dir_next                               0x08008b52   Section        0  ff.o(i.dir_next)
    dir_next                                 0x08008b53   Thumb Code   276  ff.o(i.dir_next)
    i.dir_register                           0x08008c66   Section        0  ff.o(i.dir_register)
    dir_register                             0x08008c67   Thumb Code    58  ff.o(i.dir_register)
    i.dir_sdi                                0x08008ca0   Section        0  ff.o(i.dir_sdi)
    dir_sdi                                  0x08008ca1   Thumb Code   156  ff.o(i.dir_sdi)
    i.disk_initialize                        0x08008d3c   Section        0  diskio.o(i.disk_initialize)
    i.disk_ioctl                             0x08008d5c   Section        0  diskio.o(i.disk_ioctl)
    i.disk_read                              0x08008d7a   Section        0  diskio.o(i.disk_read)
    i.disk_status                            0x08008de8   Section        0  diskio.o(i.disk_status)
    i.disk_write                             0x08008e00   Section        0  diskio.o(i.disk_write)
    i.enq_lock                               0x08008e80   Section        0  ff.o(i.enq_lock)
    enq_lock                                 0x08008e81   Thumb Code    36  ff.o(i.enq_lock)
    i.f_close                                0x08008ea8   Section        0  ff.o(i.f_close)
    i.f_mount                                0x08008ec8   Section        0  ff.o(i.f_mount)
    i.f_open                                 0x08008efc   Section        0  ff.o(i.f_open)
    i.f_opendir                              0x08009094   Section        0  ff.o(i.f_opendir)
    i.f_read                                 0x08009104   Section        0  ff.o(i.f_read)
    i.f_stat                                 0x080092ce   Section        0  ff.o(i.f_stat)
    i.f_sync                                 0x08009308   Section        0  ff.o(i.f_sync)
    i.follow_path                            0x080093b8   Section        0  ff.o(i.follow_path)
    follow_path                              0x080093b9   Thumb Code   146  ff.o(i.follow_path)
    i.fputc                                  0x0800944c   Section        0  bsp_uart_fifo.o(i.fputc)
    i.get_fat                                0x08009470   Section        0  ff.o(i.get_fat)
    i.get_fattime                            0x08009554   Section        0  diskio.o(i.get_fattime)
    i.get_fileinfo                           0x0800955c   Section        0  ff.o(i.get_fileinfo)
    get_fileinfo                             0x0800955d   Thumb Code   152  ff.o(i.get_fileinfo)
    i.inc_lock                               0x080095f4   Section        0  ff.o(i.inc_lock)
    inc_lock                                 0x080095f5   Thumb Code   214  ff.o(i.inc_lock)
    i.isEmpty                                0x080096d0   Section        0  bsp_protocol.o(i.isEmpty)
    i.isFull                                 0x080096fc   Section        0  bsp_protocol.o(i.isFull)
    i.ld_clust                               0x08009734   Section        0  ff.o(i.ld_clust)
    ld_clust                                 0x08009735   Thumb Code    32  ff.o(i.ld_clust)
    i.main                                   0x08009754   Section        0  main.o(i.main)
    i.malloc                                 0x0800984c   Section        0  malloc.o(i.malloc)
    i.mem_cmp                                0x080098b8   Section        0  ff.o(i.mem_cmp)
    mem_cmp                                  0x080098b9   Thumb Code    38  ff.o(i.mem_cmp)
    i.mem_cpy                                0x080098de   Section        0  ff.o(i.mem_cpy)
    mem_cpy                                  0x080098df   Thumb Code    26  ff.o(i.mem_cpy)
    i.mem_set                                0x080098f8   Section        0  ff.o(i.mem_set)
    mem_set                                  0x080098f9   Thumb Code    20  ff.o(i.mem_set)
    i.move_window                            0x0800990c   Section        0  ff.o(i.move_window)
    move_window                              0x0800990d   Thumb Code    50  ff.o(i.move_window)
    i.popBuff                                0x08009940   Section        0  bsp_protocol.o(i.popBuff)
    i.pushBuff                               0x080099d8   Section        0  bsp_protocol.o(i.pushBuff)
    i.put_fat                                0x08009a2c   Section        0  ff.o(i.put_fat)
    i.remove_chain                           0x08009b62   Section        0  ff.o(i.remove_chain)
    remove_chain                             0x08009b63   Thumb Code   104  ff.o(i.remove_chain)
    i.sf_ReadID                              0x08009bcc   Section        0  bsp_spi_flash.o(i.sf_ReadID)
    i.sf_ReadInfo                            0x08009c10   Section        0  bsp_spi_flash.o(i.sf_ReadInfo)
    i.sf_SendByte                            0x08009d34   Section        0  bsp_spi_flash.o(i.sf_SendByte)
    sf_SendByte                              0x08009d35   Thumb Code    50  bsp_spi_flash.o(i.sf_SendByte)
    i.sf_WaitForWriteEnd                     0x08009d6c   Section        0  bsp_spi_flash.o(i.sf_WaitForWriteEnd)
    sf_WaitForWriteEnd                       0x08009d6d   Thumb Code    38  bsp_spi_flash.o(i.sf_WaitForWriteEnd)
    i.sf_WriteStatus                         0x08009d98   Section        0  bsp_spi_flash.o(i.sf_WriteStatus)
    sf_WriteStatus                           0x08009d99   Thumb Code    80  bsp_spi_flash.o(i.sf_WriteStatus)
    i.st_clust                               0x08009df4   Section        0  ff.o(i.st_clust)
    st_clust                                 0x08009df5   Thumb Code    16  ff.o(i.st_clust)
    i.sync_fs                                0x08009e04   Section        0  ff.o(i.sync_fs)
    sync_fs                                  0x08009e05   Thumb Code   200  ff.o(i.sync_fs)
    i.sync_window                            0x08009ecc   Section        0  ff.o(i.sync_window)
    sync_window                              0x08009ecd   Thumb Code    82  ff.o(i.sync_window)
    i.usbd_OpenMassStorage                   0x08009f20   Section        0  usbd_usr.o(i.usbd_OpenMassStorage)
    i.validate                               0x08009f44   Section        0  ff.o(i.validate)
    validate                                 0x08009f45   Thumb Code    54  ff.o(i.validate)
    .constdata                               0x08009f7a   Section       48  bsp_timer.o(.constdata)
    __FUNCTION__                             0x08009f7a   Data          15  bsp_timer.o(.constdata)
    __FUNCTION__                             0x08009f89   Data          19  bsp_timer.o(.constdata)
    __FUNCTION__                             0x08009f9c   Data          14  bsp_timer.o(.constdata)
    .constdata                               0x08009faa   Section     1524  asc12.o(.constdata)
    .constdata                               0x0800a59e   Section     4096  asc16.o(.constdata)
    .constdata                               0x0800b59e   Section      492  asc24.o(.constdata)
    .constdata                               0x0800b78a   Section      652  asc32.o(.constdata)
    .constdata                               0x0800ba16   Section     1536  hz12.o(.constdata)
    .constdata                               0x0800c016   Section      138  hz16.o(.constdata)
    .constdata                               0x0800c0a0   Section       76  hz24.o(.constdata)
    .constdata                               0x0800c0ec   Section      132  hz32.o(.constdata)
    .constdata                               0x0800c170   Section       36  usbd_storage_msd.o(.constdata)
    .constdata                               0x0800c194   Section       23  usbd_msc_data.o(.constdata)
    .data                                    0x20000000   Section       29  bsp_timer.o(.data)
    s_uiDelayCount                           0x20000000   Data           4  bsp_timer.o(.data)
    s_ucTimeOutFlag                          0x20000004   Data           1  bsp_timer.o(.data)
    s_TIM_CallBack1                          0x2000000c   Data           4  bsp_timer.o(.data)
    s_TIM_CallBack2                          0x20000010   Data           4  bsp_timer.o(.data)
    s_TIM_CallBack3                          0x20000014   Data           4  bsp_timer.o(.data)
    s_TIM_CallBack4                          0x20000018   Data           4  bsp_timer.o(.data)
    s_count                                  0x2000001c   Data           1  bsp_timer.o(.data)
    .data                                    0x20000020   Section       24  bsp_sdio_sd.o(.data)
    CardType                                 0x20000020   Data           4  bsp_sdio_sd.o(.data)
    RCA                                      0x20000024   Data           4  bsp_sdio_sd.o(.data)
    .data                                    0x20000038   Section        1  bsp_oled.o(.data)
    s_ucUpdateEn                             0x20000038   Data           1  bsp_oled.o(.data)
    .data                                    0x2000003a   Section        6  bsp_protocol.o(.data)
    .data                                    0x20000040   Section       43  main.o(.data)
    .data                                    0x2000006c   Section       20  iap.o(.data)
    .data                                    0x20000080   Section       16  stm32f4xx_rcc.o(.data)
    APBAHBPrescTable                         0x20000080   Data          16  stm32f4xx_rcc.o(.data)
    .data                                    0x20000090   Section       20  system_stm32f4xx.o(.data)
    .data                                    0x200000a4   Section        6  ff.o(.data)
    FatFs                                    0x200000a4   Data           4  ff.o(.data)
    Fsid                                     0x200000a8   Data           2  ff.o(.data)
    .data                                    0x200000ac   Section       60  usbd_desc.o(.data)
    .data                                    0x200000e8   Section       41  usbd_storage_msd.o(.data)
    last_status                              0x20000110   Data           1  usbd_storage_msd.o(.data)
    .data                                    0x20000114   Section       28  usbd_usr.o(.data)
    .data                                    0x20000130   Section       52  usbd_core.o(.data)
    .data                                    0x20000164   Section       13  usbd_req.o(.data)
    cfgidx                                   0x20000170   Data           1  usbd_req.o(.data)
    .data                                    0x20000172   Section        4  usbd_msc_bot.o(.data)
    .data                                    0x20000178   Section       78  usbd_msc_core.o(.data)
    USBD_MSC_MaxLun                          0x200001c4   Data           1  usbd_msc_core.o(.data)
    USBD_MSC_AltSet                          0x200001c5   Data           1  usbd_msc_core.o(.data)
    .data                                    0x200001c8   Section       24  usbd_msc_scsi.o(.data)
    .data                                    0x200001e0   Section        4  stdout.o(.data)
    .data                                    0x200001e4   Section        4  mvars.o(.data)
    .data                                    0x200001e8   Section        4  mvars.o(.data)
    .bss                                     0x200001ec   Section     3188  bsp_uart_fifo.o(.bss)
    g_tUart1                                 0x200001ec   Data          40  bsp_uart_fifo.o(.bss)
    g_TxBuf1                                 0x20000214   Data         530  bsp_uart_fifo.o(.bss)
    g_RxBuf1                                 0x20000426   Data         530  bsp_uart_fifo.o(.bss)
    g_tUart6                                 0x20000638   Data          40  bsp_uart_fifo.o(.bss)
    g_TxBuf6                                 0x20000660   Data        1024  bsp_uart_fifo.o(.bss)
    g_RxBuf6                                 0x20000a60   Data        1024  bsp_uart_fifo.o(.bss)
    .bss                                     0x20000e60   Section       48  bsp_timer.o(.bss)
    s_tTmr                                   0x20000e60   Data          48  bsp_timer.o(.bss)
    .bss                                     0x20000e90   Section      204  bsp_sdio_sd.o(.bss)
    CSD_Tab                                  0x20000e90   Data          16  bsp_sdio_sd.o(.bss)
    CID_Tab                                  0x20000ea0   Data          16  bsp_sdio_sd.o(.bss)
    SDSTATUS_Tab                             0x20000eb0   Data          16  bsp_sdio_sd.o(.bss)
    .bss                                     0x20000f5c   Section     1024  bsp_oled.o(.bss)
    s_ucGRAM                                 0x20000f5c   Data        1024  bsp_oled.o(.bss)
    .bss                                     0x2000135c   Section     4124  bsp_spi_flash.o(.bss)
    s_spiBuf                                 0x20001378   Data        4096  bsp_spi_flash.o(.bss)
    .bss                                     0x20002378   Section       12  bsp_beep.o(.bss)
    g_tBeep                                  0x20002378   Data          12  bsp_beep.o(.bss)
    .bss                                     0x20002384   Section     3192  bsp_protocol.o(.bss)
    .bss                                     0x20002ffc   Section     5120  demo_sdio_fatfs.o(.bss)
    .bss                                     0x200043fc   Section     1168  iap.o(.bss)
    .bss                                     0x2000488c   Section       36  ff.o(.bss)
    Files                                    0x2000488c   Data          36  ff.o(.bss)
    .bss                                     0x200048b0   Section     1524  usbd_usr.o(.bss)
    .bss                                     0x20004ea4   Section       64  usbd_req.o(.bss)
    .bss                                     0x20004ee4   Section     4144  usbd_msc_bot.o(.bss)
    .bss                                     0x20005f14   Section       32  usbd_msc_scsi.o(.bss)
    HEAP                                     0x20005f38   Section      512  startup_stm32f401xx.o(HEAP)
    STACK                                    0x20006138   Section    16384  startup_stm32f401xx.o(STACK)

    Global Symbols

    Symbol Name                              Value     Ov Type        Size  Object(Section)

    BuildAttributes$$THM_ISAv4$E$P$D$K$B$S$7EM$VFPi3$EXTD16$VFPS$VFMA$PE$A:L22UL41UL21$X:L11$S22US41US21$IEEE1$IW$USESV6$~STKCKD$USESV7$~SHL$OSPACE$ROPI$EBA8$MICROLIB$REQ8$PRES8$EABIv2 0x00000000   Number         0  anon$$obj.o ABSOLUTE
    __ARM_use_no_argv                        0x00000000   Number         0  main.o ABSOLUTE
    _printf_a                                0x00000000   Number         0  stubs.o ABSOLUTE
    _printf_c                                0x00000000   Number         0  stubs.o ABSOLUTE
    _printf_charcount                        0x00000000   Number         0  stubs.o ABSOLUTE
    _printf_d                                0x00000000   Number         0  stubs.o ABSOLUTE
    _printf_e                                0x00000000   Number         0  stubs.o ABSOLUTE
    _printf_f                                0x00000000   Number         0  stubs.o ABSOLUTE
    _printf_flags                            0x00000000   Number         0  stubs.o ABSOLUTE
    _printf_fp_dec                           0x00000000   Number         0  stubs.o ABSOLUTE
    _printf_fp_hex                           0x00000000   Number         0  stubs.o ABSOLUTE
    _printf_g                                0x00000000   Number         0  stubs.o ABSOLUTE
    _printf_i                                0x00000000   Number         0  stubs.o ABSOLUTE
    _printf_int_dec                          0x00000000   Number         0  stubs.o ABSOLUTE
    _printf_l                                0x00000000   Number         0  stubs.o ABSOLUTE
    _printf_lc                               0x00000000   Number         0  stubs.o ABSOLUTE
    _printf_ll                               0x00000000   Number         0  stubs.o ABSOLUTE
    _printf_lld                              0x00000000   Number         0  stubs.o ABSOLUTE
    _printf_lli                              0x00000000   Number         0  stubs.o ABSOLUTE
    _printf_llo                              0x00000000   Number         0  stubs.o ABSOLUTE
    _printf_llu                              0x00000000   Number         0  stubs.o ABSOLUTE
    _printf_llx                              0x00000000   Number         0  stubs.o ABSOLUTE
    _printf_longlong_dec                     0x00000000   Number         0  stubs.o ABSOLUTE
    _printf_longlong_hex                     0x00000000   Number         0  stubs.o ABSOLUTE
    _printf_longlong_oct                     0x00000000   Number         0  stubs.o ABSOLUTE
    _printf_ls                               0x00000000   Number         0  stubs.o ABSOLUTE
    _printf_mbtowc                           0x00000000   Number         0  stubs.o ABSOLUTE
    _printf_n                                0x00000000   Number         0  stubs.o ABSOLUTE
    _printf_o                                0x00000000   Number         0  stubs.o ABSOLUTE
    _printf_p                                0x00000000   Number         0  stubs.o ABSOLUTE
    _printf_percent                          0x00000000   Number         0  stubs.o ABSOLUTE
    _printf_pre_padding                      0x00000000   Number         0  stubs.o ABSOLUTE
    _printf_return_value                     0x00000000   Number         0  stubs.o ABSOLUTE
    _printf_s                                0x00000000   Number         0  stubs.o ABSOLUTE
    _printf_sizespec                         0x00000000   Number         0  stubs.o ABSOLUTE
    _printf_str                              0x00000000   Number         0  stubs.o ABSOLUTE
    _printf_truncate_signed                  0x00000000   Number         0  stubs.o ABSOLUTE
    _printf_truncate_unsigned                0x00000000   Number         0  stubs.o ABSOLUTE
    _printf_u                                0x00000000   Number         0  stubs.o ABSOLUTE
    _printf_wc                               0x00000000   Number         0  stubs.o ABSOLUTE
    _printf_wctomb                           0x00000000   Number         0  stubs.o ABSOLUTE
    _printf_widthprec                        0x00000000   Number         0  stubs.o ABSOLUTE
    _printf_x                                0x00000000   Number         0  stubs.o ABSOLUTE
    __cpp_initialize__aeabi_                  - Undefined Weak Reference
    __cxa_finalize                            - Undefined Weak Reference
    _clock_init                               - Undefined Weak Reference
    _microlib_exit                            - Undefined Weak Reference
    __Vectors_Size                           0x00000194   Number         0  startup_stm32f401xx.o ABSOLUTE
    __Vectors                                0x08000000   Data           4  startup_stm32f401xx.o(RESET)
    __Vectors_End                            0x08000194   Data           0  startup_stm32f401xx.o(RESET)
    __main                                   0x08000195   Thumb Code     0  entry.o(.ARM.Collect$$$$00000000)
    _main_stk                                0x08000195   Thumb Code     0  entry2.o(.ARM.Collect$$$$00000001)
    _main_scatterload                        0x08000199   Thumb Code     0  entry5.o(.ARM.Collect$$$$00000004)
    __main_after_scatterload                 0x0800019d   Thumb Code     0  entry5.o(.ARM.Collect$$$$00000004)
    _main_clock                              0x0800019d   Thumb Code     0  entry7b.o(.ARM.Collect$$$$00000008)
    _main_cpp_init                           0x0800019d   Thumb Code     0  entry8b.o(.ARM.Collect$$$$0000000A)
    _main_init                               0x0800019d   Thumb Code     0  entry9a.o(.ARM.Collect$$$$0000000B)
    __rt_final_cpp                           0x080001a5   Thumb Code     0  entry10a.o(.ARM.Collect$$$$0000000D)
    __rt_final_exit                          0x080001a5   Thumb Code     0  entry11a.o(.ARM.Collect$$$$0000000F)
    Reset_Handler                            0x080001a9   Thumb Code     8  startup_stm32f401xx.o(.text)
    ADC_IRQHandler                           0x080001c3   Thumb Code     0  startup_stm32f401xx.o(.text)
    DMA1_Stream0_IRQHandler                  0x080001c3   Thumb Code     0  startup_stm32f401xx.o(.text)
    DMA1_Stream1_IRQHandler                  0x080001c3   Thumb Code     0  startup_stm32f401xx.o(.text)
    DMA1_Stream2_IRQHandler                  0x080001c3   Thumb Code     0  startup_stm32f401xx.o(.text)
    DMA1_Stream3_IRQHandler                  0x080001c3   Thumb Code     0  startup_stm32f401xx.o(.text)
    DMA1_Stream4_IRQHandler                  0x080001c3   Thumb Code     0  startup_stm32f401xx.o(.text)
    DMA1_Stream5_IRQHandler                  0x080001c3   Thumb Code     0  startup_stm32f401xx.o(.text)
    DMA1_Stream6_IRQHandler                  0x080001c3   Thumb Code     0  startup_stm32f401xx.o(.text)
    DMA1_Stream7_IRQHandler                  0x080001c3   Thumb Code     0  startup_stm32f401xx.o(.text)
    DMA2_Stream0_IRQHandler                  0x080001c3   Thumb Code     0  startup_stm32f401xx.o(.text)
    DMA2_Stream1_IRQHandler                  0x080001c3   Thumb Code     0  startup_stm32f401xx.o(.text)
    DMA2_Stream2_IRQHandler                  0x080001c3   Thumb Code     0  startup_stm32f401xx.o(.text)
    DMA2_Stream4_IRQHandler                  0x080001c3   Thumb Code     0  startup_stm32f401xx.o(.text)
    DMA2_Stream5_IRQHandler                  0x080001c3   Thumb Code     0  startup_stm32f401xx.o(.text)
    DMA2_Stream6_IRQHandler                  0x080001c3   Thumb Code     0  startup_stm32f401xx.o(.text)
    DMA2_Stream7_IRQHandler                  0x080001c3   Thumb Code     0  startup_stm32f401xx.o(.text)
    EXTI0_IRQHandler                         0x080001c3   Thumb Code     0  startup_stm32f401xx.o(.text)
    EXTI15_10_IRQHandler                     0x080001c3   Thumb Code     0  startup_stm32f401xx.o(.text)
    EXTI1_IRQHandler                         0x080001c3   Thumb Code     0  startup_stm32f401xx.o(.text)
    EXTI2_IRQHandler                         0x080001c3   Thumb Code     0  startup_stm32f401xx.o(.text)
    EXTI3_IRQHandler                         0x080001c3   Thumb Code     0  startup_stm32f401xx.o(.text)
    EXTI4_IRQHandler                         0x080001c3   Thumb Code     0  startup_stm32f401xx.o(.text)
    EXTI9_5_IRQHandler                       0x080001c3   Thumb Code     0  startup_stm32f401xx.o(.text)
    FLASH_IRQHandler                         0x080001c3   Thumb Code     0  startup_stm32f401xx.o(.text)
    FPU_IRQHandler                           0x080001c3   Thumb Code     0  startup_stm32f401xx.o(.text)
    I2C1_ER_IRQHandler                       0x080001c3   Thumb Code     0  startup_stm32f401xx.o(.text)
    I2C1_EV_IRQHandler                       0x080001c3   Thumb Code     0  startup_stm32f401xx.o(.text)
    I2C2_ER_IRQHandler                       0x080001c3   Thumb Code     0  startup_stm32f401xx.o(.text)
    I2C2_EV_IRQHandler                       0x080001c3   Thumb Code     0  startup_stm32f401xx.o(.text)
    I2C3_ER_IRQHandler                       0x080001c3   Thumb Code     0  startup_stm32f401xx.o(.text)
    I2C3_EV_IRQHandler                       0x080001c3   Thumb Code     0  startup_stm32f401xx.o(.text)
    OTG_FS_WKUP_IRQHandler                   0x080001c3   Thumb Code     0  startup_stm32f401xx.o(.text)
    PVD_IRQHandler                           0x080001c3   Thumb Code     0  startup_stm32f401xx.o(.text)
    RCC_IRQHandler                           0x080001c3   Thumb Code     0  startup_stm32f401xx.o(.text)
    RTC_Alarm_IRQHandler                     0x080001c3   Thumb Code     0  startup_stm32f401xx.o(.text)
    RTC_WKUP_IRQHandler                      0x080001c3   Thumb Code     0  startup_stm32f401xx.o(.text)
    SPI1_IRQHandler                          0x080001c3   Thumb Code     0  startup_stm32f401xx.o(.text)
    SPI2_IRQHandler                          0x080001c3   Thumb Code     0  startup_stm32f401xx.o(.text)
    SPI3_IRQHandler                          0x080001c3   Thumb Code     0  startup_stm32f401xx.o(.text)
    SPI4_IRQHandler                          0x080001c3   Thumb Code     0  startup_stm32f401xx.o(.text)
    TAMP_STAMP_IRQHandler                    0x080001c3   Thumb Code     0  startup_stm32f401xx.o(.text)
    TIM1_BRK_TIM9_IRQHandler                 0x080001c3   Thumb Code     0  startup_stm32f401xx.o(.text)
    TIM1_CC_IRQHandler                       0x080001c3   Thumb Code     0  startup_stm32f401xx.o(.text)
    TIM1_TRG_COM_TIM11_IRQHandler            0x080001c3   Thumb Code     0  startup_stm32f401xx.o(.text)
    TIM1_UP_TIM10_IRQHandler                 0x080001c3   Thumb Code     0  startup_stm32f401xx.o(.text)
    TIM2_IRQHandler                          0x080001c3   Thumb Code     0  startup_stm32f401xx.o(.text)
    TIM3_IRQHandler                          0x080001c3   Thumb Code     0  startup_stm32f401xx.o(.text)
    TIM4_IRQHandler                          0x080001c3   Thumb Code     0  startup_stm32f401xx.o(.text)
    USART2_IRQHandler                        0x080001c3   Thumb Code     0  startup_stm32f401xx.o(.text)
    WWDG_IRQHandler                          0x080001c3   Thumb Code     0  startup_stm32f401xx.o(.text)
    __aeabi_uldivmod                         0x080001cd   Thumb Code    98  uldiv.o(.text)
    __aeabi_memcpy                           0x0800022f   Thumb Code    36  memcpya.o(.text)
    __aeabi_memcpy4                          0x0800022f   Thumb Code     0  memcpya.o(.text)
    __aeabi_memcpy8                          0x0800022f   Thumb Code     0  memcpya.o(.text)
    __aeabi_memset                           0x08000253   Thumb Code    14  memseta.o(.text)
    __aeabi_memset4                          0x08000253   Thumb Code     0  memseta.o(.text)
    __aeabi_memset8                          0x08000253   Thumb Code     0  memseta.o(.text)
    __aeabi_memclr                           0x08000261   Thumb Code     4  memseta.o(.text)
    __aeabi_memclr4                          0x08000261   Thumb Code     0  memseta.o(.text)
    __aeabi_memclr8                          0x08000261   Thumb Code     0  memseta.o(.text)
    _memset$wrapper                          0x08000265   Thumb Code    18  memseta.o(.text)
    strlen                                   0x08000277   Thumb Code    14  strlen.o(.text)
    strcmp                                   0x08000285   Thumb Code    28  strcmp.o(.text)
    strcpy                                   0x080002a1   Thumb Code    18  strcpy.o(.text)
    __aeabi_llsl                             0x080002b3   Thumb Code    30  llshl.o(.text)
    _ll_shift_l                              0x080002b3   Thumb Code     0  llshl.o(.text)
    __aeabi_llsr                             0x080002d1   Thumb Code    32  llushr.o(.text)
    _ll_ushift_r                             0x080002d1   Thumb Code     0  llushr.o(.text)
    __scatterload                            0x080002f1   Thumb Code    28  init.o(.text)
    __scatterload_rt2                        0x080002f1   Thumb Code     0  init.o(.text)
    __decompress                             0x08000315   Thumb Code     0  __dczerorl2.o(.text)
    __decompress1                            0x08000315   Thumb Code    86  __dczerorl2.o(.text)
    BEEP_KeyTone                             0x0800036b   Thumb Code    14  bsp_beep.o(i.BEEP_KeyTone)
    BEEP_Pro                                 0x08000379   Thumb Code   190  bsp_beep.o(i.BEEP_Pro)
    BEEP_Start                               0x08000441   Thumb Code    62  bsp_beep.o(i.BEEP_Start)
    BEEP_Stop                                0x08000489   Thumb Code    44  bsp_beep.o(i.BEEP_Stop)
    BusFault_Handler                         0x080004bd   Thumb Code     4  stm32f4xx_it.o(i.BusFault_Handler)
    COM1_Recieve_Callback                    0x080004c1   Thumb Code    96  bsp_protocol.o(i.COM1_Recieve_Callback)
    COM1_SendData                            0x08000545   Thumb Code    40  bsp_uart_fifo.o(i.COM1_SendData)
    CRC16_CCITT                              0x08000571   Thumb Code   116  bsp_user_lib.o(i.CRC16_CCITT)
    CloseFile                                0x080005e5   Thumb Code    26  iap.o(i.CloseFile)
    DCD_EP_Close                             0x08000901   Thumb Code    74  usb_dcd.o(i.DCD_EP_Close)
    DCD_EP_ClrStall                          0x0800094b   Thumb Code    72  usb_dcd.o(i.DCD_EP_ClrStall)
    DCD_EP_Flush                             0x08000993   Thumb Code    36  usb_dcd.o(i.DCD_EP_Flush)
    DCD_EP_Open                              0x080009b7   Thumb Code   104  usb_dcd.o(i.DCD_EP_Open)
    DCD_EP_PrepareRx                         0x08000a1f   Thumb Code    82  usb_dcd.o(i.DCD_EP_PrepareRx)
    DCD_EP_SetAddress                        0x08000a71   Thumb Code    28  usb_dcd.o(i.DCD_EP_SetAddress)
    DCD_EP_Stall                             0x08000a8d   Thumb Code    72  usb_dcd.o(i.DCD_EP_Stall)
    DCD_EP_Tx                                0x08000ad5   Thumb Code    78  usb_dcd.o(i.DCD_EP_Tx)
    DCD_Init                                 0x080010bd   Thumb Code   156  usb_dcd.o(i.DCD_Init)
    DMA2_Stream3_IRQHandler                  0x08001269   Thumb Code     8  bsp_sdio_sd.o(i.DMA2_Stream3_IRQHandler)
    DMA_ClearFlag                            0x08001271   Thumb Code    38  stm32f4xx_dma.o(i.DMA_ClearFlag)
    DMA_Cmd                                  0x080012a5   Thumb Code    22  stm32f4xx_dma.o(i.DMA_Cmd)
    DMA_DeInit                               0x080012bd   Thumb Code   324  stm32f4xx_dma.o(i.DMA_DeInit)
    DMA_FlowControllerConfig                 0x08001415   Thumb Code    22  stm32f4xx_dma.o(i.DMA_FlowControllerConfig)
    DMA_ITConfig                             0x0800142b   Thumb Code    58  stm32f4xx_dma.o(i.DMA_ITConfig)
    DMA_Init                                 0x08001465   Thumb Code    82  stm32f4xx_dma.o(i.DMA_Init)
    DebugMon_Handler                         0x080014bd   Thumb Code     2  stm32f4xx_it.o(i.DebugMon_Handler)
    ExtraSubStr                              0x080014c1   Thumb Code    82  hextobin.o(i.ExtraSubStr)
    GPIO_Init                                0x080016dd   Thumb Code   144  stm32f4xx_gpio.o(i.GPIO_Init)
    GPIO_PinAFConfig                         0x0800176d   Thumb Code    70  stm32f4xx_gpio.o(i.GPIO_PinAFConfig)
    GPIO_WriteBit                            0x080017b3   Thumb Code    10  stm32f4xx_gpio.o(i.GPIO_WriteBit)
    HardFault_Handler                        0x080017bd   Thumb Code    40  stm32f4xx_it.o(i.HardFault_Handler)
    HexToDec                                 0x08001815   Thumb Code    84  hextobin.o(i.HexToDec)
    IAPData                                  0x08001869   Thumb Code   946  iap.o(i.IAPData)
    IAP_SendCMD                              0x08001d05   Thumb Code   122  iap.o(i.IAP_SendCMD)
    IAP_SendData                             0x08001d81   Thumb Code   280  iap.o(i.IAP_SendData)
    InvertUint16                             0x08002001   Thumb Code    58  bsp_user_lib.o(i.InvertUint16)
    InvertUint8                              0x0800203b   Thumb Code    58  bsp_user_lib.o(i.InvertUint8)
    IsKeyDown1                               0x08002075   Thumb Code    18  bsp_key.o(i.IsKeyDown1)
    MSC_BOT_CplClrFeature                    0x080021a1   Thumb Code    56  usbd_msc_bot.o(i.MSC_BOT_CplClrFeature)
    MSC_BOT_DataIn                           0x080021dd   Thumb Code    70  usbd_msc_bot.o(i.MSC_BOT_DataIn)
    MSC_BOT_DataOut                          0x0800222d   Thumb Code    60  usbd_msc_bot.o(i.MSC_BOT_DataOut)
    MSC_BOT_DeInit                           0x08002271   Thumb Code     8  usbd_msc_bot.o(i.MSC_BOT_DeInit)
    MSC_BOT_Init                             0x0800227d   Thumb Code    54  usbd_msc_bot.o(i.MSC_BOT_Init)
    MSC_BOT_Reset                            0x080022c5   Thumb Code    30  usbd_msc_bot.o(i.MSC_BOT_Reset)
    MSC_BOT_SendCSW                          0x080022f1   Thumb Code    48  usbd_msc_bot.o(i.MSC_BOT_SendCSW)
    MemManage_Handler                        0x08002379   Thumb Code     4  stm32f4xx_it.o(i.MemManage_Handler)
    NMI_Handler                              0x0800237d   Thumb Code     2  stm32f4xx_it.o(i.NMI_Handler)
    NVIC_Init                                0x08002381   Thumb Code   106  misc.o(i.NVIC_Init)
    NVIC_PriorityGroupConfig                 0x080023f9   Thumb Code    10  misc.o(i.NVIC_PriorityGroupConfig)
    OLED_ClrScr                              0x08002451   Thumb Code    42  bsp_oled.o(i.OLED_ClrScr)
    OLED_DispOn                              0x080024f1   Thumb Code    34  bsp_oled.o(i.OLED_DispOn)
    OLED_DispStr                             0x08002515   Thumb Code   556  bsp_oled.o(i.OLED_DispStr)
    OLED_InitHard                            0x08002761   Thumb Code   208  bsp_oled.o(i.OLED_InitHard)
    OLED_PutPixel                            0x08002835   Thumb Code   152  bsp_oled.o(i.OLED_PutPixel)
    OLED_Set_Pos                             0x080028e5   Thumb Code    42  bsp_oled.o(i.OLED_Set_Pos)
    OTG_FS_IRQHandler                        0x080029a9   Thumb Code    10  usb_it.o(i.OTG_FS_IRQHandler)
    OpenFile                                 0x080029b9   Thumb Code   322  iap.o(i.OpenFile)
    PendSV_Handler                           0x08002be5   Thumb Code     2  stm32f4xx_it.o(i.PendSV_Handler)
    RCC_AHB1PeriphClockCmd                   0x08002dd1   Thumb Code    26  stm32f4xx_rcc.o(i.RCC_AHB1PeriphClockCmd)
    RCC_AHB2PeriphClockCmd                   0x08002df1   Thumb Code    26  stm32f4xx_rcc.o(i.RCC_AHB2PeriphClockCmd)
    RCC_APB1PeriphClockCmd                   0x08002e11   Thumb Code    26  stm32f4xx_rcc.o(i.RCC_APB1PeriphClockCmd)
    RCC_APB2PeriphClockCmd                   0x08002e31   Thumb Code    26  stm32f4xx_rcc.o(i.RCC_APB2PeriphClockCmd)
    RCC_APB2PeriphResetCmd                   0x08002e51   Thumb Code    26  stm32f4xx_rcc.o(i.RCC_APB2PeriphResetCmd)
    RCC_GetClocksFreq                        0x08002e71   Thumb Code   214  stm32f4xx_rcc.o(i.RCC_GetClocksFreq)
    SCSI_ProcessCmd                          0x0800303d   Thumb Code   210  usbd_msc_scsi.o(i.SCSI_ProcessCmd)
    SCSI_SenseCode                           0x08003535   Thumb Code    50  usbd_msc_scsi.o(i.SCSI_SenseCode)
    SDIO_ClearFlag                           0x08003871   Thumb Code     6  stm32f4xx_sdio.o(i.SDIO_ClearFlag)
    SDIO_ClearITPendingBit                   0x0800387d   Thumb Code     6  stm32f4xx_sdio.o(i.SDIO_ClearITPendingBit)
    SDIO_ClockCmd                            0x08003889   Thumb Code     6  stm32f4xx_sdio.o(i.SDIO_ClockCmd)
    SDIO_DMACmd                              0x08003895   Thumb Code     6  stm32f4xx_sdio.o(i.SDIO_DMACmd)
    SDIO_DataConfig                          0x080038a1   Thumb Code    46  stm32f4xx_sdio.o(i.SDIO_DataConfig)
    SDIO_DeInit                              0x080038d5   Thumb Code    22  stm32f4xx_sdio.o(i.SDIO_DeInit)
    SDIO_GetCommandResponse                  0x080038ed   Thumb Code     8  stm32f4xx_sdio.o(i.SDIO_GetCommandResponse)
    SDIO_GetFlagStatus                       0x080038f9   Thumb Code    20  stm32f4xx_sdio.o(i.SDIO_GetFlagStatus)
    SDIO_GetITStatus                         0x08003911   Thumb Code    20  stm32f4xx_sdio.o(i.SDIO_GetITStatus)
    SDIO_GetPowerState                       0x08003929   Thumb Code    10  stm32f4xx_sdio.o(i.SDIO_GetPowerState)
    SDIO_GetResponse                         0x08003939   Thumb Code    20  stm32f4xx_sdio.o(i.SDIO_GetResponse)
    SDIO_IRQHandler                          0x08003951   Thumb Code     8  bsp_sdio_sd.o(i.SDIO_IRQHandler)
    SDIO_ITConfig                            0x08003959   Thumb Code    26  stm32f4xx_sdio.o(i.SDIO_ITConfig)
    SDIO_Init                                0x08003979   Thumb Code    42  stm32f4xx_sdio.o(i.SDIO_Init)
    SDIO_Interrupts_Config                   0x080039a9   Thumb Code    58  bsp_sdio_sd.o(i.SDIO_Interrupts_Config)
    SDIO_ReadData                            0x080039e5   Thumb Code     6  stm32f4xx_sdio.o(i.SDIO_ReadData)
    SDIO_SendCommand                         0x080039f1   Thumb Code    40  stm32f4xx_sdio.o(i.SDIO_SendCommand)
    SDIO_SetPowerState                       0x08003a1d   Thumb Code     6  stm32f4xx_sdio.o(i.SDIO_SetPowerState)
    SD_Detect                                0x08003a29   Thumb Code    12  bsp_sdio_sd.o(i.SD_Detect)
    SD_EnableWideBusOperation                0x08003a35   Thumb Code   136  bsp_sdio_sd.o(i.SD_EnableWideBusOperation)
    SD_GetCardInfo                           0x08003ac5   Thumb Code   762  bsp_sdio_sd.o(i.SD_GetCardInfo)
    SD_GetState                              0x08003dd1   Thumb Code    38  bsp_sdio_sd.o(i.SD_GetState)
    SD_GetStatus                             0x08003df7   Thumb Code    30  bsp_sdio_sd.o(i.SD_GetStatus)
    SD_Init                                  0x08003e15   Thumb Code   126  bsp_sdio_sd.o(i.SD_Init)
    SD_InitializeCards                       0x08003e9d   Thumb Code   294  bsp_sdio_sd.o(i.SD_InitializeCards)
    SD_LowLevel_DMA_RxConfig                 0x08003fd9   Thumb Code   132  bsp_sdio_sd.o(i.SD_LowLevel_DMA_RxConfig)
    SD_LowLevel_DMA_TxConfig                 0x08004065   Thumb Code   134  bsp_sdio_sd.o(i.SD_LowLevel_DMA_TxConfig)
    SD_LowLevel_Init                         0x080040f5   Thumb Code   182  bsp_sdio_sd.o(i.SD_LowLevel_Init)
    SD_PowerON                               0x080041b9   Thumb Code   400  bsp_sdio_sd.o(i.SD_PowerON)
    SD_ProcessDMAIRQ                         0x08004359   Thumb Code    32  bsp_sdio_sd.o(i.SD_ProcessDMAIRQ)
    SD_ProcessIRQSrc                         0x08004381   Thumb Code   162  bsp_sdio_sd.o(i.SD_ProcessIRQSrc)
    SD_ReadBlock                             0x0800442d   Thumb Code   194  bsp_sdio_sd.o(i.SD_ReadBlock)
    SD_ReadMultiBlocks                       0x0800450d   Thumb Code   204  bsp_sdio_sd.o(i.SD_ReadMultiBlocks)
    SD_SelectDeselect                        0x080045f5   Thumb Code    48  bsp_sdio_sd.o(i.SD_SelectDeselect)
    SD_SendStatus                            0x08004629   Thumb Code    74  bsp_sdio_sd.o(i.SD_SendStatus)
    SD_StopTransfer                          0x0800467d   Thumb Code    46  bsp_sdio_sd.o(i.SD_StopTransfer)
    SD_WaitReadOperation                     0x080046b1   Thumb Code   108  bsp_sdio_sd.o(i.SD_WaitReadOperation)
    SD_WaitWriteOperation                    0x08004731   Thumb Code   108  bsp_sdio_sd.o(i.SD_WaitWriteOperation)
    SD_WriteBlock                            0x080047b1   Thumb Code   192  bsp_sdio_sd.o(i.SD_WriteBlock)
    SD_WriteMultiBlocks                      0x0800488d   Thumb Code   294  bsp_sdio_sd.o(i.SD_WriteMultiBlocks)
    SD_disk_initialize                       0x080049d5   Thumb Code    18  diskio.o(i.SD_disk_initialize)
    SPI_Cmd                                  0x080049e7   Thumb Code    24  stm32f4xx_spi.o(i.SPI_Cmd)
    SPI_I2S_GetFlagStatus                    0x080049ff   Thumb Code    18  stm32f4xx_spi.o(i.SPI_I2S_GetFlagStatus)
    SPI_I2S_ReceiveData                      0x08004a11   Thumb Code     6  stm32f4xx_spi.o(i.SPI_I2S_ReceiveData)
    SPI_I2S_SendData                         0x08004a17   Thumb Code     4  stm32f4xx_spi.o(i.SPI_I2S_SendData)
    SPI_Init                                 0x08004a1b   Thumb Code    60  stm32f4xx_spi.o(i.SPI_Init)
    STORAGE_GetCapacity                      0x08004a59   Thumb Code    60  usbd_storage_msd.o(i.STORAGE_GetCapacity)
    STORAGE_GetMaxLun                        0x08004ab5   Thumb Code     4  usbd_storage_msd.o(i.STORAGE_GetMaxLun)
    STORAGE_Init                             0x08004ab9   Thumb Code    26  usbd_storage_msd.o(i.STORAGE_Init)
    STORAGE_IsReady                          0x08004aed   Thumb Code    46  usbd_storage_msd.o(i.STORAGE_IsReady)
    STORAGE_IsWriteProtected                 0x08004b21   Thumb Code    14  usbd_storage_msd.o(i.STORAGE_IsWriteProtected)
    STORAGE_Read                             0x08004b51   Thumb Code    60  usbd_storage_msd.o(i.STORAGE_Read)
    STORAGE_Write                            0x08004b91   Thumb Code    60  usbd_storage_msd.o(i.STORAGE_Write)
    SVC_Handler                              0x08004bd1   Thumb Code     2  stm32f4xx_it.o(i.SVC_Handler)
    SysTick_Handler                          0x08004cbd   Thumb Code     8  bsp_timer.o(i.SysTick_Handler)
    SysTick_ISR                              0x08004cc5   Thumb Code   110  bsp_timer.o(i.SysTick_ISR)
    SystemInit                               0x08004d49   Thumb Code    88  system_stm32f4xx.o(i.SystemInit)
    TIM5_IRQHandler                          0x08004db1   Thumb Code   140  bsp_timer.o(i.TIM5_IRQHandler)
    TIM_ARRPreloadConfig                     0x08004e51   Thumb Code    24  stm32f4xx_tim.o(i.TIM_ARRPreloadConfig)
    TIM_ClearITPendingBit                    0x08004e69   Thumb Code     6  stm32f4xx_tim.o(i.TIM_ClearITPendingBit)
    TIM_Cmd                                  0x08004e6f   Thumb Code    24  stm32f4xx_tim.o(i.TIM_Cmd)
    TIM_CtrlPWMOutputs                       0x08004e87   Thumb Code    30  stm32f4xx_tim.o(i.TIM_CtrlPWMOutputs)
    TIM_GetITStatus                          0x08004ea5   Thumb Code    34  stm32f4xx_tim.o(i.TIM_GetITStatus)
    TIM_ITConfig                             0x08004ec7   Thumb Code    18  stm32f4xx_tim.o(i.TIM_ITConfig)
    TIM_OC1Init                              0x08004ed9   Thumb Code   114  stm32f4xx_tim.o(i.TIM_OC1Init)
    TIM_OC1PreloadConfig                     0x08004f55   Thumb Code    18  stm32f4xx_tim.o(i.TIM_OC1PreloadConfig)
    TIM_OC2Init                              0x08004f69   Thumb Code   154  stm32f4xx_tim.o(i.TIM_OC2Init)
    TIM_OC2PreloadConfig                     0x0800500d   Thumb Code    26  stm32f4xx_tim.o(i.TIM_OC2PreloadConfig)
    TIM_OC3Init                              0x08005029   Thumb Code   150  stm32f4xx_tim.o(i.TIM_OC3Init)
    TIM_OC3PreloadConfig                     0x080050c9   Thumb Code    18  stm32f4xx_tim.o(i.TIM_OC3PreloadConfig)
    TIM_OC4Init                              0x080050dd   Thumb Code   112  stm32f4xx_tim.o(i.TIM_OC4Init)
    TIM_OC4PreloadConfig                     0x08005155   Thumb Code    26  stm32f4xx_tim.o(i.TIM_OC4PreloadConfig)
    TIM_TimeBaseInit                         0x08005171   Thumb Code   104  stm32f4xx_tim.o(i.TIM_TimeBaseInit)
    Test_Hex2Bin                             0x080051f5   Thumb Code    52  hextobin.o(i.Test_Hex2Bin)
    TranHex                                  0x08005279   Thumb Code   156  hextobin.o(i.TranHex)
    USART1_IRQHandler                        0x08005359   Thumb Code    10  bsp_uart_fifo.o(i.USART1_IRQHandler)
    USART6_IRQHandler                        0x08005369   Thumb Code    10  bsp_uart_fifo.o(i.USART6_IRQHandler)
    USART_ClearFlag                          0x08005379   Thumb Code    18  stm32f4xx_usart.o(i.USART_ClearFlag)
    USART_Cmd                                0x0800538b   Thumb Code    24  stm32f4xx_usart.o(i.USART_Cmd)
    USART_GetFlagStatus                      0x080053a3   Thumb Code    26  stm32f4xx_usart.o(i.USART_GetFlagStatus)
    USART_GetITStatus                        0x080053bd   Thumb Code    84  stm32f4xx_usart.o(i.USART_GetITStatus)
    USART_ITConfig                           0x08005411   Thumb Code    74  stm32f4xx_usart.o(i.USART_ITConfig)
    USART_Init                               0x0800545d   Thumb Code   204  stm32f4xx_usart.o(i.USART_Init)
    USART_ReceiveData                        0x08005531   Thumb Code    10  stm32f4xx_usart.o(i.USART_ReceiveData)
    USART_SendData                           0x0800553b   Thumb Code     8  stm32f4xx_usart.o(i.USART_SendData)
    USBD_ClrCfg                              0x08005543   Thumb Code    22  usbd_core.o(i.USBD_ClrCfg)
    USBD_CtlContinueRx                       0x080055a1   Thumb Code    30  usbd_ioreq.o(i.USBD_CtlContinueRx)
    USBD_CtlContinueSendData                 0x080055bf   Thumb Code    30  usbd_ioreq.o(i.USBD_CtlContinueSendData)
    USBD_CtlError                            0x080055dd   Thumb Code    30  usbd_req.o(i.USBD_CtlError)
    USBD_CtlReceiveStatus                    0x080055fb   Thumb Code    36  usbd_ioreq.o(i.USBD_CtlReceiveStatus)
    USBD_CtlSendData                         0x0800561f   Thumb Code    46  usbd_ioreq.o(i.USBD_CtlSendData)
    USBD_CtlSendStatus                       0x0800564d   Thumb Code    36  usbd_ioreq.o(i.USBD_CtlSendStatus)
    USBD_DeInit                              0x080057d7   Thumb Code     6  usbd_core.o(i.USBD_DeInit)
    USBD_GetRxCount                          0x08005967   Thumb Code    20  usbd_ioreq.o(i.USBD_GetRxCount)
    USBD_GetString                           0x080059cd   Thumb Code    82  usbd_req.o(i.USBD_GetString)
    USBD_Init                                0x08005a1f   Thumb Code    66  usbd_core.o(i.USBD_Init)
    USBD_MSC_DataIn                          0x08005a85   Thumb Code    18  usbd_msc_core.o(i.USBD_MSC_DataIn)
    USBD_MSC_DataOut                         0x08005a97   Thumb Code    18  usbd_msc_core.o(i.USBD_MSC_DataOut)
    USBD_MSC_DeInit                          0x08005aa9   Thumb Code    32  usbd_msc_core.o(i.USBD_MSC_DeInit)
    USBD_MSC_GetCfgDesc                      0x08005ac9   Thumb Code    10  usbd_msc_core.o(i.USBD_MSC_GetCfgDesc)
    USBD_MSC_Init                            0x08005ad9   Thumb Code    48  usbd_msc_core.o(i.USBD_MSC_Init)
    USBD_MSC_Setup                           0x08005b09   Thumb Code   276  usbd_msc_core.o(i.USBD_MSC_Setup)
    USBD_OTG_ISR_Handler                     0x08005c29   Thumb Code   224  usb_dcd_int.o(i.USBD_OTG_ISR_Handler)
    USBD_ParseSetupRequest                   0x08005d09   Thumb Code    72  usbd_req.o(i.USBD_ParseSetupRequest)
    USBD_SetCfg                              0x08005e2b   Thumb Code    30  usbd_core.o(i.USBD_SetCfg)
    USBD_StdDevReq                           0x08006011   Thumb Code   114  usbd_req.o(i.USBD_StdDevReq)
    USBD_StdEPReq                            0x08006085   Thumb Code   344  usbd_req.o(i.USBD_StdEPReq)
    USBD_StdItfReq                           0x080061e1   Thumb Code    76  usbd_req.o(i.USBD_StdItfReq)
    USBD_USR_ConfigStrDescriptor             0x0800624d   Thumb Code    34  usbd_desc.o(i.USBD_USR_ConfigStrDescriptor)
    USBD_USR_DeviceConfigured                0x08006281   Thumb Code    10  usbd_usr.o(i.USBD_USR_DeviceConfigured)
    USBD_USR_DeviceConnected                 0x080062a9   Thumb Code    10  usbd_usr.o(i.USBD_USR_DeviceConnected)
    USBD_USR_DeviceDescriptor                0x080062d1   Thumb Code    10  usbd_desc.o(i.USBD_USR_DeviceDescriptor)
    USBD_USR_DeviceDisconnected              0x080062e1   Thumb Code    10  usbd_usr.o(i.USBD_USR_DeviceDisconnected)
    USBD_USR_DeviceReset                     0x0800630d   Thumb Code    40  usbd_usr.o(i.USBD_USR_DeviceReset)
    USBD_USR_DeviceResumed                   0x080063a5   Thumb Code    10  usbd_usr.o(i.USBD_USR_DeviceResumed)
    USBD_USR_DeviceSuspended                 0x080063c5   Thumb Code    10  usbd_usr.o(i.USBD_USR_DeviceSuspended)
    USBD_USR_Init                            0x080063ed   Thumb Code    10  usbd_usr.o(i.USBD_USR_Init)
    USBD_USR_InterfaceStrDescriptor          0x0800640d   Thumb Code    34  usbd_desc.o(i.USBD_USR_InterfaceStrDescriptor)
    USBD_USR_LangIDStrDescriptor             0x08006445   Thumb Code    10  usbd_desc.o(i.USBD_USR_LangIDStrDescriptor)
    USBD_USR_ManufacturerStrDescriptor       0x08006455   Thumb Code    20  usbd_desc.o(i.USBD_USR_ManufacturerStrDescriptor)
    USBD_USR_ProductStrDescriptor            0x08006481   Thumb Code    34  usbd_desc.o(i.USBD_USR_ProductStrDescriptor)
    USBD_USR_SerialStrDescriptor             0x080064d9   Thumb Code    34  usbd_desc.o(i.USBD_USR_SerialStrDescriptor)
    USB_OTG_BSP_EnableInterrupt              0x08006521   Thumb Code    44  usb_bsp.o(i.USB_OTG_BSP_EnableInterrupt)
    USB_OTG_BSP_Init                         0x0800654d   Thumb Code    86  usb_bsp.o(i.USB_OTG_BSP_Init)
    USB_OTG_BSP_mDelay                       0x080065a9   Thumb Code    18  usb_bsp.o(i.USB_OTG_BSP_mDelay)
    USB_OTG_BSP_uDelay                       0x080065bb   Thumb Code    22  usb_bsp.o(i.USB_OTG_BSP_uDelay)
    USB_OTG_CoreInit                         0x080065d1   Thumb Code   294  usb_core.o(i.USB_OTG_CoreInit)
    USB_OTG_CoreInitDev                      0x080066f7   Thumb Code   522  usb_core.o(i.USB_OTG_CoreInitDev)
    USB_OTG_DisableGlobalInt                 0x08006971   Thumb Code    34  usb_core.o(i.USB_OTG_DisableGlobalInt)
    USB_OTG_EP0Activate                      0x08006993   Thumb Code   106  usb_core.o(i.USB_OTG_EP0Activate)
    USB_OTG_EP0StartXfer                     0x080069fd   Thumb Code   342  usb_core.o(i.USB_OTG_EP0StartXfer)
    USB_OTG_EP0_OutStart                     0x08006b53   Thumb Code    98  usb_core.o(i.USB_OTG_EP0_OutStart)
    USB_OTG_EPActivate                       0x08006bb5   Thumb Code   152  usb_core.o(i.USB_OTG_EPActivate)
    USB_OTG_EPClearStall                     0x08006c4d   Thumb Code    80  usb_core.o(i.USB_OTG_EPClearStall)
    USB_OTG_EPDeactivate                     0x08006c9d   Thumb Code    94  usb_core.o(i.USB_OTG_EPDeactivate)
    USB_OTG_EPSetStall                       0x08006cfb   Thumb Code   100  usb_core.o(i.USB_OTG_EPSetStall)
    USB_OTG_EPStartXfer                      0x08006d5f   Thumb Code   502  usb_core.o(i.USB_OTG_EPStartXfer)
    USB_OTG_EnableDevInt                     0x08006f89   Thumb Code   154  usb_core.o(i.USB_OTG_EnableDevInt)
    USB_OTG_EnableGlobalInt                  0x08007023   Thumb Code    34  usb_core.o(i.USB_OTG_EnableGlobalInt)
    USB_OTG_FlushRxFifo                      0x08007045   Thumb Code    70  usb_core.o(i.USB_OTG_FlushRxFifo)
    USB_OTG_FlushTxFifo                      0x08007091   Thumb Code    80  usb_core.o(i.USB_OTG_FlushTxFifo)
    USB_OTG_GetDeviceSpeed                   0x080070e5   Thumb Code    52  usb_core.o(i.USB_OTG_GetDeviceSpeed)
    USB_OTG_GetMode                          0x08007119   Thumb Code    12  usb_core.o(i.USB_OTG_GetMode)
    USB_OTG_InitDevSpeed                     0x08007125   Thumb Code    24  usb_core.o(i.USB_OTG_InitDevSpeed)
    USB_OTG_IsDeviceMode                     0x0800713d   Thumb Code    22  usb_core.o(i.USB_OTG_IsDeviceMode)
    USB_OTG_ReadCoreItr                      0x08007153   Thumb Code    16  usb_core.o(i.USB_OTG_ReadCoreItr)
    USB_OTG_ReadDevAllInEPItr                0x08007163   Thumb Code    16  usb_core.o(i.USB_OTG_ReadDevAllInEPItr)
    USB_OTG_ReadDevAllOutEp_itr              0x08007173   Thumb Code    16  usb_core.o(i.USB_OTG_ReadDevAllOutEp_itr)
    USB_OTG_ReadDevOutEP_itr                 0x08007183   Thumb Code    20  usb_core.o(i.USB_OTG_ReadDevOutEP_itr)
    USB_OTG_ReadPacket                       0x08007197   Thumb Code    40  usb_core.o(i.USB_OTG_ReadPacket)
    USB_OTG_SelectCore                       0x080071c1   Thumb Code   204  usb_core.o(i.USB_OTG_SelectCore)
    USB_OTG_SetCurrentMode                   0x08007291   Thumb Code    78  usb_core.o(i.USB_OTG_SetCurrentMode)
    USB_OTG_WritePacket                      0x080072df   Thumb Code    64  usb_core.o(i.USB_OTG_WritePacket)
    UsageFault_Handler                       0x08007489   Thumb Code     4  stm32f4xx_it.o(i.UsageFault_Handler)
    __0printf$8                              0x0800748d   Thumb Code    22  printf8.o(i.__0printf$8)
    __1printf$8                              0x0800748d   Thumb Code     0  printf8.o(i.__0printf$8)
    __2printf                                0x0800748d   Thumb Code     0  printf8.o(i.__0printf$8)
    __scatterload_copy                       0x080074ad   Thumb Code    14  handlers.o(i.__scatterload_copy)
    __scatterload_null                       0x080074bb   Thumb Code     2  handlers.o(i.__scatterload_null)
    __scatterload_zeroinit                   0x080074bd   Thumb Code    14  handlers.o(i.__scatterload_zeroinit)
    bsp_CheckTimer                           0x08007999   Thumb Code    48  bsp_timer.o(i.bsp_CheckTimer)
    bsp_ConfigGpioOut                        0x080079cd   Thumb Code    54  bsp_tim_pwm.o(i.bsp_ConfigGpioOut)
    bsp_ConfigTimGpio                        0x08007a05   Thumb Code   150  bsp_tim_pwm.o(i.bsp_ConfigTimGpio)
    bsp_DelayMS                              0x08007ab1   Thumb Code    58  bsp_timer.o(i.bsp_DelayMS)
    bsp_GetAFofTIM                           0x08007af5   Thumb Code   144  bsp_tim_pwm.o(i.bsp_GetAFofTIM)
    bsp_GetPinSource                         0x08007bb1   Thumb Code   146  bsp_tim_pwm.o(i.bsp_GetPinSource)
    bsp_GetRCCofGPIO                         0x08007c45   Thumb Code    94  bsp_tim_pwm.o(i.bsp_GetRCCofGPIO)
    bsp_GetRCCofTIM                          0x08007cc9   Thumb Code   150  bsp_tim_pwm.o(i.bsp_GetRCCofTIM)
    bsp_Idle                                 0x08007d95   Thumb Code     2  bsp.o(i.bsp_Idle)
    bsp_Init                                 0x08007d97   Thumb Code    48  bsp.o(i.bsp_Init)
    bsp_InitHardTimer                        0x08007dc9   Thumb Code    92  bsp_timer.o(i.bsp_InitHardTimer)
    bsp_InitKey                              0x08007e31   Thumb Code     8  bsp_key.o(i.bsp_InitKey)
    bsp_InitLed                              0x08007e69   Thumb Code    72  bsp_led.o(i.bsp_InitLed)
    bsp_InitSFlash                           0x08007eb9   Thumb Code   154  bsp_spi_flash.o(i.bsp_InitSFlash)
    bsp_InitTimer                            0x08007f59   Thumb Code   140  bsp_timer.o(i.bsp_InitTimer)
    bsp_InitUart                             0x08007ff5   Thumb Code    16  bsp_uart_fifo.o(i.bsp_InitUart)
    bsp_LedOff                               0x08008005   Thumb Code    24  bsp_led.o(i.bsp_LedOff)
    bsp_LedToggle                            0x08008025   Thumb Code    36  bsp_led.o(i.bsp_LedToggle)
    bsp_RunPer10ms                           0x08008051   Thumb Code    14  bsp.o(i.bsp_RunPer10ms)
    bsp_RunPer1ms                            0x08008061   Thumb Code    54  bsp.o(i.bsp_RunPer1ms)
    bsp_SetTIMOutPWM                         0x080080a5   Thumb Code   396  bsp_tim_pwm.o(i.bsp_SetTIMOutPWM)
    bsp_StartAutoTimer                       0x08008265   Thumb Code    84  bsp_timer.o(i.bsp_StartAutoTimer)
    clearBuff                                0x080087d1   Thumb Code    16  bsp_protocol.o(i.clearBuff)
    clust2sect                               0x08008819   Thumb Code    26  ff.o(i.clust2sect)
    disk_initialize                          0x08008d3d   Thumb Code    32  diskio.o(i.disk_initialize)
    disk_ioctl                               0x08008d5d   Thumb Code    30  diskio.o(i.disk_ioctl)
    disk_read                                0x08008d7b   Thumb Code   110  diskio.o(i.disk_read)
    disk_status                              0x08008de9   Thumb Code    24  diskio.o(i.disk_status)
    disk_write                               0x08008e01   Thumb Code   128  diskio.o(i.disk_write)
    f_close                                  0x08008ea9   Thumb Code    32  ff.o(i.f_close)
    f_mount                                  0x08008ec9   Thumb Code    48  ff.o(i.f_mount)
    f_open                                   0x08008efd   Thumb Code   408  ff.o(i.f_open)
    f_opendir                                0x08009095   Thumb Code   112  ff.o(i.f_opendir)
    f_read                                   0x08009105   Thumb Code   458  ff.o(i.f_read)
    f_stat                                   0x080092cf   Thumb Code    58  ff.o(i.f_stat)
    f_sync                                   0x08009309   Thumb Code   176  ff.o(i.f_sync)
    fputc                                    0x0800944d   Thumb Code    32  bsp_uart_fifo.o(i.fputc)
    get_fat                                  0x08009471   Thumb Code   228  ff.o(i.get_fat)
    get_fattime                              0x08009555   Thumb Code     4  diskio.o(i.get_fattime)
    isEmpty                                  0x080096d1   Thumb Code    34  bsp_protocol.o(i.isEmpty)
    isFull                                   0x080096fd   Thumb Code    48  bsp_protocol.o(i.isFull)
    main                                     0x08009755   Thumb Code   198  main.o(i.main)
    malloc                                   0x0800984d   Thumb Code    92  malloc.o(i.malloc)
    popBuff                                  0x08009941   Thumb Code   134  bsp_protocol.o(i.popBuff)
    pushBuff                                 0x080099d9   Thumb Code    66  bsp_protocol.o(i.pushBuff)
    put_fat                                  0x08009a2d   Thumb Code   310  ff.o(i.put_fat)
    sf_ReadID                                0x08009bcd   Thumb Code    62  bsp_spi_flash.o(i.sf_ReadID)
    sf_ReadInfo                              0x08009c11   Thumb Code   198  bsp_spi_flash.o(i.sf_ReadInfo)
    usbd_OpenMassStorage                     0x08009f21   Thumb Code    20  usbd_usr.o(i.usbd_OpenMassStorage)
    g_Ascii12                                0x08009faa   Data        1524  asc12.o(.constdata)
    g_Ascii16                                0x0800a59e   Data        4096  asc16.o(.constdata)
    g_Ascii24                                0x0800b59e   Data         492  asc24.o(.constdata)
    g_Ascii32                                0x0800b78a   Data         652  asc32.o(.constdata)
    g_Hz12                                   0x0800ba16   Data        1536  hz12.o(.constdata)
    g_Hz16                                   0x0800c016   Data         138  hz16.o(.constdata)
    g_Hz24                                   0x0800c0a0   Data          76  hz24.o(.constdata)
    g_Hz32                                   0x0800c0ec   Data         132  hz32.o(.constdata)
    STORAGE_Inquirydata                      0x0800c170   Data          36  usbd_storage_msd.o(.constdata)
    MSC_Page00_Inquiry_Data                  0x0800c194   Data           7  usbd_msc_data.o(.constdata)
    MSC_Mode_Sense6_data                     0x0800c19b   Data           8  usbd_msc_data.o(.constdata)
    MSC_Mode_Sense10_data                    0x0800c1a3   Data           8  usbd_msc_data.o(.constdata)
    Region$$Table$$Base                      0x0800c1ac   Number         0  anon$$obj.o(Region$$Table)
    Region$$Table$$Limit                     0x0800c1cc   Number         0  anon$$obj.o(Region$$Table)
    g_iRunTime                               0x20000008   Data           4  bsp_timer.o(.data)
    StopCondition                            0x20000028   Data           4  bsp_sdio_sd.o(.data)
    TransferError                            0x2000002c   Data           1  bsp_sdio_sd.o(.data)
    TransferEnd                              0x20000030   Data           4  bsp_sdio_sd.o(.data)
    DMAEndOfTransfer                         0x20000034   Data           4  bsp_sdio_sd.o(.data)
    COM1_Rx_Sta                              0x2000003a   Data           1  bsp_protocol.o(.data)
    COM1Receive                              0x2000003c   Data           4  bsp_protocol.o(.data)
    tFont12                                  0x20000040   Data           8  main.o(.data)
    tFont16                                  0x20000048   Data           8  main.o(.data)
    tFont24                                  0x20000050   Data           8  main.o(.data)
    tFont32                                  0x20000058   Data           8  main.o(.data)
    CRCTest                                  0x20000060   Data          10  main.o(.data)
    Maintask_Status                          0x2000006a   Data           1  main.o(.data)
    IAP_t                                    0x2000006c   Data           6  iap.o(.data)
    IAPState                                 0x20000072   Data           1  iap.o(.data)
    sector                                   0x20000074   Data           4  iap.o(.data)
    result                                   0x20000078   Data           1  iap.o(.data)
    bw                                       0x2000007c   Data           4  iap.o(.data)
    SystemCoreClock                          0x20000090   Data           4  system_stm32f4xx.o(.data)
    AHBPrescTable                            0x20000094   Data          16  system_stm32f4xx.o(.data)
    USR_desc                                 0x200000ac   Data          28  usbd_desc.o(.data)
    USBD_DeviceDesc                          0x200000c8   Data          18  usbd_desc.o(.data)
    USBD_DeviceQualifierDesc                 0x200000da   Data          10  usbd_desc.o(.data)
    USBD_LangIDDesc                          0x200000e4   Data           4  usbd_desc.o(.data)
    USBD_user_fops                           0x200000e8   Data          32  usbd_storage_msd.o(.data)
    USBD_STORAGE_fops                        0x20000108   Data           4  usbd_storage_msd.o(.data)
    count                                    0x2000010c   Data           4  usbd_storage_msd.o(.data)
    USRD_cb                                  0x20000114   Data          28  usbd_usr.o(.data)
    SET_TEST_MODE                            0x20000130   Data           4  usbd_core.o(.data)
    USBD_DCD_INT_cb                          0x20000134   Data          44  usbd_core.o(.data)
    USBD_DCD_INT_fops                        0x20000160   Data           4  usbd_core.o(.data)
    USBD_ep_status                           0x20000164   Data           4  usbd_req.o(.data)
    USBD_default_cfg                         0x20000168   Data           4  usbd_req.o(.data)
    USBD_cfg_status                          0x2000016c   Data           4  usbd_req.o(.data)
    MSC_BOT_DataLen                          0x20000172   Data           2  usbd_msc_bot.o(.data)
    MSC_BOT_State                            0x20000174   Data           1  usbd_msc_bot.o(.data)
    MSC_BOT_Status                           0x20000175   Data           1  usbd_msc_bot.o(.data)
    USBD_MSC_cb                              0x20000178   Data          44  usbd_msc_core.o(.data)
    USBD_MSC_CfgDesc                         0x200001a4   Data          32  usbd_msc_core.o(.data)
    SCSI_Sense_Head                          0x200001c8   Data           1  usbd_msc_scsi.o(.data)
    SCSI_Sense_Tail                          0x200001c9   Data           1  usbd_msc_scsi.o(.data)
    SCSI_blk_size                            0x200001cc   Data           4  usbd_msc_scsi.o(.data)
    SCSI_blk_nbr                             0x200001d0   Data           4  usbd_msc_scsi.o(.data)
    SCSI_blk_addr                            0x200001d4   Data           4  usbd_msc_scsi.o(.data)
    SCSI_blk_len                             0x200001d8   Data           4  usbd_msc_scsi.o(.data)
    cdev                                     0x200001dc   Data           4  usbd_msc_scsi.o(.data)
    __stdout                                 0x200001e0   Data           4  stdout.o(.data)
    __microlib_freelist                      0x200001e4   Data           4  mvars.o(.data)
    __microlib_freelist_initialised          0x200001e8   Data           4  mvars.o(.data)
    SDCardInfo                               0x20000ec0   Data          88  bsp_sdio_sd.o(.bss)
    SDIO_InitStructure                       0x20000f18   Data          24  bsp_sdio_sd.o(.bss)
    SDIO_CmdInitStructure                    0x20000f30   Data          20  bsp_sdio_sd.o(.bss)
    SDIO_DataInitStructure                   0x20000f44   Data          24  bsp_sdio_sd.o(.bss)
    g_tSF                                    0x2000135c   Data          28  bsp_spi_flash.o(.bss)
    COM1_Buf                                 0x20002384   Data        2660  bsp_protocol.o(.bss)
    COM1Temp                                 0x20002de8   Data         532  bsp_protocol.o(.bss)
    g_TestBuf                                0x20002ffc   Data        4096  demo_sdio_fatfs.o(.bss)
    File_buf                                 0x20003ffc   Data        1024  demo_sdio_fatfs.o(.bss)
    fs                                       0x200043fc   Data         564  iap.o(.bss)
    file                                     0x20004630   Data         552  iap.o(.bss)
    DirInf                                   0x20004858   Data          28  iap.o(.bss)
    FileInf                                  0x20004874   Data          24  iap.o(.bss)
    USB_OTG_dev                              0x200048b0   Data        1524  usbd_usr.o(.bss)
    USBD_StrDesc                             0x20004ea4   Data          64  usbd_req.o(.bss)
    MSC_BOT_Data                             0x20004ee4   Data        4096  usbd_msc_bot.o(.bss)
    MSC_BOT_cbw                              0x20005ee4   Data          32  usbd_msc_bot.o(.bss)
    MSC_BOT_csw                              0x20005f04   Data          16  usbd_msc_bot.o(.bss)
    SCSI_Sense                               0x20005f14   Data          32  usbd_msc_scsi.o(.bss)
    __heap_base                              0x20005f38   Data           0  startup_stm32f401xx.o(HEAP)
    __heap_limit                             0x20006138   Data           0  startup_stm32f401xx.o(HEAP)
    __initial_sp                             0x2000a138   Data           0  startup_stm32f401xx.o(STACK)



==============================================================================

Memory Map of the image

  Image Entry point : 0x08000195

  Load Region LR_IROM1 (Base: 0x08000000, Size: 0x0000c3b8, Max: 0x00040000, ABSOLUTE, COMPRESSED[0x0000c2a8])

    Execution Region ER_IROM1 (Exec base: 0x08000000, Load base: 0x08000000, Size: 0x0000c1cc, Max: 0x00040000, ABSOLUTE)

    Exec Addr    Load Addr    Size         Type   Attr      Idx    E Section Name        Object

    0x08000000   0x08000000   0x00000194   Data   RO         7027    RESET               startup_stm32f401xx.o
    0x08000194   0x08000194   0x00000000   Code   RO         8725  * .ARM.Collect$$$$00000000  mc_w.l(entry.o)
    0x08000194   0x08000194   0x00000004   Code   RO         9035    .ARM.Collect$$$$00000001  mc_w.l(entry2.o)
    0x08000198   0x08000198   0x00000004   Code   RO         9038    .ARM.Collect$$$$00000004  mc_w.l(entry5.o)
    0x0800019c   0x0800019c   0x00000000   Code   RO         9040    .ARM.Collect$$$$00000008  mc_w.l(entry7b.o)
    0x0800019c   0x0800019c   0x00000000   Code   RO         9042    .ARM.Collect$$$$0000000A  mc_w.l(entry8b.o)
    0x0800019c   0x0800019c   0x00000008   Code   RO         9043    .ARM.Collect$$$$0000000B  mc_w.l(entry9a.o)
    0x080001a4   0x080001a4   0x00000000   Code   RO         9045    .ARM.Collect$$$$0000000D  mc_w.l(entry10a.o)
    0x080001a4   0x080001a4   0x00000000   Code   RO         9047    .ARM.Collect$$$$0000000F  mc_w.l(entry11a.o)
    0x080001a4   0x080001a4   0x00000004   Code   RO         9036    .ARM.Collect$$$$00002712  mc_w.l(entry2.o)
    0x080001a8   0x080001a8   0x00000024   Code   RO         7028    .text               startup_stm32f401xx.o
    0x080001cc   0x080001cc   0x00000062   Code   RO         8728    .text               mc_w.l(uldiv.o)
    0x0800022e   0x0800022e   0x00000024   Code   RO         8732    .text               mc_w.l(memcpya.o)
    0x08000252   0x08000252   0x00000024   Code   RO         8734    .text               mc_w.l(memseta.o)
    0x08000276   0x08000276   0x0000000e   Code   RO         8736    .text               mc_w.l(strlen.o)
    0x08000284   0x08000284   0x0000001c   Code   RO         8738    .text               mc_w.l(strcmp.o)
    0x080002a0   0x080002a0   0x00000012   Code   RO         8742    .text               mc_w.l(strcpy.o)
    0x080002b2   0x080002b2   0x0000001e   Code   RO         9052    .text               mc_w.l(llshl.o)
    0x080002d0   0x080002d0   0x00000020   Code   RO         9054    .text               mc_w.l(llushr.o)
    0x080002f0   0x080002f0   0x00000024   Code   RO         9069    .text               mc_w.l(init.o)
    0x08000314   0x08000314   0x00000056   Code   RO         9083    .text               mc_w.l(__dczerorl2.o)
    0x0800036a   0x0800036a   0x0000000e   Code   RO         1429    i.BEEP_KeyTone      bsp_beep.o
    0x08000378   0x08000378   0x000000c8   Code   RO         1430    i.BEEP_Pro          bsp_beep.o
    0x08000440   0x08000440   0x00000048   Code   RO         1431    i.BEEP_Start        bsp_beep.o
    0x08000488   0x08000488   0x00000034   Code   RO         1432    i.BEEP_Stop         bsp_beep.o
    0x080004bc   0x080004bc   0x00000004   Code   RO          118    i.BusFault_Handler  stm32f4xx_it.o
    0x080004c0   0x080004c0   0x00000084   Code   RO         1544    i.COM1_Recieve_Callback  bsp_protocol.o
    0x08000544   0x08000544   0x0000002c   Code   RO          660    i.COM1_SendData     bsp_uart_fifo.o
    0x08000570   0x08000570   0x00000074   Code   RO          416    i.CRC16_CCITT       bsp_user_lib.o
    0x080005e4   0x080005e4   0x0000001a   Code   RO         2064    i.CloseFile         iap.o
    0x080005fe   0x080005fe   0x0000002c   Code   RO          905    i.CmdError          bsp_sdio_sd.o
    0x0800062a   0x0800062a   0x00000002   PAD
    0x0800062c   0x0800062c   0x00000134   Code   RO          906    i.CmdResp1Error     bsp_sdio_sd.o
    0x08000760   0x08000760   0x0000004c   Code   RO          907    i.CmdResp2Error     bsp_sdio_sd.o
    0x080007ac   0x080007ac   0x00000038   Code   RO          908    i.CmdResp3Error     bsp_sdio_sd.o
    0x080007e4   0x080007e4   0x0000009c   Code   RO          909    i.CmdResp6Error     bsp_sdio_sd.o
    0x08000880   0x08000880   0x0000004c   Code   RO          910    i.CmdResp7Error     bsp_sdio_sd.o
    0x080008cc   0x080008cc   0x00000034   Code   RO          662    i.ConfigUartNVIC    bsp_uart_fifo.o
    0x08000900   0x08000900   0x0000004a   Code   RO         8314    i.DCD_EP_Close      usb_dcd.o
    0x0800094a   0x0800094a   0x00000048   Code   RO         8315    i.DCD_EP_ClrStall   usb_dcd.o
    0x08000992   0x08000992   0x00000024   Code   RO         8316    i.DCD_EP_Flush      usb_dcd.o
    0x080009b6   0x080009b6   0x00000068   Code   RO         8317    i.DCD_EP_Open       usb_dcd.o
    0x08000a1e   0x08000a1e   0x00000052   Code   RO         8318    i.DCD_EP_PrepareRx  usb_dcd.o
    0x08000a70   0x08000a70   0x0000001c   Code   RO         8319    i.DCD_EP_SetAddress  usb_dcd.o
    0x08000a8c   0x08000a8c   0x00000048   Code   RO         8320    i.DCD_EP_Stall      usb_dcd.o
    0x08000ad4   0x08000ad4   0x0000004e   Code   RO         8321    i.DCD_EP_Tx         usb_dcd.o
    0x08000b22   0x08000b22   0x00000066   Code   RO         8408    i.DCD_HandleEnumDone_ISR  usb_dcd_int.o
    0x08000b88   0x08000b88   0x00000144   Code   RO         8409    i.DCD_HandleInEP_ISR  usb_dcd_int.o
    0x08000ccc   0x08000ccc   0x00000100   Code   RO         8410    i.DCD_HandleOutEP_ISR  usb_dcd_int.o
    0x08000dcc   0x08000dcc   0x00000068   Code   RO         8411    i.DCD_HandleResume_ISR  usb_dcd_int.o
    0x08000e34   0x08000e34   0x000000b0   Code   RO         8412    i.DCD_HandleRxStatusQueueLevel_ISR  usb_dcd_int.o
    0x08000ee4   0x08000ee4   0x0000002c   Code   RO         8413    i.DCD_HandleSof_ISR  usb_dcd_int.o
    0x08000f10   0x08000f10   0x000000a8   Code   RO         8414    i.DCD_HandleUSBSuspend_ISR  usb_dcd_int.o
    0x08000fb8   0x08000fb8   0x00000104   Code   RO         8415    i.DCD_HandleUsbReset_ISR  usb_dcd_int.o
    0x080010bc   0x080010bc   0x0000009c   Code   RO         8323    i.DCD_Init          usb_dcd.o
    0x08001158   0x08001158   0x0000002c   Code   RO         8416    i.DCD_IsoINIncomplete_ISR  usb_dcd_int.o
    0x08001184   0x08001184   0x0000002c   Code   RO         8417    i.DCD_IsoOUTIncomplete_ISR  usb_dcd_int.o
    0x080011b0   0x080011b0   0x00000028   Code   RO         8418    i.DCD_ReadDevInEP   usb_dcd_int.o
    0x080011d8   0x080011d8   0x00000090   Code   RO         8419    i.DCD_WriteEmptyTxFifo  usb_dcd_int.o
    0x08001268   0x08001268   0x00000008   Code   RO          911    i.DMA2_Stream3_IRQHandler  bsp_sdio_sd.o
    0x08001270   0x08001270   0x00000034   Code   RO         3271    i.DMA_ClearFlag     stm32f4xx_dma.o
    0x080012a4   0x080012a4   0x00000016   Code   RO         3273    i.DMA_Cmd           stm32f4xx_dma.o
    0x080012ba   0x080012ba   0x00000002   PAD
    0x080012bc   0x080012bc   0x00000158   Code   RO         3274    i.DMA_DeInit        stm32f4xx_dma.o
    0x08001414   0x08001414   0x00000016   Code   RO         3277    i.DMA_FlowControllerConfig  stm32f4xx_dma.o
    0x0800142a   0x0800142a   0x0000003a   Code   RO         3284    i.DMA_ITConfig      stm32f4xx_dma.o
    0x08001464   0x08001464   0x00000058   Code   RO         3285    i.DMA_Init          stm32f4xx_dma.o
    0x080014bc   0x080014bc   0x00000002   Code   RO          119    i.DebugMon_Handler  stm32f4xx_it.o
    0x080014be   0x080014be   0x00000002   PAD
    0x080014c0   0x080014c0   0x00000088   Code   RO         2010    i.ExtraSubStr       hextobin.o
    0x08001548   0x08001548   0x00000194   Code   RO          912    i.FindSCR           bsp_sdio_sd.o
    0x080016dc   0x080016dc   0x00000090   Code   RO         3917    i.GPIO_Init         stm32f4xx_gpio.o
    0x0800176c   0x0800176c   0x00000046   Code   RO         3918    i.GPIO_PinAFConfig  stm32f4xx_gpio.o
    0x080017b2   0x080017b2   0x0000000a   Code   RO         3929    i.GPIO_WriteBit     stm32f4xx_gpio.o
    0x080017bc   0x080017bc   0x00000058   Code   RO          120    i.HardFault_Handler  stm32f4xx_it.o
    0x08001814   0x08001814   0x00000054   Code   RO         2012    i.HexToDec          hextobin.o
    0x08001868   0x08001868   0x0000049c   Code   RO         2065    i.IAPData           iap.o
    0x08001d04   0x08001d04   0x0000007a   Code   RO         2066    i.IAP_SendCMD       iap.o
    0x08001d7e   0x08001d7e   0x00000002   PAD
    0x08001d80   0x08001d80   0x0000012c   Code   RO         2067    i.IAP_SendData      iap.o
    0x08001eac   0x08001eac   0x00000154   Code   RO          663    i.InitHardUart      bsp_uart_fifo.o
    0x08002000   0x08002000   0x0000003a   Code   RO          430    i.InvertUint16      bsp_user_lib.o
    0x0800203a   0x0800203a   0x0000003a   Code   RO          432    i.InvertUint8       bsp_user_lib.o
    0x08002074   0x08002074   0x00000018   Code   RO          376    i.IsKeyDown1        bsp_key.o
    0x0800208c   0x0800208c   0x00000044   Code   RO         8021    i.MSC_BOT_Abort     usbd_msc_bot.o
    0x080020d0   0x080020d0   0x000000d0   Code   RO         8022    i.MSC_BOT_CBW_Decode  usbd_msc_bot.o
    0x080021a0   0x080021a0   0x0000003c   Code   RO         8023    i.MSC_BOT_CplClrFeature  usbd_msc_bot.o
    0x080021dc   0x080021dc   0x00000050   Code   RO         8024    i.MSC_BOT_DataIn    usbd_msc_bot.o
    0x0800222c   0x0800222c   0x00000044   Code   RO         8025    i.MSC_BOT_DataOut   usbd_msc_bot.o
    0x08002270   0x08002270   0x0000000c   Code   RO         8026    i.MSC_BOT_DeInit    usbd_msc_bot.o
    0x0800227c   0x0800227c   0x00000048   Code   RO         8027    i.MSC_BOT_Init      usbd_msc_bot.o
    0x080022c4   0x080022c4   0x0000002c   Code   RO         8028    i.MSC_BOT_Reset     usbd_msc_bot.o
    0x080022f0   0x080022f0   0x00000040   Code   RO         8029    i.MSC_BOT_SendCSW   usbd_msc_bot.o
    0x08002330   0x08002330   0x00000048   Code   RO         8030    i.MSC_BOT_SendData  usbd_msc_bot.o
    0x08002378   0x08002378   0x00000004   Code   RO          121    i.MemManage_Handler  stm32f4xx_it.o
    0x0800237c   0x0800237c   0x00000002   Code   RO          122    i.NMI_Handler       stm32f4xx_it.o
    0x0800237e   0x0800237e   0x00000002   PAD
    0x08002380   0x08002380   0x00000078   Code   RO         2186    i.NVIC_Init         misc.o
    0x080023f8   0x080023f8   0x00000014   Code   RO         2187    i.NVIC_PriorityGroupConfig  misc.o
    0x0800240c   0x0800240c   0x00000044   Code   RO         1173    i.OLED_BufToPanel   bsp_oled.o
    0x08002450   0x08002450   0x00000030   Code   RO         1174    i.OLED_ClrScr       bsp_oled.o
    0x08002480   0x08002480   0x00000070   Code   RO         1175    i.OLED_ConfigGPIO   bsp_oled.o
    0x080024f0   0x080024f0   0x00000022   Code   RO         1177    i.OLED_DispOn       bsp_oled.o
    0x08002512   0x08002512   0x00000002   PAD
    0x08002514   0x08002514   0x0000024c   Code   RO         1178    i.OLED_DispStr      bsp_oled.o
    0x08002760   0x08002760   0x000000d4   Code   RO         1186    i.OLED_InitHard     bsp_oled.o
    0x08002834   0x08002834   0x000000b0   Code   RO         1187    i.OLED_PutPixel     bsp_oled.o
    0x080028e4   0x080028e4   0x0000002a   Code   RO         1190    i.OLED_Set_Pos      bsp_oled.o
    0x0800290e   0x0800290e   0x00000002   PAD
    0x08002910   0x08002910   0x0000004c   Code   RO         1192    i.OLED_WriteCmd     bsp_oled.o
    0x0800295c   0x0800295c   0x0000004c   Code   RO         1193    i.OLED_WriteData    bsp_oled.o
    0x080029a8   0x080029a8   0x00000010   Code   RO         7505    i.OTG_FS_IRQHandler  usb_it.o
    0x080029b8   0x080029b8   0x0000022c   Code   RO         2068    i.OpenFile          iap.o
    0x08002be4   0x08002be4   0x00000002   Code   RO          123    i.PendSV_Handler    stm32f4xx_it.o
    0x08002be6   0x08002be6   0x00000002   PAD
    0x08002be8   0x08002be8   0x000001e8   Code   RO         1827    i.PrintfLogo        main.o
    0x08002dd0   0x08002dd0   0x00000020   Code   RO         4858    i.RCC_AHB1PeriphClockCmd  stm32f4xx_rcc.o
    0x08002df0   0x08002df0   0x00000020   Code   RO         4861    i.RCC_AHB2PeriphClockCmd  stm32f4xx_rcc.o
    0x08002e10   0x08002e10   0x00000020   Code   RO         4864    i.RCC_APB1PeriphClockCmd  stm32f4xx_rcc.o
    0x08002e30   0x08002e30   0x00000020   Code   RO         4867    i.RCC_APB2PeriphClockCmd  stm32f4xx_rcc.o
    0x08002e50   0x08002e50   0x00000020   Code   RO         4869    i.RCC_APB2PeriphResetCmd  stm32f4xx_rcc.o
    0x08002e70   0x08002e70   0x000000e8   Code   RO         4876    i.RCC_GetClocksFreq  stm32f4xx_rcc.o
    0x08002f58   0x08002f58   0x0000002c   Code   RO         8200    i.SCSI_CheckAddressRange  usbd_msc_scsi.o
    0x08002f84   0x08002f84   0x00000058   Code   RO         8201    i.SCSI_Inquiry      usbd_msc_scsi.o
    0x08002fdc   0x08002fdc   0x00000030   Code   RO         8202    i.SCSI_ModeSense10  usbd_msc_scsi.o
    0x0800300c   0x0800300c   0x00000030   Code   RO         8203    i.SCSI_ModeSense6   usbd_msc_scsi.o
    0x0800303c   0x0800303c   0x000000d8   Code   RO         8204    i.SCSI_ProcessCmd   usbd_msc_scsi.o
    0x08003114   0x08003114   0x000000b8   Code   RO         8205    i.SCSI_ProcessRead  usbd_msc_scsi.o
    0x080031cc   0x080031cc   0x000000cc   Code   RO         8206    i.SCSI_ProcessWrite  usbd_msc_scsi.o
    0x08003298   0x08003298   0x000000f0   Code   RO         8207    i.SCSI_Read10       usbd_msc_scsi.o
    0x08003388   0x08003388   0x0000008c   Code   RO         8208    i.SCSI_ReadCapacity10  usbd_msc_scsi.o
    0x08003414   0x08003414   0x00000088   Code   RO         8209    i.SCSI_ReadFormatCapacity  usbd_msc_scsi.o
    0x0800349c   0x0800349c   0x00000098   Code   RO         8210    i.SCSI_RequestSense  usbd_msc_scsi.o
    0x08003534   0x08003534   0x0000003c   Code   RO         8211    i.SCSI_SenseCode    usbd_msc_scsi.o
    0x08003570   0x08003570   0x00000010   Code   RO         8212    i.SCSI_StartStopUnit  usbd_msc_scsi.o
    0x08003580   0x08003580   0x00000050   Code   RO         8213    i.SCSI_TestUnitReady  usbd_msc_scsi.o
    0x080035d0   0x080035d0   0x00000050   Code   RO         8214    i.SCSI_Verify10     usbd_msc_scsi.o
    0x08003620   0x08003620   0x00000134   Code   RO         8215    i.SCSI_Write10      usbd_msc_scsi.o
    0x08003754   0x08003754   0x0000011c   Code   RO          914    i.SDEnWideBus       bsp_sdio_sd.o
    0x08003870   0x08003870   0x0000000c   Code   RO         5717    i.SDIO_ClearFlag    stm32f4xx_sdio.o
    0x0800387c   0x0800387c   0x0000000c   Code   RO         5718    i.SDIO_ClearITPendingBit  stm32f4xx_sdio.o
    0x08003888   0x08003888   0x0000000c   Code   RO         5719    i.SDIO_ClockCmd     stm32f4xx_sdio.o
    0x08003894   0x08003894   0x0000000c   Code   RO         5722    i.SDIO_DMACmd       stm32f4xx_sdio.o
    0x080038a0   0x080038a0   0x00000034   Code   RO         5723    i.SDIO_DataConfig   stm32f4xx_sdio.o
    0x080038d4   0x080038d4   0x00000016   Code   RO         5725    i.SDIO_DeInit       stm32f4xx_sdio.o
    0x080038ea   0x080038ea   0x00000002   PAD
    0x080038ec   0x080038ec   0x0000000c   Code   RO         5726    i.SDIO_GetCommandResponse  stm32f4xx_sdio.o
    0x080038f8   0x080038f8   0x00000018   Code   RO         5729    i.SDIO_GetFlagStatus  stm32f4xx_sdio.o
    0x08003910   0x08003910   0x00000018   Code   RO         5730    i.SDIO_GetITStatus  stm32f4xx_sdio.o
    0x08003928   0x08003928   0x00000010   Code   RO         5731    i.SDIO_GetPowerState  stm32f4xx_sdio.o
    0x08003938   0x08003938   0x00000018   Code   RO         5732    i.SDIO_GetResponse  stm32f4xx_sdio.o
    0x08003950   0x08003950   0x00000008   Code   RO          915    i.SDIO_IRQHandler   bsp_sdio_sd.o
    0x08003958   0x08003958   0x00000020   Code   RO         5733    i.SDIO_ITConfig     stm32f4xx_sdio.o
    0x08003978   0x08003978   0x00000030   Code   RO         5734    i.SDIO_Init         stm32f4xx_sdio.o
    0x080039a8   0x080039a8   0x0000003a   Code   RO          916    i.SDIO_Interrupts_Config  bsp_sdio_sd.o
    0x080039e2   0x080039e2   0x00000002   PAD
    0x080039e4   0x080039e4   0x0000000c   Code   RO         5735    i.SDIO_ReadData     stm32f4xx_sdio.o
    0x080039f0   0x080039f0   0x0000002c   Code   RO         5737    i.SDIO_SendCommand  stm32f4xx_sdio.o
    0x08003a1c   0x08003a1c   0x0000000c   Code   RO         5739    i.SDIO_SetPowerState  stm32f4xx_sdio.o
    0x08003a28   0x08003a28   0x0000000c   Code   RO          918    i.SD_Detect         bsp_sdio_sd.o
    0x08003a34   0x08003a34   0x00000090   Code   RO          919    i.SD_EnableWideBusOperation  bsp_sdio_sd.o
    0x08003ac4   0x08003ac4   0x0000030c   Code   RO          921    i.SD_GetCardInfo    bsp_sdio_sd.o
    0x08003dd0   0x08003dd0   0x00000026   Code   RO          923    i.SD_GetState       bsp_sdio_sd.o
    0x08003df6   0x08003df6   0x0000001e   Code   RO          924    i.SD_GetStatus      bsp_sdio_sd.o
    0x08003e14   0x08003e14   0x00000088   Code   RO          926    i.SD_Init           bsp_sdio_sd.o
    0x08003e9c   0x08003e9c   0x0000013c   Code   RO          927    i.SD_InitializeCards  bsp_sdio_sd.o
    0x08003fd8   0x08003fd8   0x0000008c   Code   RO          928    i.SD_LowLevel_DMA_RxConfig  bsp_sdio_sd.o
    0x08004064   0x08004064   0x00000090   Code   RO          929    i.SD_LowLevel_DMA_TxConfig  bsp_sdio_sd.o
    0x080040f4   0x080040f4   0x000000c4   Code   RO          931    i.SD_LowLevel_Init  bsp_sdio_sd.o
    0x080041b8   0x080041b8   0x000001a0   Code   RO          933    i.SD_PowerON        bsp_sdio_sd.o
    0x08004358   0x08004358   0x00000028   Code   RO          934    i.SD_ProcessDMAIRQ  bsp_sdio_sd.o
    0x08004380   0x08004380   0x000000ac   Code   RO          935    i.SD_ProcessIRQSrc  bsp_sdio_sd.o
    0x0800442c   0x0800442c   0x000000e0   Code   RO          936    i.SD_ReadBlock      bsp_sdio_sd.o
    0x0800450c   0x0800450c   0x000000e8   Code   RO          937    i.SD_ReadMultiBlocks  bsp_sdio_sd.o
    0x080045f4   0x080045f4   0x00000034   Code   RO          938    i.SD_SelectDeselect  bsp_sdio_sd.o
    0x08004628   0x08004628   0x00000054   Code   RO          940    i.SD_SendStatus     bsp_sdio_sd.o
    0x0800467c   0x0800467c   0x00000034   Code   RO          941    i.SD_StopTransfer   bsp_sdio_sd.o
    0x080046b0   0x080046b0   0x00000080   Code   RO          942    i.SD_WaitReadOperation  bsp_sdio_sd.o
    0x08004730   0x08004730   0x00000080   Code   RO          943    i.SD_WaitWriteOperation  bsp_sdio_sd.o
    0x080047b0   0x080047b0   0x000000dc   Code   RO          944    i.SD_WriteBlock     bsp_sdio_sd.o
    0x0800488c   0x0800488c   0x00000148   Code   RO          945    i.SD_WriteMultiBlocks  bsp_sdio_sd.o
    0x080049d4   0x080049d4   0x00000012   Code   RO         7312    i.SD_disk_initialize  diskio.o
    0x080049e6   0x080049e6   0x00000018   Code   RO         5941    i.SPI_Cmd           stm32f4xx_spi.o
    0x080049fe   0x080049fe   0x00000012   Code   RO         5949    i.SPI_I2S_GetFlagStatus  stm32f4xx_spi.o
    0x08004a10   0x08004a10   0x00000006   Code   RO         5952    i.SPI_I2S_ReceiveData  stm32f4xx_spi.o
    0x08004a16   0x08004a16   0x00000004   Code   RO         5953    i.SPI_I2S_SendData  stm32f4xx_spi.o
    0x08004a1a   0x08004a1a   0x0000003c   Code   RO         5954    i.SPI_Init          stm32f4xx_spi.o
    0x08004a56   0x08004a56   0x00000002   PAD
    0x08004a58   0x08004a58   0x0000005c   Code   RO         7610    i.STORAGE_GetCapacity  usbd_storage_msd.o
    0x08004ab4   0x08004ab4   0x00000004   Code   RO         7611    i.STORAGE_GetMaxLun  usbd_storage_msd.o
    0x08004ab8   0x08004ab8   0x00000034   Code   RO         7612    i.STORAGE_Init      usbd_storage_msd.o
    0x08004aec   0x08004aec   0x00000034   Code   RO         7613    i.STORAGE_IsReady   usbd_storage_msd.o
    0x08004b20   0x08004b20   0x00000030   Code   RO         7614    i.STORAGE_IsWriteProtected  usbd_storage_msd.o
    0x08004b50   0x08004b50   0x00000040   Code   RO         7615    i.STORAGE_Read      usbd_storage_msd.o
    0x08004b90   0x08004b90   0x00000040   Code   RO         7616    i.STORAGE_Write     usbd_storage_msd.o
    0x08004bd0   0x08004bd0   0x00000002   Code   RO          124    i.SVC_Handler       stm32f4xx_it.o
    0x08004bd2   0x08004bd2   0x00000002   PAD
    0x08004bd4   0x08004bd4   0x000000e8   Code   RO         6987    i.SetSysClock       system_stm32f4xx.o
    0x08004cbc   0x08004cbc   0x00000008   Code   RO          790    i.SysTick_Handler   bsp_timer.o
    0x08004cc4   0x08004cc4   0x00000084   Code   RO          791    i.SysTick_ISR       bsp_timer.o
    0x08004d48   0x08004d48   0x00000068   Code   RO         6989    i.SystemInit        system_stm32f4xx.o
    0x08004db0   0x08004db0   0x000000a0   Code   RO          792    i.TIM5_IRQHandler   bsp_timer.o
    0x08004e50   0x08004e50   0x00000018   Code   RO         6167    i.TIM_ARRPreloadConfig  stm32f4xx_tim.o
    0x08004e68   0x08004e68   0x00000006   Code   RO         6174    i.TIM_ClearITPendingBit  stm32f4xx_tim.o
    0x08004e6e   0x08004e6e   0x00000018   Code   RO         6179    i.TIM_Cmd           stm32f4xx_tim.o
    0x08004e86   0x08004e86   0x0000001e   Code   RO         6181    i.TIM_CtrlPWMOutputs  stm32f4xx_tim.o
    0x08004ea4   0x08004ea4   0x00000022   Code   RO         6200    i.TIM_GetITStatus   stm32f4xx_tim.o
    0x08004ec6   0x08004ec6   0x00000012   Code   RO         6204    i.TIM_ITConfig      stm32f4xx_tim.o
    0x08004ed8   0x08004ed8   0x0000007c   Code   RO         6208    i.TIM_OC1Init       stm32f4xx_tim.o
    0x08004f54   0x08004f54   0x00000012   Code   RO         6211    i.TIM_OC1PreloadConfig  stm32f4xx_tim.o
    0x08004f66   0x08004f66   0x00000002   PAD
    0x08004f68   0x08004f68   0x000000a4   Code   RO         6213    i.TIM_OC2Init       stm32f4xx_tim.o
    0x0800500c   0x0800500c   0x0000001a   Code   RO         6216    i.TIM_OC2PreloadConfig  stm32f4xx_tim.o
    0x08005026   0x08005026   0x00000002   PAD
    0x08005028   0x08005028   0x000000a0   Code   RO         6218    i.TIM_OC3Init       stm32f4xx_tim.o
    0x080050c8   0x080050c8   0x00000012   Code   RO         6221    i.TIM_OC3PreloadConfig  stm32f4xx_tim.o
    0x080050da   0x080050da   0x00000002   PAD
    0x080050dc   0x080050dc   0x00000078   Code   RO         6223    i.TIM_OC4Init       stm32f4xx_tim.o
    0x08005154   0x08005154   0x0000001a   Code   RO         6225    i.TIM_OC4PreloadConfig  stm32f4xx_tim.o
    0x0800516e   0x0800516e   0x00000002   PAD
    0x08005170   0x08005170   0x00000084   Code   RO         6251    i.TIM_TimeBaseInit  stm32f4xx_tim.o
    0x080051f4   0x080051f4   0x00000084   Code   RO         2014    i.Test_Hex2Bin      hextobin.o
    0x08005278   0x08005278   0x000000e0   Code   RO         2015    i.TranHex           hextobin.o
    0x08005358   0x08005358   0x00000010   Code   RO          664    i.USART1_IRQHandler  bsp_uart_fifo.o
    0x08005368   0x08005368   0x00000010   Code   RO          665    i.USART6_IRQHandler  bsp_uart_fifo.o
    0x08005378   0x08005378   0x00000012   Code   RO         6729    i.USART_ClearFlag   stm32f4xx_usart.o
    0x0800538a   0x0800538a   0x00000018   Code   RO         6733    i.USART_Cmd         stm32f4xx_usart.o
    0x080053a2   0x080053a2   0x0000001a   Code   RO         6736    i.USART_GetFlagStatus  stm32f4xx_usart.o
    0x080053bc   0x080053bc   0x00000054   Code   RO         6737    i.USART_GetITStatus  stm32f4xx_usart.o
    0x08005410   0x08005410   0x0000004a   Code   RO         6739    i.USART_ITConfig    stm32f4xx_usart.o
    0x0800545a   0x0800545a   0x00000002   PAD
    0x0800545c   0x0800545c   0x000000d4   Code   RO         6740    i.USART_Init        stm32f4xx_usart.o
    0x08005530   0x08005530   0x0000000a   Code   RO         6747    i.USART_ReceiveData  stm32f4xx_usart.o
    0x0800553a   0x0800553a   0x00000008   Code   RO         6750    i.USART_SendData    stm32f4xx_usart.o
    0x08005542   0x08005542   0x00000016   Code   RO         7760    i.USBD_ClrCfg       usbd_core.o
    0x08005558   0x08005558   0x00000048   Code   RO         7918    i.USBD_ClrFeature   usbd_req.o
    0x080055a0   0x080055a0   0x0000001e   Code   RO         7858    i.USBD_CtlContinueRx  usbd_ioreq.o
    0x080055be   0x080055be   0x0000001e   Code   RO         7859    i.USBD_CtlContinueSendData  usbd_ioreq.o
    0x080055dc   0x080055dc   0x0000001e   Code   RO         7919    i.USBD_CtlError     usbd_req.o
    0x080055fa   0x080055fa   0x00000024   Code   RO         7861    i.USBD_CtlReceiveStatus  usbd_ioreq.o
    0x0800561e   0x0800561e   0x0000002e   Code   RO         7862    i.USBD_CtlSendData  usbd_ioreq.o
    0x0800564c   0x0800564c   0x00000024   Code   RO         7863    i.USBD_CtlSendStatus  usbd_ioreq.o
    0x08005670   0x08005670   0x000000d0   Code   RO         7761    i.USBD_DataInStage  usbd_core.o
    0x08005740   0x08005740   0x00000096   Code   RO         7762    i.USBD_DataOutStage  usbd_core.o
    0x080057d6   0x080057d6   0x00000006   Code   RO         7763    i.USBD_DeInit       usbd_core.o
    0x080057dc   0x080057dc   0x00000054   Code   RO         7920    i.USBD_GetConfig    usbd_req.o
    0x08005830   0x08005830   0x00000122   Code   RO         7921    i.USBD_GetDescriptor  usbd_req.o
    0x08005952   0x08005952   0x00000014   Code   RO         7922    i.USBD_GetLen       usbd_req.o
    0x08005966   0x08005966   0x00000014   Code   RO         7864    i.USBD_GetRxCount   usbd_ioreq.o
    0x0800597a   0x0800597a   0x00000002   PAD
    0x0800597c   0x0800597c   0x00000050   Code   RO         7923    i.USBD_GetStatus    usbd_req.o
    0x080059cc   0x080059cc   0x00000052   Code   RO         7924    i.USBD_GetString    usbd_req.o
    0x08005a1e   0x08005a1e   0x00000042   Code   RO         7764    i.USBD_Init         usbd_core.o
    0x08005a60   0x08005a60   0x00000012   Code   RO         7765    i.USBD_IsoINIncomplete  usbd_core.o
    0x08005a72   0x08005a72   0x00000012   Code   RO         7766    i.USBD_IsoOUTIncomplete  usbd_core.o
    0x08005a84   0x08005a84   0x00000012   Code   RO         8112    i.USBD_MSC_DataIn   usbd_msc_core.o
    0x08005a96   0x08005a96   0x00000012   Code   RO         8113    i.USBD_MSC_DataOut  usbd_msc_core.o
    0x08005aa8   0x08005aa8   0x00000020   Code   RO         8114    i.USBD_MSC_DeInit   usbd_msc_core.o
    0x08005ac8   0x08005ac8   0x00000010   Code   RO         8115    i.USBD_MSC_GetCfgDesc  usbd_msc_core.o
    0x08005ad8   0x08005ad8   0x00000030   Code   RO         8116    i.USBD_MSC_Init     usbd_msc_core.o
    0x08005b08   0x08005b08   0x00000120   Code   RO         8117    i.USBD_MSC_Setup    usbd_msc_core.o
    0x08005c28   0x08005c28   0x000000e0   Code   RO         8420    i.USBD_OTG_ISR_Handler  usb_dcd_int.o
    0x08005d08   0x08005d08   0x00000048   Code   RO         7925    i.USBD_ParseSetupRequest  usbd_req.o
    0x08005d50   0x08005d50   0x00000032   Code   RO         7767    i.USBD_Reset        usbd_core.o
    0x08005d82   0x08005d82   0x0000001e   Code   RO         7768    i.USBD_Resume       usbd_core.o
    0x08005da0   0x08005da0   0x00000014   Code   RO         7769    i.USBD_RunTestMode  usbd_core.o
    0x08005db4   0x08005db4   0x0000001a   Code   RO         7770    i.USBD_SOF          usbd_core.o
    0x08005dce   0x08005dce   0x0000005c   Code   RO         7926    i.USBD_SetAddress   usbd_req.o
    0x08005e2a   0x08005e2a   0x0000001e   Code   RO         7771    i.USBD_SetCfg       usbd_core.o
    0x08005e48   0x08005e48   0x000000d0   Code   RO         7927    i.USBD_SetConfig    usbd_req.o
    0x08005f18   0x08005f18   0x000000a4   Code   RO         7928    i.USBD_SetFeature   usbd_req.o
    0x08005fbc   0x08005fbc   0x00000054   Code   RO         7772    i.USBD_SetupStage   usbd_core.o
    0x08006010   0x08006010   0x00000072   Code   RO         7929    i.USBD_StdDevReq    usbd_req.o
    0x08006082   0x08006082   0x00000002   PAD
    0x08006084   0x08006084   0x0000015c   Code   RO         7930    i.USBD_StdEPReq     usbd_req.o
    0x080061e0   0x080061e0   0x0000004c   Code   RO         7931    i.USBD_StdItfReq    usbd_req.o
    0x0800622c   0x0800622c   0x00000020   Code   RO         7773    i.USBD_Suspend      usbd_core.o
    0x0800624c   0x0800624c   0x00000034   Code   RO         7540    i.USBD_USR_ConfigStrDescriptor  usbd_desc.o
    0x08006280   0x08006280   0x00000028   Code   RO         7680    i.USBD_USR_DeviceConfigured  usbd_usr.o
    0x080062a8   0x080062a8   0x00000028   Code   RO         7681    i.USBD_USR_DeviceConnected  usbd_usr.o
    0x080062d0   0x080062d0   0x00000010   Code   RO         7541    i.USBD_USR_DeviceDescriptor  usbd_desc.o
    0x080062e0   0x080062e0   0x0000002c   Code   RO         7682    i.USBD_USR_DeviceDisconnected  usbd_usr.o
    0x0800630c   0x0800630c   0x00000098   Code   RO         7683    i.USBD_USR_DeviceReset  usbd_usr.o
    0x080063a4   0x080063a4   0x00000020   Code   RO         7684    i.USBD_USR_DeviceResumed  usbd_usr.o
    0x080063c4   0x080063c4   0x00000028   Code   RO         7685    i.USBD_USR_DeviceSuspended  usbd_usr.o
    0x080063ec   0x080063ec   0x00000020   Code   RO         7686    i.USBD_USR_Init     usbd_usr.o
    0x0800640c   0x0800640c   0x00000038   Code   RO         7542    i.USBD_USR_InterfaceStrDescriptor  usbd_desc.o
    0x08006444   0x08006444   0x00000010   Code   RO         7543    i.USBD_USR_LangIDStrDescriptor  usbd_desc.o
    0x08006454   0x08006454   0x0000002c   Code   RO         7544    i.USBD_USR_ManufacturerStrDescriptor  usbd_desc.o
    0x08006480   0x08006480   0x00000058   Code   RO         7545    i.USBD_USR_ProductStrDescriptor  usbd_desc.o
    0x080064d8   0x080064d8   0x00000048   Code   RO         7546    i.USBD_USR_SerialStrDescriptor  usbd_desc.o
    0x08006520   0x08006520   0x0000002c   Code   RO         7463    i.USB_OTG_BSP_EnableInterrupt  usb_bsp.o
    0x0800654c   0x0800654c   0x0000005c   Code   RO         7464    i.USB_OTG_BSP_Init  usb_bsp.o
    0x080065a8   0x080065a8   0x00000012   Code   RO         7465    i.USB_OTG_BSP_mDelay  usb_bsp.o
    0x080065ba   0x080065ba   0x00000016   Code   RO         7466    i.USB_OTG_BSP_uDelay  usb_bsp.o
    0x080065d0   0x080065d0   0x00000126   Code   RO         8497    i.USB_OTG_CoreInit  usb_core.o
    0x080066f6   0x080066f6   0x0000020a   Code   RO         8498    i.USB_OTG_CoreInitDev  usb_core.o
    0x08006900   0x08006900   0x00000070   Code   RO         8499    i.USB_OTG_CoreReset  usb_core.o
    0x08006970   0x08006970   0x00000022   Code   RO         8500    i.USB_OTG_DisableGlobalInt  usb_core.o
    0x08006992   0x08006992   0x0000006a   Code   RO         8501    i.USB_OTG_EP0Activate  usb_core.o
    0x080069fc   0x080069fc   0x00000156   Code   RO         8502    i.USB_OTG_EP0StartXfer  usb_core.o
    0x08006b52   0x08006b52   0x00000062   Code   RO         8503    i.USB_OTG_EP0_OutStart  usb_core.o
    0x08006bb4   0x08006bb4   0x00000098   Code   RO         8504    i.USB_OTG_EPActivate  usb_core.o
    0x08006c4c   0x08006c4c   0x00000050   Code   RO         8505    i.USB_OTG_EPClearStall  usb_core.o
    0x08006c9c   0x08006c9c   0x0000005e   Code   RO         8506    i.USB_OTG_EPDeactivate  usb_core.o
    0x08006cfa   0x08006cfa   0x00000064   Code   RO         8507    i.USB_OTG_EPSetStall  usb_core.o
    0x08006d5e   0x08006d5e   0x000001f6   Code   RO         8508    i.USB_OTG_EPStartXfer  usb_core.o
    0x08006f54   0x08006f54   0x00000034   Code   RO         8509    i.USB_OTG_EnableCommonInt  usb_core.o
    0x08006f88   0x08006f88   0x0000009a   Code   RO         8510    i.USB_OTG_EnableDevInt  usb_core.o
    0x08007022   0x08007022   0x00000022   Code   RO         8511    i.USB_OTG_EnableGlobalInt  usb_core.o
    0x08007044   0x08007044   0x0000004c   Code   RO         8512    i.USB_OTG_FlushRxFifo  usb_core.o
    0x08007090   0x08007090   0x00000054   Code   RO         8513    i.USB_OTG_FlushTxFifo  usb_core.o
    0x080070e4   0x080070e4   0x00000034   Code   RO         8514    i.USB_OTG_GetDeviceSpeed  usb_core.o
    0x08007118   0x08007118   0x0000000c   Code   RO         8516    i.USB_OTG_GetMode   usb_core.o
    0x08007124   0x08007124   0x00000018   Code   RO         8517    i.USB_OTG_InitDevSpeed  usb_core.o
    0x0800713c   0x0800713c   0x00000016   Code   RO         8518    i.USB_OTG_IsDeviceMode  usb_core.o
    0x08007152   0x08007152   0x00000010   Code   RO         8520    i.USB_OTG_ReadCoreItr  usb_core.o
    0x08007162   0x08007162   0x00000010   Code   RO         8521    i.USB_OTG_ReadDevAllInEPItr  usb_core.o
    0x08007172   0x08007172   0x00000010   Code   RO         8522    i.USB_OTG_ReadDevAllOutEp_itr  usb_core.o
    0x08007182   0x08007182   0x00000014   Code   RO         8523    i.USB_OTG_ReadDevOutEP_itr  usb_core.o
    0x08007196   0x08007196   0x00000028   Code   RO         8525    i.USB_OTG_ReadPacket  usb_core.o
    0x080071be   0x080071be   0x00000002   PAD
    0x080071c0   0x080071c0   0x000000d0   Code   RO         8526    i.USB_OTG_SelectCore  usb_core.o
    0x08007290   0x08007290   0x0000004e   Code   RO         8527    i.USB_OTG_SetCurrentMode  usb_core.o
    0x080072de   0x080072de   0x00000040   Code   RO         8531    i.USB_OTG_WritePacket  usb_core.o
    0x0800731e   0x0800731e   0x00000002   PAD
    0x08007320   0x08007320   0x000000f0   Code   RO          667    i.UartIRQ           bsp_uart_fifo.o
    0x08007410   0x08007410   0x00000078   Code   RO          669    i.UartVarInit       bsp_uart_fifo.o
    0x08007488   0x08007488   0x00000004   Code   RO          125    i.UsageFault_Handler  stm32f4xx_it.o
    0x0800748c   0x0800748c   0x00000020   Code   RO         8953    i.__0printf$8       mc_w.l(printf8.o)
    0x080074ac   0x080074ac   0x0000000e   Code   RO         9077    i.__scatterload_copy  mc_w.l(handlers.o)
    0x080074ba   0x080074ba   0x00000002   Code   RO         9078    i.__scatterload_null  mc_w.l(handlers.o)
    0x080074bc   0x080074bc   0x0000000e   Code   RO         9079    i.__scatterload_zeroinit  mc_w.l(handlers.o)
    0x080074ca   0x080074ca   0x00000006   Code   RO          793    i.__set_PRIMASK     bsp_timer.o
    0x080074d0   0x080074d0   0x00000410   Code   RO         8960    i._printf_core      mc_w.l(printf8.o)
    0x080078e0   0x080078e0   0x00000024   Code   RO         8961    i._printf_post_padding  mc_w.l(printf8.o)
    0x08007904   0x08007904   0x0000002e   Code   RO         8962    i._printf_pre_padding  mc_w.l(printf8.o)
    0x08007932   0x08007932   0x00000002   PAD
    0x08007934   0x08007934   0x00000064   Code   RO         1316    i.bsp_CfgSPIForSFlash  bsp_spi_flash.o
    0x08007998   0x08007998   0x00000034   Code   RO          794    i.bsp_CheckTimer    bsp_timer.o
    0x080079cc   0x080079cc   0x00000036   Code   RO         1478    i.bsp_ConfigGpioOut  bsp_tim_pwm.o
    0x08007a02   0x08007a02   0x00000002   PAD
    0x08007a04   0x08007a04   0x000000ac   Code   RO         1479    i.bsp_ConfigTimGpio  bsp_tim_pwm.o
    0x08007ab0   0x08007ab0   0x00000044   Code   RO          795    i.bsp_DelayMS       bsp_timer.o
    0x08007af4   0x08007af4   0x000000bc   Code   RO         1480    i.bsp_GetAFofTIM    bsp_tim_pwm.o
    0x08007bb0   0x08007bb0   0x00000092   Code   RO         1481    i.bsp_GetPinSource  bsp_tim_pwm.o
    0x08007c42   0x08007c42   0x00000002   PAD
    0x08007c44   0x08007c44   0x00000084   Code   RO         1482    i.bsp_GetRCCofGPIO  bsp_tim_pwm.o
    0x08007cc8   0x08007cc8   0x000000cc   Code   RO         1483    i.bsp_GetRCCofTIM   bsp_tim_pwm.o
    0x08007d94   0x08007d94   0x00000002   Code   RO          187    i.bsp_Idle          bsp.o
    0x08007d96   0x08007d96   0x00000030   Code   RO          188    i.bsp_Init          bsp.o
    0x08007dc6   0x08007dc6   0x00000002   PAD
    0x08007dc8   0x08007dc8   0x00000068   Code   RO          798    i.bsp_InitHardTimer  bsp_timer.o
    0x08007e30   0x08007e30   0x00000008   Code   RO          377    i.bsp_InitKey       bsp_key.o
    0x08007e38   0x08007e38   0x00000030   Code   RO          378    i.bsp_InitKeyHard   bsp_key.o
    0x08007e68   0x08007e68   0x00000050   Code   RO          612    i.bsp_InitLed       bsp_led.o
    0x08007eb8   0x08007eb8   0x000000a0   Code   RO         1317    i.bsp_InitSFlash    bsp_spi_flash.o
    0x08007f58   0x08007f58   0x0000009c   Code   RO          799    i.bsp_InitTimer     bsp_timer.o
    0x08007ff4   0x08007ff4   0x00000010   Code   RO          671    i.bsp_InitUart      bsp_uart_fifo.o
    0x08008004   0x08008004   0x00000020   Code   RO          614    i.bsp_LedOff        bsp_led.o
    0x08008024   0x08008024   0x0000002c   Code   RO          616    i.bsp_LedToggle     bsp_led.o
    0x08008050   0x08008050   0x0000000e   Code   RO          189    i.bsp_RunPer10ms    bsp.o
    0x0800805e   0x0800805e   0x00000002   PAD
    0x08008060   0x08008060   0x00000044   Code   RO          190    i.bsp_RunPer1ms     bsp.o
    0x080080a4   0x080080a4   0x000001a4   Code   RO         1484    i.bsp_SetTIMOutPWM  bsp_tim_pwm.o
    0x08008248   0x08008248   0x0000001c   Code   RO          800    i.bsp_SoftTimerDec  bsp_timer.o
    0x08008264   0x08008264   0x00000098   Code   RO          801    i.bsp_StartAutoTimer  bsp_timer.o
    0x080082fc   0x080082fc   0x00000090   Code   RO         7032    i.check_fs          ff.o
    0x0800838c   0x0800838c   0x00000014   Code   RO         7033    i.chk_chr           ff.o
    0x080083a0   0x080083a0   0x0000008c   Code   RO         7034    i.chk_lock          ff.o
    0x0800842c   0x0800842c   0x000003a4   Code   RO         7035    i.chk_mounted       ff.o
    0x080087d0   0x080087d0   0x00000018   Code   RO         1546    i.clearBuff         bsp_protocol.o
    0x080087e8   0x080087e8   0x00000030   Code   RO         7036    i.clear_lock        ff.o
    0x08008818   0x08008818   0x0000001a   Code   RO         7037    i.clust2sect        ff.o
    0x08008832   0x08008832   0x000000ca   Code   RO         7038    i.create_chain      ff.o
    0x080088fc   0x080088fc   0x00000158   Code   RO         7039    i.create_name       ff.o
    0x08008a54   0x08008a54   0x0000004c   Code   RO         7040    i.dec_lock          ff.o
    0x08008aa0   0x08008aa0   0x00000056   Code   RO         7041    i.dir_alloc         ff.o
    0x08008af6   0x08008af6   0x0000005c   Code   RO         7042    i.dir_find          ff.o
    0x08008b52   0x08008b52   0x00000114   Code   RO         7043    i.dir_next          ff.o
    0x08008c66   0x08008c66   0x0000003a   Code   RO         7045    i.dir_register      ff.o
    0x08008ca0   0x08008ca0   0x0000009c   Code   RO         7047    i.dir_sdi           ff.o
    0x08008d3c   0x08008d3c   0x00000020   Code   RO         7313    i.disk_initialize   diskio.o
    0x08008d5c   0x08008d5c   0x0000001e   Code   RO         7314    i.disk_ioctl        diskio.o
    0x08008d7a   0x08008d7a   0x0000006e   Code   RO         7315    i.disk_read         diskio.o
    0x08008de8   0x08008de8   0x00000018   Code   RO         7316    i.disk_status       diskio.o
    0x08008e00   0x08008e00   0x00000080   Code   RO         7317    i.disk_write        diskio.o
    0x08008e80   0x08008e80   0x00000028   Code   RO         7048    i.enq_lock          ff.o
    0x08008ea8   0x08008ea8   0x00000020   Code   RO         7050    i.f_close           ff.o
    0x08008ec8   0x08008ec8   0x00000034   Code   RO         7054    i.f_mount           ff.o
    0x08008efc   0x08008efc   0x00000198   Code   RO         7055    i.f_open            ff.o
    0x08009094   0x08009094   0x00000070   Code   RO         7056    i.f_opendir         ff.o
    0x08009104   0x08009104   0x000001ca   Code   RO         7057    i.f_read            ff.o
    0x080092ce   0x080092ce   0x0000003a   Code   RO         7060    i.f_stat            ff.o
    0x08009308   0x08009308   0x000000b0   Code   RO         7061    i.f_sync            ff.o
    0x080093b8   0x080093b8   0x00000092   Code   RO         7066    i.follow_path       ff.o
    0x0800944a   0x0800944a   0x00000002   PAD
    0x0800944c   0x0800944c   0x00000024   Code   RO          678    i.fputc             bsp_uart_fifo.o
    0x08009470   0x08009470   0x000000e4   Code   RO         7067    i.get_fat           ff.o
    0x08009554   0x08009554   0x00000008   Code   RO         7318    i.get_fattime       diskio.o
    0x0800955c   0x0800955c   0x00000098   Code   RO         7068    i.get_fileinfo      ff.o
    0x080095f4   0x080095f4   0x000000dc   Code   RO         7069    i.inc_lock          ff.o
    0x080096d0   0x080096d0   0x0000002c   Code   RO         1547    i.isEmpty           bsp_protocol.o
    0x080096fc   0x080096fc   0x00000038   Code   RO         1548    i.isFull            bsp_protocol.o
    0x08009734   0x08009734   0x00000020   Code   RO         7070    i.ld_clust          ff.o
    0x08009754   0x08009754   0x000000f8   Code   RO         1828    i.main              main.o
    0x0800984c   0x0800984c   0x0000006c   Code   RO         9008    i.malloc            mc_w.l(malloc.o)
    0x080098b8   0x080098b8   0x00000026   Code   RO         7071    i.mem_cmp           ff.o
    0x080098de   0x080098de   0x0000001a   Code   RO         7072    i.mem_cpy           ff.o
    0x080098f8   0x080098f8   0x00000014   Code   RO         7073    i.mem_set           ff.o
    0x0800990c   0x0800990c   0x00000032   Code   RO         7074    i.move_window       ff.o
    0x0800993e   0x0800993e   0x00000002   PAD
    0x08009940   0x08009940   0x00000098   Code   RO         1549    i.popBuff           bsp_protocol.o
    0x080099d8   0x080099d8   0x00000054   Code   RO         1550    i.pushBuff          bsp_protocol.o
    0x08009a2c   0x08009a2c   0x00000136   Code   RO         7075    i.put_fat           ff.o
    0x08009b62   0x08009b62   0x00000068   Code   RO         7076    i.remove_chain      ff.o
    0x08009bca   0x08009bca   0x00000002   PAD
    0x08009bcc   0x08009bcc   0x00000044   Code   RO         1325    i.sf_ReadID         bsp_spi_flash.o
    0x08009c10   0x08009c10   0x00000124   Code   RO         1326    i.sf_ReadInfo       bsp_spi_flash.o
    0x08009d34   0x08009d34   0x00000038   Code   RO         1327    i.sf_SendByte       bsp_spi_flash.o
    0x08009d6c   0x08009d6c   0x0000002c   Code   RO         1328    i.sf_WaitForWriteEnd  bsp_spi_flash.o
    0x08009d98   0x08009d98   0x0000005c   Code   RO         1331    i.sf_WriteStatus    bsp_spi_flash.o
    0x08009df4   0x08009df4   0x00000010   Code   RO         7077    i.st_clust          ff.o
    0x08009e04   0x08009e04   0x000000c8   Code   RO         7078    i.sync_fs           ff.o
    0x08009ecc   0x08009ecc   0x00000052   Code   RO         7079    i.sync_window       ff.o
    0x08009f1e   0x08009f1e   0x00000002   PAD
    0x08009f20   0x08009f20   0x00000024   Code   RO         7688    i.usbd_OpenMassStorage  usbd_usr.o
    0x08009f44   0x08009f44   0x00000036   Code   RO         7080    i.validate          ff.o
    0x08009f7a   0x08009f7a   0x00000030   Data   RO          806    .constdata          bsp_timer.o
    0x08009faa   0x08009faa   0x000005f4   Data   RO         7373    .constdata          asc12.o
    0x0800a59e   0x0800a59e   0x00001000   Data   RO         7380    .constdata          asc16.o
    0x0800b59e   0x0800b59e   0x000001ec   Data   RO         7387    .constdata          asc24.o
    0x0800b78a   0x0800b78a   0x0000028c   Data   RO         7394    .constdata          asc32.o
    0x0800ba16   0x0800ba16   0x00000600   Data   RO         7401    .constdata          hz12.o
    0x0800c016   0x0800c016   0x0000008a   Data   RO         7414    .constdata          hz16.o
    0x0800c0a0   0x0800c0a0   0x0000004c   Data   RO         7427    .constdata          hz24.o
    0x0800c0ec   0x0800c0ec   0x00000084   Data   RO         7440    .constdata          hz32.o
    0x0800c170   0x0800c170   0x00000024   Data   RO         7617    .constdata          usbd_storage_msd.o
    0x0800c194   0x0800c194   0x00000017   Data   RO         8176    .constdata          usbd_msc_data.o
    0x0800c1ab   0x0800c1ab   0x00000001   PAD
    0x0800c1ac   0x0800c1ac   0x00000020   Data   RO         9075    Region$$Table       anon$$obj.o


    Execution Region RW_IRAM1 (Exec base: 0x20000000, Load base: 0x0800c1cc, Size: 0x0000a138, Max: 0x00010000, ABSOLUTE, COMPRESSED[0x000000dc])

    Exec Addr    Load Addr    Size         Type   Attr      Idx    E Section Name        Object

    0x20000000   COMPRESSED   0x0000001d   Data   RW          807    .data               bsp_timer.o
    0x2000001d   COMPRESSED   0x00000003   PAD
    0x20000020   COMPRESSED   0x00000018   Data   RW          948    .data               bsp_sdio_sd.o
    0x20000038   COMPRESSED   0x00000001   Data   RW         1195    .data               bsp_oled.o
    0x20000039   COMPRESSED   0x00000001   PAD
    0x2000003a   COMPRESSED   0x00000006   Data   RW         1552    .data               bsp_protocol.o
    0x20000040   COMPRESSED   0x0000002b   Data   RW         1829    .data               main.o
    0x2000006b   COMPRESSED   0x00000001   PAD
    0x2000006c   COMPRESSED   0x00000014   Data   RW         2070    .data               iap.o
    0x20000080   COMPRESSED   0x00000010   Data   RW         4906    .data               stm32f4xx_rcc.o
    0x20000090   COMPRESSED   0x00000014   Data   RW         6990    .data               system_stm32f4xx.o
    0x200000a4   COMPRESSED   0x00000006   Data   RW         7082    .data               ff.o
    0x200000aa   COMPRESSED   0x00000002   PAD
    0x200000ac   COMPRESSED   0x0000003c   Data   RW         7547    .data               usbd_desc.o
    0x200000e8   COMPRESSED   0x00000029   Data   RW         7618    .data               usbd_storage_msd.o
    0x20000111   COMPRESSED   0x00000003   PAD
    0x20000114   COMPRESSED   0x0000001c   Data   RW         7690    .data               usbd_usr.o
    0x20000130   COMPRESSED   0x00000034   Data   RW         7774    .data               usbd_core.o
    0x20000164   COMPRESSED   0x0000000d   Data   RW         7933    .data               usbd_req.o
    0x20000171   COMPRESSED   0x00000001   PAD
    0x20000172   COMPRESSED   0x00000004   Data   RW         8032    .data               usbd_msc_bot.o
    0x20000176   COMPRESSED   0x00000002   PAD
    0x20000178   COMPRESSED   0x0000004e   Data   RW         8118    .data               usbd_msc_core.o
    0x200001c6   COMPRESSED   0x00000002   PAD
    0x200001c8   COMPRESSED   0x00000018   Data   RW         8217    .data               usbd_msc_scsi.o
    0x200001e0   COMPRESSED   0x00000004   Data   RW         9049    .data               mc_w.l(stdout.o)
    0x200001e4   COMPRESSED   0x00000004   Data   RW         9056    .data               mc_w.l(mvars.o)
    0x200001e8   COMPRESSED   0x00000004   Data   RW         9057    .data               mc_w.l(mvars.o)
    0x200001ec        -       0x00000c74   Zero   RW          679    .bss                bsp_uart_fifo.o
    0x20000e60        -       0x00000030   Zero   RW          805    .bss                bsp_timer.o
    0x20000e90        -       0x000000cc   Zero   RW          947    .bss                bsp_sdio_sd.o
    0x20000f5c        -       0x00000400   Zero   RW         1194    .bss                bsp_oled.o
    0x2000135c        -       0x0000101c   Zero   RW         1332    .bss                bsp_spi_flash.o
    0x20002378        -       0x0000000c   Zero   RW         1433    .bss                bsp_beep.o
    0x20002384        -       0x00000c78   Zero   RW         1551    .bss                bsp_protocol.o
    0x20002ffc        -       0x00001400   Zero   RW         1873    .bss                demo_sdio_fatfs.o
    0x200043fc        -       0x00000490   Zero   RW         2069    .bss                iap.o
    0x2000488c        -       0x00000024   Zero   RW         7081    .bss                ff.o
    0x200048b0        -       0x000005f4   Zero   RW         7689    .bss                usbd_usr.o
    0x20004ea4        -       0x00000040   Zero   RW         7932    .bss                usbd_req.o
    0x20004ee4        -       0x00001030   Zero   RW         8031    .bss                usbd_msc_bot.o
    0x20005f14        -       0x00000020   Zero   RW         8216    .bss                usbd_msc_scsi.o
    0x20005f34   COMPRESSED   0x00000004   PAD
    0x20005f38        -       0x00000200   Zero   RW         7026    HEAP                startup_stm32f401xx.o
    0x20006138        -       0x00004000   Zero   RW         7025    STACK               startup_stm32f401xx.o


==============================================================================

Image component sizes


      Code (inc. data)   RO Data    RW Data    ZI Data      Debug   Object Name

         0          0       1524          0          0        480   asc12.o
         0          0       4096          0          0        480   asc16.o
         0          0        492          0          0        480   asc24.o
         0          0        652          0          0        480   asc32.o
       132         14          0          0          0      32548   bsp.o
       338         28          0          0         12       2587   bsp_beep.o
        80         10          0          0          0       1599   bsp_key.o
       156         24          0          0          0       1675   bsp_led.o
      1432         90          0          1       1024       8174   bsp_oled.o
       492         98          0          6       3192       5209   bsp_protocol.o
      5490        360          0         24        204      35207   bsp_sdio_sd.o
       812        134          0          0       4124       5959   bsp_spi_flash.o
      1316        182          0          0          0       6180   bsp_tim_pwm.o
       866        152         48         29         48      34535   bsp_timer.o
       880         74          0          0       3188       7895   bsp_uart_fifo.o
       232          0          0          0          0       2283   bsp_user_lib.o
         0          0          0          0       5120        705   demo_sdio_fatfs.o
       350          4          0          0          0      12054   diskio.o
      5614         70          0          6         36      34101   ff.o
       576        202          0          0          0       3062   hextobin.o
         0          0       1536          0          0        581   hz12.o
         0          0        138          0          0        581   hz16.o
         0          0         76          0          0        577   hz24.o
         0          0        132          0          0        581   hz32.o
      2184        488          0         20       1168       4527   iap.o
       736        432          0         43          0       2171   main.o
       140         24          0          0          0       1855   misc.o
        36          8        404          0      16896        960   startup_stm32f401xx.o
         0          0          0          0          0     291624   stm32f4xx_assert.o
       586         40          0          0          0       5652   stm32f4xx_dma.o
       224          0          0          0          0       2779   stm32f4xx_gpio.o
       108         48          0          0          0       4108   stm32f4xx_it.o
       392         48          0         16          0       6593   stm32f4xx_rcc.o
       370         80          0          0          0      12226   stm32f4xx_sdio.o
       112          0          0          0          0       4090   stm32f4xx_spi.o
       924         66          0          0          0      11702   stm32f4xx_tim.o
       456          8          0          0          0       6935   stm32f4xx_usart.o
       336         32          0         20          0       2061   system_stm32f4xx.o
       176          6          0          0          0       3027   usb_bsp.o
      3404         18          0          0          0      23456   usb_core.o
       702          0          0          0          0       7367   usb_dcd.o
      1930         50          0          0          0      10511   usb_dcd_int.o
        16          6          0          0          0        556   usb_it.o
       760          6          0         52          0      11764   usbd_core.o
       344        168          0         60          0       6420   usbd_desc.o
       198          0          0          0          0       4962   usbd_ioreq.o
       748        124          0          4       4144       9361   usbd_msc_bot.o
       420         18          0         78          0       5685   usbd_msc_core.o
         0          0         23          0          0        925   usbd_msc_data.o
      2044        278          0         24         32      16165   usbd_msc_scsi.o
      1732         54          0         13         64      11799   usbd_req.o
       376        106         36         41          0       7066   usbd_storage_msd.o
       416        296          0         28       1524       4945   usbd_usr.o

    ----------------------------------------------------------------------
     38694       3846       9190        480      40780     679305   Object Totals
         0          0         32          0          0          0   (incl. Generated)
        58          0          1         15          4          0   (incl. Padding)

    ----------------------------------------------------------------------

      Code (inc. data)   RO Data    RW Data    ZI Data      Debug   Library Member Name

        86          0          0          0          0          0   __dczerorl2.o
         0          0          0          0          0          0   entry.o
         0          0          0          0          0          0   entry10a.o
         0          0          0          0          0          0   entry11a.o
         8          4          0          0          0          0   entry2.o
         4          0          0          0          0          0   entry5.o
         0          0          0          0          0          0   entry7b.o
         0          0          0          0          0          0   entry8b.o
         8          4          0          0          0          0   entry9a.o
        30          0          0          0          0          0   handlers.o
        36          8          0          0          0         68   init.o
        30          0          0          0          0         68   llshl.o
        32          0          0          0          0         68   llushr.o
       108         16          0          0          0         84   malloc.o
        36          0          0          0          0         68   memcpya.o
        36          0          0          0          0        108   memseta.o
         0          0          0          8          0          0   mvars.o
      1154         54          0          0          0        352   printf8.o
         0          0          0          4          0          0   stdout.o
        28          0          0          0          0         76   strcmp.o
        18          0          0          0          0         68   strcpy.o
        14          0          0          0          0         68   strlen.o
        98          0          0          0          0         92   uldiv.o

    ----------------------------------------------------------------------
      1728         86          0         12          0       1120   Library Totals
         2          0          0          0          0          0   (incl. Padding)

    ----------------------------------------------------------------------

      Code (inc. data)   RO Data    RW Data    ZI Data      Debug   Library Name

      1726         86          0         12          0       1120   mc_w.l

    ----------------------------------------------------------------------
      1728         86          0         12          0       1120   Library Totals

    ----------------------------------------------------------------------

==============================================================================


      Code (inc. data)   RO Data    RW Data    ZI Data      Debug   

     40422       3932       9190        492      40780     644089   Grand Totals
     40422       3932       9190        220      40780     644089   ELF Image Totals (compressed)
     40422       3932       9190        220          0          0   ROM Totals

==============================================================================

    Total RO  Size (Code + RO Data)                49612 (  48.45kB)
    Total RW  Size (RW Data + ZI Data)             41272 (  40.30kB)
    Total ROM Size (Code + RO Data + RW Data)      49832 (  48.66kB)

==============================================================================

